{
  "_format": "hh3-artifact-1",
  "contractName": "MinimalVault",
  "sourceName": "src/contracts/hyperevm/MinimalVault.sol",
  "abi": [
    {
      "inputs": [
        {
          "internalType": "address",
          "name": "_aiAgent",
          "type": "address"
        }
      ],
      "stateMutability": "nonpayable",
      "type": "constructor"
    },
    {
      "anonymous": false,
      "inputs": [
        {
          "indexed": true,
          "internalType": "address",
          "name": "user",
          "type": "address"
        },
        {
          "indexed": false,
          "internalType": "uint256",
          "name": "amount",
          "type": "uint256"
        }
      ],
      "name": "Deposit",
      "type": "event"
    },
    {
      "anonymous": false,
      "inputs": [
        {
          "indexed": false,
          "internalType": "uint256",
          "name": "amount",
          "type": "uint256"
        }
      ],
      "name": "TradeAuthorized",
      "type": "event"
    },
    {
      "anonymous": false,
      "inputs": [
        {
          "indexed": false,
          "internalType": "bool",
          "name": "success",
          "type": "bool"
        }
      ],
      "name": "TradeExecuted",
      "type": "event"
    },
    {
      "anonymous": false,
      "inputs": [
        {
          "indexed": true,
          "internalType": "address",
          "name": "user",
          "type": "address"
        },
        {
          "indexed": false,
          "internalType": "uint256",
          "name": "amount",
          "type": "uint256"
        }
      ],
      "name": "Withdraw",
      "type": "event"
    },
    {
      "inputs": [],
      "name": "aiAgent",
      "outputs": [
        {
          "internalType": "address",
          "name": "",
          "type": "address"
        }
      ],
      "stateMutability": "view",
      "type": "function"
    },
    {
      "inputs": [
        {
          "internalType": "uint256",
          "name": "amount",
          "type": "uint256"
        }
      ],
      "name": "authorizeTrade",
      "outputs": [],
      "stateMutability": "nonpayable",
      "type": "function"
    },
    {
      "inputs": [
        {
          "internalType": "address",
          "name": "",
          "type": "address"
        }
      ],
      "name": "balances",
      "outputs": [
        {
          "internalType": "uint256",
          "name": "",
          "type": "uint256"
        }
      ],
      "stateMutability": "view",
      "type": "function"
    },
    {
      "inputs": [],
      "name": "deposit",
      "outputs": [],
      "stateMutability": "payable",
      "type": "function"
    },
    {
      "inputs": [],
      "name": "emergencyWithdraw",
      "outputs": [],
      "stateMutability": "nonpayable",
      "type": "function"
    },
    {
      "inputs": [
        {
          "internalType": "address",
          "name": "target",
          "type": "address"
        },
        {
          "internalType": "bytes",
          "name": "data",
          "type": "bytes"
        }
      ],
      "name": "executeTrade",
      "outputs": [],
      "stateMutability": "nonpayable",
      "type": "function"
    },
    {
      "inputs": [],
      "name": "owner",
      "outputs": [
        {
          "internalType": "address",
          "name": "",
          "type": "address"
        }
      ],
      "stateMutability": "view",
      "type": "function"
    },
    {
      "inputs": [],
      "name": "totalDeposits",
      "outputs": [
        {
          "internalType": "uint256",
          "name": "",
          "type": "uint256"
        }
      ],
      "stateMutability": "view",
      "type": "function"
    },
    {
      "inputs": [],
      "name": "tradingAuthorized",
      "outputs": [
        {
          "internalType": "bool",
          "name": "",
          "type": "bool"
        }
      ],
      "stateMutability": "view",
      "type": "function"
    },
    {
      "inputs": [
        {
          "internalType": "address",
          "name": "newAI",
          "type": "address"
        }
      ],
      "name": "updateAI",
      "outputs": [],
      "stateMutability": "nonpayable",
      "type": "function"
    },
    {
      "inputs": [
        {
          "internalType": "uint256",
          "name": "amount",
          "type": "uint256"
        }
      ],
      "name": "withdraw",
      "outputs": [],
      "stateMutability": "nonpayable",
      "type": "function"
    },
    {
      "stateMutability": "payable",
      "type": "receive"
    }
  ],
  "bytecode": "0x60803461007857601f61070938819003918201601f19168301916001600160401b0383118484101761007c5780849260209460405283398101031261007857516001600160a01b038116908190036100785760018060a01b031933815f5416175f55600154161760015560405161067890816100918239f35b5f80fd5b634e487b7160e01b5f52604160045260245ffdfe608060409080825260049081361015610022575b5050503615610020575f80fd5b005b5f3560e01c90816327e235e314610534575080632e1a7d4d146104395780635db26073146104175780637d882097146103f95780638da5cb5b146103d2578063a6d5b732146103aa578063af9443711461035b578063c54e1fe314610290578063d0e30db0146101f9578063db2e21bc146101a75763e6134c7c146100a75780610013565b346101a357816003193601126101a3576100bf610568565b906024359067ffffffffffffffff908183116101a357366023840112156101a357828101359182116101a35736602483850101116101a35761010b60018060a01b035f541633146105fd565b805460ff81161561016f579360245f7f6bc7bfb16956e190881b463eecca76c20fd19a6e4366b8e4d74b4edc574c21c197958195829560209960ff19169055808851948593018337810182815203925af19061016561059f565b50519015158152a1005b855162461bcd60e51b8152602081840152600e60248201526d139bdd08185d5d1a1bdc9a5e995960921b6044820152606490fd5b5f80fd5b82346101a3575f3660031901126101a3575f80548190819081906001600160a01b03166101d53382146105fd565b47908282156101f0575bf1156101e757005b513d5f823e3d90fd5b506108fc6101df565b505f3660031901126101a357341561025f5750335f526002602052805f20610222348254610635565b905561023034600354610635565b600355513481527fe1fffcc4923d04b559f4d29a8bfc6cda04eb5b0d3c460751c2402c5c5cc9109c60203392a2005b6020606492519162461bcd60e51b8352820152600c60248201526b16995c9bc819195c1bdcda5d60a21b6044820152fd5b50346101a35760203660031901126101a357600154813591906001600160a01b0316330361032f5760035482116102f957805460ff1916600117905590519081527fc00410da416e137b0f0b9c25eabdea3e13db09714eccd45047de2a956a04dd9b90602090a1005b606490602084519162461bcd60e51b8352820152601060248201526f45786365656473206465706f7369747360801b6044820152fd5b606490602084519162461bcd60e51b835282015260066024820152654e6f7420414960d01b6044820152fd5b346101a35760203660031901126101a357610374610568565b5f546001600160a01b03919061038d90831633146105fd565b166bffffffffffffffffffffffff60a01b60015416176001555f80f35b82346101a3575f3660031901126101a35760015490516001600160a01b039091168152602090f35b82346101a3575f3660031901126101a3575f5490516001600160a01b039091168152602090f35b82346101a3575f3660031901126101a3576020906003549051908152f35b5090346101a3575f3660031901126101a35760ff602092541690519015158152f35b50346101a3576020806003193601126101a357813591335f526002825282845f2054106104fc57335f5260028252835f2061047584825461057e565b90556104838360035461057e565b6003555f80808086335af161049661059f565b50156104c957507f884edad9ce6fa2440d8a54cc123490eb96d2768479d49ff9c7366125a94243649192519283523392a2005b60649184519162461bcd60e51b8352820152600f60248201526e151c985b9cd9995c8819985a5b1959608a1b6044820152fd5b60649184519162461bcd60e51b83528201526014602482015273496e73756666696369656e742062616c616e636560601b6044820152fd5b8390346101a35760203660031901126101a3576020916001600160a01b0361055a610568565b165f52600283525f20548152f35b600435906001600160a01b03821682036101a357565b9190820391821161058b57565b634e487b7160e01b5f52601160045260245ffd5b3d156105f85767ffffffffffffffff903d8281116105e45760405192601f8201601f19908116603f01168401908111848210176105e45760405282523d5f602084013e565b634e487b7160e01b5f52604160045260245ffd5b606090565b1561060457565b60405162461bcd60e51b81526020600482015260096024820152682737ba1037bbb732b960b91b6044820152606490fd5b9190820180921161058b5756fea2646970667358221220d4f675a9ba12a26b1db5f847ed2659eaa5d75270bc67ac981ee16bece3d3d21564736f6c63430008180033",
  "linkReferences": {},
  "deployedLinkReferences": {},
  "immutableReferences": {},
  "inputSourceName": "project/src/contracts/hyperevm/MinimalVault.sol",
  "buildInfoId": "solc-0_8_24-79fce3487ea99d878762132c50e86417cccfb34a"
}