{"project/src/contracts/hyperevm/MinimalVault.sol":{"MinimalVault":{"abi":[{"inputs":[{"internalType":"address","name":"_aiAgent","type":"address"}],"stateMutability":"nonpayable","type":"constructor"},{"anonymous":false,"inputs":[{"indexed":true,"internalType":"address","name":"user","type":"address"},{"indexed":false,"internalType":"uint256","name":"amount","type":"uint256"}],"name":"Deposit","type":"event"},{"anonymous":false,"inputs":[{"indexed":false,"internalType":"uint256","name":"amount","type":"uint256"}],"name":"TradeAuthorized","type":"event"},{"anonymous":false,"inputs":[{"indexed":false,"internalType":"bool","name":"success","type":"bool"}],"name":"TradeExecuted","type":"event"},{"anonymous":false,"inputs":[{"indexed":true,"internalType":"address","name":"user","type":"address"},{"indexed":false,"internalType":"uint256","name":"amount","type":"uint256"}],"name":"Withdraw","type":"event"},{"inputs":[],"name":"aiAgent","outputs":[{"internalType":"address","name":"","type":"address"}],"stateMutability":"view","type":"function"},{"inputs":[{"internalType":"uint256","name":"amount","type":"uint256"}],"name":"authorizeTrade","outputs":[],"stateMutability":"nonpayable","type":"function"},{"inputs":[{"internalType":"address","name":"","type":"address"}],"name":"balances","outputs":[{"internalType":"uint256","name":"","type":"uint256"}],"stateMutability":"view","type":"function"},{"inputs":[],"name":"deposit","outputs":[],"stateMutability":"payable","type":"function"},{"inputs":[],"name":"emergencyWithdraw","outputs":[],"stateMutability":"nonpayable","type":"function"},{"inputs":[{"internalType":"address","name":"target","type":"address"},{"internalType":"bytes","name":"data","type":"bytes"}],"name":"executeTrade","outputs":[],"stateMutability":"nonpayable","type":"function"},{"inputs":[],"name":"owner","outputs":[{"internalType":"address","name":"","type":"address"}],"stateMutability":"view","type":"function"},{"inputs":[],"name":"totalDeposits","outputs":[{"internalType":"uint256","name":"","type":"uint256"}],"stateMutability":"view","type":"function"},{"inputs":[],"name":"tradingAuthorized","outputs":[{"internalType":"bool","name":"","type":"bool"}],"stateMutability":"view","type":"function"},{"inputs":[{"internalType":"address","name":"newAI","type":"address"}],"name":"updateAI","outputs":[],"stateMutability":"nonpayable","type":"function"},{"inputs":[{"internalType":"uint256","name":"amount","type":"uint256"}],"name":"withdraw","outputs":[],"stateMutability":"nonpayable","type":"function"},{"stateMutability":"payable","type":"receive"}],"evm":{"bytecode":{"linkReferences":{},"object":"60803461007857601f61070938819003918201601f19168301916001600160401b0383118484101761007c5780849260209460405283398101031261007857516001600160a01b038116908190036100785760018060a01b031933815f5416175f55600154161760015560405161067890816100918239f35b5f80fd5b634e487b7160e01b5f52604160045260245ffdfe608060409080825260049081361015610022575b5050503615610020575f80fd5b005b5f3560e01c90816327e235e314610534575080632e1a7d4d146104395780635db26073146104175780637d882097146103f95780638da5cb5b146103d2578063a6d5b732146103aa578063af9443711461035b578063c54e1fe314610290578063d0e30db0146101f9578063db2e21bc146101a75763e6134c7c146100a75780610013565b346101a357816003193601126101a3576100bf610568565b906024359067ffffffffffffffff908183116101a357366023840112156101a357828101359182116101a35736602483850101116101a35761010b60018060a01b035f541633146105fd565b805460ff81161561016f579360245f7f6bc7bfb16956e190881b463eecca76c20fd19a6e4366b8e4d74b4edc574c21c197958195829560209960ff19169055808851948593018337810182815203925af19061016561059f565b50519015158152a1005b855162461bcd60e51b8152602081840152600e60248201526d139bdd08185d5d1a1bdc9a5e995960921b6044820152606490fd5b5f80fd5b82346101a3575f3660031901126101a3575f80548190819081906001600160a01b03166101d53382146105fd565b47908282156101f0575bf1156101e757005b513d5f823e3d90fd5b506108fc6101df565b505f3660031901126101a357341561025f5750335f526002602052805f20610222348254610635565b905561023034600354610635565b600355513481527fe1fffcc4923d04b559f4d29a8bfc6cda04eb5b0d3c460751c2402c5c5cc9109c60203392a2005b6020606492519162461bcd60e51b8352820152600c60248201526b16995c9bc819195c1bdcda5d60a21b6044820152fd5b50346101a35760203660031901126101a357600154813591906001600160a01b0316330361032f5760035482116102f957805460ff1916600117905590519081527fc00410da416e137b0f0b9c25eabdea3e13db09714eccd45047de2a956a04dd9b90602090a1005b606490602084519162461bcd60e51b8352820152601060248201526f45786365656473206465706f7369747360801b6044820152fd5b606490602084519162461bcd60e51b835282015260066024820152654e6f7420414960d01b6044820152fd5b346101a35760203660031901126101a357610374610568565b5f546001600160a01b03919061038d90831633146105fd565b166bffffffffffffffffffffffff60a01b60015416176001555f80f35b82346101a3575f3660031901126101a35760015490516001600160a01b039091168152602090f35b82346101a3575f3660031901126101a3575f5490516001600160a01b039091168152602090f35b82346101a3575f3660031901126101a3576020906003549051908152f35b5090346101a3575f3660031901126101a35760ff602092541690519015158152f35b50346101a3576020806003193601126101a357813591335f526002825282845f2054106104fc57335f5260028252835f2061047584825461057e565b90556104838360035461057e565b6003555f80808086335af161049661059f565b50156104c957507f884edad9ce6fa2440d8a54cc123490eb96d2768479d49ff9c7366125a94243649192519283523392a2005b60649184519162461bcd60e51b8352820152600f60248201526e151c985b9cd9995c8819985a5b1959608a1b6044820152fd5b60649184519162461bcd60e51b83528201526014602482015273496e73756666696369656e742062616c616e636560601b6044820152fd5b8390346101a35760203660031901126101a3576020916001600160a01b0361055a610568565b165f52600283525f20548152f35b600435906001600160a01b03821682036101a357565b9190820391821161058b57565b634e487b7160e01b5f52601160045260245ffd5b3d156105f85767ffffffffffffffff903d8281116105e45760405192601f8201601f19908116603f01168401908111848210176105e45760405282523d5f602084013e565b634e487b7160e01b5f52604160045260245ffd5b606090565b1561060457565b60405162461bcd60e51b81526020600482015260096024820152682737ba1037bbb732b960b91b6044820152606490fd5b9190820180921161058b5756fea2646970667358221220d4f675a9ba12a26b1db5f847ed2659eaa5d75270bc67ac981ee16bece3d3d21564736f6c63430008180033","opcodes":"PUSH1 0x80 CALLVALUE PUSH2 0x78 JUMPI PUSH1 0x1F PUSH2 0x709 CODESIZE DUP2 SWAP1 SUB SWAP2 DUP3 ADD PUSH1 0x1F NOT AND DUP4 ADD SWAP2 PUSH1 0x1 PUSH1 0x1 PUSH1 0x40 SHL SUB DUP4 GT DUP5 DUP5 LT OR PUSH2 0x7C JUMPI DUP1 DUP5 SWAP3 PUSH1 0x20 SWAP5 PUSH1 0x40 MSTORE DUP4 CODECOPY DUP2 ADD SUB SLT PUSH2 0x78 JUMPI MLOAD PUSH1 0x1 PUSH1 0x1 PUSH1 0xA0 SHL SUB DUP2 AND SWAP1 DUP2 SWAP1 SUB PUSH2 0x78 JUMPI PUSH1 0x1 DUP1 PUSH1 0xA0 SHL SUB NOT CALLER DUP2 PUSH0 SLOAD AND OR PUSH0 SSTORE PUSH1 0x1 SLOAD AND OR PUSH1 0x1 SSTORE PUSH1 0x40 MLOAD PUSH2 0x678 SWAP1 DUP2 PUSH2 0x91 DUP3 CODECOPY RETURN JUMPDEST PUSH0 DUP1 REVERT JUMPDEST PUSH4 0x4E487B71 PUSH1 0xE0 SHL PUSH0 MSTORE PUSH1 0x41 PUSH1 0x4 MSTORE PUSH1 0x24 PUSH0 REVERT INVALID PUSH1 0x80 PUSH1 0x40 SWAP1 DUP1 DUP3 MSTORE PUSH1 0x4 SWAP1 DUP2 CALLDATASIZE LT ISZERO PUSH2 0x22 JUMPI JUMPDEST POP POP POP CALLDATASIZE ISZERO PUSH2 0x20 JUMPI PUSH0 DUP1 REVERT JUMPDEST STOP JUMPDEST PUSH0 CALLDATALOAD PUSH1 0xE0 SHR SWAP1 DUP2 PUSH4 0x27E235E3 EQ PUSH2 0x534 JUMPI POP DUP1 PUSH4 0x2E1A7D4D EQ PUSH2 0x439 JUMPI DUP1 PUSH4 0x5DB26073 EQ PUSH2 0x417 JUMPI DUP1 PUSH4 0x7D882097 EQ PUSH2 0x3F9 JUMPI DUP1 PUSH4 0x8DA5CB5B EQ PUSH2 0x3D2 JUMPI DUP1 PUSH4 0xA6D5B732 EQ PUSH2 0x3AA JUMPI DUP1 PUSH4 0xAF944371 EQ PUSH2 0x35B JUMPI DUP1 PUSH4 0xC54E1FE3 EQ PUSH2 0x290 JUMPI DUP1 PUSH4 0xD0E30DB0 EQ PUSH2 0x1F9 JUMPI DUP1 PUSH4 0xDB2E21BC EQ PUSH2 0x1A7 JUMPI PUSH4 0xE6134C7C EQ PUSH2 0xA7 JUMPI DUP1 PUSH2 0x13 JUMP JUMPDEST CALLVALUE PUSH2 0x1A3 JUMPI DUP2 PUSH1 0x3 NOT CALLDATASIZE ADD SLT PUSH2 0x1A3 JUMPI PUSH2 0xBF PUSH2 0x568 JUMP JUMPDEST SWAP1 PUSH1 0x24 CALLDATALOAD SWAP1 PUSH8 0xFFFFFFFFFFFFFFFF SWAP1 DUP2 DUP4 GT PUSH2 0x1A3 JUMPI CALLDATASIZE PUSH1 0x23 DUP5 ADD SLT ISZERO PUSH2 0x1A3 JUMPI DUP3 DUP2 ADD CALLDATALOAD SWAP2 DUP3 GT PUSH2 0x1A3 JUMPI CALLDATASIZE PUSH1 0x24 DUP4 DUP6 ADD ADD GT PUSH2 0x1A3 JUMPI PUSH2 0x10B PUSH1 0x1 DUP1 PUSH1 0xA0 SHL SUB PUSH0 SLOAD AND CALLER EQ PUSH2 0x5FD JUMP JUMPDEST DUP1 SLOAD PUSH1 0xFF DUP2 AND ISZERO PUSH2 0x16F JUMPI SWAP4 PUSH1 0x24 PUSH0 PUSH32 0x6BC7BFB16956E190881B463EECCA76C20FD19A6E4366B8E4D74B4EDC574C21C1 SWAP8 SWAP6 DUP2 SWAP6 DUP3 SWAP6 PUSH1 0x20 SWAP10 PUSH1 0xFF NOT AND SWAP1 SSTORE DUP1 DUP9 MLOAD SWAP5 DUP6 SWAP4 ADD DUP4 CALLDATACOPY DUP2 ADD DUP3 DUP2 MSTORE SUB SWAP3 GAS CALL SWAP1 PUSH2 0x165 PUSH2 0x59F JUMP JUMPDEST POP MLOAD SWAP1 ISZERO ISZERO DUP2 MSTORE LOG1 STOP JUMPDEST DUP6 MLOAD PUSH3 0x461BCD PUSH1 0xE5 SHL DUP2 MSTORE PUSH1 0x20 DUP2 DUP5 ADD MSTORE PUSH1 0xE PUSH1 0x24 DUP3 ADD MSTORE PUSH14 0x139BDD08185D5D1A1BDC9A5E9959 PUSH1 0x92 SHL PUSH1 0x44 DUP3 ADD MSTORE PUSH1 0x64 SWAP1 REVERT JUMPDEST PUSH0 DUP1 REVERT JUMPDEST DUP3 CALLVALUE PUSH2 0x1A3 JUMPI PUSH0 CALLDATASIZE PUSH1 0x3 NOT ADD SLT PUSH2 0x1A3 JUMPI PUSH0 DUP1 SLOAD DUP2 SWAP1 DUP2 SWAP1 DUP2 SWAP1 PUSH1 0x1 PUSH1 0x1 PUSH1 0xA0 SHL SUB AND PUSH2 0x1D5 CALLER DUP3 EQ PUSH2 0x5FD JUMP JUMPDEST SELFBALANCE SWAP1 DUP3 DUP3 ISZERO PUSH2 0x1F0 JUMPI JUMPDEST CALL ISZERO PUSH2 0x1E7 JUMPI STOP JUMPDEST MLOAD RETURNDATASIZE PUSH0 DUP3 RETURNDATACOPY RETURNDATASIZE SWAP1 REVERT JUMPDEST POP PUSH2 0x8FC PUSH2 0x1DF JUMP JUMPDEST POP PUSH0 CALLDATASIZE PUSH1 0x3 NOT ADD SLT PUSH2 0x1A3 JUMPI CALLVALUE ISZERO PUSH2 0x25F JUMPI POP CALLER PUSH0 MSTORE PUSH1 0x2 PUSH1 0x20 MSTORE DUP1 PUSH0 KECCAK256 PUSH2 0x222 CALLVALUE DUP3 SLOAD PUSH2 0x635 JUMP JUMPDEST SWAP1 SSTORE PUSH2 0x230 CALLVALUE PUSH1 0x3 SLOAD PUSH2 0x635 JUMP JUMPDEST PUSH1 0x3 SSTORE MLOAD CALLVALUE DUP2 MSTORE PUSH32 0xE1FFFCC4923D04B559F4D29A8BFC6CDA04EB5B0D3C460751C2402C5C5CC9109C PUSH1 0x20 CALLER SWAP3 LOG2 STOP JUMPDEST PUSH1 0x20 PUSH1 0x64 SWAP3 MLOAD SWAP2 PUSH3 0x461BCD PUSH1 0xE5 SHL DUP4 MSTORE DUP3 ADD MSTORE PUSH1 0xC PUSH1 0x24 DUP3 ADD MSTORE PUSH12 0x16995C9BC819195C1BDCDA5D PUSH1 0xA2 SHL PUSH1 0x44 DUP3 ADD MSTORE REVERT JUMPDEST POP CALLVALUE PUSH2 0x1A3 JUMPI PUSH1 0x20 CALLDATASIZE PUSH1 0x3 NOT ADD SLT PUSH2 0x1A3 JUMPI PUSH1 0x1 SLOAD DUP2 CALLDATALOAD SWAP2 SWAP1 PUSH1 0x1 PUSH1 0x1 PUSH1 0xA0 SHL SUB AND CALLER SUB PUSH2 0x32F JUMPI PUSH1 0x3 SLOAD DUP3 GT PUSH2 0x2F9 JUMPI DUP1 SLOAD PUSH1 0xFF NOT AND PUSH1 0x1 OR SWAP1 SSTORE SWAP1 MLOAD SWAP1 DUP2 MSTORE PUSH32 0xC00410DA416E137B0F0B9C25EABDEA3E13DB09714ECCD45047DE2A956A04DD9B SWAP1 PUSH1 0x20 SWAP1 LOG1 STOP JUMPDEST PUSH1 0x64 SWAP1 PUSH1 0x20 DUP5 MLOAD SWAP2 PUSH3 0x461BCD PUSH1 0xE5 SHL DUP4 MSTORE DUP3 ADD MSTORE PUSH1 0x10 PUSH1 0x24 DUP3 ADD MSTORE PUSH16 0x45786365656473206465706F73697473 PUSH1 0x80 SHL PUSH1 0x44 DUP3 ADD MSTORE REVERT JUMPDEST PUSH1 0x64 SWAP1 PUSH1 0x20 DUP5 MLOAD SWAP2 PUSH3 0x461BCD PUSH1 0xE5 SHL DUP4 MSTORE DUP3 ADD MSTORE PUSH1 0x6 PUSH1 0x24 DUP3 ADD MSTORE PUSH6 0x4E6F74204149 PUSH1 0xD0 SHL PUSH1 0x44 DUP3 ADD MSTORE REVERT JUMPDEST CALLVALUE PUSH2 0x1A3 JUMPI PUSH1 0x20 CALLDATASIZE PUSH1 0x3 NOT ADD SLT PUSH2 0x1A3 JUMPI PUSH2 0x374 PUSH2 0x568 JUMP JUMPDEST PUSH0 SLOAD PUSH1 0x1 PUSH1 0x1 PUSH1 0xA0 SHL SUB SWAP2 SWAP1 PUSH2 0x38D SWAP1 DUP4 AND CALLER EQ PUSH2 0x5FD JUMP JUMPDEST AND PUSH12 0xFFFFFFFFFFFFFFFFFFFFFFFF PUSH1 0xA0 SHL PUSH1 0x1 SLOAD AND OR PUSH1 0x1 SSTORE PUSH0 DUP1 RETURN JUMPDEST DUP3 CALLVALUE PUSH2 0x1A3 JUMPI PUSH0 CALLDATASIZE PUSH1 0x3 NOT ADD SLT PUSH2 0x1A3 JUMPI PUSH1 0x1 SLOAD SWAP1 MLOAD PUSH1 0x1 PUSH1 0x1 PUSH1 0xA0 SHL SUB SWAP1 SWAP2 AND DUP2 MSTORE PUSH1 0x20 SWAP1 RETURN JUMPDEST DUP3 CALLVALUE PUSH2 0x1A3 JUMPI PUSH0 CALLDATASIZE PUSH1 0x3 NOT ADD SLT PUSH2 0x1A3 JUMPI PUSH0 SLOAD SWAP1 MLOAD PUSH1 0x1 PUSH1 0x1 PUSH1 0xA0 SHL SUB SWAP1 SWAP2 AND DUP2 MSTORE PUSH1 0x20 SWAP1 RETURN JUMPDEST DUP3 CALLVALUE PUSH2 0x1A3 JUMPI PUSH0 CALLDATASIZE PUSH1 0x3 NOT ADD SLT PUSH2 0x1A3 JUMPI PUSH1 0x20 SWAP1 PUSH1 0x3 SLOAD SWAP1 MLOAD SWAP1 DUP2 MSTORE RETURN JUMPDEST POP SWAP1 CALLVALUE PUSH2 0x1A3 JUMPI PUSH0 CALLDATASIZE PUSH1 0x3 NOT ADD SLT PUSH2 0x1A3 JUMPI PUSH1 0xFF PUSH1 0x20 SWAP3 SLOAD AND SWAP1 MLOAD SWAP1 ISZERO ISZERO DUP2 MSTORE RETURN JUMPDEST POP CALLVALUE PUSH2 0x1A3 JUMPI PUSH1 0x20 DUP1 PUSH1 0x3 NOT CALLDATASIZE ADD SLT PUSH2 0x1A3 JUMPI DUP2 CALLDATALOAD SWAP2 CALLER PUSH0 MSTORE PUSH1 0x2 DUP3 MSTORE DUP3 DUP5 PUSH0 KECCAK256 SLOAD LT PUSH2 0x4FC JUMPI CALLER PUSH0 MSTORE PUSH1 0x2 DUP3 MSTORE DUP4 PUSH0 KECCAK256 PUSH2 0x475 DUP5 DUP3 SLOAD PUSH2 0x57E JUMP JUMPDEST SWAP1 SSTORE PUSH2 0x483 DUP4 PUSH1 0x3 SLOAD PUSH2 0x57E JUMP JUMPDEST PUSH1 0x3 SSTORE PUSH0 DUP1 DUP1 DUP1 DUP7 CALLER GAS CALL PUSH2 0x496 PUSH2 0x59F JUMP JUMPDEST POP ISZERO PUSH2 0x4C9 JUMPI POP PUSH32 0x884EDAD9CE6FA2440D8A54CC123490EB96D2768479D49FF9C7366125A9424364 SWAP2 SWAP3 MLOAD SWAP3 DUP4 MSTORE CALLER SWAP3 LOG2 STOP JUMPDEST PUSH1 0x64 SWAP2 DUP5 MLOAD SWAP2 PUSH3 0x461BCD PUSH1 0xE5 SHL DUP4 MSTORE DUP3 ADD MSTORE PUSH1 0xF PUSH1 0x24 DUP3 ADD MSTORE PUSH15 0x151C985B9CD9995C8819985A5B1959 PUSH1 0x8A SHL PUSH1 0x44 DUP3 ADD MSTORE REVERT JUMPDEST PUSH1 0x64 SWAP2 DUP5 MLOAD SWAP2 PUSH3 0x461BCD PUSH1 0xE5 SHL DUP4 MSTORE DUP3 ADD MSTORE PUSH1 0x14 PUSH1 0x24 DUP3 ADD MSTORE PUSH20 0x496E73756666696369656E742062616C616E6365 PUSH1 0x60 SHL PUSH1 0x44 DUP3 ADD MSTORE REVERT JUMPDEST DUP4 SWAP1 CALLVALUE PUSH2 0x1A3 JUMPI PUSH1 0x20 CALLDATASIZE PUSH1 0x3 NOT ADD SLT PUSH2 0x1A3 JUMPI PUSH1 0x20 SWAP2 PUSH1 0x1 PUSH1 0x1 PUSH1 0xA0 SHL SUB PUSH2 0x55A PUSH2 0x568 JUMP JUMPDEST AND PUSH0 MSTORE PUSH1 0x2 DUP4 MSTORE PUSH0 KECCAK256 SLOAD DUP2 MSTORE RETURN JUMPDEST PUSH1 0x4 CALLDATALOAD SWAP1 PUSH1 0x1 PUSH1 0x1 PUSH1 0xA0 SHL SUB DUP3 AND DUP3 SUB PUSH2 0x1A3 JUMPI JUMP JUMPDEST SWAP2 SWAP1 DUP3 SUB SWAP2 DUP3 GT PUSH2 0x58B JUMPI JUMP JUMPDEST PUSH4 0x4E487B71 PUSH1 0xE0 SHL PUSH0 MSTORE PUSH1 0x11 PUSH1 0x4 MSTORE PUSH1 0x24 PUSH0 REVERT JUMPDEST RETURNDATASIZE ISZERO PUSH2 0x5F8 JUMPI PUSH8 0xFFFFFFFFFFFFFFFF SWAP1 RETURNDATASIZE DUP3 DUP2 GT PUSH2 0x5E4 JUMPI PUSH1 0x40 MLOAD SWAP3 PUSH1 0x1F DUP3 ADD PUSH1 0x1F NOT SWAP1 DUP2 AND PUSH1 0x3F ADD AND DUP5 ADD SWAP1 DUP2 GT DUP5 DUP3 LT OR PUSH2 0x5E4 JUMPI PUSH1 0x40 MSTORE DUP3 MSTORE RETURNDATASIZE PUSH0 PUSH1 0x20 DUP5 ADD RETURNDATACOPY JUMP JUMPDEST PUSH4 0x4E487B71 PUSH1 0xE0 SHL PUSH0 MSTORE PUSH1 0x41 PUSH1 0x4 MSTORE PUSH1 0x24 PUSH0 REVERT JUMPDEST PUSH1 0x60 SWAP1 JUMP JUMPDEST ISZERO PUSH2 0x604 JUMPI JUMP JUMPDEST PUSH1 0x40 MLOAD PUSH3 0x461BCD PUSH1 0xE5 SHL DUP2 MSTORE PUSH1 0x20 PUSH1 0x4 DUP3 ADD MSTORE PUSH1 0x9 PUSH1 0x24 DUP3 ADD MSTORE PUSH9 0x2737BA1037BBB732B9 PUSH1 0xB9 SHL PUSH1 0x44 DUP3 ADD MSTORE PUSH1 0x64 SWAP1 REVERT JUMPDEST SWAP2 SWAP1 DUP3 ADD DUP1 SWAP3 GT PUSH2 0x58B JUMPI JUMP INVALID LOG2 PUSH5 0x6970667358 0x22 SLT KECCAK256 0xD4 0xF6 PUSH22 0xA9BA12A26B1DB5F847ED2659EAA5D75270BC67AC981E 0xE1 PUSH12 0xECE3D3D21564736F6C634300 ADDMOD XOR STOP CALLER "},"methodIdentifiers":{"aiAgent()":"a6d5b732","authorizeTrade(uint256)":"c54e1fe3","balances(address)":"27e235e3","deposit()":"d0e30db0","emergencyWithdraw()":"db2e21bc","executeTrade(address,bytes)":"e6134c7c","owner()":"8da5cb5b","totalDeposits()":"7d882097","tradingAuthorized()":"5db26073","updateAI(address)":"af944371","withdraw(uint256)":"2e1a7d4d"}}}}}