{"project/src/contracts/hyperevm/L1Read.sol":{"L1Read":{"abi":[{"inputs":[{"internalType":"uint32[]","name":"indices","type":"uint32[]"}],"name":"batchOraclePrices","outputs":[{"internalType":"uint64[]","name":"","type":"uint64[]"}],"stateMutability":"view","type":"function"},{"inputs":[{"internalType":"address","name":"user","type":"address"},{"internalType":"uint32","name":"perpIndex","type":"uint32"},{"internalType":"uint256","name":"maintenanceMarginRate","type":"uint256"}],"name":"checkLiquidationRisk","outputs":[{"internalType":"bool","name":"atRisk","type":"bool"},{"internalType":"uint256","name":"marginRatio","type":"uint256"}],"stateMutability":"view","type":"function"},{"inputs":[{"internalType":"uint64","name":"rawPrice","type":"uint64"},{"internalType":"uint8","name":"szDecimals","type":"uint8"}],"name":"convertOraclePrice","outputs":[{"internalType":"uint256","name":"","type":"uint256"}],"stateMutability":"pure","type":"function"},{"inputs":[{"internalType":"address","name":"user","type":"address"},{"internalType":"uint32[]","name":"perpIndices","type":"uint32[]"},{"internalType":"uint32[]","name":"spotIndices","type":"uint32[]"}],"name":"getPortfolioValue","outputs":[{"internalType":"uint256","name":"totalValue","type":"uint256"}],"stateMutability":"view","type":"function"},{"inputs":[{"internalType":"address","name":"user","type":"address"}],"name":"getUserPerpBalance","outputs":[{"internalType":"int256","name":"","type":"int256"}],"stateMutability":"view","type":"function"},{"inputs":[{"internalType":"address","name":"user","type":"address"},{"internalType":"uint32","name":"perpIndex","type":"uint32"}],"name":"getUserPosition","outputs":[{"components":[{"internalType":"int256","name":"szi","type":"int256"},{"internalType":"uint256","name":"entryPx","type":"uint256"},{"internalType":"uint256","name":"mtm","type":"uint256"},{"internalType":"int256","name":"pnl","type":"int256"},{"internalType":"int256","name":"funding","type":"int256"}],"internalType":"struct L1Read.UserPosition","name":"","type":"tuple"}],"stateMutability":"view","type":"function"},{"inputs":[{"internalType":"address","name":"user","type":"address"},{"internalType":"uint32","name":"spotIndex","type":"uint32"}],"name":"getUserSpotBalance","outputs":[{"internalType":"uint256","name":"","type":"uint256"}],"stateMutability":"view","type":"function"},{"inputs":[{"internalType":"uint32","name":"index","type":"uint32"}],"name":"oraclePx","outputs":[{"internalType":"uint64","name":"","type":"uint64"}],"stateMutability":"view","type":"function"},{"inputs":[{"internalType":"uint32","name":"index","type":"uint32"}],"name":"perpAssetInfo","outputs":[{"components":[{"internalType":"string","name":"name","type":"string"},{"internalType":"uint8","name":"szDecimals","type":"uint8"}],"internalType":"struct L1Read.PerpAssetInfo","name":"","type":"tuple"}],"stateMutability":"view","type":"function"},{"inputs":[{"internalType":"uint32","name":"index","type":"uint32"}],"name":"perpMetaInfo","outputs":[{"components":[{"internalType":"string","name":"name","type":"string"},{"internalType":"uint32","name":"index","type":"uint32"},{"internalType":"uint8","name":"szDecimals","type":"uint8"}],"internalType":"struct L1Read.PerpMetaInfo","name":"","type":"tuple"}],"stateMutability":"view","type":"function"},{"inputs":[{"internalType":"uint32","name":"index","type":"uint32"}],"name":"spotMeta","outputs":[{"components":[{"internalType":"string","name":"name","type":"string"},{"internalType":"uint32","name":"index","type":"uint32"},{"internalType":"string","name":"tokenAddress","type":"string"},{"internalType":"uint8","name":"szDecimals","type":"uint8"},{"internalType":"uint8","name":"weiDecimals","type":"uint8"}],"internalType":"struct L1Read.SpotMeta","name":"","type":"tuple"}],"stateMutability":"view","type":"function"}],"evm":{"bytecode":{"linkReferences":{},"object":"6080806040523461001657610f52908161001b8239f35b5f80fdfe60406080815260049081361015610014575f80fd5b5f3560e01c80625b846f1461077957806329cae7f2146106295780634162cd32146104ff5780634f6a01e2146104da5780635515e1f4146104075780639b62caa2146103ac578063a9a744261461037f578063c0f0f5ef1461034a578063c78af6d5146102c5578063e3cd5731146101325763eae5cc9b14610094575f80fd5b3461012e578060031936011261012e5781356001600160401b03811680910361012e5760243560ff811680910361012e5760060360ff811161011b576100d990610f0b565b92670de0b6b3a764000091828102928184041490151715610108575060209261010191610941565b9051908152f35b601190634e487b7160e01b5f525260245ffd5b601184634e487b7160e01b5f525260245ffd5b5f80fd5b50903461012e57606036600319011261012e5761014d6107b5565b602492906001600160401b03843581811161012e5761016f90369086016108d4565b9060443581811161012e5761018790369087016108d4565b5f965f5b84518110156101d6576101ae63ffffffff6101a68388610b34565b511687610b5c565b80516101be575b5060010161018b565b60019199886101cf92015190610efe565b98906101b5565b508593508688955f5b84518110156102985763ffffffff610203816101fb8489610b34565b511684610c76565b908115908115610219575b5050506001016101df565b90886102488361024161023a889f9896610233888f610b34565b5116610d26565b958c610b34565b5116610dc4565b9216808402938404141715610286579161027761027d9261027160ff6080600197015116610f0b565b90610941565b90610efe565b9790898061020e565b85601186634e487b7160e01b5f52525ffd5b602088886102a585610a95565b5f81136102b4575b5051908152f35b6102be9192610efe565b90836102ad565b503461012e57602036600319011261012e57610332906102eb6102e66107de565b610dc4565b60ff608083519485946020865261030e855160a0602089015260c0880190610812565b602086015163ffffffff168783015290850151868203601f19016060880152610812565b92826060820151168286015201511660a08301520390f35b503461012e57602036600319011261012e576020906001600160401b036103776103726107de565b610d26565b915191168152f35b503461012e578060031936011261012e5760209061010161039e6107b5565b6103a66107cb565b90610c76565b503461012e578060031936011261012e5760a09060806103db6103cd6107b5565b6103d56107cb565b90610b5c565b825192815184526020820151602085015280820151908401526060810151606084015201516080820152f35b503461012e576020908160031936011261012e5782356001600160401b039384821161012e57610439913691016108d4565b80519161045d610448846108bd565b936104558351958661089c565b8085526108bd565b83850190601f19013682375f5b835181101561049d578061048863ffffffff61023360019488610b34565b886104938389610b34565b911690520161046a565b5092909391508351938285019183865251809252840192915f5b8281106104c45785850386f35b83518716855293810193928101926001016104b7565b503461012e57602036600319011261012e576020906101016104fa6107b5565b610a95565b50903461012e5760208060031936011261012e575f8061051d6107de565b8184875161052a81610866565b606081520152855163ffffffff8582019216825284815261054a81610866565b519061080a5afa9161055a610a02565b92156105dc575081518201838382031261012e5781830151906001600160401b03821161012e576105d16105a38661059c8195878060ff9701918a0101610a31565b9601610a87565b938351956105b087610866565b86528281870195168552835196879682885251918701526060860190610812565b925116908301520390f35b60849184519162461bcd60e51b83528201526024808201527f506572704173736574496e666f20707265636f6d70696c652063616c6c2066616044820152631a5b195960e21b6064820152fd5b503461012e576020918260031936011261012e576106456107de565b915f81805161065381610837565b60608152828782015201525f8082518681019063ffffffff809716825287815261067c81610866565b51906108095afa9161068c610a02565b921561072c5750815182019360608386031261012e5780830151916001600160401b03831161012e576106ca60ff9383806060990191870101610a31565b9461071a6106e4886106dd858901610a76565b9701610a87565b938351976106f189610837565b8852828189019716875285848901951685528351988998828a5251918901526080880190610812565b94511690850152511660608301520390f35b84608492519162461bcd60e51b8352820152602360248201527f506572704d657461496e666f20707265636f6d70696c652063616c6c206661696044820152621b195960ea1b6064820152fd5b503461012e57606036600319011261012e576107a76107966107b5565b61079e6107cb565b6044359161095f565b825191151582526020820152f35b600435906001600160a01b038216820361012e57565b6024359063ffffffff8216820361012e57565b6004359063ffffffff8216820361012e57565b5f5b8381106108025750505f910152565b81810151838201526020016107f3565b9060209161082b815180928185528580860191016107f1565b601f01601f1916010190565b606081019081106001600160401b0382111761085257604052565b634e487b7160e01b5f52604160045260245ffd5b604081019081106001600160401b0382111761085257604052565b60a081019081106001600160401b0382111761085257604052565b90601f801991011681019081106001600160401b0382111761085257604052565b6001600160401b0381116108525760051b60200190565b9080601f8301121561012e5760209082356108ee816108bd565b936108fc604051958661089c565b81855260208086019260051b82010192831161012e57602001905b828210610925575050505090565b813563ffffffff8116810361012e578152908301908301610917565b811561094b570490565b634e487b7160e01b5f52601260045260245ffd5b9061096d9093929382610b5c565b908151156109dd57610980604091610a95565b9101515f8213806109d4575b156109c957612710918281029281840414901517156109b5576109ae91610941565b9182109190565b634e487b7160e01b5f52601160045260245ffd5b505090506001905f90565b5080151561098c565b505090505f905f90565b6001600160401b03811161085257601f01601f191660200190565b3d15610a2c573d90610a13826109e7565b91610a21604051938461089c565b82523d5f602084013e565b606090565b81601f8201121561012e578051610a47816109e7565b92610a55604051948561089c565b8184526020828401011161012e57610a7391602080850191016107f1565b90565b519063ffffffff8216820361012e57565b519060ff8216820361012e57565b5f8091604051602081019160018060a01b0316825260208152610ab781610866565b519061080d5afa610ac6610a02565b9015610ae05760208180518101031261012e576020015190565b60405162461bcd60e51b815260206004820152602660248201527f557365725065727042616c616e636520707265636f6d70696c652063616c6c2060448201526519985a5b195960d21b6064820152608490fd5b8051821015610b485760209160051b010190565b634e487b7160e01b5f52603260045260245ffd5b5f8091610bb7610bc56040958460808851610b7681610881565b828152826020820152828a8201528260608201520152865192839160208301958690929163ffffffff602091604084019560018060a01b0316845216910152565b03601f19810183528261089c565b519061080b5afa90610bd5610a02565b9115610c275760a08280518101031261012e57602082015191818101519160608201519060a0608084015193015193815195610c1087610881565b865260208601528401526060830152608082015290565b5162461bcd60e51b815260206004820152602360248201527f55736572506f736974696f6e20707265636f6d70696c652063616c6c206661696044820152621b195960ea1b6064820152608490fd5b604080516001600160a01b039092166020830190815263ffffffff909316908201525f918291610ca98160608101610bb7565b519061080c5afa610cb8610a02565b9015610cd25760208180518101031261012e576020015190565b60405162461bcd60e51b815260206004820152602660248201527f5573657253706f7442616c616e636520707265636f6d70696c652063616c6c2060448201526519985a5b195960d21b6064820152608490fd5b5f809160405163ffffffff602082019216825260208152610d4681610866565b51906108075afa610d55610a02565b9015610d7f5760208180518101031261012e57602001516001600160401b038116810361012e5790565b60405162461bcd60e51b815260206004820152601f60248201527f4f7261636c65507820707265636f6d70696c652063616c6c206661696c6564006044820152606490fd5b6040908151610dd281610881565b606081525f6080602092828482015260608682015282606082015201525f8084518381019063ffffffff8096168252848152610e0d81610866565b51906108085afa610e1c610a02565b9015610eba57805181019060a08184840193031261012e5782810151936001600160401b039485811161012e578385610e5792850101610a31565b95610e63818401610a76565b94606084015196871161012e57610e8260ff9795828997870101610a31565b92610e9460a061059c60808801610a87565b96835199610ea18b610881565b8a52169088015286015216606084015216608082015290565b835162461bcd60e51b815260048101839052601f60248201527f53706f744d65746120707265636f6d70696c652063616c6c206661696c6564006044820152606490fd5b919082018092116109b557565b60ff16604d81116109b557600a0a9056fea2646970667358221220f75d78ff89c227c167902c757b4e24638771ef4e218ae94fe521a2e560def21b64736f6c63430008180033","opcodes":"PUSH1 0x80 DUP1 PUSH1 0x40 MSTORE CALLVALUE PUSH2 0x16 JUMPI PUSH2 0xF52 SWAP1 DUP2 PUSH2 0x1B DUP3 CODECOPY RETURN JUMPDEST PUSH0 DUP1 REVERT INVALID PUSH1 0x40 PUSH1 0x80 DUP2 MSTORE PUSH1 0x4 SWAP1 DUP2 CALLDATASIZE LT ISZERO PUSH2 0x14 JUMPI PUSH0 DUP1 REVERT JUMPDEST PUSH0 CALLDATALOAD PUSH1 0xE0 SHR DUP1 PUSH3 0x5B846F EQ PUSH2 0x779 JUMPI DUP1 PUSH4 0x29CAE7F2 EQ PUSH2 0x629 JUMPI DUP1 PUSH4 0x4162CD32 EQ PUSH2 0x4FF JUMPI DUP1 PUSH4 0x4F6A01E2 EQ PUSH2 0x4DA JUMPI DUP1 PUSH4 0x5515E1F4 EQ PUSH2 0x407 JUMPI DUP1 PUSH4 0x9B62CAA2 EQ PUSH2 0x3AC JUMPI DUP1 PUSH4 0xA9A74426 EQ PUSH2 0x37F JUMPI DUP1 PUSH4 0xC0F0F5EF EQ PUSH2 0x34A JUMPI DUP1 PUSH4 0xC78AF6D5 EQ PUSH2 0x2C5 JUMPI DUP1 PUSH4 0xE3CD5731 EQ PUSH2 0x132 JUMPI PUSH4 0xEAE5CC9B EQ PUSH2 0x94 JUMPI PUSH0 DUP1 REVERT JUMPDEST CALLVALUE PUSH2 0x12E JUMPI DUP1 PUSH1 0x3 NOT CALLDATASIZE ADD SLT PUSH2 0x12E JUMPI DUP2 CALLDATALOAD PUSH1 0x1 PUSH1 0x1 PUSH1 0x40 SHL SUB DUP2 AND DUP1 SWAP2 SUB PUSH2 0x12E JUMPI PUSH1 0x24 CALLDATALOAD PUSH1 0xFF DUP2 AND DUP1 SWAP2 SUB PUSH2 0x12E JUMPI PUSH1 0x6 SUB PUSH1 0xFF DUP2 GT PUSH2 0x11B JUMPI PUSH2 0xD9 SWAP1 PUSH2 0xF0B JUMP JUMPDEST SWAP3 PUSH8 0xDE0B6B3A7640000 SWAP2 DUP3 DUP2 MUL SWAP3 DUP2 DUP5 DIV EQ SWAP1 ISZERO OR ISZERO PUSH2 0x108 JUMPI POP PUSH1 0x20 SWAP3 PUSH2 0x101 SWAP2 PUSH2 0x941 JUMP JUMPDEST SWAP1 MLOAD SWAP1 DUP2 MSTORE RETURN JUMPDEST PUSH1 0x11 SWAP1 PUSH4 0x4E487B71 PUSH1 0xE0 SHL PUSH0 MSTORE MSTORE PUSH1 0x24 PUSH0 REVERT JUMPDEST PUSH1 0x11 DUP5 PUSH4 0x4E487B71 PUSH1 0xE0 SHL PUSH0 MSTORE MSTORE PUSH1 0x24 PUSH0 REVERT JUMPDEST PUSH0 DUP1 REVERT JUMPDEST POP SWAP1 CALLVALUE PUSH2 0x12E JUMPI PUSH1 0x60 CALLDATASIZE PUSH1 0x3 NOT ADD SLT PUSH2 0x12E JUMPI PUSH2 0x14D PUSH2 0x7B5 JUMP JUMPDEST PUSH1 0x24 SWAP3 SWAP1 PUSH1 0x1 PUSH1 0x1 PUSH1 0x40 SHL SUB DUP5 CALLDATALOAD DUP2 DUP2 GT PUSH2 0x12E JUMPI PUSH2 0x16F SWAP1 CALLDATASIZE SWAP1 DUP7 ADD PUSH2 0x8D4 JUMP JUMPDEST SWAP1 PUSH1 0x44 CALLDATALOAD DUP2 DUP2 GT PUSH2 0x12E JUMPI PUSH2 0x187 SWAP1 CALLDATASIZE SWAP1 DUP8 ADD PUSH2 0x8D4 JUMP JUMPDEST PUSH0 SWAP7 PUSH0 JUMPDEST DUP5 MLOAD DUP2 LT ISZERO PUSH2 0x1D6 JUMPI PUSH2 0x1AE PUSH4 0xFFFFFFFF PUSH2 0x1A6 DUP4 DUP9 PUSH2 0xB34 JUMP JUMPDEST MLOAD AND DUP8 PUSH2 0xB5C JUMP JUMPDEST DUP1 MLOAD PUSH2 0x1BE JUMPI JUMPDEST POP PUSH1 0x1 ADD PUSH2 0x18B JUMP JUMPDEST PUSH1 0x1 SWAP2 SWAP10 DUP9 PUSH2 0x1CF SWAP3 ADD MLOAD SWAP1 PUSH2 0xEFE JUMP JUMPDEST SWAP9 SWAP1 PUSH2 0x1B5 JUMP JUMPDEST POP DUP6 SWAP4 POP DUP7 DUP9 SWAP6 PUSH0 JUMPDEST DUP5 MLOAD DUP2 LT ISZERO PUSH2 0x298 JUMPI PUSH4 0xFFFFFFFF PUSH2 0x203 DUP2 PUSH2 0x1FB DUP5 DUP10 PUSH2 0xB34 JUMP JUMPDEST MLOAD AND DUP5 PUSH2 0xC76 JUMP JUMPDEST SWAP1 DUP2 ISZERO SWAP1 DUP2 ISZERO PUSH2 0x219 JUMPI JUMPDEST POP POP POP PUSH1 0x1 ADD PUSH2 0x1DF JUMP JUMPDEST SWAP1 DUP9 PUSH2 0x248 DUP4 PUSH2 0x241 PUSH2 0x23A DUP9 SWAP16 SWAP9 SWAP7 PUSH2 0x233 DUP9 DUP16 PUSH2 0xB34 JUMP JUMPDEST MLOAD AND PUSH2 0xD26 JUMP JUMPDEST SWAP6 DUP13 PUSH2 0xB34 JUMP JUMPDEST MLOAD AND PUSH2 0xDC4 JUMP JUMPDEST SWAP3 AND DUP1 DUP5 MUL SWAP4 DUP5 DIV EQ OR ISZERO PUSH2 0x286 JUMPI SWAP2 PUSH2 0x277 PUSH2 0x27D SWAP3 PUSH2 0x271 PUSH1 0xFF PUSH1 0x80 PUSH1 0x1 SWAP8 ADD MLOAD AND PUSH2 0xF0B JUMP JUMPDEST SWAP1 PUSH2 0x941 JUMP JUMPDEST SWAP1 PUSH2 0xEFE JUMP JUMPDEST SWAP8 SWAP1 DUP10 DUP1 PUSH2 0x20E JUMP JUMPDEST DUP6 PUSH1 0x11 DUP7 PUSH4 0x4E487B71 PUSH1 0xE0 SHL PUSH0 MSTORE MSTORE PUSH0 REVERT JUMPDEST PUSH1 0x20 DUP9 DUP9 PUSH2 0x2A5 DUP6 PUSH2 0xA95 JUMP JUMPDEST PUSH0 DUP2 SGT PUSH2 0x2B4 JUMPI JUMPDEST POP MLOAD SWAP1 DUP2 MSTORE RETURN JUMPDEST PUSH2 0x2BE SWAP2 SWAP3 PUSH2 0xEFE JUMP JUMPDEST SWAP1 DUP4 PUSH2 0x2AD JUMP JUMPDEST POP CALLVALUE PUSH2 0x12E JUMPI PUSH1 0x20 CALLDATASIZE PUSH1 0x3 NOT ADD SLT PUSH2 0x12E JUMPI PUSH2 0x332 SWAP1 PUSH2 0x2EB PUSH2 0x2E6 PUSH2 0x7DE JUMP JUMPDEST PUSH2 0xDC4 JUMP JUMPDEST PUSH1 0xFF PUSH1 0x80 DUP4 MLOAD SWAP5 DUP6 SWAP5 PUSH1 0x20 DUP7 MSTORE PUSH2 0x30E DUP6 MLOAD PUSH1 0xA0 PUSH1 0x20 DUP10 ADD MSTORE PUSH1 0xC0 DUP9 ADD SWAP1 PUSH2 0x812 JUMP JUMPDEST PUSH1 0x20 DUP7 ADD MLOAD PUSH4 0xFFFFFFFF AND DUP8 DUP4 ADD MSTORE SWAP1 DUP6 ADD MLOAD DUP7 DUP3 SUB PUSH1 0x1F NOT ADD PUSH1 0x60 DUP9 ADD MSTORE PUSH2 0x812 JUMP JUMPDEST SWAP3 DUP3 PUSH1 0x60 DUP3 ADD MLOAD AND DUP3 DUP7 ADD MSTORE ADD MLOAD AND PUSH1 0xA0 DUP4 ADD MSTORE SUB SWAP1 RETURN JUMPDEST POP CALLVALUE PUSH2 0x12E JUMPI PUSH1 0x20 CALLDATASIZE PUSH1 0x3 NOT ADD SLT PUSH2 0x12E JUMPI PUSH1 0x20 SWAP1 PUSH1 0x1 PUSH1 0x1 PUSH1 0x40 SHL SUB PUSH2 0x377 PUSH2 0x372 PUSH2 0x7DE JUMP JUMPDEST PUSH2 0xD26 JUMP JUMPDEST SWAP2 MLOAD SWAP2 AND DUP2 MSTORE RETURN JUMPDEST POP CALLVALUE PUSH2 0x12E JUMPI DUP1 PUSH1 0x3 NOT CALLDATASIZE ADD SLT PUSH2 0x12E JUMPI PUSH1 0x20 SWAP1 PUSH2 0x101 PUSH2 0x39E PUSH2 0x7B5 JUMP JUMPDEST PUSH2 0x3A6 PUSH2 0x7CB JUMP JUMPDEST SWAP1 PUSH2 0xC76 JUMP JUMPDEST POP CALLVALUE PUSH2 0x12E JUMPI DUP1 PUSH1 0x3 NOT CALLDATASIZE ADD SLT PUSH2 0x12E JUMPI PUSH1 0xA0 SWAP1 PUSH1 0x80 PUSH2 0x3DB PUSH2 0x3CD PUSH2 0x7B5 JUMP JUMPDEST PUSH2 0x3D5 PUSH2 0x7CB JUMP JUMPDEST SWAP1 PUSH2 0xB5C JUMP JUMPDEST DUP3 MLOAD SWAP3 DUP2 MLOAD DUP5 MSTORE PUSH1 0x20 DUP3 ADD MLOAD PUSH1 0x20 DUP6 ADD MSTORE DUP1 DUP3 ADD MLOAD SWAP1 DUP5 ADD MSTORE PUSH1 0x60 DUP2 ADD MLOAD PUSH1 0x60 DUP5 ADD MSTORE ADD MLOAD PUSH1 0x80 DUP3 ADD MSTORE RETURN JUMPDEST POP CALLVALUE PUSH2 0x12E JUMPI PUSH1 0x20 SWAP1 DUP2 PUSH1 0x3 NOT CALLDATASIZE ADD SLT PUSH2 0x12E JUMPI DUP3 CALLDATALOAD PUSH1 0x1 PUSH1 0x1 PUSH1 0x40 SHL SUB SWAP4 DUP5 DUP3 GT PUSH2 0x12E JUMPI PUSH2 0x439 SWAP2 CALLDATASIZE SWAP2 ADD PUSH2 0x8D4 JUMP JUMPDEST DUP1 MLOAD SWAP2 PUSH2 0x45D PUSH2 0x448 DUP5 PUSH2 0x8BD JUMP JUMPDEST SWAP4 PUSH2 0x455 DUP4 MLOAD SWAP6 DUP7 PUSH2 0x89C JUMP JUMPDEST DUP1 DUP6 MSTORE PUSH2 0x8BD JUMP JUMPDEST DUP4 DUP6 ADD SWAP1 PUSH1 0x1F NOT ADD CALLDATASIZE DUP3 CALLDATACOPY PUSH0 JUMPDEST DUP4 MLOAD DUP2 LT ISZERO PUSH2 0x49D JUMPI DUP1 PUSH2 0x488 PUSH4 0xFFFFFFFF PUSH2 0x233 PUSH1 0x1 SWAP5 DUP9 PUSH2 0xB34 JUMP JUMPDEST DUP9 PUSH2 0x493 DUP4 DUP10 PUSH2 0xB34 JUMP JUMPDEST SWAP2 AND SWAP1 MSTORE ADD PUSH2 0x46A JUMP JUMPDEST POP SWAP3 SWAP1 SWAP4 SWAP2 POP DUP4 MLOAD SWAP4 DUP3 DUP6 ADD SWAP2 DUP4 DUP7 MSTORE MLOAD DUP1 SWAP3 MSTORE DUP5 ADD SWAP3 SWAP2 PUSH0 JUMPDEST DUP3 DUP2 LT PUSH2 0x4C4 JUMPI DUP6 DUP6 SUB DUP7 RETURN JUMPDEST DUP4 MLOAD DUP8 AND DUP6 MSTORE SWAP4 DUP2 ADD SWAP4 SWAP3 DUP2 ADD SWAP3 PUSH1 0x1 ADD PUSH2 0x4B7 JUMP JUMPDEST POP CALLVALUE PUSH2 0x12E JUMPI PUSH1 0x20 CALLDATASIZE PUSH1 0x3 NOT ADD SLT PUSH2 0x12E JUMPI PUSH1 0x20 SWAP1 PUSH2 0x101 PUSH2 0x4FA PUSH2 0x7B5 JUMP JUMPDEST PUSH2 0xA95 JUMP JUMPDEST POP SWAP1 CALLVALUE PUSH2 0x12E JUMPI PUSH1 0x20 DUP1 PUSH1 0x3 NOT CALLDATASIZE ADD SLT PUSH2 0x12E JUMPI PUSH0 DUP1 PUSH2 0x51D PUSH2 0x7DE JUMP JUMPDEST DUP2 DUP5 DUP8 MLOAD PUSH2 0x52A DUP2 PUSH2 0x866 JUMP JUMPDEST PUSH1 0x60 DUP2 MSTORE ADD MSTORE DUP6 MLOAD PUSH4 0xFFFFFFFF DUP6 DUP3 ADD SWAP3 AND DUP3 MSTORE DUP5 DUP2 MSTORE PUSH2 0x54A DUP2 PUSH2 0x866 JUMP JUMPDEST MLOAD SWAP1 PUSH2 0x80A GAS STATICCALL SWAP2 PUSH2 0x55A PUSH2 0xA02 JUMP JUMPDEST SWAP3 ISZERO PUSH2 0x5DC JUMPI POP DUP2 MLOAD DUP3 ADD DUP4 DUP4 DUP3 SUB SLT PUSH2 0x12E JUMPI DUP2 DUP4 ADD MLOAD SWAP1 PUSH1 0x1 PUSH1 0x1 PUSH1 0x40 SHL SUB DUP3 GT PUSH2 0x12E JUMPI PUSH2 0x5D1 PUSH2 0x5A3 DUP7 PUSH2 0x59C DUP2 SWAP6 DUP8 DUP1 PUSH1 0xFF SWAP8 ADD SWAP2 DUP11 ADD ADD PUSH2 0xA31 JUMP JUMPDEST SWAP7 ADD PUSH2 0xA87 JUMP JUMPDEST SWAP4 DUP4 MLOAD SWAP6 PUSH2 0x5B0 DUP8 PUSH2 0x866 JUMP JUMPDEST DUP7 MSTORE DUP3 DUP2 DUP8 ADD SWAP6 AND DUP6 MSTORE DUP4 MLOAD SWAP7 DUP8 SWAP7 DUP3 DUP9 MSTORE MLOAD SWAP2 DUP8 ADD MSTORE PUSH1 0x60 DUP7 ADD SWAP1 PUSH2 0x812 JUMP JUMPDEST SWAP3 MLOAD AND SWAP1 DUP4 ADD MSTORE SUB SWAP1 RETURN JUMPDEST PUSH1 0x84 SWAP2 DUP5 MLOAD SWAP2 PUSH3 0x461BCD PUSH1 0xE5 SHL DUP4 MSTORE DUP3 ADD MSTORE PUSH1 0x24 DUP1 DUP3 ADD MSTORE PUSH32 0x506572704173736574496E666F20707265636F6D70696C652063616C6C206661 PUSH1 0x44 DUP3 ADD MSTORE PUSH4 0x1A5B1959 PUSH1 0xE2 SHL PUSH1 0x64 DUP3 ADD MSTORE REVERT JUMPDEST POP CALLVALUE PUSH2 0x12E JUMPI PUSH1 0x20 SWAP2 DUP3 PUSH1 0x3 NOT CALLDATASIZE ADD SLT PUSH2 0x12E JUMPI PUSH2 0x645 PUSH2 0x7DE JUMP JUMPDEST SWAP2 PUSH0 DUP2 DUP1 MLOAD PUSH2 0x653 DUP2 PUSH2 0x837 JUMP JUMPDEST PUSH1 0x60 DUP2 MSTORE DUP3 DUP8 DUP3 ADD MSTORE ADD MSTORE PUSH0 DUP1 DUP3 MLOAD DUP7 DUP2 ADD SWAP1 PUSH4 0xFFFFFFFF DUP1 SWAP8 AND DUP3 MSTORE DUP8 DUP2 MSTORE PUSH2 0x67C DUP2 PUSH2 0x866 JUMP JUMPDEST MLOAD SWAP1 PUSH2 0x809 GAS STATICCALL SWAP2 PUSH2 0x68C PUSH2 0xA02 JUMP JUMPDEST SWAP3 ISZERO PUSH2 0x72C JUMPI POP DUP2 MLOAD DUP3 ADD SWAP4 PUSH1 0x60 DUP4 DUP7 SUB SLT PUSH2 0x12E JUMPI DUP1 DUP4 ADD MLOAD SWAP2 PUSH1 0x1 PUSH1 0x1 PUSH1 0x40 SHL SUB DUP4 GT PUSH2 0x12E JUMPI PUSH2 0x6CA PUSH1 0xFF SWAP4 DUP4 DUP1 PUSH1 0x60 SWAP10 ADD SWAP2 DUP8 ADD ADD PUSH2 0xA31 JUMP JUMPDEST SWAP5 PUSH2 0x71A PUSH2 0x6E4 DUP9 PUSH2 0x6DD DUP6 DUP10 ADD PUSH2 0xA76 JUMP JUMPDEST SWAP8 ADD PUSH2 0xA87 JUMP JUMPDEST SWAP4 DUP4 MLOAD SWAP8 PUSH2 0x6F1 DUP10 PUSH2 0x837 JUMP JUMPDEST DUP9 MSTORE DUP3 DUP2 DUP10 ADD SWAP8 AND DUP8 MSTORE DUP6 DUP5 DUP10 ADD SWAP6 AND DUP6 MSTORE DUP4 MLOAD SWAP9 DUP10 SWAP9 DUP3 DUP11 MSTORE MLOAD SWAP2 DUP10 ADD MSTORE PUSH1 0x80 DUP9 ADD SWAP1 PUSH2 0x812 JUMP JUMPDEST SWAP5 MLOAD AND SWAP1 DUP6 ADD MSTORE MLOAD AND PUSH1 0x60 DUP4 ADD MSTORE SUB SWAP1 RETURN JUMPDEST DUP5 PUSH1 0x84 SWAP3 MLOAD SWAP2 PUSH3 0x461BCD PUSH1 0xE5 SHL DUP4 MSTORE DUP3 ADD MSTORE PUSH1 0x23 PUSH1 0x24 DUP3 ADD MSTORE PUSH32 0x506572704D657461496E666F20707265636F6D70696C652063616C6C20666169 PUSH1 0x44 DUP3 ADD MSTORE PUSH3 0x1B1959 PUSH1 0xEA SHL PUSH1 0x64 DUP3 ADD MSTORE REVERT JUMPDEST POP CALLVALUE PUSH2 0x12E JUMPI PUSH1 0x60 CALLDATASIZE PUSH1 0x3 NOT ADD SLT PUSH2 0x12E JUMPI PUSH2 0x7A7 PUSH2 0x796 PUSH2 0x7B5 JUMP JUMPDEST PUSH2 0x79E PUSH2 0x7CB JUMP JUMPDEST PUSH1 0x44 CALLDATALOAD SWAP2 PUSH2 0x95F JUMP JUMPDEST DUP3 MLOAD SWAP2 ISZERO ISZERO DUP3 MSTORE PUSH1 0x20 DUP3 ADD MSTORE RETURN JUMPDEST PUSH1 0x4 CALLDATALOAD SWAP1 PUSH1 0x1 PUSH1 0x1 PUSH1 0xA0 SHL SUB DUP3 AND DUP3 SUB PUSH2 0x12E JUMPI JUMP JUMPDEST PUSH1 0x24 CALLDATALOAD SWAP1 PUSH4 0xFFFFFFFF DUP3 AND DUP3 SUB PUSH2 0x12E JUMPI JUMP JUMPDEST PUSH1 0x4 CALLDATALOAD SWAP1 PUSH4 0xFFFFFFFF DUP3 AND DUP3 SUB PUSH2 0x12E JUMPI JUMP JUMPDEST PUSH0 JUMPDEST DUP4 DUP2 LT PUSH2 0x802 JUMPI POP POP PUSH0 SWAP2 ADD MSTORE JUMP JUMPDEST DUP2 DUP2 ADD MLOAD DUP4 DUP3 ADD MSTORE PUSH1 0x20 ADD PUSH2 0x7F3 JUMP JUMPDEST SWAP1 PUSH1 0x20 SWAP2 PUSH2 0x82B DUP2 MLOAD DUP1 SWAP3 DUP2 DUP6 MSTORE DUP6 DUP1 DUP7 ADD SWAP2 ADD PUSH2 0x7F1 JUMP JUMPDEST PUSH1 0x1F ADD PUSH1 0x1F NOT AND ADD ADD SWAP1 JUMP JUMPDEST PUSH1 0x60 DUP2 ADD SWAP1 DUP2 LT PUSH1 0x1 PUSH1 0x1 PUSH1 0x40 SHL SUB DUP3 GT OR PUSH2 0x852 JUMPI PUSH1 0x40 MSTORE JUMP JUMPDEST PUSH4 0x4E487B71 PUSH1 0xE0 SHL PUSH0 MSTORE PUSH1 0x41 PUSH1 0x4 MSTORE PUSH1 0x24 PUSH0 REVERT JUMPDEST PUSH1 0x40 DUP2 ADD SWAP1 DUP2 LT PUSH1 0x1 PUSH1 0x1 PUSH1 0x40 SHL SUB DUP3 GT OR PUSH2 0x852 JUMPI PUSH1 0x40 MSTORE JUMP JUMPDEST PUSH1 0xA0 DUP2 ADD SWAP1 DUP2 LT PUSH1 0x1 PUSH1 0x1 PUSH1 0x40 SHL SUB DUP3 GT OR PUSH2 0x852 JUMPI PUSH1 0x40 MSTORE JUMP JUMPDEST SWAP1 PUSH1 0x1F DUP1 NOT SWAP2 ADD AND DUP2 ADD SWAP1 DUP2 LT PUSH1 0x1 PUSH1 0x1 PUSH1 0x40 SHL SUB DUP3 GT OR PUSH2 0x852 JUMPI PUSH1 0x40 MSTORE JUMP JUMPDEST PUSH1 0x1 PUSH1 0x1 PUSH1 0x40 SHL SUB DUP2 GT PUSH2 0x852 JUMPI PUSH1 0x5 SHL PUSH1 0x20 ADD SWAP1 JUMP JUMPDEST SWAP1 DUP1 PUSH1 0x1F DUP4 ADD SLT ISZERO PUSH2 0x12E JUMPI PUSH1 0x20 SWAP1 DUP3 CALLDATALOAD PUSH2 0x8EE DUP2 PUSH2 0x8BD JUMP JUMPDEST SWAP4 PUSH2 0x8FC PUSH1 0x40 MLOAD SWAP6 DUP7 PUSH2 0x89C JUMP JUMPDEST DUP2 DUP6 MSTORE PUSH1 0x20 DUP1 DUP7 ADD SWAP3 PUSH1 0x5 SHL DUP3 ADD ADD SWAP3 DUP4 GT PUSH2 0x12E JUMPI PUSH1 0x20 ADD SWAP1 JUMPDEST DUP3 DUP3 LT PUSH2 0x925 JUMPI POP POP POP POP SWAP1 JUMP JUMPDEST DUP2 CALLDATALOAD PUSH4 0xFFFFFFFF DUP2 AND DUP2 SUB PUSH2 0x12E JUMPI DUP2 MSTORE SWAP1 DUP4 ADD SWAP1 DUP4 ADD PUSH2 0x917 JUMP JUMPDEST DUP2 ISZERO PUSH2 0x94B JUMPI DIV SWAP1 JUMP JUMPDEST PUSH4 0x4E487B71 PUSH1 0xE0 SHL PUSH0 MSTORE PUSH1 0x12 PUSH1 0x4 MSTORE PUSH1 0x24 PUSH0 REVERT JUMPDEST SWAP1 PUSH2 0x96D SWAP1 SWAP4 SWAP3 SWAP4 DUP3 PUSH2 0xB5C JUMP JUMPDEST SWAP1 DUP2 MLOAD ISZERO PUSH2 0x9DD JUMPI PUSH2 0x980 PUSH1 0x40 SWAP2 PUSH2 0xA95 JUMP JUMPDEST SWAP2 ADD MLOAD PUSH0 DUP3 SGT DUP1 PUSH2 0x9D4 JUMPI JUMPDEST ISZERO PUSH2 0x9C9 JUMPI PUSH2 0x2710 SWAP2 DUP3 DUP2 MUL SWAP3 DUP2 DUP5 DIV EQ SWAP1 ISZERO OR ISZERO PUSH2 0x9B5 JUMPI PUSH2 0x9AE SWAP2 PUSH2 0x941 JUMP JUMPDEST SWAP2 DUP3 LT SWAP2 SWAP1 JUMP JUMPDEST PUSH4 0x4E487B71 PUSH1 0xE0 SHL PUSH0 MSTORE PUSH1 0x11 PUSH1 0x4 MSTORE PUSH1 0x24 PUSH0 REVERT JUMPDEST POP POP SWAP1 POP PUSH1 0x1 SWAP1 PUSH0 SWAP1 JUMP JUMPDEST POP DUP1 ISZERO ISZERO PUSH2 0x98C JUMP JUMPDEST POP POP SWAP1 POP PUSH0 SWAP1 PUSH0 SWAP1 JUMP JUMPDEST PUSH1 0x1 PUSH1 0x1 PUSH1 0x40 SHL SUB DUP2 GT PUSH2 0x852 JUMPI PUSH1 0x1F ADD PUSH1 0x1F NOT AND PUSH1 0x20 ADD SWAP1 JUMP JUMPDEST RETURNDATASIZE ISZERO PUSH2 0xA2C JUMPI RETURNDATASIZE SWAP1 PUSH2 0xA13 DUP3 PUSH2 0x9E7 JUMP JUMPDEST SWAP2 PUSH2 0xA21 PUSH1 0x40 MLOAD SWAP4 DUP5 PUSH2 0x89C JUMP JUMPDEST DUP3 MSTORE RETURNDATASIZE PUSH0 PUSH1 0x20 DUP5 ADD RETURNDATACOPY JUMP JUMPDEST PUSH1 0x60 SWAP1 JUMP JUMPDEST DUP2 PUSH1 0x1F DUP3 ADD SLT ISZERO PUSH2 0x12E JUMPI DUP1 MLOAD PUSH2 0xA47 DUP2 PUSH2 0x9E7 JUMP JUMPDEST SWAP3 PUSH2 0xA55 PUSH1 0x40 MLOAD SWAP5 DUP6 PUSH2 0x89C JUMP JUMPDEST DUP2 DUP5 MSTORE PUSH1 0x20 DUP3 DUP5 ADD ADD GT PUSH2 0x12E JUMPI PUSH2 0xA73 SWAP2 PUSH1 0x20 DUP1 DUP6 ADD SWAP2 ADD PUSH2 0x7F1 JUMP JUMPDEST SWAP1 JUMP JUMPDEST MLOAD SWAP1 PUSH4 0xFFFFFFFF DUP3 AND DUP3 SUB PUSH2 0x12E JUMPI JUMP JUMPDEST MLOAD SWAP1 PUSH1 0xFF DUP3 AND DUP3 SUB PUSH2 0x12E JUMPI JUMP JUMPDEST PUSH0 DUP1 SWAP2 PUSH1 0x40 MLOAD PUSH1 0x20 DUP2 ADD SWAP2 PUSH1 0x1 DUP1 PUSH1 0xA0 SHL SUB AND DUP3 MSTORE PUSH1 0x20 DUP2 MSTORE PUSH2 0xAB7 DUP2 PUSH2 0x866 JUMP JUMPDEST MLOAD SWAP1 PUSH2 0x80D GAS STATICCALL PUSH2 0xAC6 PUSH2 0xA02 JUMP JUMPDEST SWAP1 ISZERO PUSH2 0xAE0 JUMPI PUSH1 0x20 DUP2 DUP1 MLOAD DUP2 ADD SUB SLT PUSH2 0x12E JUMPI PUSH1 0x20 ADD MLOAD SWAP1 JUMP JUMPDEST PUSH1 0x40 MLOAD PUSH3 0x461BCD PUSH1 0xE5 SHL DUP2 MSTORE PUSH1 0x20 PUSH1 0x4 DUP3 ADD MSTORE PUSH1 0x26 PUSH1 0x24 DUP3 ADD MSTORE PUSH32 0x557365725065727042616C616E636520707265636F6D70696C652063616C6C20 PUSH1 0x44 DUP3 ADD MSTORE PUSH6 0x19985A5B1959 PUSH1 0xD2 SHL PUSH1 0x64 DUP3 ADD MSTORE PUSH1 0x84 SWAP1 REVERT JUMPDEST DUP1 MLOAD DUP3 LT ISZERO PUSH2 0xB48 JUMPI PUSH1 0x20 SWAP2 PUSH1 0x5 SHL ADD ADD SWAP1 JUMP JUMPDEST PUSH4 0x4E487B71 PUSH1 0xE0 SHL PUSH0 MSTORE PUSH1 0x32 PUSH1 0x4 MSTORE PUSH1 0x24 PUSH0 REVERT JUMPDEST PUSH0 DUP1 SWAP2 PUSH2 0xBB7 PUSH2 0xBC5 PUSH1 0x40 SWAP6 DUP5 PUSH1 0x80 DUP9 MLOAD PUSH2 0xB76 DUP2 PUSH2 0x881 JUMP JUMPDEST DUP3 DUP2 MSTORE DUP3 PUSH1 0x20 DUP3 ADD MSTORE DUP3 DUP11 DUP3 ADD MSTORE DUP3 PUSH1 0x60 DUP3 ADD MSTORE ADD MSTORE DUP7 MLOAD SWAP3 DUP4 SWAP2 PUSH1 0x20 DUP4 ADD SWAP6 DUP7 SWAP1 SWAP3 SWAP2 PUSH4 0xFFFFFFFF PUSH1 0x20 SWAP2 PUSH1 0x40 DUP5 ADD SWAP6 PUSH1 0x1 DUP1 PUSH1 0xA0 SHL SUB AND DUP5 MSTORE AND SWAP2 ADD MSTORE JUMP JUMPDEST SUB PUSH1 0x1F NOT DUP2 ADD DUP4 MSTORE DUP3 PUSH2 0x89C JUMP JUMPDEST MLOAD SWAP1 PUSH2 0x80B GAS STATICCALL SWAP1 PUSH2 0xBD5 PUSH2 0xA02 JUMP JUMPDEST SWAP2 ISZERO PUSH2 0xC27 JUMPI PUSH1 0xA0 DUP3 DUP1 MLOAD DUP2 ADD SUB SLT PUSH2 0x12E JUMPI PUSH1 0x20 DUP3 ADD MLOAD SWAP2 DUP2 DUP2 ADD MLOAD SWAP2 PUSH1 0x60 DUP3 ADD MLOAD SWAP1 PUSH1 0xA0 PUSH1 0x80 DUP5 ADD MLOAD SWAP4 ADD MLOAD SWAP4 DUP2 MLOAD SWAP6 PUSH2 0xC10 DUP8 PUSH2 0x881 JUMP JUMPDEST DUP7 MSTORE PUSH1 0x20 DUP7 ADD MSTORE DUP5 ADD MSTORE PUSH1 0x60 DUP4 ADD MSTORE PUSH1 0x80 DUP3 ADD MSTORE SWAP1 JUMP JUMPDEST MLOAD PUSH3 0x461BCD PUSH1 0xE5 SHL DUP2 MSTORE PUSH1 0x20 PUSH1 0x4 DUP3 ADD MSTORE PUSH1 0x23 PUSH1 0x24 DUP3 ADD MSTORE PUSH32 0x55736572506F736974696F6E20707265636F6D70696C652063616C6C20666169 PUSH1 0x44 DUP3 ADD MSTORE PUSH3 0x1B1959 PUSH1 0xEA SHL PUSH1 0x64 DUP3 ADD MSTORE PUSH1 0x84 SWAP1 REVERT JUMPDEST PUSH1 0x40 DUP1 MLOAD PUSH1 0x1 PUSH1 0x1 PUSH1 0xA0 SHL SUB SWAP1 SWAP3 AND PUSH1 0x20 DUP4 ADD SWAP1 DUP2 MSTORE PUSH4 0xFFFFFFFF SWAP1 SWAP4 AND SWAP1 DUP3 ADD MSTORE PUSH0 SWAP2 DUP3 SWAP2 PUSH2 0xCA9 DUP2 PUSH1 0x60 DUP2 ADD PUSH2 0xBB7 JUMP JUMPDEST MLOAD SWAP1 PUSH2 0x80C GAS STATICCALL PUSH2 0xCB8 PUSH2 0xA02 JUMP JUMPDEST SWAP1 ISZERO PUSH2 0xCD2 JUMPI PUSH1 0x20 DUP2 DUP1 MLOAD DUP2 ADD SUB SLT PUSH2 0x12E JUMPI PUSH1 0x20 ADD MLOAD SWAP1 JUMP JUMPDEST PUSH1 0x40 MLOAD PUSH3 0x461BCD PUSH1 0xE5 SHL DUP2 MSTORE PUSH1 0x20 PUSH1 0x4 DUP3 ADD MSTORE PUSH1 0x26 PUSH1 0x24 DUP3 ADD MSTORE PUSH32 0x5573657253706F7442616C616E636520707265636F6D70696C652063616C6C20 PUSH1 0x44 DUP3 ADD MSTORE PUSH6 0x19985A5B1959 PUSH1 0xD2 SHL PUSH1 0x64 DUP3 ADD MSTORE PUSH1 0x84 SWAP1 REVERT JUMPDEST PUSH0 DUP1 SWAP2 PUSH1 0x40 MLOAD PUSH4 0xFFFFFFFF PUSH1 0x20 DUP3 ADD SWAP3 AND DUP3 MSTORE PUSH1 0x20 DUP2 MSTORE PUSH2 0xD46 DUP2 PUSH2 0x866 JUMP JUMPDEST MLOAD SWAP1 PUSH2 0x807 GAS STATICCALL PUSH2 0xD55 PUSH2 0xA02 JUMP JUMPDEST SWAP1 ISZERO PUSH2 0xD7F JUMPI PUSH1 0x20 DUP2 DUP1 MLOAD DUP2 ADD SUB SLT PUSH2 0x12E JUMPI PUSH1 0x20 ADD MLOAD PUSH1 0x1 PUSH1 0x1 PUSH1 0x40 SHL SUB DUP2 AND DUP2 SUB PUSH2 0x12E JUMPI SWAP1 JUMP JUMPDEST PUSH1 0x40 MLOAD PUSH3 0x461BCD PUSH1 0xE5 SHL DUP2 MSTORE PUSH1 0x20 PUSH1 0x4 DUP3 ADD MSTORE PUSH1 0x1F PUSH1 0x24 DUP3 ADD MSTORE PUSH32 0x4F7261636C65507820707265636F6D70696C652063616C6C206661696C656400 PUSH1 0x44 DUP3 ADD MSTORE PUSH1 0x64 SWAP1 REVERT JUMPDEST PUSH1 0x40 SWAP1 DUP2 MLOAD PUSH2 0xDD2 DUP2 PUSH2 0x881 JUMP JUMPDEST PUSH1 0x60 DUP2 MSTORE PUSH0 PUSH1 0x80 PUSH1 0x20 SWAP3 DUP3 DUP5 DUP3 ADD MSTORE PUSH1 0x60 DUP7 DUP3 ADD MSTORE DUP3 PUSH1 0x60 DUP3 ADD MSTORE ADD MSTORE PUSH0 DUP1 DUP5 MLOAD DUP4 DUP2 ADD SWAP1 PUSH4 0xFFFFFFFF DUP1 SWAP7 AND DUP3 MSTORE DUP5 DUP2 MSTORE PUSH2 0xE0D DUP2 PUSH2 0x866 JUMP JUMPDEST MLOAD SWAP1 PUSH2 0x808 GAS STATICCALL PUSH2 0xE1C PUSH2 0xA02 JUMP JUMPDEST SWAP1 ISZERO PUSH2 0xEBA JUMPI DUP1 MLOAD DUP2 ADD SWAP1 PUSH1 0xA0 DUP2 DUP5 DUP5 ADD SWAP4 SUB SLT PUSH2 0x12E JUMPI DUP3 DUP2 ADD MLOAD SWAP4 PUSH1 0x1 PUSH1 0x1 PUSH1 0x40 SHL SUB SWAP5 DUP6 DUP2 GT PUSH2 0x12E JUMPI DUP4 DUP6 PUSH2 0xE57 SWAP3 DUP6 ADD ADD PUSH2 0xA31 JUMP JUMPDEST SWAP6 PUSH2 0xE63 DUP2 DUP5 ADD PUSH2 0xA76 JUMP JUMPDEST SWAP5 PUSH1 0x60 DUP5 ADD MLOAD SWAP7 DUP8 GT PUSH2 0x12E JUMPI PUSH2 0xE82 PUSH1 0xFF SWAP8 SWAP6 DUP3 DUP10 SWAP8 DUP8 ADD ADD PUSH2 0xA31 JUMP JUMPDEST SWAP3 PUSH2 0xE94 PUSH1 0xA0 PUSH2 0x59C PUSH1 0x80 DUP9 ADD PUSH2 0xA87 JUMP JUMPDEST SWAP7 DUP4 MLOAD SWAP10 PUSH2 0xEA1 DUP12 PUSH2 0x881 JUMP JUMPDEST DUP11 MSTORE AND SWAP1 DUP9 ADD MSTORE DUP7 ADD MSTORE AND PUSH1 0x60 DUP5 ADD MSTORE AND PUSH1 0x80 DUP3 ADD MSTORE SWAP1 JUMP JUMPDEST DUP4 MLOAD PUSH3 0x461BCD PUSH1 0xE5 SHL DUP2 MSTORE PUSH1 0x4 DUP2 ADD DUP4 SWAP1 MSTORE PUSH1 0x1F PUSH1 0x24 DUP3 ADD MSTORE PUSH32 0x53706F744D65746120707265636F6D70696C652063616C6C206661696C656400 PUSH1 0x44 DUP3 ADD MSTORE PUSH1 0x64 SWAP1 REVERT JUMPDEST SWAP2 SWAP1 DUP3 ADD DUP1 SWAP3 GT PUSH2 0x9B5 JUMPI JUMP JUMPDEST PUSH1 0xFF AND PUSH1 0x4D DUP2 GT PUSH2 0x9B5 JUMPI PUSH1 0xA EXP SWAP1 JUMP INVALID LOG2 PUSH5 0x6970667358 0x22 SLT KECCAK256 0xF7 TSTORE PUSH25 0xFF89C227C167902C757B4E24638771EF4E218AE94FE521A2E5 PUSH1 0xDE CALLCODE SHL PUSH5 0x736F6C6343 STOP ADDMOD XOR STOP CALLER "},"methodIdentifiers":{"batchOraclePrices(uint32[])":"5515e1f4","checkLiquidationRisk(address,uint32,uint256)":"005b846f","convertOraclePrice(uint64,uint8)":"eae5cc9b","getPortfolioValue(address,uint32[],uint32[])":"e3cd5731","getUserPerpBalance(address)":"4f6a01e2","getUserPosition(address,uint32)":"9b62caa2","getUserSpotBalance(address,uint32)":"a9a74426","oraclePx(uint32)":"c0f0f5ef","perpAssetInfo(uint32)":"4162cd32","perpMetaInfo(uint32)":"29cae7f2","spotMeta(uint32)":"c78af6d5"}}}}}