{"project/src/contracts/hyperevm/VaultFactory.sol":{"VaultFactory":{"abi":[{"inputs":[{"internalType":"address","name":"_defaultDepositToken","type":"address"},{"internalType":"address","name":"_feeRecipient","type":"address"}],"stateMutability":"nonpayable","type":"constructor"},{"inputs":[{"internalType":"address","name":"owner","type":"address"}],"name":"OwnableInvalidOwner","type":"error"},{"inputs":[{"internalType":"address","name":"account","type":"address"}],"name":"OwnableUnauthorizedAccount","type":"error"},{"anonymous":false,"inputs":[{"indexed":false,"internalType":"address[]","name":"topVaults","type":"address[]"}],"name":"LeaderboardUpdated","type":"event"},{"anonymous":false,"inputs":[{"indexed":true,"internalType":"address","name":"previousOwner","type":"address"},{"indexed":true,"internalType":"address","name":"newOwner","type":"address"}],"name":"OwnershipTransferred","type":"event"},{"anonymous":false,"inputs":[{"indexed":true,"internalType":"address","name":"vault","type":"address"},{"indexed":false,"internalType":"uint256","name":"totalReturn","type":"uint256"},{"indexed":false,"internalType":"uint256","name":"sharpeRatio","type":"uint256"},{"indexed":false,"internalType":"uint256","name":"aum","type":"uint256"}],"name":"PerformanceUpdated","type":"event"},{"anonymous":false,"inputs":[{"indexed":true,"internalType":"address","name":"vault","type":"address"},{"indexed":true,"internalType":"address","name":"creator","type":"address"},{"indexed":false,"internalType":"string","name":"name","type":"string"},{"indexed":false,"internalType":"address","name":"aiAgent","type":"address"},{"indexed":false,"internalType":"address","name":"keeperBot","type":"address"}],"name":"VaultCreated","type":"event"},{"inputs":[{"internalType":"uint256","name":"","type":"uint256"}],"name":"allVaults","outputs":[{"internalType":"address","name":"","type":"address"}],"stateMutability":"view","type":"function"},{"inputs":[{"internalType":"string","name":"name","type":"string"},{"internalType":"string","name":"description","type":"string"},{"internalType":"string","name":"strategyType","type":"string"},{"internalType":"address","name":"aiAgent","type":"address"},{"internalType":"address","name":"keeperBot","type":"address"},{"components":[{"internalType":"uint256","name":"maxPositionSize","type":"uint256"},{"internalType":"uint256","name":"maxLeverage","type":"uint256"},{"internalType":"uint256","name":"maxDrawdown","type":"uint256"},{"internalType":"uint256","name":"performanceFee","type":"uint256"},{"internalType":"uint256","name":"managementFee","type":"uint256"},{"internalType":"uint32[]","name":"allowedAssets","type":"uint32[]"}],"internalType":"struct AIAgentVault.TradingConfig","name":"tradingConfig","type":"tuple"}],"name":"createVault","outputs":[{"internalType":"address","name":"vault","type":"address"}],"stateMutability":"payable","type":"function"},{"inputs":[{"internalType":"address","name":"vault","type":"address"}],"name":"deactivateVault","outputs":[],"stateMutability":"nonpayable","type":"function"},{"inputs":[],"name":"defaultDepositToken","outputs":[{"internalType":"address","name":"","type":"address"}],"stateMutability":"view","type":"function"},{"inputs":[],"name":"feeRecipient","outputs":[{"internalType":"address","name":"","type":"address"}],"stateMutability":"view","type":"function"},{"inputs":[],"name":"getAggregateStats","outputs":[{"internalType":"uint256","name":"totalAUM","type":"uint256"},{"internalType":"uint256","name":"totalVolume","type":"uint256"},{"internalType":"uint256","name":"averageReturn","type":"uint256"}],"stateMutability":"view","type":"function"},{"inputs":[{"internalType":"uint256","name":"count","type":"uint256"}],"name":"getTopVaults","outputs":[{"internalType":"address[]","name":"vaults","type":"address[]"},{"components":[{"internalType":"uint256","name":"totalReturn","type":"uint256"},{"internalType":"uint256","name":"sharpeRatio","type":"uint256"},{"internalType":"uint256","name":"maxDrawdown","type":"uint256"},{"internalType":"uint256","name":"winRate","type":"uint256"},{"internalType":"uint256","name":"totalVolume","type":"uint256"},{"internalType":"uint256","name":"aum","type":"uint256"},{"internalType":"uint256","name":"lastUpdated","type":"uint256"},{"internalType":"uint256","name":"rank","type":"uint256"}],"internalType":"struct VaultFactory.PerformanceRecord[]","name":"performances","type":"tuple[]"}],"stateMutability":"view","type":"function"},{"inputs":[],"name":"getTotalVaults","outputs":[{"internalType":"uint256","name":"","type":"uint256"}],"stateMutability":"view","type":"function"},{"inputs":[{"internalType":"address","name":"user","type":"address"}],"name":"getUserVaults","outputs":[{"internalType":"address[]","name":"","type":"address[]"}],"stateMutability":"view","type":"function"},{"inputs":[{"internalType":"address","name":"vault","type":"address"}],"name":"getVaultDetails","outputs":[{"components":[{"internalType":"string","name":"name","type":"string"},{"internalType":"string","name":"description","type":"string"},{"internalType":"address","name":"creator","type":"address"},{"internalType":"uint256","name":"createdAt","type":"uint256"},{"internalType":"bool","name":"isActive","type":"bool"},{"internalType":"string","name":"strategyType","type":"string"},{"internalType":"uint256","name":"targetAUM","type":"uint256"}],"internalType":"struct VaultFactory.VaultMetadata","name":"metadata","type":"tuple"},{"components":[{"internalType":"uint256","name":"totalReturn","type":"uint256"},{"internalType":"uint256","name":"sharpeRatio","type":"uint256"},{"internalType":"uint256","name":"maxDrawdown","type":"uint256"},{"internalType":"uint256","name":"winRate","type":"uint256"},{"internalType":"uint256","name":"totalVolume","type":"uint256"},{"internalType":"uint256","name":"aum","type":"uint256"},{"internalType":"uint256","name":"lastUpdated","type":"uint256"},{"internalType":"uint256","name":"rank","type":"uint256"}],"internalType":"struct VaultFactory.PerformanceRecord","name":"performance","type":"tuple"}],"stateMutability":"view","type":"function"},{"inputs":[{"internalType":"address","name":"","type":"address"}],"name":"isVault","outputs":[{"internalType":"bool","name":"","type":"bool"}],"stateMutability":"view","type":"function"},{"inputs":[{"internalType":"uint256","name":"","type":"uint256"}],"name":"leaderboard","outputs":[{"internalType":"address","name":"","type":"address"}],"stateMutability":"view","type":"function"},{"inputs":[],"name":"maxVaultsPerUser","outputs":[{"internalType":"uint256","name":"","type":"uint256"}],"stateMutability":"view","type":"function"},{"inputs":[],"name":"owner","outputs":[{"internalType":"address","name":"","type":"address"}],"stateMutability":"view","type":"function"},{"inputs":[],"name":"renounceOwnership","outputs":[],"stateMutability":"nonpayable","type":"function"},{"inputs":[{"internalType":"string","name":"strategyType","type":"string"}],"name":"searchVaultsByStrategy","outputs":[{"internalType":"address[]","name":"","type":"address[]"}],"stateMutability":"view","type":"function"},{"inputs":[{"internalType":"address","name":"newOwner","type":"address"}],"name":"transferOwnership","outputs":[],"stateMutability":"nonpayable","type":"function"},{"inputs":[{"internalType":"uint256","name":"_maxVaultsPerUser","type":"uint256"},{"internalType":"uint256","name":"_vaultCreationFee","type":"uint256"}],"name":"updateConfig","outputs":[],"stateMutability":"nonpayable","type":"function"},{"inputs":[{"internalType":"address","name":"_feeRecipient","type":"address"}],"name":"updateFeeRecipient","outputs":[],"stateMutability":"nonpayable","type":"function"},{"inputs":[{"internalType":"address","name":"vault","type":"address"}],"name":"updatePerformance","outputs":[],"stateMutability":"nonpayable","type":"function"},{"inputs":[{"internalType":"address","name":"","type":"address"},{"internalType":"uint256","name":"","type":"uint256"}],"name":"userVaults","outputs":[{"internalType":"address","name":"","type":"address"}],"stateMutability":"view","type":"function"},{"inputs":[],"name":"vaultCreationFee","outputs":[{"internalType":"uint256","name":"","type":"uint256"}],"stateMutability":"view","type":"function"},{"inputs":[{"internalType":"address","name":"","type":"address"}],"name":"vaultMetadata","outputs":[{"internalType":"string","name":"name","type":"string"},{"internalType":"string","name":"description","type":"string"},{"internalType":"address","name":"creator","type":"address"},{"internalType":"uint256","name":"createdAt","type":"uint256"},{"internalType":"bool","name":"isActive","type":"bool"},{"internalType":"string","name":"strategyType","type":"string"},{"internalType":"uint256","name":"targetAUM","type":"uint256"}],"stateMutability":"view","type":"function"},{"inputs":[{"internalType":"address","name":"","type":"address"}],"name":"vaultPerformance","outputs":[{"internalType":"uint256","name":"totalReturn","type":"uint256"},{"internalType":"uint256","name":"sharpeRatio","type":"uint256"},{"internalType":"uint256","name":"maxDrawdown","type":"uint256"},{"internalType":"uint256","name":"winRate","type":"uint256"},{"internalType":"uint256","name":"totalVolume","type":"uint256"},{"internalType":"uint256","name":"aum","type":"uint256"},{"internalType":"uint256","name":"lastUpdated","type":"uint256"},{"internalType":"uint256","name":"rank","type":"uint256"}],"stateMutability":"view","type":"function"}],"evm":{"bytecode":{"linkReferences":{},"object":"608034620000f457601f620043ab38819003918201601f19168301916001600160401b03831184841017620000f8578084926040948552833981010312620000f4576200005a602062000052836200010c565b92016200010c565b903315620000dc575f549160018060a01b03908160018060a01b03199333858716175f5560405195823391167f8be0079c531659141344cd1fd0a4f28419497f9722a3daafe3b4186f6b6457e05f80a3600a60075567016345785d8a00006008551683600a541617600a55169060095416176009556142899081620001228239f35b604051631e4fbdf760e01b81525f6004820152602490fd5b5f80fd5b634e487b7160e01b5f52604160045260245ffd5b51906001600160a01b0382168203620000f45756fe608080604052600436101562000013575f80fd5b5f905f3560e01c908163189209151462001d8d575080632645ac631462001c1e5780633b8ba7a11462001bf4578063469048401462001bca578063472ae7ce1462001ad6578063508cc7c814620019615780635486f1001462001942578063652b9b41146200190157806367a44ca31462001723578063715018a614620016c85780637858d7e714620016a95780638248e722146200167e5780638da5cb5b14620016555780639094a91e146200162757806399ed8dc31462000ff65780639c841fef1462000f98578063a96c00c11462000e8c578063aa9f62171462000ddf578063bf3683991462000d98578063cf0e7c401462000d79578063dadb387414620002b8578063e7f3c69c1462000216578063f160d36914620001d05763f2fde38b146200013f575f80fd5b34620001cd576020366003190112620001cd576200015c62001e12565b62000166620022da565b6001600160a01b03908116908115620001b4575f54826001600160601b0360a01b8216175f55167f8be0079c531659141344cd1fd0a4f28419497f9722a3daafe3b4186f6b6457e05f80a380f35b604051631e4fbdf760e01b815260048101849052602490fd5b80fd5b5034620001cd576020366003190112620001cd57620001ee62001e12565b620001f8620022da565b60018060a01b03166001600160601b0360a01b600954161760095580f35b5034620001cd57602080600319360112620002b4576001600160a01b0391604090836200024262001e12565b168152600283522091604051809384918482549182815201915f52845f20935f905b86838310620002975785906200027d8287038362001e76565b6200029360405192828493845283019062001f00565b0390f35b865482168552600196870196899650940193919091019062000264565b5080fd5b5060c036600319011262000c8d576004356001600160401b03811162000c8d57620002e890369060040162001eb4565b906024356001600160401b03811162000c8d576200030b90369060040162001eb4565b916044356001600160401b03811162000c8d576200032e90369060040162001eb4565b606435939092906001600160a01b038516850362000c8d576084356001600160a01b038116900362000c8d576001600160401b0360a4351162000c8d5760c060a4353603600319011262000c8d57604051938460c08101106001600160401b0360c08701111762000c115760c0850160405260a435600401358552602460a43501356020860152604460a43501356040860152606460a43501356060860152608460a4350135608086015260a4803501356001600160401b03811162000c8d573660238260a4350101121562000c8d576200041160048260a43501013562002133565b9062000421604051928362001e76565b60a435810160048101358084526020840192913660059290921b016024011162000c8d5760248160a4350101915b60a4358201600481013560051b01602401831062000d585750505060a0860152600854341062000d1357335f52600260205260405f2054600754111562000cd9578351801515908162000ccc575b501562000c9157600a54604051906001600160a01b03166001600160401b03611db583019081119083111762000c1157611db56200249f8339611db582019081526084356001600160a01b03908116602083015288166040820152819003606001905ff094851562000c62576001600160a01b0386163b1562000c8d576040518091635c6b724d60e01b82526020600483015260a060e483019180516024850152602081015160448501526040810151606485015260608101516084850152608081015160a485015201519060c060c48401528151809152602061010484019201905f5b81811062000c6d57505f93928390039150829050836001600160a01b038b165af1801562000c625762000c4c575b506001600160a01b0385163b1562000c3d5760405163f2fde38b60e01b81523360048201528381602481836001600160a01b038b165af1801562000c415790849162000c25575b5050600154600160401b81101562000c11576200061e8160016200063d93016001556200209d565b81546001600160a01b0389811660039390931b92831b921b1916179055565b338352600260205260408320805490600160401b82101562000c1157816200061e9160016200066f940181556200211d565b6001600160a01b038516835260036020526040808420805460ff1916600117905551916200069d8362001e29565b84835260208301523360408301524260608301526001608083015260a08201528160c082015260018060a01b03841682526004602052604082209080518051906001600160401b03821162000a9a578190620006fa855462001f3e565b601f811162000bdd575b50602090601f831160011462000b7057869262000b64575b50508160011b915f199060031b1c19161782555b60208101518051906001600160401b03821162000a9a57819062000758600186015462001f3e565b601f811162000b2d575b50602090601f831160011462000aba57869262000aae575b50508160011b915f199060031b1c19161760018301555b6002820160018060a01b036040830151166001600160601b0360a01b82541617905560608101516003830155600482016080820151151560ff8019835416911617905560a08101518051906001600160401b03821162000a9a57620007fa600585015462001f3e565b601f811162000a57575b50602090601f8311600114620009e15791806006949260c0948892620009d5575b50508160011b915f199060031b1c19161760058501555b0151910155600154600760405191620008558362001e59565b838352602083018481526040840185815260608501868152608086019087825260a087019288845260c088019442865260e0890196875260018060a01b038c168a52600560205260408a2098518955516001890155516002880155516003870155516004860155516005850155516006840155519101553462000946575b50602092620008ee6040519260608452606084019062002012565b6001600160a01b0391821683860152608435821660408401523392918416917f8b4b1b0dcaba910eccab46f2ee0dc87a77f225166101a39744209a97d55df71d9181900390a36040516001600160a01b039091168152f35b808080803460018060a01b03600954165af1903d15620009ce573d906200096d8262001e98565b916200097d604051938462001e76565b825260203d92013e5b1562000993575f620008d3565b60405162461bcd60e51b8152602060048201526013602482015272119959481d1c985b9cd9995c8819985a5b1959606a1b6044820152606490fd5b5062000986565b015190505f8062000825565b906005850186526020862091865b601f198516811062000a3e5750926006949260019260c09583601f1981161062000a25575b505050811b0160058501556200083c565b01515f1960f88460031b161c191690555f808062000a14565b91926020600181928685015181550194019201620009ef565b62000a889060058601875260208720601f850160051c8101916020861062000a8f575b601f0160051c0190620022c2565b5f62000804565b909150819062000a7a565b634e487b7160e01b85526041600452602485fd5b015190505f806200077a565b9250600185018652602086209086935b601f198416851062000b11576001945083601f1981161062000af8575b505050811b01600183015562000791565b01515f1960f88460031b161c191690555f808062000ae7565b8181015183556020948501946001909301929091019062000aca565b62000b5d9060018701885260208820601f850160051c8101916020861062000a8f57601f0160051c0190620022c2565b5f62000762565b015190505f806200071c565b9250848652602086209086935b601f198416851062000bc1576001945083601f1981161062000ba8575b505050811b01825562000730565b01515f1960f88460031b161c191690555f808062000b9a565b8181015183556020948501946001909301929091019062000b7d565b62000c0a9086885260208820601f850160051c8101916020861062000a8f57601f0160051c0190620022c2565b5f62000704565b634e487b7160e01b5f52604160045260245ffd5b62000c309062001e45565b62000c3d57825f620005f6565b8280fd5b6040513d86823e3d90fd5b62000c5991935062001e45565b5f915f620005af565b6040513d5f823e3d90fd5b825163ffffffff1684528594506020938401939092019160010162000581565b5f80fd5b60405162461bcd60e51b8152602060048201526013602482015272092dcecc2d8d2c840dcc2daca40d8cadccee8d606b1b6044820152606490fd5b6020915011155f6200049d565b60405162461bcd60e51b815260206004820152601260248201527113585e081d985d5b1d1cc81c995858da195960721b6044820152606490fd5b60405162461bcd60e51b815260206004820152601960248201527f496e73756666696369656e74206372656174696f6e20666565000000000000006044820152606490fd5b82359063ffffffff8216820362000c8d57908152602092830192016200044f565b3462000c8d575f36600319011262000c8d576020600854604051908152f35b3462000c8d57602036600319011262000c8d5760043560065481101562000c8d5762000dc6602091620020e7565b905460405160039290921b1c6001600160a01b03168152f35b3462000c8d57602036600319011262000c8d576001600160a01b038062000e0562001e12565b1690815f52600360205262000e2160ff60405f20541662002241565b815f526004602052600260405f20015416330362000e53575f526004602052600460405f200160ff1981541690555f80f35b60405162461bcd60e51b81526020600482015260116024820152702737ba103b30bab63a1031b932b0ba37b960791b6044820152606490fd5b3462000c8d575f36600319011262000c8d575f805f805f600190600154905b81811062000ef85750508215905062000eeb57620002939162000ece9162002295565b604051938493846040919493926060820195825260208201520152565b5050620002935f62000ece565b62000f03816200209d565b60018060a01b0391549060031b1c16805f5260206004815260ff600460405f2001541662000f36575b5050820162000eab565b8492969562000f8f92999862000f889262000f7862000f626005938484528460405f20015490620022b4565b9b8d5f52838352600460405f20015490620022b4565b9b5f525260405f205490620022b4565b946200214b565b94908862000f2c565b3462000c8d57604036600319011262000c8d5762000fb562001e12565b6024359060018060a01b038091165f52600260205260405f20805483101562000c8d5760209262000fe6916200211d565b9190546040519260031b1c168152f35b3462000c8d5760208060031936011262000c8d576001600160a01b03806200101d62001e12565b16805f526003928381526200103960ff60405f20541662002241565b604051630979ea5160e11b81528181600481865afa801562000c625784915f91620015e6575b50163303620015b057604051633114841160e11b8152938185600481865afa94851562000c62575f956200157b575b50604051637d88209760e01b81528281600481875afa90811562000c62575f9162001548575b5060405163a5f9392d60e01b81529360e085600481845afa96871562000c62575f80935f945f985f9b620014eb575b505f9180620014a6575b50620010fa9083620022b4565b8881156200147557506127109283810293818504149015171562001355577f8fba6965bb87ed104958174573e9aed72332779f1c2138defec56d0960e7e77c936200114b620011a0928b9562002295565b965b865f5260059760058b528960405f209e8f9087825560019e8f8301556002820155015560048d01558060058d015560069b8c42910155604051938493846040919493926060820195825260208201520152565b0390a28354905f198083018381115f885b62001369575b505050505f5b8281106200132057505085545f875580620012da575b506064811015620012d057905b5f5b8281106200127257505050906040519282840190838552855480925260408501955f527ff652222313e28459528d920b65115c16c04f3efc82aaedc97be59f3f377c0d3f935f915b8383106200125a577f7ccbd3e5f76ac81b086d3bf37b0df3fe40f7cb88cafa59f06b68ad014498768787890388a1005b8554811688529681019694840194918401916200122a565b856200127e826200209d565b905490841b1c16908754600160401b81101562000c11578692620012ab8285620012c994018c55620020e7565b90919060018060a01b038084549260031b9316831b921b1916179055565b01620011e2565b50606490620011e0565b865f52847ff652222313e28459528d920b65115c16c04f3efc82aaedc97be59f3f377c0d3f918201915b82811062001314575050620011d3565b5f815501859062001304565b8581019081811162001355578691886200133a836200209d565b905490881b1c165f52838752600760405f20015501620011bd565b634e487b7160e01b5f52601160045260245ffd5b816200135557828110156200146f5788939291905f855b62001393575b50840190919293620011b1565b909192939450620013a5828862002287565b85810190811162001355578a908210156200146457508a620013c7826200209d565b9054908a1b1c168a8201918281116200135557828a8e5f8f96879683620013f262001400936200209d565b905490871b1c169062002306565b1262001417575b5050500181959493929162001380565b6200145b926200145582620012ab9362001431886200209d565b905490871b1c169462001444846200209d565b9054911b1c16620012ab876200209d565b6200209d565b8e8a8e62001407565b949392919062001386565b620011b7565b925050620011a07f8fba6965bb87ed104958174573e9aed72332779f1c2138defec56d0960e7e77c935f966200114d565b80851115620010ed57909150620014be818562002287565b612710908181029181830414901517156200135557620010fa91620014e39162002295565b9190620010ed565b955050985050945060e0823d60e0116200153f575b816200150f60e0938362001e76565b8101031262000c8d578382015194604083015160608401519860a060808601519501519791999497998b620010e3565b3d915062001500565b90508281813d831162001573575b62001562818362001e76565b8101031262000c8d575186620010b4565b503d62001556565b9094508181813d8311620015a8575b62001596818362001e76565b8101031262000c8d575193856200108e565b503d6200158a565b6064906040519062461bcd60e51b82526004820152600f60248201526e13db9b1e481ad9595c195c88189bdd608a1b6044820152fd5b809250838092503d83116200161f575b62001602818362001e76565b8101031262000c8d5751838116810362000c8d578390866200105f565b503d620015f6565b3462000c8d57602036600319011262000c8d5760043560015481101562000c8d5762000dc66020916200209d565b3462000c8d575f36600319011262000c8d575f546040516001600160a01b039091168152602090f35b3462000c8d57604036600319011262000c8d576200169b620022da565b600435600755602435600855005b3462000c8d575f36600319011262000c8d576020600754604051908152f35b3462000c8d575f36600319011262000c8d57620016e4620022da565b5f80546001600160a01b0319811682556001600160a01b03167f8be0079c531659141344cd1fd0a4f28419497f9722a3daafe3b4186f6b6457e08280a3005b3462000c8d5760208060031936011262000c8d57620018ad6200174562001e12565b915f60c0604051620017578162001e29565b60608152606084820152826040820152826060820152826080820152606060a0820152015262001786620021a7565b506001600160a01b039283165f818152600383526040902054620017ad9060ff1662002241565b5f52600481526200029360405f20936005835260405f2092620018f060405196620017d88862001e29565b604051620017f481620017ec818562001f79565b038262001e76565b88526040519762001816896200180e816001860162001f79565b038a62001e76565b83810198895284600283015416916040820192835260038101546060830190815260ff60048301541690608084019115158252620018866006604051946200186f8662001867816005850162001f79565b038762001e76565b60a0870195865201549a60c086019b8c52620021e5565b97620018c56040519d8e9d8e9760e061012091828b5251918a015261020089019062002012565b905161011f1997610140898285030191015262002012565b9551166101608c0152516101808b01525115156101a08a01525190888303016101c089015262002012565b93516101e086015284019062002052565b3462000c8d57602036600319011262000c8d576001600160a01b036200192662001e12565b165f526003602052602060ff60405f2054166040519015158152f35b3462000c8d575f36600319011262000c8d576020600154604051908152f35b3462000c8d5760208060031936011262000c8d576004356006548082105f1462001ace57505b62001992816200215a565b906200199e8162002133565b90620019ae604051928362001e76565b808252620019bc8162002133565b601f19015f5b81811062001ab05750505f5b81811062001a39575050620019ef6040519260408452604084019062001f00565b828103848401528380835192838152019201935f5b82811062001a125784840385f35b909192826101008262001a296001948a5162002052565b0196019101949291909462001a04565b8062001a4a600192969496620020e7565b838060a01b03809254600392831b1c1662001a66848962002192565b5262001a7283620020e7565b9054911b1c165f526005845262001a8c60405f20620021e5565b62001a98828862002192565b5262001aa5818762002192565b5001939193620019ce565b9480939562001abe620021a7565b82828901015201949294620019c2565b905062001987565b3462000c8d57602036600319011262000c8d5762001b916001600160a01b038062001b0062001e12565b165f52600460205260405f209062001bc06040519262001b2e8462001b26818462001f79565b038562001e76565b6040519262001b468462001b26816001860162001f79565b60028201541690600381015460ff6004830154169062001ba060066040519462001b798662001867816005850162001f79565b015496604051998a9960e08b5260e08b019062002012565b9089820360208b015262002012565b93604088015260608701521515608086015284820360a086015262002012565b9060c08301520390f35b3462000c8d575f36600319011262000c8d576009546040516001600160a01b039091168152602090f35b3462000c8d575f36600319011262000c8d57600a546040516001600160a01b039091168152602090f35b3462000c8d5760208060031936011262000c8d576004356001600160401b03811162000c8d5762001c5490369060040162001eb4565b600180549192918284015f83815b84811062001d2457505062001c77906200215a565b945f915f5b84811062001c99576040518781528062000293818a018b62001f00565b8062001ca687926200209d565b60018060a01b03809254600392831b1c165f5260048a52620017ec62001cd9600560405f20016040519283809262001f79565b8a8151910120865186201462001cf3575b50500162001c7c565b62001cfe836200209d565b9054911b1c1662001d1b62001d13876200214b565b968b62002192565b52898062001cea565b62001d2f816200209d565b60018060a01b0391549060031b1c165f5260048752620017ec62001d60600560405f20016040519283809262001f79565b878151910120885185201462001d7a575b01849062001c62565b9162001d86906200214b565b9162001d71565b3462000c8d57602036600319011262000c8d57610100906001600160a01b0362001db662001e12565b165f52600560205260405f2080549060018101546002820154600383015460048401549160058501549360076006870154960154968852602088015260408701526060860152608085015260a084015260c083015260e0820152f35b600435906001600160a01b038216820362000c8d57565b60e081019081106001600160401b0382111762000c1157604052565b6001600160401b03811162000c1157604052565b61010081019081106001600160401b0382111762000c1157604052565b90601f801991011681019081106001600160401b0382111762000c1157604052565b6001600160401b03811162000c1157601f01601f191660200190565b81601f8201121562000c8d5780359062001ece8262001e98565b9262001ede604051948562001e76565b8284526020838301011162000c8d57815f926020809301838601378301015290565b9081518082526020808093019301915f5b82811062001f20575050505090565b83516001600160a01b03168552938101939281019260010162001f11565b90600182811c9216801562001f6e575b602083101462001f5a57565b634e487b7160e01b5f52602260045260245ffd5b91607f169162001f4e565b80545f939262001f898262001f3e565b918282526020936001916001811690815f1462001ff2575060011462001fb1575b5050505050565b90939495505f92919252835f2092845f945b83861062001fdd57505050500101905f8080808062001faa565b80548587018301529401938590820162001fc3565b60ff19168685015250505090151560051b010191505f8080808062001faa565b91908251928382525f5b8481106200203d575050825f602080949584010152601f8019910116010190565b6020818301810151848301820152016200201c565b60e08091805184526020810151602085015260408101516040850152606081015160608501526080810151608085015260a081015160a085015260c081015160c08501520151910152565b600154811015620020d35760015f527fb10e2d527612073b26eecdfd717e6a320cf44b4afac2b0732d9fcbe2b7fa0cf601905f90565b634e487b7160e01b5f52603260045260245ffd5b600654811015620020d35760065f527ff652222313e28459528d920b65115c16c04f3efc82aaedc97be59f3f377c0d3f01905f90565b8054821015620020d3575f5260205f2001905f90565b6001600160401b03811162000c115760051b60200190565b5f198114620013555760010190565b90620021668262002133565b62002175604051918262001e76565b828152809262002188601f199162002133565b0190602036910137565b8051821015620020d35760209160051b010190565b60405190620021b68262001e59565b5f60e0838281528260208201528260408201528260608201528260808201528260a08201528260c08201520152565b90604051620021f48162001e59565b60e0600782948054845260018101546020850152600281015460408501526003810154606085015260048101546080850152600581015460a0850152600681015460c08501520154910152565b156200224957565b60405162461bcd60e51b8152602060048201526016602482015275139bdd0818481c9959da5cdd195c9959081d985d5b1d60521b6044820152606490fd5b919082039182116200135557565b8115620022a0570490565b634e487b7160e01b5f52601260045260245ffd5b919082018092116200135557565b818110620022ce575050565b5f8155600101620022c2565b5f546001600160a01b03163303620022ee57565b60405163118cdaa760e01b8152336004820152602490fd5b6001600160a01b039081165f9081526005602052604090206200232990620021e5565b91165f5260056020526200234060405f20620021e5565b9080519160288302928084046028149015171562001355576064602083015193601e850294808604601e1490151715620013555762002390908280670de0b6b3a7640000809804049104620022b4565b9260a0810151936014850294808604601414901517156200135557620023c260809184620f42408098040490620022b4565b91015190600a820291808304600a149015171562001355578285620023ea93040490620022b4565b9382516028810290808204602814901517156200135557602084015191601e830292808404601e149015171562001355578380916200242d9404049104620022b4565b60a0830151601481029080820460141490151715620013555760809183866200245993040490620022b4565b92015192600a840293808504600a149015171562001355576200247f93040490620022b4565b9081811162002497571062002492575f90565b5f1990565b505060019056fe60a0346200033357601f62001db538819003918201601f19168301926001600160401b0392909183851183861017620003085781606092849260409788528339810103126200033357620000538162000337565b9160209262000071856200006986860162000337565b940162000337565b9133156200031c575f8054336001600160a01b0319808316821784556001600160a01b03989390928916907f8be0079c531659141344cd1fd0a4f28419497f9722a3daafe3b4186f6b6457e09080a3600180805593871660805260028054610100600160a81b031916600897881b610100600160a81b031617815560038054909216959097169490941784558651818101908382118183101762000308578189525f8152885160c08101908082108683111762000308578a9182528260a064174876e80092838152600a888201526107d0809582015284606082015260c860808201520152600b55600a600c5580600d55600e5560c8600f55519283116200030857680100000000000000008311620003085760105483601055808410620002ab575b5060105f5282825f20951c955f5b8781106200025557505060071983169092039182620001f4575b874260075551611a6890816200034d82396080518181816108070152818161091201528181611154015281816117bb01526118b20152f35b9291905f965f905b838210620002195750505050505001555f808080808080620001bc565b909192938362000247879a63ffffffff849951169086861b60031b9163ffffffff809116831b921b19161790565b9901959493920190620001fc565b85905f805b868c86831062000272575050508189015501620001a2565b879495938363ffffffff6200029d94959a5116921b60031b9163ffffffff809116831b921b19161790565b92019401908792916200025a565b60105f52825f206007808601881c82019201871c0190601c8560021b1680620002ef575b5085905b828110620002e357505062000194565b5f8155018590620002d3565b5f19908183019182549187038a1b1c1690555f620002cf565b634e487b7160e01b5f52604160045260245ffd5b8551631e4fbdf760e01b81525f6004820152602490fd5b5f80fd5b51906001600160a01b0382168203620003335756fe60406080815260049081361015610014575f80fd5b60e0905f35821c806301b49c741461160c57806302c19eb8146115cc578063046f7da2146115645780630ba36dcd1461152957806312f3d4a2146114fd5780631444663e146113385780631e8410da1461131a5780632af78bd1146111ff5780632e1a7d4d1461101f57806330a55e0b146110015780633a98ef3914610fe357806351858e2714610f3f5780635c6b724d14610c805780635c975abb14610c5d5780635d525afc14610c255780636046462714610c075780636229082214610beb5780636c92e58714610bbd578063715018a614610b665780637d88209714610b495780638da5cb5b14610b22578063a0f7211914610a89578063a5f9392d14610a3b578063a6d5b73214610a13578063afccebfa146109c1578063b18ea2fa1461099e578063b6b55f2514610836578063c89039c5146107f3578063ca02588c146105ad578063de69b3aa14610572578063f2fde38b146104e25763fbf114af1461017e575f80fd5b346104de57816003193601126104de57610196611655565b6024938435908115158092036104de57604491823591606480359460018060a01b036003541633036104af57600b54851161047b57600c548611610448576101dd87611842565b15610415576101ec8686611775565b6101f4611897565b106103df57505085519760209889810163ffffffff918289169863ffffffff60e01b908c1b1682528560f81b848201528660258201524260458201524360658201526065815261024381611668565b5190209861012c4201908142116103cd57895192610140840184811067ffffffffffffffff8211176103bb57918c9493918e8d9485528c86528b8187018b8152868801908d8252606089019283526080890193608435855260a08a019560a435875260c08b019760c43589528b019889526101008b01998c8b526101208c019c5f8e525f52601183525f209a5116908a5492511515901b64ff00000000169164ffffffffff19161717885551600188015551600287015551600386015551878501555160058401555160068301555160078201556008019051151560ff198254169060ff1617905560125491600160401b8310156103aa575050926080928795928661038f6103798860017f0f7c7ec9df2f18c69afd54815629b8ea102d1fe3e97c05507b3216253c4025d99a016012556116ba565b819391549060031b91821b915f19901b19161790565b9055875193845289840152868301526060820152a251908152f35b604190634e487b7160e01b5f52525ffd5b85604188634e487b7160e01b5f52525ffd5b83601186634e487b7160e01b5f52525ffd5b73125b9cdd59999a58da595b9d0818d85c1a5d185b60621b839160148c60208c519562461bcd60e51b8752860152840152820152fd5b70105cdcd95d081b9bdd08185b1b1bddd959607a1b839160118c60208c519562461bcd60e51b8752860152840152820152fd5b70098caeccae4c2ceca40e8dede40d0d2ced607b1b839160118c60208c519562461bcd60e51b8752860152840152820152fd5b71506f736974696f6e20746f6f206c6172676560701b839160128c60208c519562461bcd60e51b8752860152840152820152fd5b6c13db9b1e481052481859d95b9d609a1b8391600d8c60208c519562461bcd60e51b8752860152840152820152fd5b5f80fd5b8382346104de5760203660031901126104de576001600160a01b038235818116939192908490036104de5761051561194c565b831561055c5750505f54826bffffffffffffffffffffffff60a01b8216175f55167f8be0079c531659141344cd1fd0a4f28419497f9722a3daafe3b4186f6b6457e05f80a3005b905f6024925191631e4fbdf760e01b8352820152fd5b5082346104de5760203660031901126104de57356001600160a01b03811691908290036104de576020915f5260098252805f20549051908152f35b8382346104de5760603660031901126104de5781359060246044356105e060018060a01b0360025460081c163314611703565b835f526011946011602052835f209060088201805460ff81166107be57600684015442116107845760018094015485116107425760ff191660011790555f825b610667575b867f7af936ac70897f07a82f0b3a8b68b1c83d89652a4cbbe826051751460b84fcdb87878761065681601654611793565b6016558251913582526020820152a2005b601280548083101561073b5790889161067f846116ba565b939054600394851b1c1461069857505050820182610620565b9399919450925f19929183820191821161072a57506103796106bc6106c8926116ba565b905490871b1c926116ba565b905581549788156107185750807f7af936ac70897f07a82f0b3a8b68b1c83d89652a4cbbe826051751460b84fcdb97980192610703846116ba565b81939154921b1b191690555584938680610625565b60318691634e487b7160e01b5f52525ffd5b87908b634e487b7160e01b5f52525ffd5b5050610625565b865162461bcd60e51b8152602081850152601a818801527f53697a65206578636565647320617574686f72697a6174696f6e0000000000006044820152606490fd5b865162461bcd60e51b815260208185015260158188015274105d5d1a1bdc9a5e985d1a5bdb88195e1c1a5c9959605a1b6044820152606490fd5b865162461bcd60e51b81526020818501526010818801526f105b1c9958591e48195e1958dd5d195960821b6044820152606490fd5b50346104de575f3660031901126104de57517f00000000000000000000000000000000000000000000000000000000000000006001600160a01b03168152602090f35b5082346104de57602091826003193601126104de57813591610856611977565b61085e61199a565b8215610968577f90890809c654f11d6e72a28fa60149770a0d11ec6c92319d6ceb2bb0a4ea1a159293600a5480155f14610947575084915b335f5260088252835f206108ab878254611793565b9055335f5260098252835f206108c2848254611793565b90556108d083600a54611793565b600a556108de868254611793565b905561093683516323b872dd60e01b838201523360248201523060448201528660648201526064815261091081611668565b7f00000000000000000000000000000000000000000000000000000000000000006119b8565b82519485528401523392a260018055005b6109546109629187611762565b61095c6117a0565b90611775565b91610896565b83606492519162461bcd60e51b835282015260126024820152710416d6f756e74206d757374206265203e20360741b6044820152fd5b50346104de575f3660031901126104de576020906109ba611897565b9051908152f35b83346104de5760203660031901126104de57356001600160a01b03811681036104de576109ec61194c565b60028054610100600160a81b03191660089290921b610100600160a81b0316919091179055005b50346104de575f3660031901126104de5760035490516001600160a01b039091168152602090f35b50346104de575f3660031901126104de576013549060145490601554601654601754916018549360195495815197885260208801528601526060850152608084015260a083015260c0820152f35b50346104de5760203660031901126104de578261014093355f526011602052815f20908154936001830154916002840154906003850154908501549060058601549260068701549560ff600860078a0154990154169860ff81519b63ffffffff81168d5260201c16151560208c01528a01526060890152608088015260a087015260c08601528401526101008301521515610120820152f35b50346104de575f3660031901126104de575f5490516001600160a01b039091168152602090f35b8382346104de575f3660031901126104de57602091549051908152f35b346104de575f3660031901126104de57610b7e61194c565b5f80546001600160a01b0319811682556001600160a01b03167f8be0079c531659141344cd1fd0a4f28419497f9722a3daafe3b4186f6b6457e08280a3005b50346104de5760203660031901126104de57602090610be2610bdd611655565b611842565b90519015158152f35b50346104de575f3660031901126104de576020906109ba6117a0565b50346104de575f3660031901126104de576020906005549051908152f35b5082346104de5760203660031901126104de5735906012548210156104de57610c4f6020926116ba565b91905490519160031b1c8152f35b50346104de575f3660031901126104de5760209060ff6002541690519015158152f35b5082346104de576020906003199282843601126104de5781359067ffffffffffffffff948583116104de5760c09083360301126104de5780519160c0830183811087821117610f2c578252808401358352602492858101848301358152838201906044840135825260608301926064850135845260808101946084810135865260a4810135908b82116104de5701366023820112156104de5788810135968b8811610f1a578760051b905197610d388c83018a611698565b8852888b890191830101913683116104de578901905b828210610efe5750505060a08101958652610d6761194c565b51600b5551600c5551600d5551600e5551600f55519182519485116103aa57600160401b85116103aa575050819060105484601055808510610e74575b50019160105f528060031c915f5b838110610e26575060071982169091039081610dca57005b92905f935f5b828110610ded57505050505f80516020611a138339815191520155005b9091929482610e1b60019263ffffffff895116908560021b60031b9163ffffffff809116831b921b19161790565b960193929101610dd0565b5f805b60088110610e4b57505f80516020611a13833981519152820155600101610db2565b8651909691600191859163ffffffff60058b901b81811b199092169216901b1792019601610e29565b9091506007840160031c60075f80516020611a13833981519152920160031c820191601c8660021b1680610ec5575b5084939291015b818110610eb75750610da4565b5f8155849350600101610eaa565b7f1b6847dc741a1b0cd08d278845f9d819d87b734759afb55fe2de5cb82a9ae6718301908154905f1990880360031b1c16905586610ea3565b813563ffffffff811681036104de578152908b01908b01610d4e565b8860418b634e487b7160e01b5f52525ffd5b604185634e487b7160e01b5f525260245ffd5b50346104de575f3660031901126104de5760807f3358b4c11ffe20b50881bbc83bccd9dad1f68c942c96df6e0cd835ba6766f9bf91610f7c61194c565b610f8461199a565b600160ff1960025416176002557f62e78cea01bee320cd4e420270b5ea74000d11b0c9f74754ebdbfc544b05a25860208251338152a1600c8151918083528201526b4d616e75616c20706175736560a01b6060820152426020820152a1005b50346104de575f3660031901126104de57602090600a549051908152f35b50346104de575f3660031901126104de576020906007549051908152f35b8382346104de57602090816003193601126104de57823561103e611977565b801515806111eb575b156111b75761106961106061105a6117a0565b83611762565b600a5490611775565b92335f5260088152825f205480851161118b575b50335f5260098152825f20611093838254611741565b90556110a182600a54611741565b600a556110b084600554611793565b600555335f52600881526110e66110d2845f205460098452855f205490611762565b335f526009835261095c84865f2054611793565b335f5260088252835f205582519463a9059cbb60e01b8287015233602487015284604487015260448652608086019086821067ffffffffffffffff83111761117857507fdf273cb619d95419a9cd0ec88123a0538c85064229baa6363788f743fff90deb94956109369185527f00000000000000000000000000000000000000000000000000000000000000006119b8565b604190634e487b7160e01b5f525260245ffd5b936127106111a96111a06111b0949784611741565b600e5490611762565b0490611741565b928561107d565b815162461bcd60e51b8152808501849052600e60248201526d496e76616c69642073686172657360901b6044820152606490fd5b50335f5260098352815f2054811115611047565b5082346104de57602091826003193601126104de5761121c611655565b9181519263ffffffff858501911681528484528284019367ffffffffffffffff9481811086821117611307578452515f918291906108075afa903d156112ff573d918483116112ec5783519261127b601f8201601f1916880185611698565b83523d5f8785013e5b156112a9575083818051810103126104de578301519182168092036104de5751908152f35b825162461bcd60e51b8152908101859052601960248201527f4f7261636c65207072696365206665746368206661696c6564000000000000006044820152606490fd5b604182634e487b7160e01b5f525260245ffd5b606091611284565b604184634e487b7160e01b5f525260245ffd5b50346104de575f3660031901126104de576020906006549051908152f35b8382346104de57806003193601126104de57600254823592602435919061136d33600884901c6001600160a01b031614611703565b8460135582601755426019556113816117a0565b9060065482116114f4575b60065491826113d2575b7fcfad70fb533f2073c73626d88b038c57fd9dc8daa8a708ce9d09af45adb1c5ef606088888842600755815192835260208301524290820152a1005b6113dc9083611741565b90612710918281029281840414901517156114e15750916114237fcfad70fb533f2073c73626d88b038c57fd9dc8daa8a708ce9d09af45adb1c5ef96949260609694611775565b90600d54821161144d575b506018548111611444575b819395839550611396565b60185585611439565b60019061145861199a565b60ff1916176002557f62e78cea01bee320cd4e420270b5ea74000d11b0c9f74754ebdbfc544b05a25860208451338152a17f3358b4c11ffe20b50881bbc83bccd9dad1f68c942c96df6e0cd835ba6766f9bf608084518581526015868201527413585e08191c985dd91bdddb88195e18d959591959605a1b88820152426020820152a18661142e565b601190634e487b7160e01b5f525260245ffd5b8160065561138c565b50346104de575f3660031901126104de57600254905160089190911c6001600160a01b03168152602090f35b5082346104de5760203660031901126104de57356001600160a01b03811691908290036104de576020915f5260088252805f20549051908152f35b8382346104de575f3660031901126104de5761157e61194c565b6002549160ff8316156115be577f5db9ee0a495bf2e6ff9c91a7834c1ba4fdd244a5e8aa4e537bd38aeae4b073aa6020838560ff191660025551338152a1005b9051638dfc202b60e01b8152fd5b50346104de575f3660031901126104de5760a090600b5490600c5490600d54600e5491600f54938151958652602086015284015260608301526080820152f35b83346104de5760203660031901126104de57356001600160a01b038116908190036104de5761163961194c565b6bffffffffffffffffffffffff60a01b60035416176003555f80f35b6004359063ffffffff821682036104de57565b60a0810190811067ffffffffffffffff82111761168457604052565b634e487b7160e01b5f52604160045260245ffd5b90601f8019910116810190811067ffffffffffffffff82111761168457604052565b6012548110156116ef5760125f527fbb8a6a4669ba250d26cd7a459eca9d215f8307e33aebe50379bc5a3617ec344401905f90565b634e487b7160e01b5f52603260045260245ffd5b1561170a57565b60405162461bcd60e51b815260206004820152600f60248201526e13db9b1e481ad9595c195c88189bdd608a1b6044820152606490fd5b9190820391821161174e57565b634e487b7160e01b5f52601160045260245ffd5b8181029291811591840414171561174e57565b811561177f570490565b634e487b7160e01b5f52601260045260245ffd5b9190820180921161174e57565b6040516370a0823160e01b81523060048201526020816024817f00000000000000000000000000000000000000000000000000000000000000006001600160a01b03165afa8015611837575f90611803575b611800915060135490611793565b90565b506020813d60201161182f575b8161181d60209383611698565b810103126104de5761180090516117f2565b3d9150611810565b6040513d5f823e3d90fd5b60108054915f5b838110611857575050501590565b825f5263ffffffff8160031c5f80516020611a138339815191520154908084169160e08460051b161c161461188e57600101611849565b50505050600190565b6040516370a0823160e01b81523060048201526020816024817f00000000000000000000000000000000000000000000000000000000000000006001600160a01b03165afa908115611837575f9161191a575b506103e880820290828204148215171561174e576127109004808211156119145761180091611741565b50505f90565b90506020813d602011611944575b8161193560209383611698565b810103126104de57515f6118ea565b3d9150611928565b5f546001600160a01b0316330361195f57565b60405163118cdaa760e01b8152336004820152602490fd5b600260015414611988576002600155565b604051633ee5aeb560e01b8152600490fd5b60ff600254166119a657565b60405163d93c066560e01b8152600490fd5b905f602091828151910182855af115611837575f513d611a0957506001600160a01b0381163b155b6119e75750565b604051635274afe760e01b81526001600160a01b039091166004820152602490fd5b600114156119e056fe1b6847dc741a1b0cd08d278845f9d819d87b734759afb55fe2de5cb82a9ae672a2646970667358221220e93459a134af5a5492fdf6dcfa0aa36a50987f3a5c2c31dcb5e39d5a244e9fcb64736f6c63430008180033a26469706673582212208c2677c5a3e750b5f3e1980706d9637ec7d845089e4861e80d06c082d7735a2d64736f6c63430008180033","opcodes":"PUSH1 0x80 CALLVALUE PUSH3 0xF4 JUMPI PUSH1 0x1F PUSH3 0x43AB CODESIZE DUP2 SWAP1 SUB SWAP2 DUP3 ADD PUSH1 0x1F NOT AND DUP4 ADD SWAP2 PUSH1 0x1 PUSH1 0x1 PUSH1 0x40 SHL SUB DUP4 GT DUP5 DUP5 LT OR PUSH3 0xF8 JUMPI DUP1 DUP5 SWAP3 PUSH1 0x40 SWAP5 DUP6 MSTORE DUP4 CODECOPY DUP2 ADD SUB SLT PUSH3 0xF4 JUMPI PUSH3 0x5A PUSH1 0x20 PUSH3 0x52 DUP4 PUSH3 0x10C JUMP JUMPDEST SWAP3 ADD PUSH3 0x10C JUMP JUMPDEST SWAP1 CALLER ISZERO PUSH3 0xDC JUMPI PUSH0 SLOAD SWAP2 PUSH1 0x1 DUP1 PUSH1 0xA0 SHL SUB SWAP1 DUP2 PUSH1 0x1 DUP1 PUSH1 0xA0 SHL SUB NOT SWAP4 CALLER DUP6 DUP8 AND OR PUSH0 SSTORE PUSH1 0x40 MLOAD SWAP6 DUP3 CALLER SWAP2 AND PUSH32 0x8BE0079C531659141344CD1FD0A4F28419497F9722A3DAAFE3B4186F6B6457E0 PUSH0 DUP1 LOG3 PUSH1 0xA PUSH1 0x7 SSTORE PUSH8 0x16345785D8A0000 PUSH1 0x8 SSTORE AND DUP4 PUSH1 0xA SLOAD AND OR PUSH1 0xA SSTORE AND SWAP1 PUSH1 0x9 SLOAD AND OR PUSH1 0x9 SSTORE PUSH2 0x4289 SWAP1 DUP2 PUSH3 0x122 DUP3 CODECOPY RETURN JUMPDEST PUSH1 0x40 MLOAD PUSH4 0x1E4FBDF7 PUSH1 0xE0 SHL DUP2 MSTORE PUSH0 PUSH1 0x4 DUP3 ADD MSTORE PUSH1 0x24 SWAP1 REVERT JUMPDEST PUSH0 DUP1 REVERT JUMPDEST PUSH4 0x4E487B71 PUSH1 0xE0 SHL PUSH0 MSTORE PUSH1 0x41 PUSH1 0x4 MSTORE PUSH1 0x24 PUSH0 REVERT JUMPDEST MLOAD SWAP1 PUSH1 0x1 PUSH1 0x1 PUSH1 0xA0 SHL SUB DUP3 AND DUP3 SUB PUSH3 0xF4 JUMPI JUMP INVALID PUSH1 0x80 DUP1 PUSH1 0x40 MSTORE PUSH1 0x4 CALLDATASIZE LT ISZERO PUSH3 0x13 JUMPI PUSH0 DUP1 REVERT JUMPDEST PUSH0 SWAP1 PUSH0 CALLDATALOAD PUSH1 0xE0 SHR SWAP1 DUP2 PUSH4 0x18920915 EQ PUSH3 0x1D8D JUMPI POP DUP1 PUSH4 0x2645AC63 EQ PUSH3 0x1C1E JUMPI DUP1 PUSH4 0x3B8BA7A1 EQ PUSH3 0x1BF4 JUMPI DUP1 PUSH4 0x46904840 EQ PUSH3 0x1BCA JUMPI DUP1 PUSH4 0x472AE7CE EQ PUSH3 0x1AD6 JUMPI DUP1 PUSH4 0x508CC7C8 EQ PUSH3 0x1961 JUMPI DUP1 PUSH4 0x5486F100 EQ PUSH3 0x1942 JUMPI DUP1 PUSH4 0x652B9B41 EQ PUSH3 0x1901 JUMPI DUP1 PUSH4 0x67A44CA3 EQ PUSH3 0x1723 JUMPI DUP1 PUSH4 0x715018A6 EQ PUSH3 0x16C8 JUMPI DUP1 PUSH4 0x7858D7E7 EQ PUSH3 0x16A9 JUMPI DUP1 PUSH4 0x8248E722 EQ PUSH3 0x167E JUMPI DUP1 PUSH4 0x8DA5CB5B EQ PUSH3 0x1655 JUMPI DUP1 PUSH4 0x9094A91E EQ PUSH3 0x1627 JUMPI DUP1 PUSH4 0x99ED8DC3 EQ PUSH3 0xFF6 JUMPI DUP1 PUSH4 0x9C841FEF EQ PUSH3 0xF98 JUMPI DUP1 PUSH4 0xA96C00C1 EQ PUSH3 0xE8C JUMPI DUP1 PUSH4 0xAA9F6217 EQ PUSH3 0xDDF JUMPI DUP1 PUSH4 0xBF368399 EQ PUSH3 0xD98 JUMPI DUP1 PUSH4 0xCF0E7C40 EQ PUSH3 0xD79 JUMPI DUP1 PUSH4 0xDADB3874 EQ PUSH3 0x2B8 JUMPI DUP1 PUSH4 0xE7F3C69C EQ PUSH3 0x216 JUMPI DUP1 PUSH4 0xF160D369 EQ PUSH3 0x1D0 JUMPI PUSH4 0xF2FDE38B EQ PUSH3 0x13F JUMPI PUSH0 DUP1 REVERT JUMPDEST CALLVALUE PUSH3 0x1CD JUMPI PUSH1 0x20 CALLDATASIZE PUSH1 0x3 NOT ADD SLT PUSH3 0x1CD JUMPI PUSH3 0x15C PUSH3 0x1E12 JUMP JUMPDEST PUSH3 0x166 PUSH3 0x22DA JUMP JUMPDEST PUSH1 0x1 PUSH1 0x1 PUSH1 0xA0 SHL SUB SWAP1 DUP2 AND SWAP1 DUP2 ISZERO PUSH3 0x1B4 JUMPI PUSH0 SLOAD DUP3 PUSH1 0x1 PUSH1 0x1 PUSH1 0x60 SHL SUB PUSH1 0xA0 SHL DUP3 AND OR PUSH0 SSTORE AND PUSH32 0x8BE0079C531659141344CD1FD0A4F28419497F9722A3DAAFE3B4186F6B6457E0 PUSH0 DUP1 LOG3 DUP1 RETURN JUMPDEST PUSH1 0x40 MLOAD PUSH4 0x1E4FBDF7 PUSH1 0xE0 SHL DUP2 MSTORE PUSH1 0x4 DUP2 ADD DUP5 SWAP1 MSTORE PUSH1 0x24 SWAP1 REVERT JUMPDEST DUP1 REVERT JUMPDEST POP CALLVALUE PUSH3 0x1CD JUMPI PUSH1 0x20 CALLDATASIZE PUSH1 0x3 NOT ADD SLT PUSH3 0x1CD JUMPI PUSH3 0x1EE PUSH3 0x1E12 JUMP JUMPDEST PUSH3 0x1F8 PUSH3 0x22DA JUMP JUMPDEST PUSH1 0x1 DUP1 PUSH1 0xA0 SHL SUB AND PUSH1 0x1 PUSH1 0x1 PUSH1 0x60 SHL SUB PUSH1 0xA0 SHL PUSH1 0x9 SLOAD AND OR PUSH1 0x9 SSTORE DUP1 RETURN JUMPDEST POP CALLVALUE PUSH3 0x1CD JUMPI PUSH1 0x20 DUP1 PUSH1 0x3 NOT CALLDATASIZE ADD SLT PUSH3 0x2B4 JUMPI PUSH1 0x1 PUSH1 0x1 PUSH1 0xA0 SHL SUB SWAP2 PUSH1 0x40 SWAP1 DUP4 PUSH3 0x242 PUSH3 0x1E12 JUMP JUMPDEST AND DUP2 MSTORE PUSH1 0x2 DUP4 MSTORE KECCAK256 SWAP2 PUSH1 0x40 MLOAD DUP1 SWAP4 DUP5 SWAP2 DUP5 DUP3 SLOAD SWAP2 DUP3 DUP2 MSTORE ADD SWAP2 PUSH0 MSTORE DUP5 PUSH0 KECCAK256 SWAP4 PUSH0 SWAP1 JUMPDEST DUP7 DUP4 DUP4 LT PUSH3 0x297 JUMPI DUP6 SWAP1 PUSH3 0x27D DUP3 DUP8 SUB DUP4 PUSH3 0x1E76 JUMP JUMPDEST PUSH3 0x293 PUSH1 0x40 MLOAD SWAP3 DUP3 DUP5 SWAP4 DUP5 MSTORE DUP4 ADD SWAP1 PUSH3 0x1F00 JUMP JUMPDEST SUB SWAP1 RETURN JUMPDEST DUP7 SLOAD DUP3 AND DUP6 MSTORE PUSH1 0x1 SWAP7 DUP8 ADD SWAP7 DUP10 SWAP7 POP SWAP5 ADD SWAP4 SWAP2 SWAP1 SWAP2 ADD SWAP1 PUSH3 0x264 JUMP JUMPDEST POP DUP1 REVERT JUMPDEST POP PUSH1 0xC0 CALLDATASIZE PUSH1 0x3 NOT ADD SLT PUSH3 0xC8D JUMPI PUSH1 0x4 CALLDATALOAD PUSH1 0x1 PUSH1 0x1 PUSH1 0x40 SHL SUB DUP2 GT PUSH3 0xC8D JUMPI PUSH3 0x2E8 SWAP1 CALLDATASIZE SWAP1 PUSH1 0x4 ADD PUSH3 0x1EB4 JUMP JUMPDEST SWAP1 PUSH1 0x24 CALLDATALOAD PUSH1 0x1 PUSH1 0x1 PUSH1 0x40 SHL SUB DUP2 GT PUSH3 0xC8D JUMPI PUSH3 0x30B SWAP1 CALLDATASIZE SWAP1 PUSH1 0x4 ADD PUSH3 0x1EB4 JUMP JUMPDEST SWAP2 PUSH1 0x44 CALLDATALOAD PUSH1 0x1 PUSH1 0x1 PUSH1 0x40 SHL SUB DUP2 GT PUSH3 0xC8D JUMPI PUSH3 0x32E SWAP1 CALLDATASIZE SWAP1 PUSH1 0x4 ADD PUSH3 0x1EB4 JUMP JUMPDEST PUSH1 0x64 CALLDATALOAD SWAP4 SWAP1 SWAP3 SWAP1 PUSH1 0x1 PUSH1 0x1 PUSH1 0xA0 SHL SUB DUP6 AND DUP6 SUB PUSH3 0xC8D JUMPI PUSH1 0x84 CALLDATALOAD PUSH1 0x1 PUSH1 0x1 PUSH1 0xA0 SHL SUB DUP2 AND SWAP1 SUB PUSH3 0xC8D JUMPI PUSH1 0x1 PUSH1 0x1 PUSH1 0x40 SHL SUB PUSH1 0xA4 CALLDATALOAD GT PUSH3 0xC8D JUMPI PUSH1 0xC0 PUSH1 0xA4 CALLDATALOAD CALLDATASIZE SUB PUSH1 0x3 NOT ADD SLT PUSH3 0xC8D JUMPI PUSH1 0x40 MLOAD SWAP4 DUP5 PUSH1 0xC0 DUP2 ADD LT PUSH1 0x1 PUSH1 0x1 PUSH1 0x40 SHL SUB PUSH1 0xC0 DUP8 ADD GT OR PUSH3 0xC11 JUMPI PUSH1 0xC0 DUP6 ADD PUSH1 0x40 MSTORE PUSH1 0xA4 CALLDATALOAD PUSH1 0x4 ADD CALLDATALOAD DUP6 MSTORE PUSH1 0x24 PUSH1 0xA4 CALLDATALOAD ADD CALLDATALOAD PUSH1 0x20 DUP7 ADD MSTORE PUSH1 0x44 PUSH1 0xA4 CALLDATALOAD ADD CALLDATALOAD PUSH1 0x40 DUP7 ADD MSTORE PUSH1 0x64 PUSH1 0xA4 CALLDATALOAD ADD CALLDATALOAD PUSH1 0x60 DUP7 ADD MSTORE PUSH1 0x84 PUSH1 0xA4 CALLDATALOAD ADD CALLDATALOAD PUSH1 0x80 DUP7 ADD MSTORE PUSH1 0xA4 DUP1 CALLDATALOAD ADD CALLDATALOAD PUSH1 0x1 PUSH1 0x1 PUSH1 0x40 SHL SUB DUP2 GT PUSH3 0xC8D JUMPI CALLDATASIZE PUSH1 0x23 DUP3 PUSH1 0xA4 CALLDATALOAD ADD ADD SLT ISZERO PUSH3 0xC8D JUMPI PUSH3 0x411 PUSH1 0x4 DUP3 PUSH1 0xA4 CALLDATALOAD ADD ADD CALLDATALOAD PUSH3 0x2133 JUMP JUMPDEST SWAP1 PUSH3 0x421 PUSH1 0x40 MLOAD SWAP3 DUP4 PUSH3 0x1E76 JUMP JUMPDEST PUSH1 0xA4 CALLDATALOAD DUP2 ADD PUSH1 0x4 DUP2 ADD CALLDATALOAD DUP1 DUP5 MSTORE PUSH1 0x20 DUP5 ADD SWAP3 SWAP2 CALLDATASIZE PUSH1 0x5 SWAP3 SWAP1 SWAP3 SHL ADD PUSH1 0x24 ADD GT PUSH3 0xC8D JUMPI PUSH1 0x24 DUP2 PUSH1 0xA4 CALLDATALOAD ADD ADD SWAP2 JUMPDEST PUSH1 0xA4 CALLDATALOAD DUP3 ADD PUSH1 0x4 DUP2 ADD CALLDATALOAD PUSH1 0x5 SHL ADD PUSH1 0x24 ADD DUP4 LT PUSH3 0xD58 JUMPI POP POP POP PUSH1 0xA0 DUP7 ADD MSTORE PUSH1 0x8 SLOAD CALLVALUE LT PUSH3 0xD13 JUMPI CALLER PUSH0 MSTORE PUSH1 0x2 PUSH1 0x20 MSTORE PUSH1 0x40 PUSH0 KECCAK256 SLOAD PUSH1 0x7 SLOAD GT ISZERO PUSH3 0xCD9 JUMPI DUP4 MLOAD DUP1 ISZERO ISZERO SWAP1 DUP2 PUSH3 0xCCC JUMPI JUMPDEST POP ISZERO PUSH3 0xC91 JUMPI PUSH1 0xA SLOAD PUSH1 0x40 MLOAD SWAP1 PUSH1 0x1 PUSH1 0x1 PUSH1 0xA0 SHL SUB AND PUSH1 0x1 PUSH1 0x1 PUSH1 0x40 SHL SUB PUSH2 0x1DB5 DUP4 ADD SWAP1 DUP2 GT SWAP1 DUP4 GT OR PUSH3 0xC11 JUMPI PUSH2 0x1DB5 PUSH3 0x249F DUP4 CODECOPY PUSH2 0x1DB5 DUP3 ADD SWAP1 DUP2 MSTORE PUSH1 0x84 CALLDATALOAD PUSH1 0x1 PUSH1 0x1 PUSH1 0xA0 SHL SUB SWAP1 DUP2 AND PUSH1 0x20 DUP4 ADD MSTORE DUP9 AND PUSH1 0x40 DUP3 ADD MSTORE DUP2 SWAP1 SUB PUSH1 0x60 ADD SWAP1 PUSH0 CREATE SWAP5 DUP6 ISZERO PUSH3 0xC62 JUMPI PUSH1 0x1 PUSH1 0x1 PUSH1 0xA0 SHL SUB DUP7 AND EXTCODESIZE ISZERO PUSH3 0xC8D JUMPI PUSH1 0x40 MLOAD DUP1 SWAP2 PUSH4 0x5C6B724D PUSH1 0xE0 SHL DUP3 MSTORE PUSH1 0x20 PUSH1 0x4 DUP4 ADD MSTORE PUSH1 0xA0 PUSH1 0xE4 DUP4 ADD SWAP2 DUP1 MLOAD PUSH1 0x24 DUP6 ADD MSTORE PUSH1 0x20 DUP2 ADD MLOAD PUSH1 0x44 DUP6 ADD MSTORE PUSH1 0x40 DUP2 ADD MLOAD PUSH1 0x64 DUP6 ADD MSTORE PUSH1 0x60 DUP2 ADD MLOAD PUSH1 0x84 DUP6 ADD MSTORE PUSH1 0x80 DUP2 ADD MLOAD PUSH1 0xA4 DUP6 ADD MSTORE ADD MLOAD SWAP1 PUSH1 0xC0 PUSH1 0xC4 DUP5 ADD MSTORE DUP2 MLOAD DUP1 SWAP2 MSTORE PUSH1 0x20 PUSH2 0x104 DUP5 ADD SWAP3 ADD SWAP1 PUSH0 JUMPDEST DUP2 DUP2 LT PUSH3 0xC6D JUMPI POP PUSH0 SWAP4 SWAP3 DUP4 SWAP1 SUB SWAP2 POP DUP3 SWAP1 POP DUP4 PUSH1 0x1 PUSH1 0x1 PUSH1 0xA0 SHL SUB DUP12 AND GAS CALL DUP1 ISZERO PUSH3 0xC62 JUMPI PUSH3 0xC4C JUMPI JUMPDEST POP PUSH1 0x1 PUSH1 0x1 PUSH1 0xA0 SHL SUB DUP6 AND EXTCODESIZE ISZERO PUSH3 0xC3D JUMPI PUSH1 0x40 MLOAD PUSH4 0xF2FDE38B PUSH1 0xE0 SHL DUP2 MSTORE CALLER PUSH1 0x4 DUP3 ADD MSTORE DUP4 DUP2 PUSH1 0x24 DUP2 DUP4 PUSH1 0x1 PUSH1 0x1 PUSH1 0xA0 SHL SUB DUP12 AND GAS CALL DUP1 ISZERO PUSH3 0xC41 JUMPI SWAP1 DUP5 SWAP2 PUSH3 0xC25 JUMPI JUMPDEST POP POP PUSH1 0x1 SLOAD PUSH1 0x1 PUSH1 0x40 SHL DUP2 LT ISZERO PUSH3 0xC11 JUMPI PUSH3 0x61E DUP2 PUSH1 0x1 PUSH3 0x63D SWAP4 ADD PUSH1 0x1 SSTORE PUSH3 0x209D JUMP JUMPDEST DUP2 SLOAD PUSH1 0x1 PUSH1 0x1 PUSH1 0xA0 SHL SUB DUP10 DUP2 AND PUSH1 0x3 SWAP4 SWAP1 SWAP4 SHL SWAP3 DUP4 SHL SWAP3 SHL NOT AND OR SWAP1 SSTORE JUMP JUMPDEST CALLER DUP4 MSTORE PUSH1 0x2 PUSH1 0x20 MSTORE PUSH1 0x40 DUP4 KECCAK256 DUP1 SLOAD SWAP1 PUSH1 0x1 PUSH1 0x40 SHL DUP3 LT ISZERO PUSH3 0xC11 JUMPI DUP2 PUSH3 0x61E SWAP2 PUSH1 0x1 PUSH3 0x66F SWAP5 ADD DUP2 SSTORE PUSH3 0x211D JUMP JUMPDEST PUSH1 0x1 PUSH1 0x1 PUSH1 0xA0 SHL SUB DUP6 AND DUP4 MSTORE PUSH1 0x3 PUSH1 0x20 MSTORE PUSH1 0x40 DUP1 DUP5 KECCAK256 DUP1 SLOAD PUSH1 0xFF NOT AND PUSH1 0x1 OR SWAP1 SSTORE MLOAD SWAP2 PUSH3 0x69D DUP4 PUSH3 0x1E29 JUMP JUMPDEST DUP5 DUP4 MSTORE PUSH1 0x20 DUP4 ADD MSTORE CALLER PUSH1 0x40 DUP4 ADD MSTORE TIMESTAMP PUSH1 0x60 DUP4 ADD MSTORE PUSH1 0x1 PUSH1 0x80 DUP4 ADD MSTORE PUSH1 0xA0 DUP3 ADD MSTORE DUP2 PUSH1 0xC0 DUP3 ADD MSTORE PUSH1 0x1 DUP1 PUSH1 0xA0 SHL SUB DUP5 AND DUP3 MSTORE PUSH1 0x4 PUSH1 0x20 MSTORE PUSH1 0x40 DUP3 KECCAK256 SWAP1 DUP1 MLOAD DUP1 MLOAD SWAP1 PUSH1 0x1 PUSH1 0x1 PUSH1 0x40 SHL SUB DUP3 GT PUSH3 0xA9A JUMPI DUP2 SWAP1 PUSH3 0x6FA DUP6 SLOAD PUSH3 0x1F3E JUMP JUMPDEST PUSH1 0x1F DUP2 GT PUSH3 0xBDD JUMPI JUMPDEST POP PUSH1 0x20 SWAP1 PUSH1 0x1F DUP4 GT PUSH1 0x1 EQ PUSH3 0xB70 JUMPI DUP7 SWAP3 PUSH3 0xB64 JUMPI JUMPDEST POP POP DUP2 PUSH1 0x1 SHL SWAP2 PUSH0 NOT SWAP1 PUSH1 0x3 SHL SHR NOT AND OR DUP3 SSTORE JUMPDEST PUSH1 0x20 DUP2 ADD MLOAD DUP1 MLOAD SWAP1 PUSH1 0x1 PUSH1 0x1 PUSH1 0x40 SHL SUB DUP3 GT PUSH3 0xA9A JUMPI DUP2 SWAP1 PUSH3 0x758 PUSH1 0x1 DUP7 ADD SLOAD PUSH3 0x1F3E JUMP JUMPDEST PUSH1 0x1F DUP2 GT PUSH3 0xB2D JUMPI JUMPDEST POP PUSH1 0x20 SWAP1 PUSH1 0x1F DUP4 GT PUSH1 0x1 EQ PUSH3 0xABA JUMPI DUP7 SWAP3 PUSH3 0xAAE JUMPI JUMPDEST POP POP DUP2 PUSH1 0x1 SHL SWAP2 PUSH0 NOT SWAP1 PUSH1 0x3 SHL SHR NOT AND OR PUSH1 0x1 DUP4 ADD SSTORE JUMPDEST PUSH1 0x2 DUP3 ADD PUSH1 0x1 DUP1 PUSH1 0xA0 SHL SUB PUSH1 0x40 DUP4 ADD MLOAD AND PUSH1 0x1 PUSH1 0x1 PUSH1 0x60 SHL SUB PUSH1 0xA0 SHL DUP3 SLOAD AND OR SWAP1 SSTORE PUSH1 0x60 DUP2 ADD MLOAD PUSH1 0x3 DUP4 ADD SSTORE PUSH1 0x4 DUP3 ADD PUSH1 0x80 DUP3 ADD MLOAD ISZERO ISZERO PUSH1 0xFF DUP1 NOT DUP4 SLOAD AND SWAP2 AND OR SWAP1 SSTORE PUSH1 0xA0 DUP2 ADD MLOAD DUP1 MLOAD SWAP1 PUSH1 0x1 PUSH1 0x1 PUSH1 0x40 SHL SUB DUP3 GT PUSH3 0xA9A JUMPI PUSH3 0x7FA PUSH1 0x5 DUP6 ADD SLOAD PUSH3 0x1F3E JUMP JUMPDEST PUSH1 0x1F DUP2 GT PUSH3 0xA57 JUMPI JUMPDEST POP PUSH1 0x20 SWAP1 PUSH1 0x1F DUP4 GT PUSH1 0x1 EQ PUSH3 0x9E1 JUMPI SWAP2 DUP1 PUSH1 0x6 SWAP5 SWAP3 PUSH1 0xC0 SWAP5 DUP9 SWAP3 PUSH3 0x9D5 JUMPI JUMPDEST POP POP DUP2 PUSH1 0x1 SHL SWAP2 PUSH0 NOT SWAP1 PUSH1 0x3 SHL SHR NOT AND OR PUSH1 0x5 DUP6 ADD SSTORE JUMPDEST ADD MLOAD SWAP2 ADD SSTORE PUSH1 0x1 SLOAD PUSH1 0x7 PUSH1 0x40 MLOAD SWAP2 PUSH3 0x855 DUP4 PUSH3 0x1E59 JUMP JUMPDEST DUP4 DUP4 MSTORE PUSH1 0x20 DUP4 ADD DUP5 DUP2 MSTORE PUSH1 0x40 DUP5 ADD DUP6 DUP2 MSTORE PUSH1 0x60 DUP6 ADD DUP7 DUP2 MSTORE PUSH1 0x80 DUP7 ADD SWAP1 DUP8 DUP3 MSTORE PUSH1 0xA0 DUP8 ADD SWAP3 DUP9 DUP5 MSTORE PUSH1 0xC0 DUP9 ADD SWAP5 TIMESTAMP DUP7 MSTORE PUSH1 0xE0 DUP10 ADD SWAP7 DUP8 MSTORE PUSH1 0x1 DUP1 PUSH1 0xA0 SHL SUB DUP13 AND DUP11 MSTORE PUSH1 0x5 PUSH1 0x20 MSTORE PUSH1 0x40 DUP11 KECCAK256 SWAP9 MLOAD DUP10 SSTORE MLOAD PUSH1 0x1 DUP10 ADD SSTORE MLOAD PUSH1 0x2 DUP9 ADD SSTORE MLOAD PUSH1 0x3 DUP8 ADD SSTORE MLOAD PUSH1 0x4 DUP7 ADD SSTORE MLOAD PUSH1 0x5 DUP6 ADD SSTORE MLOAD PUSH1 0x6 DUP5 ADD SSTORE MLOAD SWAP2 ADD SSTORE CALLVALUE PUSH3 0x946 JUMPI JUMPDEST POP PUSH1 0x20 SWAP3 PUSH3 0x8EE PUSH1 0x40 MLOAD SWAP3 PUSH1 0x60 DUP5 MSTORE PUSH1 0x60 DUP5 ADD SWAP1 PUSH3 0x2012 JUMP JUMPDEST PUSH1 0x1 PUSH1 0x1 PUSH1 0xA0 SHL SUB SWAP2 DUP3 AND DUP4 DUP7 ADD MSTORE PUSH1 0x84 CALLDATALOAD DUP3 AND PUSH1 0x40 DUP5 ADD MSTORE CALLER SWAP3 SWAP2 DUP5 AND SWAP2 PUSH32 0x8B4B1B0DCABA910ECCAB46F2EE0DC87A77F225166101A39744209A97D55DF71D SWAP2 DUP2 SWAP1 SUB SWAP1 LOG3 PUSH1 0x40 MLOAD PUSH1 0x1 PUSH1 0x1 PUSH1 0xA0 SHL SUB SWAP1 SWAP2 AND DUP2 MSTORE RETURN JUMPDEST DUP1 DUP1 DUP1 DUP1 CALLVALUE PUSH1 0x1 DUP1 PUSH1 0xA0 SHL SUB PUSH1 0x9 SLOAD AND GAS CALL SWAP1 RETURNDATASIZE ISZERO PUSH3 0x9CE JUMPI RETURNDATASIZE SWAP1 PUSH3 0x96D DUP3 PUSH3 0x1E98 JUMP JUMPDEST SWAP2 PUSH3 0x97D PUSH1 0x40 MLOAD SWAP4 DUP5 PUSH3 0x1E76 JUMP JUMPDEST DUP3 MSTORE PUSH1 0x20 RETURNDATASIZE SWAP3 ADD RETURNDATACOPY JUMPDEST ISZERO PUSH3 0x993 JUMPI PUSH0 PUSH3 0x8D3 JUMP JUMPDEST PUSH1 0x40 MLOAD PUSH3 0x461BCD PUSH1 0xE5 SHL DUP2 MSTORE PUSH1 0x20 PUSH1 0x4 DUP3 ADD MSTORE PUSH1 0x13 PUSH1 0x24 DUP3 ADD MSTORE PUSH19 0x119959481D1C985B9CD9995C8819985A5B1959 PUSH1 0x6A SHL PUSH1 0x44 DUP3 ADD MSTORE PUSH1 0x64 SWAP1 REVERT JUMPDEST POP PUSH3 0x986 JUMP JUMPDEST ADD MLOAD SWAP1 POP PUSH0 DUP1 PUSH3 0x825 JUMP JUMPDEST SWAP1 PUSH1 0x5 DUP6 ADD DUP7 MSTORE PUSH1 0x20 DUP7 KECCAK256 SWAP2 DUP7 JUMPDEST PUSH1 0x1F NOT DUP6 AND DUP2 LT PUSH3 0xA3E JUMPI POP SWAP3 PUSH1 0x6 SWAP5 SWAP3 PUSH1 0x1 SWAP3 PUSH1 0xC0 SWAP6 DUP4 PUSH1 0x1F NOT DUP2 AND LT PUSH3 0xA25 JUMPI JUMPDEST POP POP POP DUP2 SHL ADD PUSH1 0x5 DUP6 ADD SSTORE PUSH3 0x83C JUMP JUMPDEST ADD MLOAD PUSH0 NOT PUSH1 0xF8 DUP5 PUSH1 0x3 SHL AND SHR NOT AND SWAP1 SSTORE PUSH0 DUP1 DUP1 PUSH3 0xA14 JUMP JUMPDEST SWAP2 SWAP3 PUSH1 0x20 PUSH1 0x1 DUP2 SWAP3 DUP7 DUP6 ADD MLOAD DUP2 SSTORE ADD SWAP5 ADD SWAP3 ADD PUSH3 0x9EF JUMP JUMPDEST PUSH3 0xA88 SWAP1 PUSH1 0x5 DUP7 ADD DUP8 MSTORE PUSH1 0x20 DUP8 KECCAK256 PUSH1 0x1F DUP6 ADD PUSH1 0x5 SHR DUP2 ADD SWAP2 PUSH1 0x20 DUP7 LT PUSH3 0xA8F JUMPI JUMPDEST PUSH1 0x1F ADD PUSH1 0x5 SHR ADD SWAP1 PUSH3 0x22C2 JUMP JUMPDEST PUSH0 PUSH3 0x804 JUMP JUMPDEST SWAP1 SWAP2 POP DUP2 SWAP1 PUSH3 0xA7A JUMP JUMPDEST PUSH4 0x4E487B71 PUSH1 0xE0 SHL DUP6 MSTORE PUSH1 0x41 PUSH1 0x4 MSTORE PUSH1 0x24 DUP6 REVERT JUMPDEST ADD MLOAD SWAP1 POP PUSH0 DUP1 PUSH3 0x77A JUMP JUMPDEST SWAP3 POP PUSH1 0x1 DUP6 ADD DUP7 MSTORE PUSH1 0x20 DUP7 KECCAK256 SWAP1 DUP7 SWAP4 JUMPDEST PUSH1 0x1F NOT DUP5 AND DUP6 LT PUSH3 0xB11 JUMPI PUSH1 0x1 SWAP5 POP DUP4 PUSH1 0x1F NOT DUP2 AND LT PUSH3 0xAF8 JUMPI JUMPDEST POP POP POP DUP2 SHL ADD PUSH1 0x1 DUP4 ADD SSTORE PUSH3 0x791 JUMP JUMPDEST ADD MLOAD PUSH0 NOT PUSH1 0xF8 DUP5 PUSH1 0x3 SHL AND SHR NOT AND SWAP1 SSTORE PUSH0 DUP1 DUP1 PUSH3 0xAE7 JUMP JUMPDEST DUP2 DUP2 ADD MLOAD DUP4 SSTORE PUSH1 0x20 SWAP5 DUP6 ADD SWAP5 PUSH1 0x1 SWAP1 SWAP4 ADD SWAP3 SWAP1 SWAP2 ADD SWAP1 PUSH3 0xACA JUMP JUMPDEST PUSH3 0xB5D SWAP1 PUSH1 0x1 DUP8 ADD DUP9 MSTORE PUSH1 0x20 DUP9 KECCAK256 PUSH1 0x1F DUP6 ADD PUSH1 0x5 SHR DUP2 ADD SWAP2 PUSH1 0x20 DUP7 LT PUSH3 0xA8F JUMPI PUSH1 0x1F ADD PUSH1 0x5 SHR ADD SWAP1 PUSH3 0x22C2 JUMP JUMPDEST PUSH0 PUSH3 0x762 JUMP JUMPDEST ADD MLOAD SWAP1 POP PUSH0 DUP1 PUSH3 0x71C JUMP JUMPDEST SWAP3 POP DUP5 DUP7 MSTORE PUSH1 0x20 DUP7 KECCAK256 SWAP1 DUP7 SWAP4 JUMPDEST PUSH1 0x1F NOT DUP5 AND DUP6 LT PUSH3 0xBC1 JUMPI PUSH1 0x1 SWAP5 POP DUP4 PUSH1 0x1F NOT DUP2 AND LT PUSH3 0xBA8 JUMPI JUMPDEST POP POP POP DUP2 SHL ADD DUP3 SSTORE PUSH3 0x730 JUMP JUMPDEST ADD MLOAD PUSH0 NOT PUSH1 0xF8 DUP5 PUSH1 0x3 SHL AND SHR NOT AND SWAP1 SSTORE PUSH0 DUP1 DUP1 PUSH3 0xB9A JUMP JUMPDEST DUP2 DUP2 ADD MLOAD DUP4 SSTORE PUSH1 0x20 SWAP5 DUP6 ADD SWAP5 PUSH1 0x1 SWAP1 SWAP4 ADD SWAP3 SWAP1 SWAP2 ADD SWAP1 PUSH3 0xB7D JUMP JUMPDEST PUSH3 0xC0A SWAP1 DUP7 DUP9 MSTORE PUSH1 0x20 DUP9 KECCAK256 PUSH1 0x1F DUP6 ADD PUSH1 0x5 SHR DUP2 ADD SWAP2 PUSH1 0x20 DUP7 LT PUSH3 0xA8F JUMPI PUSH1 0x1F ADD PUSH1 0x5 SHR ADD SWAP1 PUSH3 0x22C2 JUMP JUMPDEST PUSH0 PUSH3 0x704 JUMP JUMPDEST PUSH4 0x4E487B71 PUSH1 0xE0 SHL PUSH0 MSTORE PUSH1 0x41 PUSH1 0x4 MSTORE PUSH1 0x24 PUSH0 REVERT JUMPDEST PUSH3 0xC30 SWAP1 PUSH3 0x1E45 JUMP JUMPDEST PUSH3 0xC3D JUMPI DUP3 PUSH0 PUSH3 0x5F6 JUMP JUMPDEST DUP3 DUP1 REVERT JUMPDEST PUSH1 0x40 MLOAD RETURNDATASIZE DUP7 DUP3 RETURNDATACOPY RETURNDATASIZE SWAP1 REVERT JUMPDEST PUSH3 0xC59 SWAP2 SWAP4 POP PUSH3 0x1E45 JUMP JUMPDEST PUSH0 SWAP2 PUSH0 PUSH3 0x5AF JUMP JUMPDEST PUSH1 0x40 MLOAD RETURNDATASIZE PUSH0 DUP3 RETURNDATACOPY RETURNDATASIZE SWAP1 REVERT JUMPDEST DUP3 MLOAD PUSH4 0xFFFFFFFF AND DUP5 MSTORE DUP6 SWAP5 POP PUSH1 0x20 SWAP4 DUP5 ADD SWAP4 SWAP1 SWAP3 ADD SWAP2 PUSH1 0x1 ADD PUSH3 0x581 JUMP JUMPDEST PUSH0 DUP1 REVERT JUMPDEST PUSH1 0x40 MLOAD PUSH3 0x461BCD PUSH1 0xE5 SHL DUP2 MSTORE PUSH1 0x20 PUSH1 0x4 DUP3 ADD MSTORE PUSH1 0x13 PUSH1 0x24 DUP3 ADD MSTORE PUSH19 0x92DCECC2D8D2C840DCC2DACA40D8CADCCEE8D PUSH1 0x6B SHL PUSH1 0x44 DUP3 ADD MSTORE PUSH1 0x64 SWAP1 REVERT JUMPDEST PUSH1 0x20 SWAP2 POP GT ISZERO PUSH0 PUSH3 0x49D JUMP JUMPDEST PUSH1 0x40 MLOAD PUSH3 0x461BCD PUSH1 0xE5 SHL DUP2 MSTORE PUSH1 0x20 PUSH1 0x4 DUP3 ADD MSTORE PUSH1 0x12 PUSH1 0x24 DUP3 ADD MSTORE PUSH18 0x13585E081D985D5B1D1CC81C995858DA1959 PUSH1 0x72 SHL PUSH1 0x44 DUP3 ADD MSTORE PUSH1 0x64 SWAP1 REVERT JUMPDEST PUSH1 0x40 MLOAD PUSH3 0x461BCD PUSH1 0xE5 SHL DUP2 MSTORE PUSH1 0x20 PUSH1 0x4 DUP3 ADD MSTORE PUSH1 0x19 PUSH1 0x24 DUP3 ADD MSTORE PUSH32 0x496E73756666696369656E74206372656174696F6E2066656500000000000000 PUSH1 0x44 DUP3 ADD MSTORE PUSH1 0x64 SWAP1 REVERT JUMPDEST DUP3 CALLDATALOAD SWAP1 PUSH4 0xFFFFFFFF DUP3 AND DUP3 SUB PUSH3 0xC8D JUMPI SWAP1 DUP2 MSTORE PUSH1 0x20 SWAP3 DUP4 ADD SWAP3 ADD PUSH3 0x44F JUMP JUMPDEST CALLVALUE PUSH3 0xC8D JUMPI PUSH0 CALLDATASIZE PUSH1 0x3 NOT ADD SLT PUSH3 0xC8D JUMPI PUSH1 0x20 PUSH1 0x8 SLOAD PUSH1 0x40 MLOAD SWAP1 DUP2 MSTORE RETURN JUMPDEST CALLVALUE PUSH3 0xC8D JUMPI PUSH1 0x20 CALLDATASIZE PUSH1 0x3 NOT ADD SLT PUSH3 0xC8D JUMPI PUSH1 0x4 CALLDATALOAD PUSH1 0x6 SLOAD DUP2 LT ISZERO PUSH3 0xC8D JUMPI PUSH3 0xDC6 PUSH1 0x20 SWAP2 PUSH3 0x20E7 JUMP JUMPDEST SWAP1 SLOAD PUSH1 0x40 MLOAD PUSH1 0x3 SWAP3 SWAP1 SWAP3 SHL SHR PUSH1 0x1 PUSH1 0x1 PUSH1 0xA0 SHL SUB AND DUP2 MSTORE RETURN JUMPDEST CALLVALUE PUSH3 0xC8D JUMPI PUSH1 0x20 CALLDATASIZE PUSH1 0x3 NOT ADD SLT PUSH3 0xC8D JUMPI PUSH1 0x1 PUSH1 0x1 PUSH1 0xA0 SHL SUB DUP1 PUSH3 0xE05 PUSH3 0x1E12 JUMP JUMPDEST AND SWAP1 DUP2 PUSH0 MSTORE PUSH1 0x3 PUSH1 0x20 MSTORE PUSH3 0xE21 PUSH1 0xFF PUSH1 0x40 PUSH0 KECCAK256 SLOAD AND PUSH3 0x2241 JUMP JUMPDEST DUP2 PUSH0 MSTORE PUSH1 0x4 PUSH1 0x20 MSTORE PUSH1 0x2 PUSH1 0x40 PUSH0 KECCAK256 ADD SLOAD AND CALLER SUB PUSH3 0xE53 JUMPI PUSH0 MSTORE PUSH1 0x4 PUSH1 0x20 MSTORE PUSH1 0x4 PUSH1 0x40 PUSH0 KECCAK256 ADD PUSH1 0xFF NOT DUP2 SLOAD AND SWAP1 SSTORE PUSH0 DUP1 RETURN JUMPDEST PUSH1 0x40 MLOAD PUSH3 0x461BCD PUSH1 0xE5 SHL DUP2 MSTORE PUSH1 0x20 PUSH1 0x4 DUP3 ADD MSTORE PUSH1 0x11 PUSH1 0x24 DUP3 ADD MSTORE PUSH17 0x2737BA103B30BAB63A1031B932B0BA37B9 PUSH1 0x79 SHL PUSH1 0x44 DUP3 ADD MSTORE PUSH1 0x64 SWAP1 REVERT JUMPDEST CALLVALUE PUSH3 0xC8D JUMPI PUSH0 CALLDATASIZE PUSH1 0x3 NOT ADD SLT PUSH3 0xC8D JUMPI PUSH0 DUP1 PUSH0 DUP1 PUSH0 PUSH1 0x1 SWAP1 PUSH1 0x1 SLOAD SWAP1 JUMPDEST DUP2 DUP2 LT PUSH3 0xEF8 JUMPI POP POP DUP3 ISZERO SWAP1 POP PUSH3 0xEEB JUMPI PUSH3 0x293 SWAP2 PUSH3 0xECE SWAP2 PUSH3 0x2295 JUMP JUMPDEST PUSH1 0x40 MLOAD SWAP4 DUP5 SWAP4 DUP5 PUSH1 0x40 SWAP2 SWAP5 SWAP4 SWAP3 PUSH1 0x60 DUP3 ADD SWAP6 DUP3 MSTORE PUSH1 0x20 DUP3 ADD MSTORE ADD MSTORE JUMP JUMPDEST POP POP PUSH3 0x293 PUSH0 PUSH3 0xECE JUMP JUMPDEST PUSH3 0xF03 DUP2 PUSH3 0x209D JUMP JUMPDEST PUSH1 0x1 DUP1 PUSH1 0xA0 SHL SUB SWAP2 SLOAD SWAP1 PUSH1 0x3 SHL SHR AND DUP1 PUSH0 MSTORE PUSH1 0x20 PUSH1 0x4 DUP2 MSTORE PUSH1 0xFF PUSH1 0x4 PUSH1 0x40 PUSH0 KECCAK256 ADD SLOAD AND PUSH3 0xF36 JUMPI JUMPDEST POP POP DUP3 ADD PUSH3 0xEAB JUMP JUMPDEST DUP5 SWAP3 SWAP7 SWAP6 PUSH3 0xF8F SWAP3 SWAP10 SWAP9 PUSH3 0xF88 SWAP3 PUSH3 0xF78 PUSH3 0xF62 PUSH1 0x5 SWAP4 DUP5 DUP5 MSTORE DUP5 PUSH1 0x40 PUSH0 KECCAK256 ADD SLOAD SWAP1 PUSH3 0x22B4 JUMP JUMPDEST SWAP12 DUP14 PUSH0 MSTORE DUP4 DUP4 MSTORE PUSH1 0x4 PUSH1 0x40 PUSH0 KECCAK256 ADD SLOAD SWAP1 PUSH3 0x22B4 JUMP JUMPDEST SWAP12 PUSH0 MSTORE MSTORE PUSH1 0x40 PUSH0 KECCAK256 SLOAD SWAP1 PUSH3 0x22B4 JUMP JUMPDEST SWAP5 PUSH3 0x214B JUMP JUMPDEST SWAP5 SWAP1 DUP9 PUSH3 0xF2C JUMP JUMPDEST CALLVALUE PUSH3 0xC8D JUMPI PUSH1 0x40 CALLDATASIZE PUSH1 0x3 NOT ADD SLT PUSH3 0xC8D JUMPI PUSH3 0xFB5 PUSH3 0x1E12 JUMP JUMPDEST PUSH1 0x24 CALLDATALOAD SWAP1 PUSH1 0x1 DUP1 PUSH1 0xA0 SHL SUB DUP1 SWAP2 AND PUSH0 MSTORE PUSH1 0x2 PUSH1 0x20 MSTORE PUSH1 0x40 PUSH0 KECCAK256 DUP1 SLOAD DUP4 LT ISZERO PUSH3 0xC8D JUMPI PUSH1 0x20 SWAP3 PUSH3 0xFE6 SWAP2 PUSH3 0x211D JUMP JUMPDEST SWAP2 SWAP1 SLOAD PUSH1 0x40 MLOAD SWAP3 PUSH1 0x3 SHL SHR AND DUP2 MSTORE RETURN JUMPDEST CALLVALUE PUSH3 0xC8D JUMPI PUSH1 0x20 DUP1 PUSH1 0x3 NOT CALLDATASIZE ADD SLT PUSH3 0xC8D JUMPI PUSH1 0x1 PUSH1 0x1 PUSH1 0xA0 SHL SUB DUP1 PUSH3 0x101D PUSH3 0x1E12 JUMP JUMPDEST AND DUP1 PUSH0 MSTORE PUSH1 0x3 SWAP3 DUP4 DUP2 MSTORE PUSH3 0x1039 PUSH1 0xFF PUSH1 0x40 PUSH0 KECCAK256 SLOAD AND PUSH3 0x2241 JUMP JUMPDEST PUSH1 0x40 MLOAD PUSH4 0x979EA51 PUSH1 0xE1 SHL DUP2 MSTORE DUP2 DUP2 PUSH1 0x4 DUP2 DUP7 GAS STATICCALL DUP1 ISZERO PUSH3 0xC62 JUMPI DUP5 SWAP2 PUSH0 SWAP2 PUSH3 0x15E6 JUMPI JUMPDEST POP AND CALLER SUB PUSH3 0x15B0 JUMPI PUSH1 0x40 MLOAD PUSH4 0x31148411 PUSH1 0xE1 SHL DUP2 MSTORE SWAP4 DUP2 DUP6 PUSH1 0x4 DUP2 DUP7 GAS STATICCALL SWAP5 DUP6 ISZERO PUSH3 0xC62 JUMPI PUSH0 SWAP6 PUSH3 0x157B JUMPI JUMPDEST POP PUSH1 0x40 MLOAD PUSH4 0x7D882097 PUSH1 0xE0 SHL DUP2 MSTORE DUP3 DUP2 PUSH1 0x4 DUP2 DUP8 GAS STATICCALL SWAP1 DUP2 ISZERO PUSH3 0xC62 JUMPI PUSH0 SWAP2 PUSH3 0x1548 JUMPI JUMPDEST POP PUSH1 0x40 MLOAD PUSH4 0xA5F9392D PUSH1 0xE0 SHL DUP2 MSTORE SWAP4 PUSH1 0xE0 DUP6 PUSH1 0x4 DUP2 DUP5 GAS STATICCALL SWAP7 DUP8 ISZERO PUSH3 0xC62 JUMPI PUSH0 DUP1 SWAP4 PUSH0 SWAP5 PUSH0 SWAP9 PUSH0 SWAP12 PUSH3 0x14EB JUMPI JUMPDEST POP PUSH0 SWAP2 DUP1 PUSH3 0x14A6 JUMPI JUMPDEST POP PUSH3 0x10FA SWAP1 DUP4 PUSH3 0x22B4 JUMP JUMPDEST DUP9 DUP2 ISZERO PUSH3 0x1475 JUMPI POP PUSH2 0x2710 SWAP3 DUP4 DUP2 MUL SWAP4 DUP2 DUP6 DIV EQ SWAP1 ISZERO OR ISZERO PUSH3 0x1355 JUMPI PUSH32 0x8FBA6965BB87ED104958174573E9AED72332779F1C2138DEFEC56D0960E7E77C SWAP4 PUSH3 0x114B PUSH3 0x11A0 SWAP3 DUP12 SWAP6 PUSH3 0x2295 JUMP JUMPDEST SWAP7 JUMPDEST DUP7 PUSH0 MSTORE PUSH1 0x5 SWAP8 PUSH1 0x5 DUP12 MSTORE DUP10 PUSH1 0x40 PUSH0 KECCAK256 SWAP15 DUP16 SWAP1 DUP8 DUP3 SSTORE PUSH1 0x1 SWAP15 DUP16 DUP4 ADD SSTORE PUSH1 0x2 DUP3 ADD SSTORE ADD SSTORE PUSH1 0x4 DUP14 ADD SSTORE DUP1 PUSH1 0x5 DUP14 ADD SSTORE PUSH1 0x6 SWAP12 DUP13 TIMESTAMP SWAP2 ADD SSTORE PUSH1 0x40 MLOAD SWAP4 DUP5 SWAP4 DUP5 PUSH1 0x40 SWAP2 SWAP5 SWAP4 SWAP3 PUSH1 0x60 DUP3 ADD SWAP6 DUP3 MSTORE PUSH1 0x20 DUP3 ADD MSTORE ADD MSTORE JUMP JUMPDEST SUB SWAP1 LOG2 DUP4 SLOAD SWAP1 PUSH0 NOT DUP1 DUP4 ADD DUP4 DUP2 GT PUSH0 DUP9 JUMPDEST PUSH3 0x1369 JUMPI JUMPDEST POP POP POP POP PUSH0 JUMPDEST DUP3 DUP2 LT PUSH3 0x1320 JUMPI POP POP DUP6 SLOAD PUSH0 DUP8 SSTORE DUP1 PUSH3 0x12DA JUMPI JUMPDEST POP PUSH1 0x64 DUP2 LT ISZERO PUSH3 0x12D0 JUMPI SWAP1 JUMPDEST PUSH0 JUMPDEST DUP3 DUP2 LT PUSH3 0x1272 JUMPI POP POP POP SWAP1 PUSH1 0x40 MLOAD SWAP3 DUP3 DUP5 ADD SWAP1 DUP4 DUP6 MSTORE DUP6 SLOAD DUP1 SWAP3 MSTORE PUSH1 0x40 DUP6 ADD SWAP6 PUSH0 MSTORE PUSH32 0xF652222313E28459528D920B65115C16C04F3EFC82AAEDC97BE59F3F377C0D3F SWAP4 PUSH0 SWAP2 JUMPDEST DUP4 DUP4 LT PUSH3 0x125A JUMPI PUSH32 0x7CCBD3E5F76AC81B086D3BF37B0DF3FE40F7CB88CAFA59F06B68AD0144987687 DUP8 DUP10 SUB DUP9 LOG1 STOP JUMPDEST DUP6 SLOAD DUP2 AND DUP9 MSTORE SWAP7 DUP2 ADD SWAP7 SWAP5 DUP5 ADD SWAP5 SWAP2 DUP5 ADD SWAP2 PUSH3 0x122A JUMP JUMPDEST DUP6 PUSH3 0x127E DUP3 PUSH3 0x209D JUMP JUMPDEST SWAP1 SLOAD SWAP1 DUP5 SHL SHR AND SWAP1 DUP8 SLOAD PUSH1 0x1 PUSH1 0x40 SHL DUP2 LT ISZERO PUSH3 0xC11 JUMPI DUP7 SWAP3 PUSH3 0x12AB DUP3 DUP6 PUSH3 0x12C9 SWAP5 ADD DUP13 SSTORE PUSH3 0x20E7 JUMP JUMPDEST SWAP1 SWAP2 SWAP1 PUSH1 0x1 DUP1 PUSH1 0xA0 SHL SUB DUP1 DUP5 SLOAD SWAP3 PUSH1 0x3 SHL SWAP4 AND DUP4 SHL SWAP3 SHL NOT AND OR SWAP1 SSTORE JUMP JUMPDEST ADD PUSH3 0x11E2 JUMP JUMPDEST POP PUSH1 0x64 SWAP1 PUSH3 0x11E0 JUMP JUMPDEST DUP7 PUSH0 MSTORE DUP5 PUSH32 0xF652222313E28459528D920B65115C16C04F3EFC82AAEDC97BE59F3F377C0D3F SWAP2 DUP3 ADD SWAP2 JUMPDEST DUP3 DUP2 LT PUSH3 0x1314 JUMPI POP POP PUSH3 0x11D3 JUMP JUMPDEST PUSH0 DUP2 SSTORE ADD DUP6 SWAP1 PUSH3 0x1304 JUMP JUMPDEST DUP6 DUP2 ADD SWAP1 DUP2 DUP2 GT PUSH3 0x1355 JUMPI DUP7 SWAP2 DUP9 PUSH3 0x133A DUP4 PUSH3 0x209D JUMP JUMPDEST SWAP1 SLOAD SWAP1 DUP9 SHL SHR AND PUSH0 MSTORE DUP4 DUP8 MSTORE PUSH1 0x7 PUSH1 0x40 PUSH0 KECCAK256 ADD SSTORE ADD PUSH3 0x11BD JUMP JUMPDEST PUSH4 0x4E487B71 PUSH1 0xE0 SHL PUSH0 MSTORE PUSH1 0x11 PUSH1 0x4 MSTORE PUSH1 0x24 PUSH0 REVERT JUMPDEST DUP2 PUSH3 0x1355 JUMPI DUP3 DUP2 LT ISZERO PUSH3 0x146F JUMPI DUP9 SWAP4 SWAP3 SWAP2 SWAP1 PUSH0 DUP6 JUMPDEST PUSH3 0x1393 JUMPI JUMPDEST POP DUP5 ADD SWAP1 SWAP2 SWAP3 SWAP4 PUSH3 0x11B1 JUMP JUMPDEST SWAP1 SWAP2 SWAP3 SWAP4 SWAP5 POP PUSH3 0x13A5 DUP3 DUP9 PUSH3 0x2287 JUMP JUMPDEST DUP6 DUP2 ADD SWAP1 DUP2 GT PUSH3 0x1355 JUMPI DUP11 SWAP1 DUP3 LT ISZERO PUSH3 0x1464 JUMPI POP DUP11 PUSH3 0x13C7 DUP3 PUSH3 0x209D JUMP JUMPDEST SWAP1 SLOAD SWAP1 DUP11 SHL SHR AND DUP11 DUP3 ADD SWAP2 DUP3 DUP2 GT PUSH3 0x1355 JUMPI DUP3 DUP11 DUP15 PUSH0 DUP16 SWAP7 DUP8 SWAP7 DUP4 PUSH3 0x13F2 PUSH3 0x1400 SWAP4 PUSH3 0x209D JUMP JUMPDEST SWAP1 SLOAD SWAP1 DUP8 SHL SHR AND SWAP1 PUSH3 0x2306 JUMP JUMPDEST SLT PUSH3 0x1417 JUMPI JUMPDEST POP POP POP ADD DUP2 SWAP6 SWAP5 SWAP4 SWAP3 SWAP2 PUSH3 0x1380 JUMP JUMPDEST PUSH3 0x145B SWAP3 PUSH3 0x1455 DUP3 PUSH3 0x12AB SWAP4 PUSH3 0x1431 DUP9 PUSH3 0x209D JUMP JUMPDEST SWAP1 SLOAD SWAP1 DUP8 SHL SHR AND SWAP5 PUSH3 0x1444 DUP5 PUSH3 0x209D JUMP JUMPDEST SWAP1 SLOAD SWAP2 SHL SHR AND PUSH3 0x12AB DUP8 PUSH3 0x209D JUMP JUMPDEST PUSH3 0x209D JUMP JUMPDEST DUP15 DUP11 DUP15 PUSH3 0x1407 JUMP JUMPDEST SWAP5 SWAP4 SWAP3 SWAP2 SWAP1 PUSH3 0x1386 JUMP JUMPDEST PUSH3 0x11B7 JUMP JUMPDEST SWAP3 POP POP PUSH3 0x11A0 PUSH32 0x8FBA6965BB87ED104958174573E9AED72332779F1C2138DEFEC56D0960E7E77C SWAP4 PUSH0 SWAP7 PUSH3 0x114D JUMP JUMPDEST DUP1 DUP6 GT ISZERO PUSH3 0x10ED JUMPI SWAP1 SWAP2 POP PUSH3 0x14BE DUP2 DUP6 PUSH3 0x2287 JUMP JUMPDEST PUSH2 0x2710 SWAP1 DUP2 DUP2 MUL SWAP2 DUP2 DUP4 DIV EQ SWAP1 ISZERO OR ISZERO PUSH3 0x1355 JUMPI PUSH3 0x10FA SWAP2 PUSH3 0x14E3 SWAP2 PUSH3 0x2295 JUMP JUMPDEST SWAP2 SWAP1 PUSH3 0x10ED JUMP JUMPDEST SWAP6 POP POP SWAP9 POP POP SWAP5 POP PUSH1 0xE0 DUP3 RETURNDATASIZE PUSH1 0xE0 GT PUSH3 0x153F JUMPI JUMPDEST DUP2 PUSH3 0x150F PUSH1 0xE0 SWAP4 DUP4 PUSH3 0x1E76 JUMP JUMPDEST DUP2 ADD SUB SLT PUSH3 0xC8D JUMPI DUP4 DUP3 ADD MLOAD SWAP5 PUSH1 0x40 DUP4 ADD MLOAD PUSH1 0x60 DUP5 ADD MLOAD SWAP9 PUSH1 0xA0 PUSH1 0x80 DUP7 ADD MLOAD SWAP6 ADD MLOAD SWAP8 SWAP2 SWAP10 SWAP5 SWAP8 SWAP10 DUP12 PUSH3 0x10E3 JUMP JUMPDEST RETURNDATASIZE SWAP2 POP PUSH3 0x1500 JUMP JUMPDEST SWAP1 POP DUP3 DUP2 DUP2 RETURNDATASIZE DUP4 GT PUSH3 0x1573 JUMPI JUMPDEST PUSH3 0x1562 DUP2 DUP4 PUSH3 0x1E76 JUMP JUMPDEST DUP2 ADD SUB SLT PUSH3 0xC8D JUMPI MLOAD DUP7 PUSH3 0x10B4 JUMP JUMPDEST POP RETURNDATASIZE PUSH3 0x1556 JUMP JUMPDEST SWAP1 SWAP5 POP DUP2 DUP2 DUP2 RETURNDATASIZE DUP4 GT PUSH3 0x15A8 JUMPI JUMPDEST PUSH3 0x1596 DUP2 DUP4 PUSH3 0x1E76 JUMP JUMPDEST DUP2 ADD SUB SLT PUSH3 0xC8D JUMPI MLOAD SWAP4 DUP6 PUSH3 0x108E JUMP JUMPDEST POP RETURNDATASIZE PUSH3 0x158A JUMP JUMPDEST PUSH1 0x64 SWAP1 PUSH1 0x40 MLOAD SWAP1 PUSH3 0x461BCD PUSH1 0xE5 SHL DUP3 MSTORE PUSH1 0x4 DUP3 ADD MSTORE PUSH1 0xF PUSH1 0x24 DUP3 ADD MSTORE PUSH15 0x13DB9B1E481AD9595C195C88189BDD PUSH1 0x8A SHL PUSH1 0x44 DUP3 ADD MSTORE REVERT JUMPDEST DUP1 SWAP3 POP DUP4 DUP1 SWAP3 POP RETURNDATASIZE DUP4 GT PUSH3 0x161F JUMPI JUMPDEST PUSH3 0x1602 DUP2 DUP4 PUSH3 0x1E76 JUMP JUMPDEST DUP2 ADD SUB SLT PUSH3 0xC8D JUMPI MLOAD DUP4 DUP2 AND DUP2 SUB PUSH3 0xC8D JUMPI DUP4 SWAP1 DUP7 PUSH3 0x105F JUMP JUMPDEST POP RETURNDATASIZE PUSH3 0x15F6 JUMP JUMPDEST CALLVALUE PUSH3 0xC8D JUMPI PUSH1 0x20 CALLDATASIZE PUSH1 0x3 NOT ADD SLT PUSH3 0xC8D JUMPI PUSH1 0x4 CALLDATALOAD PUSH1 0x1 SLOAD DUP2 LT ISZERO PUSH3 0xC8D JUMPI PUSH3 0xDC6 PUSH1 0x20 SWAP2 PUSH3 0x209D JUMP JUMPDEST CALLVALUE PUSH3 0xC8D JUMPI PUSH0 CALLDATASIZE PUSH1 0x3 NOT ADD SLT PUSH3 0xC8D JUMPI PUSH0 SLOAD PUSH1 0x40 MLOAD PUSH1 0x1 PUSH1 0x1 PUSH1 0xA0 SHL SUB SWAP1 SWAP2 AND DUP2 MSTORE PUSH1 0x20 SWAP1 RETURN JUMPDEST CALLVALUE PUSH3 0xC8D JUMPI PUSH1 0x40 CALLDATASIZE PUSH1 0x3 NOT ADD SLT PUSH3 0xC8D JUMPI PUSH3 0x169B PUSH3 0x22DA JUMP JUMPDEST PUSH1 0x4 CALLDATALOAD PUSH1 0x7 SSTORE PUSH1 0x24 CALLDATALOAD PUSH1 0x8 SSTORE STOP JUMPDEST CALLVALUE PUSH3 0xC8D JUMPI PUSH0 CALLDATASIZE PUSH1 0x3 NOT ADD SLT PUSH3 0xC8D JUMPI PUSH1 0x20 PUSH1 0x7 SLOAD PUSH1 0x40 MLOAD SWAP1 DUP2 MSTORE RETURN JUMPDEST CALLVALUE PUSH3 0xC8D JUMPI PUSH0 CALLDATASIZE PUSH1 0x3 NOT ADD SLT PUSH3 0xC8D JUMPI PUSH3 0x16E4 PUSH3 0x22DA JUMP JUMPDEST PUSH0 DUP1 SLOAD PUSH1 0x1 PUSH1 0x1 PUSH1 0xA0 SHL SUB NOT DUP2 AND DUP3 SSTORE PUSH1 0x1 PUSH1 0x1 PUSH1 0xA0 SHL SUB AND PUSH32 0x8BE0079C531659141344CD1FD0A4F28419497F9722A3DAAFE3B4186F6B6457E0 DUP3 DUP1 LOG3 STOP JUMPDEST CALLVALUE PUSH3 0xC8D JUMPI PUSH1 0x20 DUP1 PUSH1 0x3 NOT CALLDATASIZE ADD SLT PUSH3 0xC8D JUMPI PUSH3 0x18AD PUSH3 0x1745 PUSH3 0x1E12 JUMP JUMPDEST SWAP2 PUSH0 PUSH1 0xC0 PUSH1 0x40 MLOAD PUSH3 0x1757 DUP2 PUSH3 0x1E29 JUMP JUMPDEST PUSH1 0x60 DUP2 MSTORE PUSH1 0x60 DUP5 DUP3 ADD MSTORE DUP3 PUSH1 0x40 DUP3 ADD MSTORE DUP3 PUSH1 0x60 DUP3 ADD MSTORE DUP3 PUSH1 0x80 DUP3 ADD MSTORE PUSH1 0x60 PUSH1 0xA0 DUP3 ADD MSTORE ADD MSTORE PUSH3 0x1786 PUSH3 0x21A7 JUMP JUMPDEST POP PUSH1 0x1 PUSH1 0x1 PUSH1 0xA0 SHL SUB SWAP3 DUP4 AND PUSH0 DUP2 DUP2 MSTORE PUSH1 0x3 DUP4 MSTORE PUSH1 0x40 SWAP1 KECCAK256 SLOAD PUSH3 0x17AD SWAP1 PUSH1 0xFF AND PUSH3 0x2241 JUMP JUMPDEST PUSH0 MSTORE PUSH1 0x4 DUP2 MSTORE PUSH3 0x293 PUSH1 0x40 PUSH0 KECCAK256 SWAP4 PUSH1 0x5 DUP4 MSTORE PUSH1 0x40 PUSH0 KECCAK256 SWAP3 PUSH3 0x18F0 PUSH1 0x40 MLOAD SWAP7 PUSH3 0x17D8 DUP9 PUSH3 0x1E29 JUMP JUMPDEST PUSH1 0x40 MLOAD PUSH3 0x17F4 DUP2 PUSH3 0x17EC DUP2 DUP6 PUSH3 0x1F79 JUMP JUMPDEST SUB DUP3 PUSH3 0x1E76 JUMP JUMPDEST DUP9 MSTORE PUSH1 0x40 MLOAD SWAP8 PUSH3 0x1816 DUP10 PUSH3 0x180E DUP2 PUSH1 0x1 DUP7 ADD PUSH3 0x1F79 JUMP JUMPDEST SUB DUP11 PUSH3 0x1E76 JUMP JUMPDEST DUP4 DUP2 ADD SWAP9 DUP10 MSTORE DUP5 PUSH1 0x2 DUP4 ADD SLOAD AND SWAP2 PUSH1 0x40 DUP3 ADD SWAP3 DUP4 MSTORE PUSH1 0x3 DUP2 ADD SLOAD PUSH1 0x60 DUP4 ADD SWAP1 DUP2 MSTORE PUSH1 0xFF PUSH1 0x4 DUP4 ADD SLOAD AND SWAP1 PUSH1 0x80 DUP5 ADD SWAP2 ISZERO ISZERO DUP3 MSTORE PUSH3 0x1886 PUSH1 0x6 PUSH1 0x40 MLOAD SWAP5 PUSH3 0x186F DUP7 PUSH3 0x1867 DUP2 PUSH1 0x5 DUP6 ADD PUSH3 0x1F79 JUMP JUMPDEST SUB DUP8 PUSH3 0x1E76 JUMP JUMPDEST PUSH1 0xA0 DUP8 ADD SWAP6 DUP7 MSTORE ADD SLOAD SWAP11 PUSH1 0xC0 DUP7 ADD SWAP12 DUP13 MSTORE PUSH3 0x21E5 JUMP JUMPDEST SWAP8 PUSH3 0x18C5 PUSH1 0x40 MLOAD SWAP14 DUP15 SWAP14 DUP15 SWAP8 PUSH1 0xE0 PUSH2 0x120 SWAP2 DUP3 DUP12 MSTORE MLOAD SWAP2 DUP11 ADD MSTORE PUSH2 0x200 DUP10 ADD SWAP1 PUSH3 0x2012 JUMP JUMPDEST SWAP1 MLOAD PUSH2 0x11F NOT SWAP8 PUSH2 0x140 DUP10 DUP3 DUP6 SUB ADD SWAP2 ADD MSTORE PUSH3 0x2012 JUMP JUMPDEST SWAP6 MLOAD AND PUSH2 0x160 DUP13 ADD MSTORE MLOAD PUSH2 0x180 DUP12 ADD MSTORE MLOAD ISZERO ISZERO PUSH2 0x1A0 DUP11 ADD MSTORE MLOAD SWAP1 DUP9 DUP4 SUB ADD PUSH2 0x1C0 DUP10 ADD MSTORE PUSH3 0x2012 JUMP JUMPDEST SWAP4 MLOAD PUSH2 0x1E0 DUP7 ADD MSTORE DUP5 ADD SWAP1 PUSH3 0x2052 JUMP JUMPDEST CALLVALUE PUSH3 0xC8D JUMPI PUSH1 0x20 CALLDATASIZE PUSH1 0x3 NOT ADD SLT PUSH3 0xC8D JUMPI PUSH1 0x1 PUSH1 0x1 PUSH1 0xA0 SHL SUB PUSH3 0x1926 PUSH3 0x1E12 JUMP JUMPDEST AND PUSH0 MSTORE PUSH1 0x3 PUSH1 0x20 MSTORE PUSH1 0x20 PUSH1 0xFF PUSH1 0x40 PUSH0 KECCAK256 SLOAD AND PUSH1 0x40 MLOAD SWAP1 ISZERO ISZERO DUP2 MSTORE RETURN JUMPDEST CALLVALUE PUSH3 0xC8D JUMPI PUSH0 CALLDATASIZE PUSH1 0x3 NOT ADD SLT PUSH3 0xC8D JUMPI PUSH1 0x20 PUSH1 0x1 SLOAD PUSH1 0x40 MLOAD SWAP1 DUP2 MSTORE RETURN JUMPDEST CALLVALUE PUSH3 0xC8D JUMPI PUSH1 0x20 DUP1 PUSH1 0x3 NOT CALLDATASIZE ADD SLT PUSH3 0xC8D JUMPI PUSH1 0x4 CALLDATALOAD PUSH1 0x6 SLOAD DUP1 DUP3 LT PUSH0 EQ PUSH3 0x1ACE JUMPI POP JUMPDEST PUSH3 0x1992 DUP2 PUSH3 0x215A JUMP JUMPDEST SWAP1 PUSH3 0x199E DUP2 PUSH3 0x2133 JUMP JUMPDEST SWAP1 PUSH3 0x19AE PUSH1 0x40 MLOAD SWAP3 DUP4 PUSH3 0x1E76 JUMP JUMPDEST DUP1 DUP3 MSTORE PUSH3 0x19BC DUP2 PUSH3 0x2133 JUMP JUMPDEST PUSH1 0x1F NOT ADD PUSH0 JUMPDEST DUP2 DUP2 LT PUSH3 0x1AB0 JUMPI POP POP PUSH0 JUMPDEST DUP2 DUP2 LT PUSH3 0x1A39 JUMPI POP POP PUSH3 0x19EF PUSH1 0x40 MLOAD SWAP3 PUSH1 0x40 DUP5 MSTORE PUSH1 0x40 DUP5 ADD SWAP1 PUSH3 0x1F00 JUMP JUMPDEST DUP3 DUP2 SUB DUP5 DUP5 ADD MSTORE DUP4 DUP1 DUP4 MLOAD SWAP3 DUP4 DUP2 MSTORE ADD SWAP3 ADD SWAP4 PUSH0 JUMPDEST DUP3 DUP2 LT PUSH3 0x1A12 JUMPI DUP5 DUP5 SUB DUP6 RETURN JUMPDEST SWAP1 SWAP2 SWAP3 DUP3 PUSH2 0x100 DUP3 PUSH3 0x1A29 PUSH1 0x1 SWAP5 DUP11 MLOAD PUSH3 0x2052 JUMP JUMPDEST ADD SWAP7 ADD SWAP2 ADD SWAP5 SWAP3 SWAP2 SWAP1 SWAP5 PUSH3 0x1A04 JUMP JUMPDEST DUP1 PUSH3 0x1A4A PUSH1 0x1 SWAP3 SWAP7 SWAP5 SWAP7 PUSH3 0x20E7 JUMP JUMPDEST DUP4 DUP1 PUSH1 0xA0 SHL SUB DUP1 SWAP3 SLOAD PUSH1 0x3 SWAP3 DUP4 SHL SHR AND PUSH3 0x1A66 DUP5 DUP10 PUSH3 0x2192 JUMP JUMPDEST MSTORE PUSH3 0x1A72 DUP4 PUSH3 0x20E7 JUMP JUMPDEST SWAP1 SLOAD SWAP2 SHL SHR AND PUSH0 MSTORE PUSH1 0x5 DUP5 MSTORE PUSH3 0x1A8C PUSH1 0x40 PUSH0 KECCAK256 PUSH3 0x21E5 JUMP JUMPDEST PUSH3 0x1A98 DUP3 DUP9 PUSH3 0x2192 JUMP JUMPDEST MSTORE PUSH3 0x1AA5 DUP2 DUP8 PUSH3 0x2192 JUMP JUMPDEST POP ADD SWAP4 SWAP2 SWAP4 PUSH3 0x19CE JUMP JUMPDEST SWAP5 DUP1 SWAP4 SWAP6 PUSH3 0x1ABE PUSH3 0x21A7 JUMP JUMPDEST DUP3 DUP3 DUP10 ADD ADD MSTORE ADD SWAP5 SWAP3 SWAP5 PUSH3 0x19C2 JUMP JUMPDEST SWAP1 POP PUSH3 0x1987 JUMP JUMPDEST CALLVALUE PUSH3 0xC8D JUMPI PUSH1 0x20 CALLDATASIZE PUSH1 0x3 NOT ADD SLT PUSH3 0xC8D JUMPI PUSH3 0x1B91 PUSH1 0x1 PUSH1 0x1 PUSH1 0xA0 SHL SUB DUP1 PUSH3 0x1B00 PUSH3 0x1E12 JUMP JUMPDEST AND PUSH0 MSTORE PUSH1 0x4 PUSH1 0x20 MSTORE PUSH1 0x40 PUSH0 KECCAK256 SWAP1 PUSH3 0x1BC0 PUSH1 0x40 MLOAD SWAP3 PUSH3 0x1B2E DUP5 PUSH3 0x1B26 DUP2 DUP5 PUSH3 0x1F79 JUMP JUMPDEST SUB DUP6 PUSH3 0x1E76 JUMP JUMPDEST PUSH1 0x40 MLOAD SWAP3 PUSH3 0x1B46 DUP5 PUSH3 0x1B26 DUP2 PUSH1 0x1 DUP7 ADD PUSH3 0x1F79 JUMP JUMPDEST PUSH1 0x2 DUP3 ADD SLOAD AND SWAP1 PUSH1 0x3 DUP2 ADD SLOAD PUSH1 0xFF PUSH1 0x4 DUP4 ADD SLOAD AND SWAP1 PUSH3 0x1BA0 PUSH1 0x6 PUSH1 0x40 MLOAD SWAP5 PUSH3 0x1B79 DUP7 PUSH3 0x1867 DUP2 PUSH1 0x5 DUP6 ADD PUSH3 0x1F79 JUMP JUMPDEST ADD SLOAD SWAP7 PUSH1 0x40 MLOAD SWAP10 DUP11 SWAP10 PUSH1 0xE0 DUP12 MSTORE PUSH1 0xE0 DUP12 ADD SWAP1 PUSH3 0x2012 JUMP JUMPDEST SWAP1 DUP10 DUP3 SUB PUSH1 0x20 DUP12 ADD MSTORE PUSH3 0x2012 JUMP JUMPDEST SWAP4 PUSH1 0x40 DUP9 ADD MSTORE PUSH1 0x60 DUP8 ADD MSTORE ISZERO ISZERO PUSH1 0x80 DUP7 ADD MSTORE DUP5 DUP3 SUB PUSH1 0xA0 DUP7 ADD MSTORE PUSH3 0x2012 JUMP JUMPDEST SWAP1 PUSH1 0xC0 DUP4 ADD MSTORE SUB SWAP1 RETURN JUMPDEST CALLVALUE PUSH3 0xC8D JUMPI PUSH0 CALLDATASIZE PUSH1 0x3 NOT ADD SLT PUSH3 0xC8D JUMPI PUSH1 0x9 SLOAD PUSH1 0x40 MLOAD PUSH1 0x1 PUSH1 0x1 PUSH1 0xA0 SHL SUB SWAP1 SWAP2 AND DUP2 MSTORE PUSH1 0x20 SWAP1 RETURN JUMPDEST CALLVALUE PUSH3 0xC8D JUMPI PUSH0 CALLDATASIZE PUSH1 0x3 NOT ADD SLT PUSH3 0xC8D JUMPI PUSH1 0xA SLOAD PUSH1 0x40 MLOAD PUSH1 0x1 PUSH1 0x1 PUSH1 0xA0 SHL SUB SWAP1 SWAP2 AND DUP2 MSTORE PUSH1 0x20 SWAP1 RETURN JUMPDEST CALLVALUE PUSH3 0xC8D JUMPI PUSH1 0x20 DUP1 PUSH1 0x3 NOT CALLDATASIZE ADD SLT PUSH3 0xC8D JUMPI PUSH1 0x4 CALLDATALOAD PUSH1 0x1 PUSH1 0x1 PUSH1 0x40 SHL SUB DUP2 GT PUSH3 0xC8D JUMPI PUSH3 0x1C54 SWAP1 CALLDATASIZE SWAP1 PUSH1 0x4 ADD PUSH3 0x1EB4 JUMP JUMPDEST PUSH1 0x1 DUP1 SLOAD SWAP2 SWAP3 SWAP2 DUP3 DUP5 ADD PUSH0 DUP4 DUP2 JUMPDEST DUP5 DUP2 LT PUSH3 0x1D24 JUMPI POP POP PUSH3 0x1C77 SWAP1 PUSH3 0x215A JUMP JUMPDEST SWAP5 PUSH0 SWAP2 PUSH0 JUMPDEST DUP5 DUP2 LT PUSH3 0x1C99 JUMPI PUSH1 0x40 MLOAD DUP8 DUP2 MSTORE DUP1 PUSH3 0x293 DUP2 DUP11 ADD DUP12 PUSH3 0x1F00 JUMP JUMPDEST DUP1 PUSH3 0x1CA6 DUP8 SWAP3 PUSH3 0x209D JUMP JUMPDEST PUSH1 0x1 DUP1 PUSH1 0xA0 SHL SUB DUP1 SWAP3 SLOAD PUSH1 0x3 SWAP3 DUP4 SHL SHR AND PUSH0 MSTORE PUSH1 0x4 DUP11 MSTORE PUSH3 0x17EC PUSH3 0x1CD9 PUSH1 0x5 PUSH1 0x40 PUSH0 KECCAK256 ADD PUSH1 0x40 MLOAD SWAP3 DUP4 DUP1 SWAP3 PUSH3 0x1F79 JUMP JUMPDEST DUP11 DUP2 MLOAD SWAP2 ADD KECCAK256 DUP7 MLOAD DUP7 KECCAK256 EQ PUSH3 0x1CF3 JUMPI JUMPDEST POP POP ADD PUSH3 0x1C7C JUMP JUMPDEST PUSH3 0x1CFE DUP4 PUSH3 0x209D JUMP JUMPDEST SWAP1 SLOAD SWAP2 SHL SHR AND PUSH3 0x1D1B PUSH3 0x1D13 DUP8 PUSH3 0x214B JUMP JUMPDEST SWAP7 DUP12 PUSH3 0x2192 JUMP JUMPDEST MSTORE DUP10 DUP1 PUSH3 0x1CEA JUMP JUMPDEST PUSH3 0x1D2F DUP2 PUSH3 0x209D JUMP JUMPDEST PUSH1 0x1 DUP1 PUSH1 0xA0 SHL SUB SWAP2 SLOAD SWAP1 PUSH1 0x3 SHL SHR AND PUSH0 MSTORE PUSH1 0x4 DUP8 MSTORE PUSH3 0x17EC PUSH3 0x1D60 PUSH1 0x5 PUSH1 0x40 PUSH0 KECCAK256 ADD PUSH1 0x40 MLOAD SWAP3 DUP4 DUP1 SWAP3 PUSH3 0x1F79 JUMP JUMPDEST DUP8 DUP2 MLOAD SWAP2 ADD KECCAK256 DUP9 MLOAD DUP6 KECCAK256 EQ PUSH3 0x1D7A JUMPI JUMPDEST ADD DUP5 SWAP1 PUSH3 0x1C62 JUMP JUMPDEST SWAP2 PUSH3 0x1D86 SWAP1 PUSH3 0x214B JUMP JUMPDEST SWAP2 PUSH3 0x1D71 JUMP JUMPDEST CALLVALUE PUSH3 0xC8D JUMPI PUSH1 0x20 CALLDATASIZE PUSH1 0x3 NOT ADD SLT PUSH3 0xC8D JUMPI PUSH2 0x100 SWAP1 PUSH1 0x1 PUSH1 0x1 PUSH1 0xA0 SHL SUB PUSH3 0x1DB6 PUSH3 0x1E12 JUMP JUMPDEST AND PUSH0 MSTORE PUSH1 0x5 PUSH1 0x20 MSTORE PUSH1 0x40 PUSH0 KECCAK256 DUP1 SLOAD SWAP1 PUSH1 0x1 DUP2 ADD SLOAD PUSH1 0x2 DUP3 ADD SLOAD PUSH1 0x3 DUP4 ADD SLOAD PUSH1 0x4 DUP5 ADD SLOAD SWAP2 PUSH1 0x5 DUP6 ADD SLOAD SWAP4 PUSH1 0x7 PUSH1 0x6 DUP8 ADD SLOAD SWAP7 ADD SLOAD SWAP7 DUP9 MSTORE PUSH1 0x20 DUP9 ADD MSTORE PUSH1 0x40 DUP8 ADD MSTORE PUSH1 0x60 DUP7 ADD MSTORE PUSH1 0x80 DUP6 ADD MSTORE PUSH1 0xA0 DUP5 ADD MSTORE PUSH1 0xC0 DUP4 ADD MSTORE PUSH1 0xE0 DUP3 ADD MSTORE RETURN JUMPDEST PUSH1 0x4 CALLDATALOAD SWAP1 PUSH1 0x1 PUSH1 0x1 PUSH1 0xA0 SHL SUB DUP3 AND DUP3 SUB PUSH3 0xC8D JUMPI JUMP JUMPDEST PUSH1 0xE0 DUP2 ADD SWAP1 DUP2 LT PUSH1 0x1 PUSH1 0x1 PUSH1 0x40 SHL SUB DUP3 GT OR PUSH3 0xC11 JUMPI PUSH1 0x40 MSTORE JUMP JUMPDEST PUSH1 0x1 PUSH1 0x1 PUSH1 0x40 SHL SUB DUP2 GT PUSH3 0xC11 JUMPI PUSH1 0x40 MSTORE JUMP JUMPDEST PUSH2 0x100 DUP2 ADD SWAP1 DUP2 LT PUSH1 0x1 PUSH1 0x1 PUSH1 0x40 SHL SUB DUP3 GT OR PUSH3 0xC11 JUMPI PUSH1 0x40 MSTORE JUMP JUMPDEST SWAP1 PUSH1 0x1F DUP1 NOT SWAP2 ADD AND DUP2 ADD SWAP1 DUP2 LT PUSH1 0x1 PUSH1 0x1 PUSH1 0x40 SHL SUB DUP3 GT OR PUSH3 0xC11 JUMPI PUSH1 0x40 MSTORE JUMP JUMPDEST PUSH1 0x1 PUSH1 0x1 PUSH1 0x40 SHL SUB DUP2 GT PUSH3 0xC11 JUMPI PUSH1 0x1F ADD PUSH1 0x1F NOT AND PUSH1 0x20 ADD SWAP1 JUMP JUMPDEST DUP2 PUSH1 0x1F DUP3 ADD SLT ISZERO PUSH3 0xC8D JUMPI DUP1 CALLDATALOAD SWAP1 PUSH3 0x1ECE DUP3 PUSH3 0x1E98 JUMP JUMPDEST SWAP3 PUSH3 0x1EDE PUSH1 0x40 MLOAD SWAP5 DUP6 PUSH3 0x1E76 JUMP JUMPDEST DUP3 DUP5 MSTORE PUSH1 0x20 DUP4 DUP4 ADD ADD GT PUSH3 0xC8D JUMPI DUP2 PUSH0 SWAP3 PUSH1 0x20 DUP1 SWAP4 ADD DUP4 DUP7 ADD CALLDATACOPY DUP4 ADD ADD MSTORE SWAP1 JUMP JUMPDEST SWAP1 DUP2 MLOAD DUP1 DUP3 MSTORE PUSH1 0x20 DUP1 DUP1 SWAP4 ADD SWAP4 ADD SWAP2 PUSH0 JUMPDEST DUP3 DUP2 LT PUSH3 0x1F20 JUMPI POP POP POP POP SWAP1 JUMP JUMPDEST DUP4 MLOAD PUSH1 0x1 PUSH1 0x1 PUSH1 0xA0 SHL SUB AND DUP6 MSTORE SWAP4 DUP2 ADD SWAP4 SWAP3 DUP2 ADD SWAP3 PUSH1 0x1 ADD PUSH3 0x1F11 JUMP JUMPDEST SWAP1 PUSH1 0x1 DUP3 DUP2 SHR SWAP3 AND DUP1 ISZERO PUSH3 0x1F6E JUMPI JUMPDEST PUSH1 0x20 DUP4 LT EQ PUSH3 0x1F5A JUMPI JUMP JUMPDEST PUSH4 0x4E487B71 PUSH1 0xE0 SHL PUSH0 MSTORE PUSH1 0x22 PUSH1 0x4 MSTORE PUSH1 0x24 PUSH0 REVERT JUMPDEST SWAP2 PUSH1 0x7F AND SWAP2 PUSH3 0x1F4E JUMP JUMPDEST DUP1 SLOAD PUSH0 SWAP4 SWAP3 PUSH3 0x1F89 DUP3 PUSH3 0x1F3E JUMP JUMPDEST SWAP2 DUP3 DUP3 MSTORE PUSH1 0x20 SWAP4 PUSH1 0x1 SWAP2 PUSH1 0x1 DUP2 AND SWAP1 DUP2 PUSH0 EQ PUSH3 0x1FF2 JUMPI POP PUSH1 0x1 EQ PUSH3 0x1FB1 JUMPI JUMPDEST POP POP POP POP POP JUMP JUMPDEST SWAP1 SWAP4 SWAP5 SWAP6 POP PUSH0 SWAP3 SWAP2 SWAP3 MSTORE DUP4 PUSH0 KECCAK256 SWAP3 DUP5 PUSH0 SWAP5 JUMPDEST DUP4 DUP7 LT PUSH3 0x1FDD JUMPI POP POP POP POP ADD ADD SWAP1 PUSH0 DUP1 DUP1 DUP1 DUP1 PUSH3 0x1FAA JUMP JUMPDEST DUP1 SLOAD DUP6 DUP8 ADD DUP4 ADD MSTORE SWAP5 ADD SWAP4 DUP6 SWAP1 DUP3 ADD PUSH3 0x1FC3 JUMP JUMPDEST PUSH1 0xFF NOT AND DUP7 DUP6 ADD MSTORE POP POP POP SWAP1 ISZERO ISZERO PUSH1 0x5 SHL ADD ADD SWAP2 POP PUSH0 DUP1 DUP1 DUP1 DUP1 PUSH3 0x1FAA JUMP JUMPDEST SWAP2 SWAP1 DUP3 MLOAD SWAP3 DUP4 DUP3 MSTORE PUSH0 JUMPDEST DUP5 DUP2 LT PUSH3 0x203D JUMPI POP POP DUP3 PUSH0 PUSH1 0x20 DUP1 SWAP5 SWAP6 DUP5 ADD ADD MSTORE PUSH1 0x1F DUP1 NOT SWAP2 ADD AND ADD ADD SWAP1 JUMP JUMPDEST PUSH1 0x20 DUP2 DUP4 ADD DUP2 ADD MLOAD DUP5 DUP4 ADD DUP3 ADD MSTORE ADD PUSH3 0x201C JUMP JUMPDEST PUSH1 0xE0 DUP1 SWAP2 DUP1 MLOAD DUP5 MSTORE PUSH1 0x20 DUP2 ADD MLOAD PUSH1 0x20 DUP6 ADD MSTORE PUSH1 0x40 DUP2 ADD MLOAD PUSH1 0x40 DUP6 ADD MSTORE PUSH1 0x60 DUP2 ADD MLOAD PUSH1 0x60 DUP6 ADD MSTORE PUSH1 0x80 DUP2 ADD MLOAD PUSH1 0x80 DUP6 ADD MSTORE PUSH1 0xA0 DUP2 ADD MLOAD PUSH1 0xA0 DUP6 ADD MSTORE PUSH1 0xC0 DUP2 ADD MLOAD PUSH1 0xC0 DUP6 ADD MSTORE ADD MLOAD SWAP2 ADD MSTORE JUMP JUMPDEST PUSH1 0x1 SLOAD DUP2 LT ISZERO PUSH3 0x20D3 JUMPI PUSH1 0x1 PUSH0 MSTORE PUSH32 0xB10E2D527612073B26EECDFD717E6A320CF44B4AFAC2B0732D9FCBE2B7FA0CF6 ADD SWAP1 PUSH0 SWAP1 JUMP JUMPDEST PUSH4 0x4E487B71 PUSH1 0xE0 SHL PUSH0 MSTORE PUSH1 0x32 PUSH1 0x4 MSTORE PUSH1 0x24 PUSH0 REVERT JUMPDEST PUSH1 0x6 SLOAD DUP2 LT ISZERO PUSH3 0x20D3 JUMPI PUSH1 0x6 PUSH0 MSTORE PUSH32 0xF652222313E28459528D920B65115C16C04F3EFC82AAEDC97BE59F3F377C0D3F ADD SWAP1 PUSH0 SWAP1 JUMP JUMPDEST DUP1 SLOAD DUP3 LT ISZERO PUSH3 0x20D3 JUMPI PUSH0 MSTORE PUSH1 0x20 PUSH0 KECCAK256 ADD SWAP1 PUSH0 SWAP1 JUMP JUMPDEST PUSH1 0x1 PUSH1 0x1 PUSH1 0x40 SHL SUB DUP2 GT PUSH3 0xC11 JUMPI PUSH1 0x5 SHL PUSH1 0x20 ADD SWAP1 JUMP JUMPDEST PUSH0 NOT DUP2 EQ PUSH3 0x1355 JUMPI PUSH1 0x1 ADD SWAP1 JUMP JUMPDEST SWAP1 PUSH3 0x2166 DUP3 PUSH3 0x2133 JUMP JUMPDEST PUSH3 0x2175 PUSH1 0x40 MLOAD SWAP2 DUP3 PUSH3 0x1E76 JUMP JUMPDEST DUP3 DUP2 MSTORE DUP1 SWAP3 PUSH3 0x2188 PUSH1 0x1F NOT SWAP2 PUSH3 0x2133 JUMP JUMPDEST ADD SWAP1 PUSH1 0x20 CALLDATASIZE SWAP2 ADD CALLDATACOPY JUMP JUMPDEST DUP1 MLOAD DUP3 LT ISZERO PUSH3 0x20D3 JUMPI PUSH1 0x20 SWAP2 PUSH1 0x5 SHL ADD ADD SWAP1 JUMP JUMPDEST PUSH1 0x40 MLOAD SWAP1 PUSH3 0x21B6 DUP3 PUSH3 0x1E59 JUMP JUMPDEST PUSH0 PUSH1 0xE0 DUP4 DUP3 DUP2 MSTORE DUP3 PUSH1 0x20 DUP3 ADD MSTORE DUP3 PUSH1 0x40 DUP3 ADD MSTORE DUP3 PUSH1 0x60 DUP3 ADD MSTORE DUP3 PUSH1 0x80 DUP3 ADD MSTORE DUP3 PUSH1 0xA0 DUP3 ADD MSTORE DUP3 PUSH1 0xC0 DUP3 ADD MSTORE ADD MSTORE JUMP JUMPDEST SWAP1 PUSH1 0x40 MLOAD PUSH3 0x21F4 DUP2 PUSH3 0x1E59 JUMP JUMPDEST PUSH1 0xE0 PUSH1 0x7 DUP3 SWAP5 DUP1 SLOAD DUP5 MSTORE PUSH1 0x1 DUP2 ADD SLOAD PUSH1 0x20 DUP6 ADD MSTORE PUSH1 0x2 DUP2 ADD SLOAD PUSH1 0x40 DUP6 ADD MSTORE PUSH1 0x3 DUP2 ADD SLOAD PUSH1 0x60 DUP6 ADD MSTORE PUSH1 0x4 DUP2 ADD SLOAD PUSH1 0x80 DUP6 ADD MSTORE PUSH1 0x5 DUP2 ADD SLOAD PUSH1 0xA0 DUP6 ADD MSTORE PUSH1 0x6 DUP2 ADD SLOAD PUSH1 0xC0 DUP6 ADD MSTORE ADD SLOAD SWAP2 ADD MSTORE JUMP JUMPDEST ISZERO PUSH3 0x2249 JUMPI JUMP JUMPDEST PUSH1 0x40 MLOAD PUSH3 0x461BCD PUSH1 0xE5 SHL DUP2 MSTORE PUSH1 0x20 PUSH1 0x4 DUP3 ADD MSTORE PUSH1 0x16 PUSH1 0x24 DUP3 ADD MSTORE PUSH22 0x139BDD0818481C9959DA5CDD195C9959081D985D5B1D PUSH1 0x52 SHL PUSH1 0x44 DUP3 ADD MSTORE PUSH1 0x64 SWAP1 REVERT JUMPDEST SWAP2 SWAP1 DUP3 SUB SWAP2 DUP3 GT PUSH3 0x1355 JUMPI JUMP JUMPDEST DUP2 ISZERO PUSH3 0x22A0 JUMPI DIV SWAP1 JUMP JUMPDEST PUSH4 0x4E487B71 PUSH1 0xE0 SHL PUSH0 MSTORE PUSH1 0x12 PUSH1 0x4 MSTORE PUSH1 0x24 PUSH0 REVERT JUMPDEST SWAP2 SWAP1 DUP3 ADD DUP1 SWAP3 GT PUSH3 0x1355 JUMPI JUMP JUMPDEST DUP2 DUP2 LT PUSH3 0x22CE JUMPI POP POP JUMP JUMPDEST PUSH0 DUP2 SSTORE PUSH1 0x1 ADD PUSH3 0x22C2 JUMP JUMPDEST PUSH0 SLOAD PUSH1 0x1 PUSH1 0x1 PUSH1 0xA0 SHL SUB AND CALLER SUB PUSH3 0x22EE JUMPI JUMP JUMPDEST PUSH1 0x40 MLOAD PUSH4 0x118CDAA7 PUSH1 0xE0 SHL DUP2 MSTORE CALLER PUSH1 0x4 DUP3 ADD MSTORE PUSH1 0x24 SWAP1 REVERT JUMPDEST PUSH1 0x1 PUSH1 0x1 PUSH1 0xA0 SHL SUB SWAP1 DUP2 AND PUSH0 SWAP1 DUP2 MSTORE PUSH1 0x5 PUSH1 0x20 MSTORE PUSH1 0x40 SWAP1 KECCAK256 PUSH3 0x2329 SWAP1 PUSH3 0x21E5 JUMP JUMPDEST SWAP2 AND PUSH0 MSTORE PUSH1 0x5 PUSH1 0x20 MSTORE PUSH3 0x2340 PUSH1 0x40 PUSH0 KECCAK256 PUSH3 0x21E5 JUMP JUMPDEST SWAP1 DUP1 MLOAD SWAP2 PUSH1 0x28 DUP4 MUL SWAP3 DUP1 DUP5 DIV PUSH1 0x28 EQ SWAP1 ISZERO OR ISZERO PUSH3 0x1355 JUMPI PUSH1 0x64 PUSH1 0x20 DUP4 ADD MLOAD SWAP4 PUSH1 0x1E DUP6 MUL SWAP5 DUP1 DUP7 DIV PUSH1 0x1E EQ SWAP1 ISZERO OR ISZERO PUSH3 0x1355 JUMPI PUSH3 0x2390 SWAP1 DUP3 DUP1 PUSH8 0xDE0B6B3A7640000 DUP1 SWAP9 DIV DIV SWAP2 DIV PUSH3 0x22B4 JUMP JUMPDEST SWAP3 PUSH1 0xA0 DUP2 ADD MLOAD SWAP4 PUSH1 0x14 DUP6 MUL SWAP5 DUP1 DUP7 DIV PUSH1 0x14 EQ SWAP1 ISZERO OR ISZERO PUSH3 0x1355 JUMPI PUSH3 0x23C2 PUSH1 0x80 SWAP2 DUP5 PUSH3 0xF4240 DUP1 SWAP9 DIV DIV SWAP1 PUSH3 0x22B4 JUMP JUMPDEST SWAP2 ADD MLOAD SWAP1 PUSH1 0xA DUP3 MUL SWAP2 DUP1 DUP4 DIV PUSH1 0xA EQ SWAP1 ISZERO OR ISZERO PUSH3 0x1355 JUMPI DUP3 DUP6 PUSH3 0x23EA SWAP4 DIV DIV SWAP1 PUSH3 0x22B4 JUMP JUMPDEST SWAP4 DUP3 MLOAD PUSH1 0x28 DUP2 MUL SWAP1 DUP1 DUP3 DIV PUSH1 0x28 EQ SWAP1 ISZERO OR ISZERO PUSH3 0x1355 JUMPI PUSH1 0x20 DUP5 ADD MLOAD SWAP2 PUSH1 0x1E DUP4 MUL SWAP3 DUP1 DUP5 DIV PUSH1 0x1E EQ SWAP1 ISZERO OR ISZERO PUSH3 0x1355 JUMPI DUP4 DUP1 SWAP2 PUSH3 0x242D SWAP5 DIV DIV SWAP2 DIV PUSH3 0x22B4 JUMP JUMPDEST PUSH1 0xA0 DUP4 ADD MLOAD PUSH1 0x14 DUP2 MUL SWAP1 DUP1 DUP3 DIV PUSH1 0x14 EQ SWAP1 ISZERO OR ISZERO PUSH3 0x1355 JUMPI PUSH1 0x80 SWAP2 DUP4 DUP7 PUSH3 0x2459 SWAP4 DIV DIV SWAP1 PUSH3 0x22B4 JUMP JUMPDEST SWAP3 ADD MLOAD SWAP3 PUSH1 0xA DUP5 MUL SWAP4 DUP1 DUP6 DIV PUSH1 0xA EQ SWAP1 ISZERO OR ISZERO PUSH3 0x1355 JUMPI PUSH3 0x247F SWAP4 DIV DIV SWAP1 PUSH3 0x22B4 JUMP JUMPDEST SWAP1 DUP2 DUP2 GT PUSH3 0x2497 JUMPI LT PUSH3 0x2492 JUMPI PUSH0 SWAP1 JUMP JUMPDEST PUSH0 NOT SWAP1 JUMP JUMPDEST POP POP PUSH1 0x1 SWAP1 JUMP INVALID PUSH1 0xA0 CALLVALUE PUSH3 0x333 JUMPI PUSH1 0x1F PUSH3 0x1DB5 CODESIZE DUP2 SWAP1 SUB SWAP2 DUP3 ADD PUSH1 0x1F NOT AND DUP4 ADD SWAP3 PUSH1 0x1 PUSH1 0x1 PUSH1 0x40 SHL SUB SWAP3 SWAP1 SWAP2 DUP4 DUP6 GT DUP4 DUP7 LT OR PUSH3 0x308 JUMPI DUP2 PUSH1 0x60 SWAP3 DUP5 SWAP3 PUSH1 0x40 SWAP8 DUP9 MSTORE DUP4 CODECOPY DUP2 ADD SUB SLT PUSH3 0x333 JUMPI PUSH3 0x53 DUP2 PUSH3 0x337 JUMP JUMPDEST SWAP2 PUSH1 0x20 SWAP3 PUSH3 0x71 DUP6 PUSH3 0x69 DUP7 DUP7 ADD PUSH3 0x337 JUMP JUMPDEST SWAP5 ADD PUSH3 0x337 JUMP JUMPDEST SWAP2 CALLER ISZERO PUSH3 0x31C JUMPI PUSH0 DUP1 SLOAD CALLER PUSH1 0x1 PUSH1 0x1 PUSH1 0xA0 SHL SUB NOT DUP1 DUP4 AND DUP3 OR DUP5 SSTORE PUSH1 0x1 PUSH1 0x1 PUSH1 0xA0 SHL SUB SWAP9 SWAP4 SWAP1 SWAP3 DUP10 AND SWAP1 PUSH32 0x8BE0079C531659141344CD1FD0A4F28419497F9722A3DAAFE3B4186F6B6457E0 SWAP1 DUP1 LOG3 PUSH1 0x1 DUP1 DUP1 SSTORE SWAP4 DUP8 AND PUSH1 0x80 MSTORE PUSH1 0x2 DUP1 SLOAD PUSH2 0x100 PUSH1 0x1 PUSH1 0xA8 SHL SUB NOT AND PUSH1 0x8 SWAP8 DUP9 SHL PUSH2 0x100 PUSH1 0x1 PUSH1 0xA8 SHL SUB AND OR DUP2 SSTORE PUSH1 0x3 DUP1 SLOAD SWAP1 SWAP3 AND SWAP6 SWAP1 SWAP8 AND SWAP5 SWAP1 SWAP5 OR DUP5 SSTORE DUP7 MLOAD DUP2 DUP2 ADD SWAP1 DUP4 DUP3 GT DUP2 DUP4 LT OR PUSH3 0x308 JUMPI DUP2 DUP10 MSTORE PUSH0 DUP2 MSTORE DUP9 MLOAD PUSH1 0xC0 DUP2 ADD SWAP1 DUP1 DUP3 LT DUP7 DUP4 GT OR PUSH3 0x308 JUMPI DUP11 SWAP2 DUP3 MSTORE DUP3 PUSH1 0xA0 PUSH5 0x174876E800 SWAP3 DUP4 DUP2 MSTORE PUSH1 0xA DUP9 DUP3 ADD MSTORE PUSH2 0x7D0 DUP1 SWAP6 DUP3 ADD MSTORE DUP5 PUSH1 0x60 DUP3 ADD MSTORE PUSH1 0xC8 PUSH1 0x80 DUP3 ADD MSTORE ADD MSTORE PUSH1 0xB SSTORE PUSH1 0xA PUSH1 0xC SSTORE DUP1 PUSH1 0xD SSTORE PUSH1 0xE SSTORE PUSH1 0xC8 PUSH1 0xF SSTORE MLOAD SWAP3 DUP4 GT PUSH3 0x308 JUMPI PUSH9 0x10000000000000000 DUP4 GT PUSH3 0x308 JUMPI PUSH1 0x10 SLOAD DUP4 PUSH1 0x10 SSTORE DUP1 DUP5 LT PUSH3 0x2AB JUMPI JUMPDEST POP PUSH1 0x10 PUSH0 MSTORE DUP3 DUP3 PUSH0 KECCAK256 SWAP6 SHR SWAP6 PUSH0 JUMPDEST DUP8 DUP2 LT PUSH3 0x255 JUMPI POP POP PUSH1 0x7 NOT DUP4 AND SWAP1 SWAP3 SUB SWAP2 DUP3 PUSH3 0x1F4 JUMPI JUMPDEST DUP8 TIMESTAMP PUSH1 0x7 SSTORE MLOAD PUSH2 0x1A68 SWAP1 DUP2 PUSH3 0x34D DUP3 CODECOPY PUSH1 0x80 MLOAD DUP2 DUP2 DUP2 PUSH2 0x807 ADD MSTORE DUP2 DUP2 PUSH2 0x912 ADD MSTORE DUP2 DUP2 PUSH2 0x1154 ADD MSTORE DUP2 DUP2 PUSH2 0x17BB ADD MSTORE PUSH2 0x18B2 ADD MSTORE RETURN JUMPDEST SWAP3 SWAP2 SWAP1 PUSH0 SWAP7 PUSH0 SWAP1 JUMPDEST DUP4 DUP3 LT PUSH3 0x219 JUMPI POP POP POP POP POP POP ADD SSTORE PUSH0 DUP1 DUP1 DUP1 DUP1 DUP1 DUP1 PUSH3 0x1BC JUMP JUMPDEST SWAP1 SWAP2 SWAP3 SWAP4 DUP4 PUSH3 0x247 DUP8 SWAP11 PUSH4 0xFFFFFFFF DUP5 SWAP10 MLOAD AND SWAP1 DUP7 DUP7 SHL PUSH1 0x3 SHL SWAP2 PUSH4 0xFFFFFFFF DUP1 SWAP2 AND DUP4 SHL SWAP3 SHL NOT AND OR SWAP1 JUMP JUMPDEST SWAP10 ADD SWAP6 SWAP5 SWAP4 SWAP3 ADD SWAP1 PUSH3 0x1FC JUMP JUMPDEST DUP6 SWAP1 PUSH0 DUP1 JUMPDEST DUP7 DUP13 DUP7 DUP4 LT PUSH3 0x272 JUMPI POP POP POP DUP2 DUP10 ADD SSTORE ADD PUSH3 0x1A2 JUMP JUMPDEST DUP8 SWAP5 SWAP6 SWAP4 DUP4 PUSH4 0xFFFFFFFF PUSH3 0x29D SWAP5 SWAP6 SWAP11 MLOAD AND SWAP3 SHL PUSH1 0x3 SHL SWAP2 PUSH4 0xFFFFFFFF DUP1 SWAP2 AND DUP4 SHL SWAP3 SHL NOT AND OR SWAP1 JUMP JUMPDEST SWAP3 ADD SWAP5 ADD SWAP1 DUP8 SWAP3 SWAP2 PUSH3 0x25A JUMP JUMPDEST PUSH1 0x10 PUSH0 MSTORE DUP3 PUSH0 KECCAK256 PUSH1 0x7 DUP1 DUP7 ADD DUP9 SHR DUP3 ADD SWAP3 ADD DUP8 SHR ADD SWAP1 PUSH1 0x1C DUP6 PUSH1 0x2 SHL AND DUP1 PUSH3 0x2EF JUMPI JUMPDEST POP DUP6 SWAP1 JUMPDEST DUP3 DUP2 LT PUSH3 0x2E3 JUMPI POP POP PUSH3 0x194 JUMP JUMPDEST PUSH0 DUP2 SSTORE ADD DUP6 SWAP1 PUSH3 0x2D3 JUMP JUMPDEST PUSH0 NOT SWAP1 DUP2 DUP4 ADD SWAP2 DUP3 SLOAD SWAP2 DUP8 SUB DUP11 SHL SHR AND SWAP1 SSTORE PUSH0 PUSH3 0x2CF JUMP JUMPDEST PUSH4 0x4E487B71 PUSH1 0xE0 SHL PUSH0 MSTORE PUSH1 0x41 PUSH1 0x4 MSTORE PUSH1 0x24 PUSH0 REVERT JUMPDEST DUP6 MLOAD PUSH4 0x1E4FBDF7 PUSH1 0xE0 SHL DUP2 MSTORE PUSH0 PUSH1 0x4 DUP3 ADD MSTORE PUSH1 0x24 SWAP1 REVERT JUMPDEST PUSH0 DUP1 REVERT JUMPDEST MLOAD SWAP1 PUSH1 0x1 PUSH1 0x1 PUSH1 0xA0 SHL SUB DUP3 AND DUP3 SUB PUSH3 0x333 JUMPI JUMP INVALID PUSH1 0x40 PUSH1 0x80 DUP2 MSTORE PUSH1 0x4 SWAP1 DUP2 CALLDATASIZE LT ISZERO PUSH2 0x14 JUMPI PUSH0 DUP1 REVERT JUMPDEST PUSH1 0xE0 SWAP1 PUSH0 CALLDATALOAD DUP3 SHR DUP1 PUSH4 0x1B49C74 EQ PUSH2 0x160C JUMPI DUP1 PUSH4 0x2C19EB8 EQ PUSH2 0x15CC JUMPI DUP1 PUSH4 0x46F7DA2 EQ PUSH2 0x1564 JUMPI DUP1 PUSH4 0xBA36DCD EQ PUSH2 0x1529 JUMPI DUP1 PUSH4 0x12F3D4A2 EQ PUSH2 0x14FD JUMPI DUP1 PUSH4 0x1444663E EQ PUSH2 0x1338 JUMPI DUP1 PUSH4 0x1E8410DA EQ PUSH2 0x131A JUMPI DUP1 PUSH4 0x2AF78BD1 EQ PUSH2 0x11FF JUMPI DUP1 PUSH4 0x2E1A7D4D EQ PUSH2 0x101F JUMPI DUP1 PUSH4 0x30A55E0B EQ PUSH2 0x1001 JUMPI DUP1 PUSH4 0x3A98EF39 EQ PUSH2 0xFE3 JUMPI DUP1 PUSH4 0x51858E27 EQ PUSH2 0xF3F JUMPI DUP1 PUSH4 0x5C6B724D EQ PUSH2 0xC80 JUMPI DUP1 PUSH4 0x5C975ABB EQ PUSH2 0xC5D JUMPI DUP1 PUSH4 0x5D525AFC EQ PUSH2 0xC25 JUMPI DUP1 PUSH4 0x60464627 EQ PUSH2 0xC07 JUMPI DUP1 PUSH4 0x62290822 EQ PUSH2 0xBEB JUMPI DUP1 PUSH4 0x6C92E587 EQ PUSH2 0xBBD JUMPI DUP1 PUSH4 0x715018A6 EQ PUSH2 0xB66 JUMPI DUP1 PUSH4 0x7D882097 EQ PUSH2 0xB49 JUMPI DUP1 PUSH4 0x8DA5CB5B EQ PUSH2 0xB22 JUMPI DUP1 PUSH4 0xA0F72119 EQ PUSH2 0xA89 JUMPI DUP1 PUSH4 0xA5F9392D EQ PUSH2 0xA3B JUMPI DUP1 PUSH4 0xA6D5B732 EQ PUSH2 0xA13 JUMPI DUP1 PUSH4 0xAFCCEBFA EQ PUSH2 0x9C1 JUMPI DUP1 PUSH4 0xB18EA2FA EQ PUSH2 0x99E JUMPI DUP1 PUSH4 0xB6B55F25 EQ PUSH2 0x836 JUMPI DUP1 PUSH4 0xC89039C5 EQ PUSH2 0x7F3 JUMPI DUP1 PUSH4 0xCA02588C EQ PUSH2 0x5AD JUMPI DUP1 PUSH4 0xDE69B3AA EQ PUSH2 0x572 JUMPI DUP1 PUSH4 0xF2FDE38B EQ PUSH2 0x4E2 JUMPI PUSH4 0xFBF114AF EQ PUSH2 0x17E JUMPI PUSH0 DUP1 REVERT JUMPDEST CALLVALUE PUSH2 0x4DE JUMPI DUP2 PUSH1 0x3 NOT CALLDATASIZE ADD SLT PUSH2 0x4DE JUMPI PUSH2 0x196 PUSH2 0x1655 JUMP JUMPDEST PUSH1 0x24 SWAP4 DUP5 CALLDATALOAD SWAP1 DUP2 ISZERO ISZERO DUP1 SWAP3 SUB PUSH2 0x4DE JUMPI PUSH1 0x44 SWAP2 DUP3 CALLDATALOAD SWAP2 PUSH1 0x64 DUP1 CALLDATALOAD SWAP5 PUSH1 0x1 DUP1 PUSH1 0xA0 SHL SUB PUSH1 0x3 SLOAD AND CALLER SUB PUSH2 0x4AF JUMPI PUSH1 0xB SLOAD DUP6 GT PUSH2 0x47B JUMPI PUSH1 0xC SLOAD DUP7 GT PUSH2 0x448 JUMPI PUSH2 0x1DD DUP8 PUSH2 0x1842 JUMP JUMPDEST ISZERO PUSH2 0x415 JUMPI PUSH2 0x1EC DUP7 DUP7 PUSH2 0x1775 JUMP JUMPDEST PUSH2 0x1F4 PUSH2 0x1897 JUMP JUMPDEST LT PUSH2 0x3DF JUMPI POP POP DUP6 MLOAD SWAP8 PUSH1 0x20 SWAP9 DUP10 DUP2 ADD PUSH4 0xFFFFFFFF SWAP2 DUP3 DUP10 AND SWAP9 PUSH4 0xFFFFFFFF PUSH1 0xE0 SHL SWAP1 DUP13 SHL AND DUP3 MSTORE DUP6 PUSH1 0xF8 SHL DUP5 DUP3 ADD MSTORE DUP7 PUSH1 0x25 DUP3 ADD MSTORE TIMESTAMP PUSH1 0x45 DUP3 ADD MSTORE NUMBER PUSH1 0x65 DUP3 ADD MSTORE PUSH1 0x65 DUP2 MSTORE PUSH2 0x243 DUP2 PUSH2 0x1668 JUMP JUMPDEST MLOAD SWAP1 KECCAK256 SWAP9 PUSH2 0x12C TIMESTAMP ADD SWAP1 DUP2 TIMESTAMP GT PUSH2 0x3CD JUMPI DUP10 MLOAD SWAP3 PUSH2 0x140 DUP5 ADD DUP5 DUP2 LT PUSH8 0xFFFFFFFFFFFFFFFF DUP3 GT OR PUSH2 0x3BB JUMPI SWAP2 DUP13 SWAP5 SWAP4 SWAP2 DUP15 DUP14 SWAP5 DUP6 MSTORE DUP13 DUP7 MSTORE DUP12 DUP2 DUP8 ADD DUP12 DUP2 MSTORE DUP7 DUP9 ADD SWAP1 DUP14 DUP3 MSTORE PUSH1 0x60 DUP10 ADD SWAP3 DUP4 MSTORE PUSH1 0x80 DUP10 ADD SWAP4 PUSH1 0x84 CALLDATALOAD DUP6 MSTORE PUSH1 0xA0 DUP11 ADD SWAP6 PUSH1 0xA4 CALLDATALOAD DUP8 MSTORE PUSH1 0xC0 DUP12 ADD SWAP8 PUSH1 0xC4 CALLDATALOAD DUP10 MSTORE DUP12 ADD SWAP9 DUP10 MSTORE PUSH2 0x100 DUP12 ADD SWAP10 DUP13 DUP12 MSTORE PUSH2 0x120 DUP13 ADD SWAP13 PUSH0 DUP15 MSTORE PUSH0 MSTORE PUSH1 0x11 DUP4 MSTORE PUSH0 KECCAK256 SWAP11 MLOAD AND SWAP1 DUP11 SLOAD SWAP3 MLOAD ISZERO ISZERO SWAP1 SHL PUSH5 0xFF00000000 AND SWAP2 PUSH5 0xFFFFFFFFFF NOT AND OR OR DUP9 SSTORE MLOAD PUSH1 0x1 DUP9 ADD SSTORE MLOAD PUSH1 0x2 DUP8 ADD SSTORE MLOAD PUSH1 0x3 DUP7 ADD SSTORE MLOAD DUP8 DUP6 ADD SSTORE MLOAD PUSH1 0x5 DUP5 ADD SSTORE MLOAD PUSH1 0x6 DUP4 ADD SSTORE MLOAD PUSH1 0x7 DUP3 ADD SSTORE PUSH1 0x8 ADD SWAP1 MLOAD ISZERO ISZERO PUSH1 0xFF NOT DUP3 SLOAD AND SWAP1 PUSH1 0xFF AND OR SWAP1 SSTORE PUSH1 0x12 SLOAD SWAP2 PUSH1 0x1 PUSH1 0x40 SHL DUP4 LT ISZERO PUSH2 0x3AA JUMPI POP POP SWAP3 PUSH1 0x80 SWAP3 DUP8 SWAP6 SWAP3 DUP7 PUSH2 0x38F PUSH2 0x379 DUP9 PUSH1 0x1 PUSH32 0xF7C7EC9DF2F18C69AFD54815629B8EA102D1FE3E97C05507B3216253C4025D9 SWAP11 ADD PUSH1 0x12 SSTORE PUSH2 0x16BA JUMP JUMPDEST DUP2 SWAP4 SWAP2 SLOAD SWAP1 PUSH1 0x3 SHL SWAP2 DUP3 SHL SWAP2 PUSH0 NOT SWAP1 SHL NOT AND OR SWAP1 JUMP JUMPDEST SWAP1 SSTORE DUP8 MLOAD SWAP4 DUP5 MSTORE DUP10 DUP5 ADD MSTORE DUP7 DUP4 ADD MSTORE PUSH1 0x60 DUP3 ADD MSTORE LOG2 MLOAD SWAP1 DUP2 MSTORE RETURN JUMPDEST PUSH1 0x41 SWAP1 PUSH4 0x4E487B71 PUSH1 0xE0 SHL PUSH0 MSTORE MSTORE PUSH0 REVERT JUMPDEST DUP6 PUSH1 0x41 DUP9 PUSH4 0x4E487B71 PUSH1 0xE0 SHL PUSH0 MSTORE MSTORE PUSH0 REVERT JUMPDEST DUP4 PUSH1 0x11 DUP7 PUSH4 0x4E487B71 PUSH1 0xE0 SHL PUSH0 MSTORE MSTORE PUSH0 REVERT JUMPDEST PUSH20 0x125B9CDD59999A58DA595B9D0818D85C1A5D185B PUSH1 0x62 SHL DUP4 SWAP2 PUSH1 0x14 DUP13 PUSH1 0x20 DUP13 MLOAD SWAP6 PUSH3 0x461BCD PUSH1 0xE5 SHL DUP8 MSTORE DUP7 ADD MSTORE DUP5 ADD MSTORE DUP3 ADD MSTORE REVERT JUMPDEST PUSH17 0x105CDCD95D081B9BDD08185B1B1BDDD959 PUSH1 0x7A SHL DUP4 SWAP2 PUSH1 0x11 DUP13 PUSH1 0x20 DUP13 MLOAD SWAP6 PUSH3 0x461BCD PUSH1 0xE5 SHL DUP8 MSTORE DUP7 ADD MSTORE DUP5 ADD MSTORE DUP3 ADD MSTORE REVERT JUMPDEST PUSH17 0x98CAECCAE4C2CECA40E8DEDE40D0D2CED PUSH1 0x7B SHL DUP4 SWAP2 PUSH1 0x11 DUP13 PUSH1 0x20 DUP13 MLOAD SWAP6 PUSH3 0x461BCD PUSH1 0xE5 SHL DUP8 MSTORE DUP7 ADD MSTORE DUP5 ADD MSTORE DUP3 ADD MSTORE REVERT JUMPDEST PUSH18 0x506F736974696F6E20746F6F206C61726765 PUSH1 0x70 SHL DUP4 SWAP2 PUSH1 0x12 DUP13 PUSH1 0x20 DUP13 MLOAD SWAP6 PUSH3 0x461BCD PUSH1 0xE5 SHL DUP8 MSTORE DUP7 ADD MSTORE DUP5 ADD MSTORE DUP3 ADD MSTORE REVERT JUMPDEST PUSH13 0x13DB9B1E481052481859D95B9D PUSH1 0x9A SHL DUP4 SWAP2 PUSH1 0xD DUP13 PUSH1 0x20 DUP13 MLOAD SWAP6 PUSH3 0x461BCD PUSH1 0xE5 SHL DUP8 MSTORE DUP7 ADD MSTORE DUP5 ADD MSTORE DUP3 ADD MSTORE REVERT JUMPDEST PUSH0 DUP1 REVERT JUMPDEST DUP4 DUP3 CALLVALUE PUSH2 0x4DE JUMPI PUSH1 0x20 CALLDATASIZE PUSH1 0x3 NOT ADD SLT PUSH2 0x4DE JUMPI PUSH1 0x1 PUSH1 0x1 PUSH1 0xA0 SHL SUB DUP3 CALLDATALOAD DUP2 DUP2 AND SWAP4 SWAP2 SWAP3 SWAP1 DUP5 SWAP1 SUB PUSH2 0x4DE JUMPI PUSH2 0x515 PUSH2 0x194C JUMP JUMPDEST DUP4 ISZERO PUSH2 0x55C JUMPI POP POP PUSH0 SLOAD DUP3 PUSH12 0xFFFFFFFFFFFFFFFFFFFFFFFF PUSH1 0xA0 SHL DUP3 AND OR PUSH0 SSTORE AND PUSH32 0x8BE0079C531659141344CD1FD0A4F28419497F9722A3DAAFE3B4186F6B6457E0 PUSH0 DUP1 LOG3 STOP JUMPDEST SWAP1 PUSH0 PUSH1 0x24 SWAP3 MLOAD SWAP2 PUSH4 0x1E4FBDF7 PUSH1 0xE0 SHL DUP4 MSTORE DUP3 ADD MSTORE REVERT JUMPDEST POP DUP3 CALLVALUE PUSH2 0x4DE JUMPI PUSH1 0x20 CALLDATASIZE PUSH1 0x3 NOT ADD SLT PUSH2 0x4DE JUMPI CALLDATALOAD PUSH1 0x1 PUSH1 0x1 PUSH1 0xA0 SHL SUB DUP2 AND SWAP2 SWAP1 DUP3 SWAP1 SUB PUSH2 0x4DE JUMPI PUSH1 0x20 SWAP2 PUSH0 MSTORE PUSH1 0x9 DUP3 MSTORE DUP1 PUSH0 KECCAK256 SLOAD SWAP1 MLOAD SWAP1 DUP2 MSTORE RETURN JUMPDEST DUP4 DUP3 CALLVALUE PUSH2 0x4DE JUMPI PUSH1 0x60 CALLDATASIZE PUSH1 0x3 NOT ADD SLT PUSH2 0x4DE JUMPI DUP2 CALLDATALOAD SWAP1 PUSH1 0x24 PUSH1 0x44 CALLDATALOAD PUSH2 0x5E0 PUSH1 0x1 DUP1 PUSH1 0xA0 SHL SUB PUSH1 0x2 SLOAD PUSH1 0x8 SHR AND CALLER EQ PUSH2 0x1703 JUMP JUMPDEST DUP4 PUSH0 MSTORE PUSH1 0x11 SWAP5 PUSH1 0x11 PUSH1 0x20 MSTORE DUP4 PUSH0 KECCAK256 SWAP1 PUSH1 0x8 DUP3 ADD DUP1 SLOAD PUSH1 0xFF DUP2 AND PUSH2 0x7BE JUMPI PUSH1 0x6 DUP5 ADD SLOAD TIMESTAMP GT PUSH2 0x784 JUMPI PUSH1 0x1 DUP1 SWAP5 ADD SLOAD DUP6 GT PUSH2 0x742 JUMPI PUSH1 0xFF NOT AND PUSH1 0x1 OR SWAP1 SSTORE PUSH0 DUP3 JUMPDEST PUSH2 0x667 JUMPI JUMPDEST DUP7 PUSH32 0x7AF936AC70897F07A82F0B3A8B68B1C83D89652A4CBBE826051751460B84FCDB DUP8 DUP8 DUP8 PUSH2 0x656 DUP2 PUSH1 0x16 SLOAD PUSH2 0x1793 JUMP JUMPDEST PUSH1 0x16 SSTORE DUP3 MLOAD SWAP2 CALLDATALOAD DUP3 MSTORE PUSH1 0x20 DUP3 ADD MSTORE LOG2 STOP JUMPDEST PUSH1 0x12 DUP1 SLOAD DUP1 DUP4 LT ISZERO PUSH2 0x73B JUMPI SWAP1 DUP9 SWAP2 PUSH2 0x67F DUP5 PUSH2 0x16BA JUMP JUMPDEST SWAP4 SWAP1 SLOAD PUSH1 0x3 SWAP5 DUP6 SHL SHR EQ PUSH2 0x698 JUMPI POP POP POP DUP3 ADD DUP3 PUSH2 0x620 JUMP JUMPDEST SWAP4 SWAP10 SWAP2 SWAP5 POP SWAP3 PUSH0 NOT SWAP3 SWAP2 DUP4 DUP3 ADD SWAP2 DUP3 GT PUSH2 0x72A JUMPI POP PUSH2 0x379 PUSH2 0x6BC PUSH2 0x6C8 SWAP3 PUSH2 0x16BA JUMP JUMPDEST SWAP1 SLOAD SWAP1 DUP8 SHL SHR SWAP3 PUSH2 0x16BA JUMP JUMPDEST SWAP1 SSTORE DUP2 SLOAD SWAP8 DUP9 ISZERO PUSH2 0x718 JUMPI POP DUP1 PUSH32 0x7AF936AC70897F07A82F0B3A8B68B1C83D89652A4CBBE826051751460B84FCDB SWAP8 SWAP9 ADD SWAP3 PUSH2 0x703 DUP5 PUSH2 0x16BA JUMP JUMPDEST DUP2 SWAP4 SWAP2 SLOAD SWAP3 SHL SHL NOT AND SWAP1 SSTORE SSTORE DUP5 SWAP4 DUP7 DUP1 PUSH2 0x625 JUMP JUMPDEST PUSH1 0x31 DUP7 SWAP2 PUSH4 0x4E487B71 PUSH1 0xE0 SHL PUSH0 MSTORE MSTORE PUSH0 REVERT JUMPDEST DUP8 SWAP1 DUP12 PUSH4 0x4E487B71 PUSH1 0xE0 SHL PUSH0 MSTORE MSTORE PUSH0 REVERT JUMPDEST POP POP PUSH2 0x625 JUMP JUMPDEST DUP7 MLOAD PUSH3 0x461BCD PUSH1 0xE5 SHL DUP2 MSTORE PUSH1 0x20 DUP2 DUP6 ADD MSTORE PUSH1 0x1A DUP2 DUP9 ADD MSTORE PUSH32 0x53697A65206578636565647320617574686F72697A6174696F6E000000000000 PUSH1 0x44 DUP3 ADD MSTORE PUSH1 0x64 SWAP1 REVERT JUMPDEST DUP7 MLOAD PUSH3 0x461BCD PUSH1 0xE5 SHL DUP2 MSTORE PUSH1 0x20 DUP2 DUP6 ADD MSTORE PUSH1 0x15 DUP2 DUP9 ADD MSTORE PUSH21 0x105D5D1A1BDC9A5E985D1A5BDB88195E1C1A5C9959 PUSH1 0x5A SHL PUSH1 0x44 DUP3 ADD MSTORE PUSH1 0x64 SWAP1 REVERT JUMPDEST DUP7 MLOAD PUSH3 0x461BCD PUSH1 0xE5 SHL DUP2 MSTORE PUSH1 0x20 DUP2 DUP6 ADD MSTORE PUSH1 0x10 DUP2 DUP9 ADD MSTORE PUSH16 0x105B1C9958591E48195E1958DD5D1959 PUSH1 0x82 SHL PUSH1 0x44 DUP3 ADD MSTORE PUSH1 0x64 SWAP1 REVERT JUMPDEST POP CALLVALUE PUSH2 0x4DE JUMPI PUSH0 CALLDATASIZE PUSH1 0x3 NOT ADD SLT PUSH2 0x4DE JUMPI MLOAD PUSH32 0x0 PUSH1 0x1 PUSH1 0x1 PUSH1 0xA0 SHL SUB AND DUP2 MSTORE PUSH1 0x20 SWAP1 RETURN JUMPDEST POP DUP3 CALLVALUE PUSH2 0x4DE JUMPI PUSH1 0x20 SWAP2 DUP3 PUSH1 0x3 NOT CALLDATASIZE ADD SLT PUSH2 0x4DE JUMPI DUP2 CALLDATALOAD SWAP2 PUSH2 0x856 PUSH2 0x1977 JUMP JUMPDEST PUSH2 0x85E PUSH2 0x199A JUMP JUMPDEST DUP3 ISZERO PUSH2 0x968 JUMPI PUSH32 0x90890809C654F11D6E72A28FA60149770A0D11EC6C92319D6CEB2BB0A4EA1A15 SWAP3 SWAP4 PUSH1 0xA SLOAD DUP1 ISZERO PUSH0 EQ PUSH2 0x947 JUMPI POP DUP5 SWAP2 JUMPDEST CALLER PUSH0 MSTORE PUSH1 0x8 DUP3 MSTORE DUP4 PUSH0 KECCAK256 PUSH2 0x8AB DUP8 DUP3 SLOAD PUSH2 0x1793 JUMP JUMPDEST SWAP1 SSTORE CALLER PUSH0 MSTORE PUSH1 0x9 DUP3 MSTORE DUP4 PUSH0 KECCAK256 PUSH2 0x8C2 DUP5 DUP3 SLOAD PUSH2 0x1793 JUMP JUMPDEST SWAP1 SSTORE PUSH2 0x8D0 DUP4 PUSH1 0xA SLOAD PUSH2 0x1793 JUMP JUMPDEST PUSH1 0xA SSTORE PUSH2 0x8DE DUP7 DUP3 SLOAD PUSH2 0x1793 JUMP JUMPDEST SWAP1 SSTORE PUSH2 0x936 DUP4 MLOAD PUSH4 0x23B872DD PUSH1 0xE0 SHL DUP4 DUP3 ADD MSTORE CALLER PUSH1 0x24 DUP3 ADD MSTORE ADDRESS PUSH1 0x44 DUP3 ADD MSTORE DUP7 PUSH1 0x64 DUP3 ADD MSTORE PUSH1 0x64 DUP2 MSTORE PUSH2 0x910 DUP2 PUSH2 0x1668 JUMP JUMPDEST PUSH32 0x0 PUSH2 0x19B8 JUMP JUMPDEST DUP3 MLOAD SWAP5 DUP6 MSTORE DUP5 ADD MSTORE CALLER SWAP3 LOG2 PUSH1 0x1 DUP1 SSTORE STOP JUMPDEST PUSH2 0x954 PUSH2 0x962 SWAP2 DUP8 PUSH2 0x1762 JUMP JUMPDEST PUSH2 0x95C PUSH2 0x17A0 JUMP JUMPDEST SWAP1 PUSH2 0x1775 JUMP JUMPDEST SWAP2 PUSH2 0x896 JUMP JUMPDEST DUP4 PUSH1 0x64 SWAP3 MLOAD SWAP2 PUSH3 0x461BCD PUSH1 0xE5 SHL DUP4 MSTORE DUP3 ADD MSTORE PUSH1 0x12 PUSH1 0x24 DUP3 ADD MSTORE PUSH18 0x416D6F756E74206D757374206265203E203 PUSH1 0x74 SHL PUSH1 0x44 DUP3 ADD MSTORE REVERT JUMPDEST POP CALLVALUE PUSH2 0x4DE JUMPI PUSH0 CALLDATASIZE PUSH1 0x3 NOT ADD SLT PUSH2 0x4DE JUMPI PUSH1 0x20 SWAP1 PUSH2 0x9BA PUSH2 0x1897 JUMP JUMPDEST SWAP1 MLOAD SWAP1 DUP2 MSTORE RETURN JUMPDEST DUP4 CALLVALUE PUSH2 0x4DE JUMPI PUSH1 0x20 CALLDATASIZE PUSH1 0x3 NOT ADD SLT PUSH2 0x4DE JUMPI CALLDATALOAD PUSH1 0x1 PUSH1 0x1 PUSH1 0xA0 SHL SUB DUP2 AND DUP2 SUB PUSH2 0x4DE JUMPI PUSH2 0x9EC PUSH2 0x194C JUMP JUMPDEST PUSH1 0x2 DUP1 SLOAD PUSH2 0x100 PUSH1 0x1 PUSH1 0xA8 SHL SUB NOT AND PUSH1 0x8 SWAP3 SWAP1 SWAP3 SHL PUSH2 0x100 PUSH1 0x1 PUSH1 0xA8 SHL SUB AND SWAP2 SWAP1 SWAP2 OR SWAP1 SSTORE STOP JUMPDEST POP CALLVALUE PUSH2 0x4DE JUMPI PUSH0 CALLDATASIZE PUSH1 0x3 NOT ADD SLT PUSH2 0x4DE JUMPI PUSH1 0x3 SLOAD SWAP1 MLOAD PUSH1 0x1 PUSH1 0x1 PUSH1 0xA0 SHL SUB SWAP1 SWAP2 AND DUP2 MSTORE PUSH1 0x20 SWAP1 RETURN JUMPDEST POP CALLVALUE PUSH2 0x4DE JUMPI PUSH0 CALLDATASIZE PUSH1 0x3 NOT ADD SLT PUSH2 0x4DE JUMPI PUSH1 0x13 SLOAD SWAP1 PUSH1 0x14 SLOAD SWAP1 PUSH1 0x15 SLOAD PUSH1 0x16 SLOAD PUSH1 0x17 SLOAD SWAP2 PUSH1 0x18 SLOAD SWAP4 PUSH1 0x19 SLOAD SWAP6 DUP2 MLOAD SWAP8 DUP9 MSTORE PUSH1 0x20 DUP9 ADD MSTORE DUP7 ADD MSTORE PUSH1 0x60 DUP6 ADD MSTORE PUSH1 0x80 DUP5 ADD MSTORE PUSH1 0xA0 DUP4 ADD MSTORE PUSH1 0xC0 DUP3 ADD MSTORE RETURN JUMPDEST POP CALLVALUE PUSH2 0x4DE JUMPI PUSH1 0x20 CALLDATASIZE PUSH1 0x3 NOT ADD SLT PUSH2 0x4DE JUMPI DUP3 PUSH2 0x140 SWAP4 CALLDATALOAD PUSH0 MSTORE PUSH1 0x11 PUSH1 0x20 MSTORE DUP2 PUSH0 KECCAK256 SWAP1 DUP2 SLOAD SWAP4 PUSH1 0x1 DUP4 ADD SLOAD SWAP2 PUSH1 0x2 DUP5 ADD SLOAD SWAP1 PUSH1 0x3 DUP6 ADD SLOAD SWAP1 DUP6 ADD SLOAD SWAP1 PUSH1 0x5 DUP7 ADD SLOAD SWAP3 PUSH1 0x6 DUP8 ADD SLOAD SWAP6 PUSH1 0xFF PUSH1 0x8 PUSH1 0x7 DUP11 ADD SLOAD SWAP10 ADD SLOAD AND SWAP9 PUSH1 0xFF DUP2 MLOAD SWAP12 PUSH4 0xFFFFFFFF DUP2 AND DUP14 MSTORE PUSH1 0x20 SHR AND ISZERO ISZERO PUSH1 0x20 DUP13 ADD MSTORE DUP11 ADD MSTORE PUSH1 0x60 DUP10 ADD MSTORE PUSH1 0x80 DUP9 ADD MSTORE PUSH1 0xA0 DUP8 ADD MSTORE PUSH1 0xC0 DUP7 ADD MSTORE DUP5 ADD MSTORE PUSH2 0x100 DUP4 ADD MSTORE ISZERO ISZERO PUSH2 0x120 DUP3 ADD MSTORE RETURN JUMPDEST POP CALLVALUE PUSH2 0x4DE JUMPI PUSH0 CALLDATASIZE PUSH1 0x3 NOT ADD SLT PUSH2 0x4DE JUMPI PUSH0 SLOAD SWAP1 MLOAD PUSH1 0x1 PUSH1 0x1 PUSH1 0xA0 SHL SUB SWAP1 SWAP2 AND DUP2 MSTORE PUSH1 0x20 SWAP1 RETURN JUMPDEST DUP4 DUP3 CALLVALUE PUSH2 0x4DE JUMPI PUSH0 CALLDATASIZE PUSH1 0x3 NOT ADD SLT PUSH2 0x4DE JUMPI PUSH1 0x20 SWAP2 SLOAD SWAP1 MLOAD SWAP1 DUP2 MSTORE RETURN JUMPDEST CALLVALUE PUSH2 0x4DE JUMPI PUSH0 CALLDATASIZE PUSH1 0x3 NOT ADD SLT PUSH2 0x4DE JUMPI PUSH2 0xB7E PUSH2 0x194C JUMP JUMPDEST PUSH0 DUP1 SLOAD PUSH1 0x1 PUSH1 0x1 PUSH1 0xA0 SHL SUB NOT DUP2 AND DUP3 SSTORE PUSH1 0x1 PUSH1 0x1 PUSH1 0xA0 SHL SUB AND PUSH32 0x8BE0079C531659141344CD1FD0A4F28419497F9722A3DAAFE3B4186F6B6457E0 DUP3 DUP1 LOG3 STOP JUMPDEST POP CALLVALUE PUSH2 0x4DE JUMPI PUSH1 0x20 CALLDATASIZE PUSH1 0x3 NOT ADD SLT PUSH2 0x4DE JUMPI PUSH1 0x20 SWAP1 PUSH2 0xBE2 PUSH2 0xBDD PUSH2 0x1655 JUMP JUMPDEST PUSH2 0x1842 JUMP JUMPDEST SWAP1 MLOAD SWAP1 ISZERO ISZERO DUP2 MSTORE RETURN JUMPDEST POP CALLVALUE PUSH2 0x4DE JUMPI PUSH0 CALLDATASIZE PUSH1 0x3 NOT ADD SLT PUSH2 0x4DE JUMPI PUSH1 0x20 SWAP1 PUSH2 0x9BA PUSH2 0x17A0 JUMP JUMPDEST POP CALLVALUE PUSH2 0x4DE JUMPI PUSH0 CALLDATASIZE PUSH1 0x3 NOT ADD SLT PUSH2 0x4DE JUMPI PUSH1 0x20 SWAP1 PUSH1 0x5 SLOAD SWAP1 MLOAD SWAP1 DUP2 MSTORE RETURN JUMPDEST POP DUP3 CALLVALUE PUSH2 0x4DE JUMPI PUSH1 0x20 CALLDATASIZE PUSH1 0x3 NOT ADD SLT PUSH2 0x4DE JUMPI CALLDATALOAD SWAP1 PUSH1 0x12 SLOAD DUP3 LT ISZERO PUSH2 0x4DE JUMPI PUSH2 0xC4F PUSH1 0x20 SWAP3 PUSH2 0x16BA JUMP JUMPDEST SWAP2 SWAP1 SLOAD SWAP1 MLOAD SWAP2 PUSH1 0x3 SHL SHR DUP2 MSTORE RETURN JUMPDEST POP CALLVALUE PUSH2 0x4DE JUMPI PUSH0 CALLDATASIZE PUSH1 0x3 NOT ADD SLT PUSH2 0x4DE JUMPI PUSH1 0x20 SWAP1 PUSH1 0xFF PUSH1 0x2 SLOAD AND SWAP1 MLOAD SWAP1 ISZERO ISZERO DUP2 MSTORE RETURN JUMPDEST POP DUP3 CALLVALUE PUSH2 0x4DE JUMPI PUSH1 0x20 SWAP1 PUSH1 0x3 NOT SWAP3 DUP3 DUP5 CALLDATASIZE ADD SLT PUSH2 0x4DE JUMPI DUP2 CALLDATALOAD SWAP1 PUSH8 0xFFFFFFFFFFFFFFFF SWAP5 DUP6 DUP4 GT PUSH2 0x4DE JUMPI PUSH1 0xC0 SWAP1 DUP4 CALLDATASIZE SUB ADD SLT PUSH2 0x4DE JUMPI DUP1 MLOAD SWAP2 PUSH1 0xC0 DUP4 ADD DUP4 DUP2 LT DUP8 DUP3 GT OR PUSH2 0xF2C JUMPI DUP3 MSTORE DUP1 DUP5 ADD CALLDATALOAD DUP4 MSTORE PUSH1 0x24 SWAP3 DUP6 DUP2 ADD DUP5 DUP4 ADD CALLDATALOAD DUP2 MSTORE DUP4 DUP3 ADD SWAP1 PUSH1 0x44 DUP5 ADD CALLDATALOAD DUP3 MSTORE PUSH1 0x60 DUP4 ADD SWAP3 PUSH1 0x64 DUP6 ADD CALLDATALOAD DUP5 MSTORE PUSH1 0x80 DUP2 ADD SWAP5 PUSH1 0x84 DUP2 ADD CALLDATALOAD DUP7 MSTORE PUSH1 0xA4 DUP2 ADD CALLDATALOAD SWAP1 DUP12 DUP3 GT PUSH2 0x4DE JUMPI ADD CALLDATASIZE PUSH1 0x23 DUP3 ADD SLT ISZERO PUSH2 0x4DE JUMPI DUP9 DUP2 ADD CALLDATALOAD SWAP7 DUP12 DUP9 GT PUSH2 0xF1A JUMPI DUP8 PUSH1 0x5 SHL SWAP1 MLOAD SWAP8 PUSH2 0xD38 DUP13 DUP4 ADD DUP11 PUSH2 0x1698 JUMP JUMPDEST DUP9 MSTORE DUP9 DUP12 DUP10 ADD SWAP2 DUP4 ADD ADD SWAP2 CALLDATASIZE DUP4 GT PUSH2 0x4DE JUMPI DUP10 ADD SWAP1 JUMPDEST DUP3 DUP3 LT PUSH2 0xEFE JUMPI POP POP POP PUSH1 0xA0 DUP2 ADD SWAP6 DUP7 MSTORE PUSH2 0xD67 PUSH2 0x194C JUMP JUMPDEST MLOAD PUSH1 0xB SSTORE MLOAD PUSH1 0xC SSTORE MLOAD PUSH1 0xD SSTORE MLOAD PUSH1 0xE SSTORE MLOAD PUSH1 0xF SSTORE MLOAD SWAP2 DUP3 MLOAD SWAP5 DUP6 GT PUSH2 0x3AA JUMPI PUSH1 0x1 PUSH1 0x40 SHL DUP6 GT PUSH2 0x3AA JUMPI POP POP DUP2 SWAP1 PUSH1 0x10 SLOAD DUP5 PUSH1 0x10 SSTORE DUP1 DUP6 LT PUSH2 0xE74 JUMPI JUMPDEST POP ADD SWAP2 PUSH1 0x10 PUSH0 MSTORE DUP1 PUSH1 0x3 SHR SWAP2 PUSH0 JUMPDEST DUP4 DUP2 LT PUSH2 0xE26 JUMPI POP PUSH1 0x7 NOT DUP3 AND SWAP1 SWAP2 SUB SWAP1 DUP2 PUSH2 0xDCA JUMPI STOP JUMPDEST SWAP3 SWAP1 PUSH0 SWAP4 PUSH0 JUMPDEST DUP3 DUP2 LT PUSH2 0xDED JUMPI POP POP POP POP PUSH0 DUP1 MLOAD PUSH1 0x20 PUSH2 0x1A13 DUP4 CODECOPY DUP2 MLOAD SWAP2 MSTORE ADD SSTORE STOP JUMPDEST SWAP1 SWAP2 SWAP3 SWAP5 DUP3 PUSH2 0xE1B PUSH1 0x1 SWAP3 PUSH4 0xFFFFFFFF DUP10 MLOAD AND SWAP1 DUP6 PUSH1 0x2 SHL PUSH1 0x3 SHL SWAP2 PUSH4 0xFFFFFFFF DUP1 SWAP2 AND DUP4 SHL SWAP3 SHL NOT AND OR SWAP1 JUMP JUMPDEST SWAP7 ADD SWAP4 SWAP3 SWAP2 ADD PUSH2 0xDD0 JUMP JUMPDEST PUSH0 DUP1 JUMPDEST PUSH1 0x8 DUP2 LT PUSH2 0xE4B JUMPI POP PUSH0 DUP1 MLOAD PUSH1 0x20 PUSH2 0x1A13 DUP4 CODECOPY DUP2 MLOAD SWAP2 MSTORE DUP3 ADD SSTORE PUSH1 0x1 ADD PUSH2 0xDB2 JUMP JUMPDEST DUP7 MLOAD SWAP1 SWAP7 SWAP2 PUSH1 0x1 SWAP2 DUP6 SWAP2 PUSH4 0xFFFFFFFF PUSH1 0x5 DUP12 SWAP1 SHL DUP2 DUP2 SHL NOT SWAP1 SWAP3 AND SWAP3 AND SWAP1 SHL OR SWAP3 ADD SWAP7 ADD PUSH2 0xE29 JUMP JUMPDEST SWAP1 SWAP2 POP PUSH1 0x7 DUP5 ADD PUSH1 0x3 SHR PUSH1 0x7 PUSH0 DUP1 MLOAD PUSH1 0x20 PUSH2 0x1A13 DUP4 CODECOPY DUP2 MLOAD SWAP2 MSTORE SWAP3 ADD PUSH1 0x3 SHR DUP3 ADD SWAP2 PUSH1 0x1C DUP7 PUSH1 0x2 SHL AND DUP1 PUSH2 0xEC5 JUMPI JUMPDEST POP DUP5 SWAP4 SWAP3 SWAP2 ADD JUMPDEST DUP2 DUP2 LT PUSH2 0xEB7 JUMPI POP PUSH2 0xDA4 JUMP JUMPDEST PUSH0 DUP2 SSTORE DUP5 SWAP4 POP PUSH1 0x1 ADD PUSH2 0xEAA JUMP JUMPDEST PUSH32 0x1B6847DC741A1B0CD08D278845F9D819D87B734759AFB55FE2DE5CB82A9AE671 DUP4 ADD SWAP1 DUP2 SLOAD SWAP1 PUSH0 NOT SWAP1 DUP9 SUB PUSH1 0x3 SHL SHR AND SWAP1 SSTORE DUP7 PUSH2 0xEA3 JUMP JUMPDEST DUP2 CALLDATALOAD PUSH4 0xFFFFFFFF DUP2 AND DUP2 SUB PUSH2 0x4DE JUMPI DUP2 MSTORE SWAP1 DUP12 ADD SWAP1 DUP12 ADD PUSH2 0xD4E JUMP JUMPDEST DUP9 PUSH1 0x41 DUP12 PUSH4 0x4E487B71 PUSH1 0xE0 SHL PUSH0 MSTORE MSTORE PUSH0 REVERT JUMPDEST PUSH1 0x41 DUP6 PUSH4 0x4E487B71 PUSH1 0xE0 SHL PUSH0 MSTORE MSTORE PUSH1 0x24 PUSH0 REVERT JUMPDEST POP CALLVALUE PUSH2 0x4DE JUMPI PUSH0 CALLDATASIZE PUSH1 0x3 NOT ADD SLT PUSH2 0x4DE JUMPI PUSH1 0x80 PUSH32 0x3358B4C11FFE20B50881BBC83BCCD9DAD1F68C942C96DF6E0CD835BA6766F9BF SWAP2 PUSH2 0xF7C PUSH2 0x194C JUMP JUMPDEST PUSH2 0xF84 PUSH2 0x199A JUMP JUMPDEST PUSH1 0x1 PUSH1 0xFF NOT PUSH1 0x2 SLOAD AND OR PUSH1 0x2 SSTORE PUSH32 0x62E78CEA01BEE320CD4E420270B5EA74000D11B0C9F74754EBDBFC544B05A258 PUSH1 0x20 DUP3 MLOAD CALLER DUP2 MSTORE LOG1 PUSH1 0xC DUP2 MLOAD SWAP2 DUP1 DUP4 MSTORE DUP3 ADD MSTORE PUSH12 0x4D616E75616C207061757365 PUSH1 0xA0 SHL PUSH1 0x60 DUP3 ADD MSTORE TIMESTAMP PUSH1 0x20 DUP3 ADD MSTORE LOG1 STOP JUMPDEST POP CALLVALUE PUSH2 0x4DE JUMPI PUSH0 CALLDATASIZE PUSH1 0x3 NOT ADD SLT PUSH2 0x4DE JUMPI PUSH1 0x20 SWAP1 PUSH1 0xA SLOAD SWAP1 MLOAD SWAP1 DUP2 MSTORE RETURN JUMPDEST POP CALLVALUE PUSH2 0x4DE JUMPI PUSH0 CALLDATASIZE PUSH1 0x3 NOT ADD SLT PUSH2 0x4DE JUMPI PUSH1 0x20 SWAP1 PUSH1 0x7 SLOAD SWAP1 MLOAD SWAP1 DUP2 MSTORE RETURN JUMPDEST DUP4 DUP3 CALLVALUE PUSH2 0x4DE JUMPI PUSH1 0x20 SWAP1 DUP2 PUSH1 0x3 NOT CALLDATASIZE ADD SLT PUSH2 0x4DE JUMPI DUP3 CALLDATALOAD PUSH2 0x103E PUSH2 0x1977 JUMP JUMPDEST DUP1 ISZERO ISZERO DUP1 PUSH2 0x11EB JUMPI JUMPDEST ISZERO PUSH2 0x11B7 JUMPI PUSH2 0x1069 PUSH2 0x1060 PUSH2 0x105A PUSH2 0x17A0 JUMP JUMPDEST DUP4 PUSH2 0x1762 JUMP JUMPDEST PUSH1 0xA SLOAD SWAP1 PUSH2 0x1775 JUMP JUMPDEST SWAP3 CALLER PUSH0 MSTORE PUSH1 0x8 DUP2 MSTORE DUP3 PUSH0 KECCAK256 SLOAD DUP1 DUP6 GT PUSH2 0x118B JUMPI JUMPDEST POP CALLER PUSH0 MSTORE PUSH1 0x9 DUP2 MSTORE DUP3 PUSH0 KECCAK256 PUSH2 0x1093 DUP4 DUP3 SLOAD PUSH2 0x1741 JUMP JUMPDEST SWAP1 SSTORE PUSH2 0x10A1 DUP3 PUSH1 0xA SLOAD PUSH2 0x1741 JUMP JUMPDEST PUSH1 0xA SSTORE PUSH2 0x10B0 DUP5 PUSH1 0x5 SLOAD PUSH2 0x1793 JUMP JUMPDEST PUSH1 0x5 SSTORE CALLER PUSH0 MSTORE PUSH1 0x8 DUP2 MSTORE PUSH2 0x10E6 PUSH2 0x10D2 DUP5 PUSH0 KECCAK256 SLOAD PUSH1 0x9 DUP5 MSTORE DUP6 PUSH0 KECCAK256 SLOAD SWAP1 PUSH2 0x1762 JUMP JUMPDEST CALLER PUSH0 MSTORE PUSH1 0x9 DUP4 MSTORE PUSH2 0x95C DUP5 DUP7 PUSH0 KECCAK256 SLOAD PUSH2 0x1793 JUMP JUMPDEST CALLER PUSH0 MSTORE PUSH1 0x8 DUP3 MSTORE DUP4 PUSH0 KECCAK256 SSTORE DUP3 MLOAD SWAP5 PUSH4 0xA9059CBB PUSH1 0xE0 SHL DUP3 DUP8 ADD MSTORE CALLER PUSH1 0x24 DUP8 ADD MSTORE DUP5 PUSH1 0x44 DUP8 ADD MSTORE PUSH1 0x44 DUP7 MSTORE PUSH1 0x80 DUP7 ADD SWAP1 DUP7 DUP3 LT PUSH8 0xFFFFFFFFFFFFFFFF DUP4 GT OR PUSH2 0x1178 JUMPI POP PUSH32 0xDF273CB619D95419A9CD0EC88123A0538C85064229BAA6363788F743FFF90DEB SWAP5 SWAP6 PUSH2 0x936 SWAP2 DUP6 MSTORE PUSH32 0x0 PUSH2 0x19B8 JUMP JUMPDEST PUSH1 0x41 SWAP1 PUSH4 0x4E487B71 PUSH1 0xE0 SHL PUSH0 MSTORE MSTORE PUSH1 0x24 PUSH0 REVERT JUMPDEST SWAP4 PUSH2 0x2710 PUSH2 0x11A9 PUSH2 0x11A0 PUSH2 0x11B0 SWAP5 SWAP8 DUP5 PUSH2 0x1741 JUMP JUMPDEST PUSH1 0xE SLOAD SWAP1 PUSH2 0x1762 JUMP JUMPDEST DIV SWAP1 PUSH2 0x1741 JUMP JUMPDEST SWAP3 DUP6 PUSH2 0x107D JUMP JUMPDEST DUP2 MLOAD PUSH3 0x461BCD PUSH1 0xE5 SHL DUP2 MSTORE DUP1 DUP6 ADD DUP5 SWAP1 MSTORE PUSH1 0xE PUSH1 0x24 DUP3 ADD MSTORE PUSH14 0x496E76616C696420736861726573 PUSH1 0x90 SHL PUSH1 0x44 DUP3 ADD MSTORE PUSH1 0x64 SWAP1 REVERT JUMPDEST POP CALLER PUSH0 MSTORE PUSH1 0x9 DUP4 MSTORE DUP2 PUSH0 KECCAK256 SLOAD DUP2 GT ISZERO PUSH2 0x1047 JUMP JUMPDEST POP DUP3 CALLVALUE PUSH2 0x4DE JUMPI PUSH1 0x20 SWAP2 DUP3 PUSH1 0x3 NOT CALLDATASIZE ADD SLT PUSH2 0x4DE JUMPI PUSH2 0x121C PUSH2 0x1655 JUMP JUMPDEST SWAP2 DUP2 MLOAD SWAP3 PUSH4 0xFFFFFFFF DUP6 DUP6 ADD SWAP2 AND DUP2 MSTORE DUP5 DUP5 MSTORE DUP3 DUP5 ADD SWAP4 PUSH8 0xFFFFFFFFFFFFFFFF SWAP5 DUP2 DUP2 LT DUP7 DUP3 GT OR PUSH2 0x1307 JUMPI DUP5 MSTORE MLOAD PUSH0 SWAP2 DUP3 SWAP2 SWAP1 PUSH2 0x807 GAS STATICCALL SWAP1 RETURNDATASIZE ISZERO PUSH2 0x12FF JUMPI RETURNDATASIZE SWAP2 DUP5 DUP4 GT PUSH2 0x12EC JUMPI DUP4 MLOAD SWAP3 PUSH2 0x127B PUSH1 0x1F DUP3 ADD PUSH1 0x1F NOT AND DUP9 ADD DUP6 PUSH2 0x1698 JUMP JUMPDEST DUP4 MSTORE RETURNDATASIZE PUSH0 DUP8 DUP6 ADD RETURNDATACOPY JUMPDEST ISZERO PUSH2 0x12A9 JUMPI POP DUP4 DUP2 DUP1 MLOAD DUP2 ADD SUB SLT PUSH2 0x4DE JUMPI DUP4 ADD MLOAD SWAP2 DUP3 AND DUP1 SWAP3 SUB PUSH2 0x4DE JUMPI MLOAD SWAP1 DUP2 MSTORE RETURN JUMPDEST DUP3 MLOAD PUSH3 0x461BCD PUSH1 0xE5 SHL DUP2 MSTORE SWAP1 DUP2 ADD DUP6 SWAP1 MSTORE PUSH1 0x19 PUSH1 0x24 DUP3 ADD MSTORE PUSH32 0x4F7261636C65207072696365206665746368206661696C656400000000000000 PUSH1 0x44 DUP3 ADD MSTORE PUSH1 0x64 SWAP1 REVERT JUMPDEST PUSH1 0x41 DUP3 PUSH4 0x4E487B71 PUSH1 0xE0 SHL PUSH0 MSTORE MSTORE PUSH1 0x24 PUSH0 REVERT JUMPDEST PUSH1 0x60 SWAP2 PUSH2 0x1284 JUMP JUMPDEST PUSH1 0x41 DUP5 PUSH4 0x4E487B71 PUSH1 0xE0 SHL PUSH0 MSTORE MSTORE PUSH1 0x24 PUSH0 REVERT JUMPDEST POP CALLVALUE PUSH2 0x4DE JUMPI PUSH0 CALLDATASIZE PUSH1 0x3 NOT ADD SLT PUSH2 0x4DE JUMPI PUSH1 0x20 SWAP1 PUSH1 0x6 SLOAD SWAP1 MLOAD SWAP1 DUP2 MSTORE RETURN JUMPDEST DUP4 DUP3 CALLVALUE PUSH2 0x4DE JUMPI DUP1 PUSH1 0x3 NOT CALLDATASIZE ADD SLT PUSH2 0x4DE JUMPI PUSH1 0x2 SLOAD DUP3 CALLDATALOAD SWAP3 PUSH1 0x24 CALLDATALOAD SWAP2 SWAP1 PUSH2 0x136D CALLER PUSH1 0x8 DUP5 SWAP1 SHR PUSH1 0x1 PUSH1 0x1 PUSH1 0xA0 SHL SUB AND EQ PUSH2 0x1703 JUMP JUMPDEST DUP5 PUSH1 0x13 SSTORE DUP3 PUSH1 0x17 SSTORE TIMESTAMP PUSH1 0x19 SSTORE PUSH2 0x1381 PUSH2 0x17A0 JUMP JUMPDEST SWAP1 PUSH1 0x6 SLOAD DUP3 GT PUSH2 0x14F4 JUMPI JUMPDEST PUSH1 0x6 SLOAD SWAP2 DUP3 PUSH2 0x13D2 JUMPI JUMPDEST PUSH32 0xCFAD70FB533F2073C73626D88B038C57FD9DC8DAA8A708CE9D09AF45ADB1C5EF PUSH1 0x60 DUP9 DUP9 DUP9 TIMESTAMP PUSH1 0x7 SSTORE DUP2 MLOAD SWAP3 DUP4 MSTORE PUSH1 0x20 DUP4 ADD MSTORE TIMESTAMP SWAP1 DUP3 ADD MSTORE LOG1 STOP JUMPDEST PUSH2 0x13DC SWAP1 DUP4 PUSH2 0x1741 JUMP JUMPDEST SWAP1 PUSH2 0x2710 SWAP2 DUP3 DUP2 MUL SWAP3 DUP2 DUP5 DIV EQ SWAP1 ISZERO OR ISZERO PUSH2 0x14E1 JUMPI POP SWAP2 PUSH2 0x1423 PUSH32 0xCFAD70FB533F2073C73626D88B038C57FD9DC8DAA8A708CE9D09AF45ADB1C5EF SWAP7 SWAP5 SWAP3 PUSH1 0x60 SWAP7 SWAP5 PUSH2 0x1775 JUMP JUMPDEST SWAP1 PUSH1 0xD SLOAD DUP3 GT PUSH2 0x144D JUMPI JUMPDEST POP PUSH1 0x18 SLOAD DUP2 GT PUSH2 0x1444 JUMPI JUMPDEST DUP2 SWAP4 SWAP6 DUP4 SWAP6 POP PUSH2 0x1396 JUMP JUMPDEST PUSH1 0x18 SSTORE DUP6 PUSH2 0x1439 JUMP JUMPDEST PUSH1 0x1 SWAP1 PUSH2 0x1458 PUSH2 0x199A JUMP JUMPDEST PUSH1 0xFF NOT AND OR PUSH1 0x2 SSTORE PUSH32 0x62E78CEA01BEE320CD4E420270B5EA74000D11B0C9F74754EBDBFC544B05A258 PUSH1 0x20 DUP5 MLOAD CALLER DUP2 MSTORE LOG1 PUSH32 0x3358B4C11FFE20B50881BBC83BCCD9DAD1F68C942C96DF6E0CD835BA6766F9BF PUSH1 0x80 DUP5 MLOAD DUP6 DUP2 MSTORE PUSH1 0x15 DUP7 DUP3 ADD MSTORE PUSH21 0x13585E08191C985DD91BDDDB88195E18D959591959 PUSH1 0x5A SHL DUP9 DUP3 ADD MSTORE TIMESTAMP PUSH1 0x20 DUP3 ADD MSTORE LOG1 DUP7 PUSH2 0x142E JUMP JUMPDEST PUSH1 0x11 SWAP1 PUSH4 0x4E487B71 PUSH1 0xE0 SHL PUSH0 MSTORE MSTORE PUSH1 0x24 PUSH0 REVERT JUMPDEST DUP2 PUSH1 0x6 SSTORE PUSH2 0x138C JUMP JUMPDEST POP CALLVALUE PUSH2 0x4DE JUMPI PUSH0 CALLDATASIZE PUSH1 0x3 NOT ADD SLT PUSH2 0x4DE JUMPI PUSH1 0x2 SLOAD SWAP1 MLOAD PUSH1 0x8 SWAP2 SWAP1 SWAP2 SHR PUSH1 0x1 PUSH1 0x1 PUSH1 0xA0 SHL SUB AND DUP2 MSTORE PUSH1 0x20 SWAP1 RETURN JUMPDEST POP DUP3 CALLVALUE PUSH2 0x4DE JUMPI PUSH1 0x20 CALLDATASIZE PUSH1 0x3 NOT ADD SLT PUSH2 0x4DE JUMPI CALLDATALOAD PUSH1 0x1 PUSH1 0x1 PUSH1 0xA0 SHL SUB DUP2 AND SWAP2 SWAP1 DUP3 SWAP1 SUB PUSH2 0x4DE JUMPI PUSH1 0x20 SWAP2 PUSH0 MSTORE PUSH1 0x8 DUP3 MSTORE DUP1 PUSH0 KECCAK256 SLOAD SWAP1 MLOAD SWAP1 DUP2 MSTORE RETURN JUMPDEST DUP4 DUP3 CALLVALUE PUSH2 0x4DE JUMPI PUSH0 CALLDATASIZE PUSH1 0x3 NOT ADD SLT PUSH2 0x4DE JUMPI PUSH2 0x157E PUSH2 0x194C JUMP JUMPDEST PUSH1 0x2 SLOAD SWAP2 PUSH1 0xFF DUP4 AND ISZERO PUSH2 0x15BE JUMPI PUSH32 0x5DB9EE0A495BF2E6FF9C91A7834C1BA4FDD244A5E8AA4E537BD38AEAE4B073AA PUSH1 0x20 DUP4 DUP6 PUSH1 0xFF NOT AND PUSH1 0x2 SSTORE MLOAD CALLER DUP2 MSTORE LOG1 STOP JUMPDEST SWAP1 MLOAD PUSH4 0x8DFC202B PUSH1 0xE0 SHL DUP2 MSTORE REVERT JUMPDEST POP CALLVALUE PUSH2 0x4DE JUMPI PUSH0 CALLDATASIZE PUSH1 0x3 NOT ADD SLT PUSH2 0x4DE JUMPI PUSH1 0xA0 SWAP1 PUSH1 0xB SLOAD SWAP1 PUSH1 0xC SLOAD SWAP1 PUSH1 0xD SLOAD PUSH1 0xE SLOAD SWAP2 PUSH1 0xF SLOAD SWAP4 DUP2 MLOAD SWAP6 DUP7 MSTORE PUSH1 0x20 DUP7 ADD MSTORE DUP5 ADD MSTORE PUSH1 0x60 DUP4 ADD MSTORE PUSH1 0x80 DUP3 ADD MSTORE RETURN JUMPDEST DUP4 CALLVALUE PUSH2 0x4DE JUMPI PUSH1 0x20 CALLDATASIZE PUSH1 0x3 NOT ADD SLT PUSH2 0x4DE JUMPI CALLDATALOAD PUSH1 0x1 PUSH1 0x1 PUSH1 0xA0 SHL SUB DUP2 AND SWAP1 DUP2 SWAP1 SUB PUSH2 0x4DE JUMPI PUSH2 0x1639 PUSH2 0x194C JUMP JUMPDEST PUSH12 0xFFFFFFFFFFFFFFFFFFFFFFFF PUSH1 0xA0 SHL PUSH1 0x3 SLOAD AND OR PUSH1 0x3 SSTORE PUSH0 DUP1 RETURN JUMPDEST PUSH1 0x4 CALLDATALOAD SWAP1 PUSH4 0xFFFFFFFF DUP3 AND DUP3 SUB PUSH2 0x4DE JUMPI JUMP JUMPDEST PUSH1 0xA0 DUP2 ADD SWAP1 DUP2 LT PUSH8 0xFFFFFFFFFFFFFFFF DUP3 GT OR PUSH2 0x1684 JUMPI PUSH1 0x40 MSTORE JUMP JUMPDEST PUSH4 0x4E487B71 PUSH1 0xE0 SHL PUSH0 MSTORE PUSH1 0x41 PUSH1 0x4 MSTORE PUSH1 0x24 PUSH0 REVERT JUMPDEST SWAP1 PUSH1 0x1F DUP1 NOT SWAP2 ADD AND DUP2 ADD SWAP1 DUP2 LT PUSH8 0xFFFFFFFFFFFFFFFF DUP3 GT OR PUSH2 0x1684 JUMPI PUSH1 0x40 MSTORE JUMP JUMPDEST PUSH1 0x12 SLOAD DUP2 LT ISZERO PUSH2 0x16EF JUMPI PUSH1 0x12 PUSH0 MSTORE PUSH32 0xBB8A6A4669BA250D26CD7A459ECA9D215F8307E33AEBE50379BC5A3617EC3444 ADD SWAP1 PUSH0 SWAP1 JUMP JUMPDEST PUSH4 0x4E487B71 PUSH1 0xE0 SHL PUSH0 MSTORE PUSH1 0x32 PUSH1 0x4 MSTORE PUSH1 0x24 PUSH0 REVERT JUMPDEST ISZERO PUSH2 0x170A JUMPI JUMP JUMPDEST PUSH1 0x40 MLOAD PUSH3 0x461BCD PUSH1 0xE5 SHL DUP2 MSTORE PUSH1 0x20 PUSH1 0x4 DUP3 ADD MSTORE PUSH1 0xF PUSH1 0x24 DUP3 ADD MSTORE PUSH15 0x13DB9B1E481AD9595C195C88189BDD PUSH1 0x8A SHL PUSH1 0x44 DUP3 ADD MSTORE PUSH1 0x64 SWAP1 REVERT JUMPDEST SWAP2 SWAP1 DUP3 SUB SWAP2 DUP3 GT PUSH2 0x174E JUMPI JUMP JUMPDEST PUSH4 0x4E487B71 PUSH1 0xE0 SHL PUSH0 MSTORE PUSH1 0x11 PUSH1 0x4 MSTORE PUSH1 0x24 PUSH0 REVERT JUMPDEST DUP2 DUP2 MUL SWAP3 SWAP2 DUP2 ISZERO SWAP2 DUP5 DIV EQ OR ISZERO PUSH2 0x174E JUMPI JUMP JUMPDEST DUP2 ISZERO PUSH2 0x177F JUMPI DIV SWAP1 JUMP JUMPDEST PUSH4 0x4E487B71 PUSH1 0xE0 SHL PUSH0 MSTORE PUSH1 0x12 PUSH1 0x4 MSTORE PUSH1 0x24 PUSH0 REVERT JUMPDEST SWAP2 SWAP1 DUP3 ADD DUP1 SWAP3 GT PUSH2 0x174E JUMPI JUMP JUMPDEST PUSH1 0x40 MLOAD PUSH4 0x70A08231 PUSH1 0xE0 SHL DUP2 MSTORE ADDRESS PUSH1 0x4 DUP3 ADD MSTORE PUSH1 0x20 DUP2 PUSH1 0x24 DUP2 PUSH32 0x0 PUSH1 0x1 PUSH1 0x1 PUSH1 0xA0 SHL SUB AND GAS STATICCALL DUP1 ISZERO PUSH2 0x1837 JUMPI PUSH0 SWAP1 PUSH2 0x1803 JUMPI JUMPDEST PUSH2 0x1800 SWAP2 POP PUSH1 0x13 SLOAD SWAP1 PUSH2 0x1793 JUMP JUMPDEST SWAP1 JUMP JUMPDEST POP PUSH1 0x20 DUP2 RETURNDATASIZE PUSH1 0x20 GT PUSH2 0x182F JUMPI JUMPDEST DUP2 PUSH2 0x181D PUSH1 0x20 SWAP4 DUP4 PUSH2 0x1698 JUMP JUMPDEST DUP2 ADD SUB SLT PUSH2 0x4DE JUMPI PUSH2 0x1800 SWAP1 MLOAD PUSH2 0x17F2 JUMP JUMPDEST RETURNDATASIZE SWAP2 POP PUSH2 0x1810 JUMP JUMPDEST PUSH1 0x40 MLOAD RETURNDATASIZE PUSH0 DUP3 RETURNDATACOPY RETURNDATASIZE SWAP1 REVERT JUMPDEST PUSH1 0x10 DUP1 SLOAD SWAP2 PUSH0 JUMPDEST DUP4 DUP2 LT PUSH2 0x1857 JUMPI POP POP POP ISZERO SWAP1 JUMP JUMPDEST DUP3 PUSH0 MSTORE PUSH4 0xFFFFFFFF DUP2 PUSH1 0x3 SHR PUSH0 DUP1 MLOAD PUSH1 0x20 PUSH2 0x1A13 DUP4 CODECOPY DUP2 MLOAD SWAP2 MSTORE ADD SLOAD SWAP1 DUP1 DUP5 AND SWAP2 PUSH1 0xE0 DUP5 PUSH1 0x5 SHL AND SHR AND EQ PUSH2 0x188E JUMPI PUSH1 0x1 ADD PUSH2 0x1849 JUMP JUMPDEST POP POP POP POP PUSH1 0x1 SWAP1 JUMP JUMPDEST PUSH1 0x40 MLOAD PUSH4 0x70A08231 PUSH1 0xE0 SHL DUP2 MSTORE ADDRESS PUSH1 0x4 DUP3 ADD MSTORE PUSH1 0x20 DUP2 PUSH1 0x24 DUP2 PUSH32 0x0 PUSH1 0x1 PUSH1 0x1 PUSH1 0xA0 SHL SUB AND GAS STATICCALL SWAP1 DUP2 ISZERO PUSH2 0x1837 JUMPI PUSH0 SWAP2 PUSH2 0x191A JUMPI JUMPDEST POP PUSH2 0x3E8 DUP1 DUP3 MUL SWAP1 DUP3 DUP3 DIV EQ DUP3 ISZERO OR ISZERO PUSH2 0x174E JUMPI PUSH2 0x2710 SWAP1 DIV DUP1 DUP3 GT ISZERO PUSH2 0x1914 JUMPI PUSH2 0x1800 SWAP2 PUSH2 0x1741 JUMP JUMPDEST POP POP PUSH0 SWAP1 JUMP JUMPDEST SWAP1 POP PUSH1 0x20 DUP2 RETURNDATASIZE PUSH1 0x20 GT PUSH2 0x1944 JUMPI JUMPDEST DUP2 PUSH2 0x1935 PUSH1 0x20 SWAP4 DUP4 PUSH2 0x1698 JUMP JUMPDEST DUP2 ADD SUB SLT PUSH2 0x4DE JUMPI MLOAD PUSH0 PUSH2 0x18EA JUMP JUMPDEST RETURNDATASIZE SWAP2 POP PUSH2 0x1928 JUMP JUMPDEST PUSH0 SLOAD PUSH1 0x1 PUSH1 0x1 PUSH1 0xA0 SHL SUB AND CALLER SUB PUSH2 0x195F JUMPI JUMP JUMPDEST PUSH1 0x40 MLOAD PUSH4 0x118CDAA7 PUSH1 0xE0 SHL DUP2 MSTORE CALLER PUSH1 0x4 DUP3 ADD MSTORE PUSH1 0x24 SWAP1 REVERT JUMPDEST PUSH1 0x2 PUSH1 0x1 SLOAD EQ PUSH2 0x1988 JUMPI PUSH1 0x2 PUSH1 0x1 SSTORE JUMP JUMPDEST PUSH1 0x40 MLOAD PUSH4 0x3EE5AEB5 PUSH1 0xE0 SHL DUP2 MSTORE PUSH1 0x4 SWAP1 REVERT JUMPDEST PUSH1 0xFF PUSH1 0x2 SLOAD AND PUSH2 0x19A6 JUMPI JUMP JUMPDEST PUSH1 0x40 MLOAD PUSH4 0xD93C0665 PUSH1 0xE0 SHL DUP2 MSTORE PUSH1 0x4 SWAP1 REVERT JUMPDEST SWAP1 PUSH0 PUSH1 0x20 SWAP2 DUP3 DUP2 MLOAD SWAP2 ADD DUP3 DUP6 GAS CALL ISZERO PUSH2 0x1837 JUMPI PUSH0 MLOAD RETURNDATASIZE PUSH2 0x1A09 JUMPI POP PUSH1 0x1 PUSH1 0x1 PUSH1 0xA0 SHL SUB DUP2 AND EXTCODESIZE ISZERO JUMPDEST PUSH2 0x19E7 JUMPI POP JUMP JUMPDEST PUSH1 0x40 MLOAD PUSH4 0x5274AFE7 PUSH1 0xE0 SHL DUP2 MSTORE PUSH1 0x1 PUSH1 0x1 PUSH1 0xA0 SHL SUB SWAP1 SWAP2 AND PUSH1 0x4 DUP3 ADD MSTORE PUSH1 0x24 SWAP1 REVERT JUMPDEST PUSH1 0x1 EQ ISZERO PUSH2 0x19E0 JUMP INVALID SHL PUSH9 0x47DC741A1B0CD08D27 DUP9 GASLIMIT 0xF9 0xD8 NOT 0xD8 PUSH28 0x734759AFB55FE2DE5CB82A9AE672A2646970667358221220E93459A1 CALLVALUE 0xAF GAS SLOAD SWAP3 REVERT 0xF6 0xDC STATICCALL EXP LOG3 PUSH11 0x50987F3A5C2C31DCB5E39D GAS 0x24 0x4E SWAP16 0xCB PUSH5 0x736F6C6343 STOP ADDMOD XOR STOP CALLER LOG2 PUSH5 0x6970667358 0x22 SLT KECCAK256 DUP13 0x26 PUSH24 0xC5A3E750B5F3E1980706D9637EC7D845089E4861E80D06C0 DUP3 0xD7 PUSH20 0x5A2D64736F6C6343000818003300000000000000 "},"methodIdentifiers":{"allVaults(uint256)":"9094a91e","createVault(string,string,string,address,address,(uint256,uint256,uint256,uint256,uint256,uint32[]))":"dadb3874","deactivateVault(address)":"aa9f6217","defaultDepositToken()":"3b8ba7a1","feeRecipient()":"46904840","getAggregateStats()":"a96c00c1","getTopVaults(uint256)":"508cc7c8","getTotalVaults()":"5486f100","getUserVaults(address)":"e7f3c69c","getVaultDetails(address)":"67a44ca3","isVault(address)":"652b9b41","leaderboard(uint256)":"bf368399","maxVaultsPerUser()":"7858d7e7","owner()":"8da5cb5b","renounceOwnership()":"715018a6","searchVaultsByStrategy(string)":"2645ac63","transferOwnership(address)":"f2fde38b","updateConfig(uint256,uint256)":"8248e722","updateFeeRecipient(address)":"f160d369","updatePerformance(address)":"99ed8dc3","userVaults(address,uint256)":"9c841fef","vaultCreationFee()":"cf0e7c40","vaultMetadata(address)":"472ae7ce","vaultPerformance(address)":"18920915"}}}}}