{"project/src/contracts/hyperevm/AIAgentVault.sol":{"AIAgentVault":{"abi":[{"inputs":[{"internalType":"address","name":"_depositToken","type":"address"},{"internalType":"address","name":"_keeperBot","type":"address"},{"internalType":"address","name":"_aiAgent","type":"address"}],"stateMutability":"nonpayable","type":"constructor"},{"inputs":[],"name":"EnforcedPause","type":"error"},{"inputs":[],"name":"ExpectedPause","type":"error"},{"inputs":[{"internalType":"address","name":"owner","type":"address"}],"name":"OwnableInvalidOwner","type":"error"},{"inputs":[{"internalType":"address","name":"account","type":"address"}],"name":"OwnableUnauthorizedAccount","type":"error"},{"inputs":[],"name":"ReentrancyGuardReentrantCall","type":"error"},{"inputs":[{"internalType":"address","name":"token","type":"address"}],"name":"SafeERC20FailedOperation","type":"error"},{"anonymous":false,"inputs":[{"indexed":true,"internalType":"address","name":"user","type":"address"},{"indexed":false,"internalType":"uint256","name":"amount","type":"uint256"},{"indexed":false,"internalType":"uint256","name":"shares","type":"uint256"}],"name":"Deposit","type":"event"},{"anonymous":false,"inputs":[{"indexed":false,"internalType":"string","name":"reason","type":"string"},{"indexed":false,"internalType":"uint256","name":"timestamp","type":"uint256"}],"name":"EmergencyStop","type":"event"},{"anonymous":false,"inputs":[{"indexed":true,"internalType":"address","name":"previousOwner","type":"address"},{"indexed":true,"internalType":"address","name":"newOwner","type":"address"}],"name":"OwnershipTransferred","type":"event"},{"anonymous":false,"inputs":[{"indexed":false,"internalType":"address","name":"account","type":"address"}],"name":"Paused","type":"event"},{"anonymous":false,"inputs":[{"indexed":false,"internalType":"uint256","name":"totalPnL","type":"uint256"},{"indexed":false,"internalType":"uint256","name":"sharpeRatio","type":"uint256"},{"indexed":false,"internalType":"uint256","name":"timestamp","type":"uint256"}],"name":"PerformanceUpdated","type":"event"},{"anonymous":false,"inputs":[{"indexed":true,"internalType":"bytes32","name":"signalId","type":"bytes32"},{"indexed":false,"internalType":"uint32","name":"perpIndex","type":"uint32"},{"indexed":false,"internalType":"bool","name":"isLong","type":"bool"},{"indexed":false,"internalType":"uint256","name":"size","type":"uint256"},{"indexed":false,"internalType":"uint256","name":"leverage","type":"uint256"}],"name":"TradeAuthorized","type":"event"},{"anonymous":false,"inputs":[{"indexed":true,"internalType":"bytes32","name":"signalId","type":"bytes32"},{"indexed":false,"internalType":"uint256","name":"executionPrice","type":"uint256"},{"indexed":false,"internalType":"uint256","name":"actualSize","type":"uint256"}],"name":"TradeExecuted","type":"event"},{"anonymous":false,"inputs":[{"indexed":false,"internalType":"address","name":"account","type":"address"}],"name":"Unpaused","type":"event"},{"anonymous":false,"inputs":[{"indexed":true,"internalType":"address","name":"user","type":"address"},{"indexed":false,"internalType":"uint256","name":"amount","type":"uint256"},{"indexed":false,"internalType":"uint256","name":"shares","type":"uint256"}],"name":"Withdrawal","type":"event"},{"inputs":[],"name":"aiAgent","outputs":[{"internalType":"address","name":"","type":"address"}],"stateMutability":"view","type":"function"},{"inputs":[{"internalType":"uint32","name":"perpIndex","type":"uint32"},{"internalType":"bool","name":"isLong","type":"bool"},{"internalType":"uint256","name":"size","type":"uint256"},{"internalType":"uint256","name":"leverage","type":"uint256"},{"internalType":"uint256","name":"maxSlippage","type":"uint256"},{"internalType":"uint256","name":"stopLoss","type":"uint256"},{"internalType":"uint256","name":"takeProfit","type":"uint256"}],"name":"authorizeTrade","outputs":[{"internalType":"bytes32","name":"","type":"bytes32"}],"stateMutability":"nonpayable","type":"function"},{"inputs":[{"internalType":"uint256","name":"amount","type":"uint256"}],"name":"deposit","outputs":[],"stateMutability":"nonpayable","type":"function"},{"inputs":[],"name":"depositToken","outputs":[{"internalType":"contract IERC20","name":"","type":"address"}],"stateMutability":"view","type":"function"},{"inputs":[],"name":"emergencyPause","outputs":[],"stateMutability":"nonpayable","type":"function"},{"inputs":[{"internalType":"bytes32","name":"signalId","type":"bytes32"},{"internalType":"uint256","name":"executionPrice","type":"uint256"},{"internalType":"uint256","name":"actualSize","type":"uint256"}],"name":"executeTradeConfirmation","outputs":[],"stateMutability":"nonpayable","type":"function"},{"inputs":[],"name":"getAvailableCapital","outputs":[{"internalType":"uint256","name":"","type":"uint256"}],"stateMutability":"view","type":"function"},{"inputs":[{"internalType":"uint32","name":"perpIndex","type":"uint32"}],"name":"getOraclePrice","outputs":[{"internalType":"uint64","name":"","type":"uint64"}],"stateMutability":"view","type":"function"},{"inputs":[],"name":"getVaultValue","outputs":[{"internalType":"uint256","name":"","type":"uint256"}],"stateMutability":"view","type":"function"},{"inputs":[],"name":"highWaterMark","outputs":[{"internalType":"uint256","name":"","type":"uint256"}],"stateMutability":"view","type":"function"},{"inputs":[{"internalType":"uint32","name":"perpIndex","type":"uint32"}],"name":"isAllowedAsset","outputs":[{"internalType":"bool","name":"","type":"bool"}],"stateMutability":"view","type":"function"},{"inputs":[],"name":"keeperBot","outputs":[{"internalType":"address","name":"","type":"address"}],"stateMutability":"view","type":"function"},{"inputs":[],"name":"lastPerformanceUpdate","outputs":[{"internalType":"uint256","name":"","type":"uint256"}],"stateMutability":"view","type":"function"},{"inputs":[],"name":"owner","outputs":[{"internalType":"address","name":"","type":"address"}],"stateMutability":"view","type":"function"},{"inputs":[],"name":"paused","outputs":[{"internalType":"bool","name":"","type":"bool"}],"stateMutability":"view","type":"function"},{"inputs":[{"internalType":"uint256","name":"","type":"uint256"}],"name":"pendingAuthorizations","outputs":[{"internalType":"bytes32","name":"","type":"bytes32"}],"stateMutability":"view","type":"function"},{"inputs":[],"name":"performance","outputs":[{"internalType":"uint256","name":"totalPnL","type":"uint256"},{"internalType":"uint256","name":"winCount","type":"uint256"},{"internalType":"uint256","name":"lossCount","type":"uint256"},{"internalType":"uint256","name":"totalVolume","type":"uint256"},{"internalType":"uint256","name":"sharpeRatio","type":"uint256"},{"internalType":"uint256","name":"maxDrawdown","type":"uint256"},{"internalType":"uint256","name":"lastUpdate","type":"uint256"}],"stateMutability":"view","type":"function"},{"inputs":[],"name":"renounceOwnership","outputs":[],"stateMutability":"nonpayable","type":"function"},{"inputs":[],"name":"resume","outputs":[],"stateMutability":"nonpayable","type":"function"},{"inputs":[],"name":"totalDeposits","outputs":[{"internalType":"uint256","name":"","type":"uint256"}],"stateMutability":"view","type":"function"},{"inputs":[],"name":"totalShares","outputs":[{"internalType":"uint256","name":"","type":"uint256"}],"stateMutability":"view","type":"function"},{"inputs":[],"name":"totalWithdrawals","outputs":[{"internalType":"uint256","name":"","type":"uint256"}],"stateMutability":"view","type":"function"},{"inputs":[{"internalType":"bytes32","name":"","type":"bytes32"}],"name":"tradeAuthorizations","outputs":[{"internalType":"uint32","name":"perpIndex","type":"uint32"},{"internalType":"bool","name":"isLong","type":"bool"},{"internalType":"uint256","name":"size","type":"uint256"},{"internalType":"uint256","name":"leverage","type":"uint256"},{"internalType":"uint256","name":"maxSlippage","type":"uint256"},{"internalType":"uint256","name":"stopLoss","type":"uint256"},{"internalType":"uint256","name":"takeProfit","type":"uint256"},{"internalType":"uint256","name":"expiry","type":"uint256"},{"internalType":"bytes32","name":"signalId","type":"bytes32"},{"internalType":"bool","name":"executed","type":"bool"}],"stateMutability":"view","type":"function"},{"inputs":[],"name":"tradingConfig","outputs":[{"internalType":"uint256","name":"maxPositionSize","type":"uint256"},{"internalType":"uint256","name":"maxLeverage","type":"uint256"},{"internalType":"uint256","name":"maxDrawdown","type":"uint256"},{"internalType":"uint256","name":"performanceFee","type":"uint256"},{"internalType":"uint256","name":"managementFee","type":"uint256"}],"stateMutability":"view","type":"function"},{"inputs":[{"internalType":"address","name":"newOwner","type":"address"}],"name":"transferOwnership","outputs":[],"stateMutability":"nonpayable","type":"function"},{"inputs":[{"internalType":"address","name":"_aiAgent","type":"address"}],"name":"updateAIAgent","outputs":[],"stateMutability":"nonpayable","type":"function"},{"inputs":[{"internalType":"address","name":"_keeperBot","type":"address"}],"name":"updateKeeperBot","outputs":[],"stateMutability":"nonpayable","type":"function"},{"inputs":[{"internalType":"uint256","name":"totalPnL","type":"uint256"},{"internalType":"uint256","name":"sharpeRatio","type":"uint256"}],"name":"updatePerformance","outputs":[],"stateMutability":"nonpayable","type":"function"},{"inputs":[{"components":[{"internalType":"uint256","name":"maxPositionSize","type":"uint256"},{"internalType":"uint256","name":"maxLeverage","type":"uint256"},{"internalType":"uint256","name":"maxDrawdown","type":"uint256"},{"internalType":"uint256","name":"performanceFee","type":"uint256"},{"internalType":"uint256","name":"managementFee","type":"uint256"},{"internalType":"uint32[]","name":"allowedAssets","type":"uint32[]"}],"internalType":"struct AIAgentVault.TradingConfig","name":"config","type":"tuple"}],"name":"updateTradingConfig","outputs":[],"stateMutability":"nonpayable","type":"function"},{"inputs":[{"internalType":"address","name":"","type":"address"}],"name":"userDeposits","outputs":[{"internalType":"uint256","name":"","type":"uint256"}],"stateMutability":"view","type":"function"},{"inputs":[{"internalType":"address","name":"","type":"address"}],"name":"userShares","outputs":[{"internalType":"uint256","name":"","type":"uint256"}],"stateMutability":"view","type":"function"},{"inputs":[{"internalType":"uint256","name":"shares","type":"uint256"}],"name":"withdraw","outputs":[],"stateMutability":"nonpayable","type":"function"}],"evm":{"bytecode":{"linkReferences":{},"object":"60a0346200033357601f62001db538819003918201601f19168301926001600160401b0392909183851183861017620003085781606092849260409788528339810103126200033357620000538162000337565b9160209262000071856200006986860162000337565b940162000337565b9133156200031c575f8054336001600160a01b0319808316821784556001600160a01b03989390928916907f8be0079c531659141344cd1fd0a4f28419497f9722a3daafe3b4186f6b6457e09080a3600180805593871660805260028054610100600160a81b031916600897881b610100600160a81b031617815560038054909216959097169490941784558651818101908382118183101762000308578189525f8152885160c08101908082108683111762000308578a9182528260a064174876e80092838152600a888201526107d0809582015284606082015260c860808201520152600b55600a600c5580600d55600e5560c8600f55519283116200030857680100000000000000008311620003085760105483601055808410620002ab575b5060105f5282825f20951c955f5b8781106200025557505060071983169092039182620001f4575b874260075551611a6890816200034d82396080518181816108070152818161091201528181611154015281816117bb01526118b20152f35b9291905f965f905b838210620002195750505050505001555f808080808080620001bc565b909192938362000247879a63ffffffff849951169086861b60031b9163ffffffff809116831b921b19161790565b9901959493920190620001fc565b85905f805b868c86831062000272575050508189015501620001a2565b879495938363ffffffff6200029d94959a5116921b60031b9163ffffffff809116831b921b19161790565b92019401908792916200025a565b60105f52825f206007808601881c82019201871c0190601c8560021b1680620002ef575b5085905b828110620002e357505062000194565b5f8155018590620002d3565b5f19908183019182549187038a1b1c1690555f620002cf565b634e487b7160e01b5f52604160045260245ffd5b8551631e4fbdf760e01b81525f6004820152602490fd5b5f80fd5b51906001600160a01b0382168203620003335756fe60406080815260049081361015610014575f80fd5b60e0905f35821c806301b49c741461160c57806302c19eb8146115cc578063046f7da2146115645780630ba36dcd1461152957806312f3d4a2146114fd5780631444663e146113385780631e8410da1461131a5780632af78bd1146111ff5780632e1a7d4d1461101f57806330a55e0b146110015780633a98ef3914610fe357806351858e2714610f3f5780635c6b724d14610c805780635c975abb14610c5d5780635d525afc14610c255780636046462714610c075780636229082214610beb5780636c92e58714610bbd578063715018a614610b665780637d88209714610b495780638da5cb5b14610b22578063a0f7211914610a89578063a5f9392d14610a3b578063a6d5b73214610a13578063afccebfa146109c1578063b18ea2fa1461099e578063b6b55f2514610836578063c89039c5146107f3578063ca02588c146105ad578063de69b3aa14610572578063f2fde38b146104e25763fbf114af1461017e575f80fd5b346104de57816003193601126104de57610196611655565b6024938435908115158092036104de57604491823591606480359460018060a01b036003541633036104af57600b54851161047b57600c548611610448576101dd87611842565b15610415576101ec8686611775565b6101f4611897565b106103df57505085519760209889810163ffffffff918289169863ffffffff60e01b908c1b1682528560f81b848201528660258201524260458201524360658201526065815261024381611668565b5190209861012c4201908142116103cd57895192610140840184811067ffffffffffffffff8211176103bb57918c9493918e8d9485528c86528b8187018b8152868801908d8252606089019283526080890193608435855260a08a019560a435875260c08b019760c43589528b019889526101008b01998c8b526101208c019c5f8e525f52601183525f209a5116908a5492511515901b64ff00000000169164ffffffffff19161717885551600188015551600287015551600386015551878501555160058401555160068301555160078201556008019051151560ff198254169060ff1617905560125491600160401b8310156103aa575050926080928795928661038f6103798860017f0f7c7ec9df2f18c69afd54815629b8ea102d1fe3e97c05507b3216253c4025d99a016012556116ba565b819391549060031b91821b915f19901b19161790565b9055875193845289840152868301526060820152a251908152f35b604190634e487b7160e01b5f52525ffd5b85604188634e487b7160e01b5f52525ffd5b83601186634e487b7160e01b5f52525ffd5b73125b9cdd59999a58da595b9d0818d85c1a5d185b60621b839160148c60208c519562461bcd60e51b8752860152840152820152fd5b70105cdcd95d081b9bdd08185b1b1bddd959607a1b839160118c60208c519562461bcd60e51b8752860152840152820152fd5b70098caeccae4c2ceca40e8dede40d0d2ced607b1b839160118c60208c519562461bcd60e51b8752860152840152820152fd5b71506f736974696f6e20746f6f206c6172676560701b839160128c60208c519562461bcd60e51b8752860152840152820152fd5b6c13db9b1e481052481859d95b9d609a1b8391600d8c60208c519562461bcd60e51b8752860152840152820152fd5b5f80fd5b8382346104de5760203660031901126104de576001600160a01b038235818116939192908490036104de5761051561194c565b831561055c5750505f54826bffffffffffffffffffffffff60a01b8216175f55167f8be0079c531659141344cd1fd0a4f28419497f9722a3daafe3b4186f6b6457e05f80a3005b905f6024925191631e4fbdf760e01b8352820152fd5b5082346104de5760203660031901126104de57356001600160a01b03811691908290036104de576020915f5260098252805f20549051908152f35b8382346104de5760603660031901126104de5781359060246044356105e060018060a01b0360025460081c163314611703565b835f526011946011602052835f209060088201805460ff81166107be57600684015442116107845760018094015485116107425760ff191660011790555f825b610667575b867f7af936ac70897f07a82f0b3a8b68b1c83d89652a4cbbe826051751460b84fcdb87878761065681601654611793565b6016558251913582526020820152a2005b601280548083101561073b5790889161067f846116ba565b939054600394851b1c1461069857505050820182610620565b9399919450925f19929183820191821161072a57506103796106bc6106c8926116ba565b905490871b1c926116ba565b905581549788156107185750807f7af936ac70897f07a82f0b3a8b68b1c83d89652a4cbbe826051751460b84fcdb97980192610703846116ba565b81939154921b1b191690555584938680610625565b60318691634e487b7160e01b5f52525ffd5b87908b634e487b7160e01b5f52525ffd5b5050610625565b865162461bcd60e51b8152602081850152601a818801527f53697a65206578636565647320617574686f72697a6174696f6e0000000000006044820152606490fd5b865162461bcd60e51b815260208185015260158188015274105d5d1a1bdc9a5e985d1a5bdb88195e1c1a5c9959605a1b6044820152606490fd5b865162461bcd60e51b81526020818501526010818801526f105b1c9958591e48195e1958dd5d195960821b6044820152606490fd5b50346104de575f3660031901126104de57517f00000000000000000000000000000000000000000000000000000000000000006001600160a01b03168152602090f35b5082346104de57602091826003193601126104de57813591610856611977565b61085e61199a565b8215610968577f90890809c654f11d6e72a28fa60149770a0d11ec6c92319d6ceb2bb0a4ea1a159293600a5480155f14610947575084915b335f5260088252835f206108ab878254611793565b9055335f5260098252835f206108c2848254611793565b90556108d083600a54611793565b600a556108de868254611793565b905561093683516323b872dd60e01b838201523360248201523060448201528660648201526064815261091081611668565b7f00000000000000000000000000000000000000000000000000000000000000006119b8565b82519485528401523392a260018055005b6109546109629187611762565b61095c6117a0565b90611775565b91610896565b83606492519162461bcd60e51b835282015260126024820152710416d6f756e74206d757374206265203e20360741b6044820152fd5b50346104de575f3660031901126104de576020906109ba611897565b9051908152f35b83346104de5760203660031901126104de57356001600160a01b03811681036104de576109ec61194c565b60028054610100600160a81b03191660089290921b610100600160a81b0316919091179055005b50346104de575f3660031901126104de5760035490516001600160a01b039091168152602090f35b50346104de575f3660031901126104de576013549060145490601554601654601754916018549360195495815197885260208801528601526060850152608084015260a083015260c0820152f35b50346104de5760203660031901126104de578261014093355f526011602052815f20908154936001830154916002840154906003850154908501549060058601549260068701549560ff600860078a0154990154169860ff81519b63ffffffff81168d5260201c16151560208c01528a01526060890152608088015260a087015260c08601528401526101008301521515610120820152f35b50346104de575f3660031901126104de575f5490516001600160a01b039091168152602090f35b8382346104de575f3660031901126104de57602091549051908152f35b346104de575f3660031901126104de57610b7e61194c565b5f80546001600160a01b0319811682556001600160a01b03167f8be0079c531659141344cd1fd0a4f28419497f9722a3daafe3b4186f6b6457e08280a3005b50346104de5760203660031901126104de57602090610be2610bdd611655565b611842565b90519015158152f35b50346104de575f3660031901126104de576020906109ba6117a0565b50346104de575f3660031901126104de576020906005549051908152f35b5082346104de5760203660031901126104de5735906012548210156104de57610c4f6020926116ba565b91905490519160031b1c8152f35b50346104de575f3660031901126104de5760209060ff6002541690519015158152f35b5082346104de576020906003199282843601126104de5781359067ffffffffffffffff948583116104de5760c09083360301126104de5780519160c0830183811087821117610f2c578252808401358352602492858101848301358152838201906044840135825260608301926064850135845260808101946084810135865260a4810135908b82116104de5701366023820112156104de5788810135968b8811610f1a578760051b905197610d388c83018a611698565b8852888b890191830101913683116104de578901905b828210610efe5750505060a08101958652610d6761194c565b51600b5551600c5551600d5551600e5551600f55519182519485116103aa57600160401b85116103aa575050819060105484601055808510610e74575b50019160105f528060031c915f5b838110610e26575060071982169091039081610dca57005b92905f935f5b828110610ded57505050505f80516020611a138339815191520155005b9091929482610e1b60019263ffffffff895116908560021b60031b9163ffffffff809116831b921b19161790565b960193929101610dd0565b5f805b60088110610e4b57505f80516020611a13833981519152820155600101610db2565b8651909691600191859163ffffffff60058b901b81811b199092169216901b1792019601610e29565b9091506007840160031c60075f80516020611a13833981519152920160031c820191601c8660021b1680610ec5575b5084939291015b818110610eb75750610da4565b5f8155849350600101610eaa565b7f1b6847dc741a1b0cd08d278845f9d819d87b734759afb55fe2de5cb82a9ae6718301908154905f1990880360031b1c16905586610ea3565b813563ffffffff811681036104de578152908b01908b01610d4e565b8860418b634e487b7160e01b5f52525ffd5b604185634e487b7160e01b5f525260245ffd5b50346104de575f3660031901126104de5760807f3358b4c11ffe20b50881bbc83bccd9dad1f68c942c96df6e0cd835ba6766f9bf91610f7c61194c565b610f8461199a565b600160ff1960025416176002557f62e78cea01bee320cd4e420270b5ea74000d11b0c9f74754ebdbfc544b05a25860208251338152a1600c8151918083528201526b4d616e75616c20706175736560a01b6060820152426020820152a1005b50346104de575f3660031901126104de57602090600a549051908152f35b50346104de575f3660031901126104de576020906007549051908152f35b8382346104de57602090816003193601126104de57823561103e611977565b801515806111eb575b156111b75761106961106061105a6117a0565b83611762565b600a5490611775565b92335f5260088152825f205480851161118b575b50335f5260098152825f20611093838254611741565b90556110a182600a54611741565b600a556110b084600554611793565b600555335f52600881526110e66110d2845f205460098452855f205490611762565b335f526009835261095c84865f2054611793565b335f5260088252835f205582519463a9059cbb60e01b8287015233602487015284604487015260448652608086019086821067ffffffffffffffff83111761117857507fdf273cb619d95419a9cd0ec88123a0538c85064229baa6363788f743fff90deb94956109369185527f00000000000000000000000000000000000000000000000000000000000000006119b8565b604190634e487b7160e01b5f525260245ffd5b936127106111a96111a06111b0949784611741565b600e5490611762565b0490611741565b928561107d565b815162461bcd60e51b8152808501849052600e60248201526d496e76616c69642073686172657360901b6044820152606490fd5b50335f5260098352815f2054811115611047565b5082346104de57602091826003193601126104de5761121c611655565b9181519263ffffffff858501911681528484528284019367ffffffffffffffff9481811086821117611307578452515f918291906108075afa903d156112ff573d918483116112ec5783519261127b601f8201601f1916880185611698565b83523d5f8785013e5b156112a9575083818051810103126104de578301519182168092036104de5751908152f35b825162461bcd60e51b8152908101859052601960248201527f4f7261636c65207072696365206665746368206661696c6564000000000000006044820152606490fd5b604182634e487b7160e01b5f525260245ffd5b606091611284565b604184634e487b7160e01b5f525260245ffd5b50346104de575f3660031901126104de576020906006549051908152f35b8382346104de57806003193601126104de57600254823592602435919061136d33600884901c6001600160a01b031614611703565b8460135582601755426019556113816117a0565b9060065482116114f4575b60065491826113d2575b7fcfad70fb533f2073c73626d88b038c57fd9dc8daa8a708ce9d09af45adb1c5ef606088888842600755815192835260208301524290820152a1005b6113dc9083611741565b90612710918281029281840414901517156114e15750916114237fcfad70fb533f2073c73626d88b038c57fd9dc8daa8a708ce9d09af45adb1c5ef96949260609694611775565b90600d54821161144d575b506018548111611444575b819395839550611396565b60185585611439565b60019061145861199a565b60ff1916176002557f62e78cea01bee320cd4e420270b5ea74000d11b0c9f74754ebdbfc544b05a25860208451338152a17f3358b4c11ffe20b50881bbc83bccd9dad1f68c942c96df6e0cd835ba6766f9bf608084518581526015868201527413585e08191c985dd91bdddb88195e18d959591959605a1b88820152426020820152a18661142e565b601190634e487b7160e01b5f525260245ffd5b8160065561138c565b50346104de575f3660031901126104de57600254905160089190911c6001600160a01b03168152602090f35b5082346104de5760203660031901126104de57356001600160a01b03811691908290036104de576020915f5260088252805f20549051908152f35b8382346104de575f3660031901126104de5761157e61194c565b6002549160ff8316156115be577f5db9ee0a495bf2e6ff9c91a7834c1ba4fdd244a5e8aa4e537bd38aeae4b073aa6020838560ff191660025551338152a1005b9051638dfc202b60e01b8152fd5b50346104de575f3660031901126104de5760a090600b5490600c5490600d54600e5491600f54938151958652602086015284015260608301526080820152f35b83346104de5760203660031901126104de57356001600160a01b038116908190036104de5761163961194c565b6bffffffffffffffffffffffff60a01b60035416176003555f80f35b6004359063ffffffff821682036104de57565b60a0810190811067ffffffffffffffff82111761168457604052565b634e487b7160e01b5f52604160045260245ffd5b90601f8019910116810190811067ffffffffffffffff82111761168457604052565b6012548110156116ef5760125f527fbb8a6a4669ba250d26cd7a459eca9d215f8307e33aebe50379bc5a3617ec344401905f90565b634e487b7160e01b5f52603260045260245ffd5b1561170a57565b60405162461bcd60e51b815260206004820152600f60248201526e13db9b1e481ad9595c195c88189bdd608a1b6044820152606490fd5b9190820391821161174e57565b634e487b7160e01b5f52601160045260245ffd5b8181029291811591840414171561174e57565b811561177f570490565b634e487b7160e01b5f52601260045260245ffd5b9190820180921161174e57565b6040516370a0823160e01b81523060048201526020816024817f00000000000000000000000000000000000000000000000000000000000000006001600160a01b03165afa8015611837575f90611803575b611800915060135490611793565b90565b506020813d60201161182f575b8161181d60209383611698565b810103126104de5761180090516117f2565b3d9150611810565b6040513d5f823e3d90fd5b60108054915f5b838110611857575050501590565b825f5263ffffffff8160031c5f80516020611a138339815191520154908084169160e08460051b161c161461188e57600101611849565b50505050600190565b6040516370a0823160e01b81523060048201526020816024817f00000000000000000000000000000000000000000000000000000000000000006001600160a01b03165afa908115611837575f9161191a575b506103e880820290828204148215171561174e576127109004808211156119145761180091611741565b50505f90565b90506020813d602011611944575b8161193560209383611698565b810103126104de57515f6118ea565b3d9150611928565b5f546001600160a01b0316330361195f57565b60405163118cdaa760e01b8152336004820152602490fd5b600260015414611988576002600155565b604051633ee5aeb560e01b8152600490fd5b60ff600254166119a657565b60405163d93c066560e01b8152600490fd5b905f602091828151910182855af115611837575f513d611a0957506001600160a01b0381163b155b6119e75750565b604051635274afe760e01b81526001600160a01b039091166004820152602490fd5b600114156119e056fe1b6847dc741a1b0cd08d278845f9d819d87b734759afb55fe2de5cb82a9ae672a2646970667358221220e93459a134af5a5492fdf6dcfa0aa36a50987f3a5c2c31dcb5e39d5a244e9fcb64736f6c63430008180033","opcodes":"PUSH1 0xA0 CALLVALUE PUSH3 0x333 JUMPI PUSH1 0x1F PUSH3 0x1DB5 CODESIZE DUP2 SWAP1 SUB SWAP2 DUP3 ADD PUSH1 0x1F NOT AND DUP4 ADD SWAP3 PUSH1 0x1 PUSH1 0x1 PUSH1 0x40 SHL SUB SWAP3 SWAP1 SWAP2 DUP4 DUP6 GT DUP4 DUP7 LT OR PUSH3 0x308 JUMPI DUP2 PUSH1 0x60 SWAP3 DUP5 SWAP3 PUSH1 0x40 SWAP8 DUP9 MSTORE DUP4 CODECOPY DUP2 ADD SUB SLT PUSH3 0x333 JUMPI PUSH3 0x53 DUP2 PUSH3 0x337 JUMP JUMPDEST SWAP2 PUSH1 0x20 SWAP3 PUSH3 0x71 DUP6 PUSH3 0x69 DUP7 DUP7 ADD PUSH3 0x337 JUMP JUMPDEST SWAP5 ADD PUSH3 0x337 JUMP JUMPDEST SWAP2 CALLER ISZERO PUSH3 0x31C JUMPI PUSH0 DUP1 SLOAD CALLER PUSH1 0x1 PUSH1 0x1 PUSH1 0xA0 SHL SUB NOT DUP1 DUP4 AND DUP3 OR DUP5 SSTORE PUSH1 0x1 PUSH1 0x1 PUSH1 0xA0 SHL SUB SWAP9 SWAP4 SWAP1 SWAP3 DUP10 AND SWAP1 PUSH32 0x8BE0079C531659141344CD1FD0A4F28419497F9722A3DAAFE3B4186F6B6457E0 SWAP1 DUP1 LOG3 PUSH1 0x1 DUP1 DUP1 SSTORE SWAP4 DUP8 AND PUSH1 0x80 MSTORE PUSH1 0x2 DUP1 SLOAD PUSH2 0x100 PUSH1 0x1 PUSH1 0xA8 SHL SUB NOT AND PUSH1 0x8 SWAP8 DUP9 SHL PUSH2 0x100 PUSH1 0x1 PUSH1 0xA8 SHL SUB AND OR DUP2 SSTORE PUSH1 0x3 DUP1 SLOAD SWAP1 SWAP3 AND SWAP6 SWAP1 SWAP8 AND SWAP5 SWAP1 SWAP5 OR DUP5 SSTORE DUP7 MLOAD DUP2 DUP2 ADD SWAP1 DUP4 DUP3 GT DUP2 DUP4 LT OR PUSH3 0x308 JUMPI DUP2 DUP10 MSTORE PUSH0 DUP2 MSTORE DUP9 MLOAD PUSH1 0xC0 DUP2 ADD SWAP1 DUP1 DUP3 LT DUP7 DUP4 GT OR PUSH3 0x308 JUMPI DUP11 SWAP2 DUP3 MSTORE DUP3 PUSH1 0xA0 PUSH5 0x174876E800 SWAP3 DUP4 DUP2 MSTORE PUSH1 0xA DUP9 DUP3 ADD MSTORE PUSH2 0x7D0 DUP1 SWAP6 DUP3 ADD MSTORE DUP5 PUSH1 0x60 DUP3 ADD MSTORE PUSH1 0xC8 PUSH1 0x80 DUP3 ADD MSTORE ADD MSTORE PUSH1 0xB SSTORE PUSH1 0xA PUSH1 0xC SSTORE DUP1 PUSH1 0xD SSTORE PUSH1 0xE SSTORE PUSH1 0xC8 PUSH1 0xF SSTORE MLOAD SWAP3 DUP4 GT PUSH3 0x308 JUMPI PUSH9 0x10000000000000000 DUP4 GT PUSH3 0x308 JUMPI PUSH1 0x10 SLOAD DUP4 PUSH1 0x10 SSTORE DUP1 DUP5 LT PUSH3 0x2AB JUMPI JUMPDEST POP PUSH1 0x10 PUSH0 MSTORE DUP3 DUP3 PUSH0 KECCAK256 SWAP6 SHR SWAP6 PUSH0 JUMPDEST DUP8 DUP2 LT PUSH3 0x255 JUMPI POP POP PUSH1 0x7 NOT DUP4 AND SWAP1 SWAP3 SUB SWAP2 DUP3 PUSH3 0x1F4 JUMPI JUMPDEST DUP8 TIMESTAMP PUSH1 0x7 SSTORE MLOAD PUSH2 0x1A68 SWAP1 DUP2 PUSH3 0x34D DUP3 CODECOPY PUSH1 0x80 MLOAD DUP2 DUP2 DUP2 PUSH2 0x807 ADD MSTORE DUP2 DUP2 PUSH2 0x912 ADD MSTORE DUP2 DUP2 PUSH2 0x1154 ADD MSTORE DUP2 DUP2 PUSH2 0x17BB ADD MSTORE PUSH2 0x18B2 ADD MSTORE RETURN JUMPDEST SWAP3 SWAP2 SWAP1 PUSH0 SWAP7 PUSH0 SWAP1 JUMPDEST DUP4 DUP3 LT PUSH3 0x219 JUMPI POP POP POP POP POP POP ADD SSTORE PUSH0 DUP1 DUP1 DUP1 DUP1 DUP1 DUP1 PUSH3 0x1BC JUMP JUMPDEST SWAP1 SWAP2 SWAP3 SWAP4 DUP4 PUSH3 0x247 DUP8 SWAP11 PUSH4 0xFFFFFFFF DUP5 SWAP10 MLOAD AND SWAP1 DUP7 DUP7 SHL PUSH1 0x3 SHL SWAP2 PUSH4 0xFFFFFFFF DUP1 SWAP2 AND DUP4 SHL SWAP3 SHL NOT AND OR SWAP1 JUMP JUMPDEST SWAP10 ADD SWAP6 SWAP5 SWAP4 SWAP3 ADD SWAP1 PUSH3 0x1FC JUMP JUMPDEST DUP6 SWAP1 PUSH0 DUP1 JUMPDEST DUP7 DUP13 DUP7 DUP4 LT PUSH3 0x272 JUMPI POP POP POP DUP2 DUP10 ADD SSTORE ADD PUSH3 0x1A2 JUMP JUMPDEST DUP8 SWAP5 SWAP6 SWAP4 DUP4 PUSH4 0xFFFFFFFF PUSH3 0x29D SWAP5 SWAP6 SWAP11 MLOAD AND SWAP3 SHL PUSH1 0x3 SHL SWAP2 PUSH4 0xFFFFFFFF DUP1 SWAP2 AND DUP4 SHL SWAP3 SHL NOT AND OR SWAP1 JUMP JUMPDEST SWAP3 ADD SWAP5 ADD SWAP1 DUP8 SWAP3 SWAP2 PUSH3 0x25A JUMP JUMPDEST PUSH1 0x10 PUSH0 MSTORE DUP3 PUSH0 KECCAK256 PUSH1 0x7 DUP1 DUP7 ADD DUP9 SHR DUP3 ADD SWAP3 ADD DUP8 SHR ADD SWAP1 PUSH1 0x1C DUP6 PUSH1 0x2 SHL AND DUP1 PUSH3 0x2EF JUMPI JUMPDEST POP DUP6 SWAP1 JUMPDEST DUP3 DUP2 LT PUSH3 0x2E3 JUMPI POP POP PUSH3 0x194 JUMP JUMPDEST PUSH0 DUP2 SSTORE ADD DUP6 SWAP1 PUSH3 0x2D3 JUMP JUMPDEST PUSH0 NOT SWAP1 DUP2 DUP4 ADD SWAP2 DUP3 SLOAD SWAP2 DUP8 SUB DUP11 SHL SHR AND SWAP1 SSTORE PUSH0 PUSH3 0x2CF JUMP JUMPDEST PUSH4 0x4E487B71 PUSH1 0xE0 SHL PUSH0 MSTORE PUSH1 0x41 PUSH1 0x4 MSTORE PUSH1 0x24 PUSH0 REVERT JUMPDEST DUP6 MLOAD PUSH4 0x1E4FBDF7 PUSH1 0xE0 SHL DUP2 MSTORE PUSH0 PUSH1 0x4 DUP3 ADD MSTORE PUSH1 0x24 SWAP1 REVERT JUMPDEST PUSH0 DUP1 REVERT JUMPDEST MLOAD SWAP1 PUSH1 0x1 PUSH1 0x1 PUSH1 0xA0 SHL SUB DUP3 AND DUP3 SUB PUSH3 0x333 JUMPI JUMP INVALID PUSH1 0x40 PUSH1 0x80 DUP2 MSTORE PUSH1 0x4 SWAP1 DUP2 CALLDATASIZE LT ISZERO PUSH2 0x14 JUMPI PUSH0 DUP1 REVERT JUMPDEST PUSH1 0xE0 SWAP1 PUSH0 CALLDATALOAD DUP3 SHR DUP1 PUSH4 0x1B49C74 EQ PUSH2 0x160C JUMPI DUP1 PUSH4 0x2C19EB8 EQ PUSH2 0x15CC JUMPI DUP1 PUSH4 0x46F7DA2 EQ PUSH2 0x1564 JUMPI DUP1 PUSH4 0xBA36DCD EQ PUSH2 0x1529 JUMPI DUP1 PUSH4 0x12F3D4A2 EQ PUSH2 0x14FD JUMPI DUP1 PUSH4 0x1444663E EQ PUSH2 0x1338 JUMPI DUP1 PUSH4 0x1E8410DA EQ PUSH2 0x131A JUMPI DUP1 PUSH4 0x2AF78BD1 EQ PUSH2 0x11FF JUMPI DUP1 PUSH4 0x2E1A7D4D EQ PUSH2 0x101F JUMPI DUP1 PUSH4 0x30A55E0B EQ PUSH2 0x1001 JUMPI DUP1 PUSH4 0x3A98EF39 EQ PUSH2 0xFE3 JUMPI DUP1 PUSH4 0x51858E27 EQ PUSH2 0xF3F JUMPI DUP1 PUSH4 0x5C6B724D EQ PUSH2 0xC80 JUMPI DUP1 PUSH4 0x5C975ABB EQ PUSH2 0xC5D JUMPI DUP1 PUSH4 0x5D525AFC EQ PUSH2 0xC25 JUMPI DUP1 PUSH4 0x60464627 EQ PUSH2 0xC07 JUMPI DUP1 PUSH4 0x62290822 EQ PUSH2 0xBEB JUMPI DUP1 PUSH4 0x6C92E587 EQ PUSH2 0xBBD JUMPI DUP1 PUSH4 0x715018A6 EQ PUSH2 0xB66 JUMPI DUP1 PUSH4 0x7D882097 EQ PUSH2 0xB49 JUMPI DUP1 PUSH4 0x8DA5CB5B EQ PUSH2 0xB22 JUMPI DUP1 PUSH4 0xA0F72119 EQ PUSH2 0xA89 JUMPI DUP1 PUSH4 0xA5F9392D EQ PUSH2 0xA3B JUMPI DUP1 PUSH4 0xA6D5B732 EQ PUSH2 0xA13 JUMPI DUP1 PUSH4 0xAFCCEBFA EQ PUSH2 0x9C1 JUMPI DUP1 PUSH4 0xB18EA2FA EQ PUSH2 0x99E JUMPI DUP1 PUSH4 0xB6B55F25 EQ PUSH2 0x836 JUMPI DUP1 PUSH4 0xC89039C5 EQ PUSH2 0x7F3 JUMPI DUP1 PUSH4 0xCA02588C EQ PUSH2 0x5AD JUMPI DUP1 PUSH4 0xDE69B3AA EQ PUSH2 0x572 JUMPI DUP1 PUSH4 0xF2FDE38B EQ PUSH2 0x4E2 JUMPI PUSH4 0xFBF114AF EQ PUSH2 0x17E JUMPI PUSH0 DUP1 REVERT JUMPDEST CALLVALUE PUSH2 0x4DE JUMPI DUP2 PUSH1 0x3 NOT CALLDATASIZE ADD SLT PUSH2 0x4DE JUMPI PUSH2 0x196 PUSH2 0x1655 JUMP JUMPDEST PUSH1 0x24 SWAP4 DUP5 CALLDATALOAD SWAP1 DUP2 ISZERO ISZERO DUP1 SWAP3 SUB PUSH2 0x4DE JUMPI PUSH1 0x44 SWAP2 DUP3 CALLDATALOAD SWAP2 PUSH1 0x64 DUP1 CALLDATALOAD SWAP5 PUSH1 0x1 DUP1 PUSH1 0xA0 SHL SUB PUSH1 0x3 SLOAD AND CALLER SUB PUSH2 0x4AF JUMPI PUSH1 0xB SLOAD DUP6 GT PUSH2 0x47B JUMPI PUSH1 0xC SLOAD DUP7 GT PUSH2 0x448 JUMPI PUSH2 0x1DD DUP8 PUSH2 0x1842 JUMP JUMPDEST ISZERO PUSH2 0x415 JUMPI PUSH2 0x1EC DUP7 DUP7 PUSH2 0x1775 JUMP JUMPDEST PUSH2 0x1F4 PUSH2 0x1897 JUMP JUMPDEST LT PUSH2 0x3DF JUMPI POP POP DUP6 MLOAD SWAP8 PUSH1 0x20 SWAP9 DUP10 DUP2 ADD PUSH4 0xFFFFFFFF SWAP2 DUP3 DUP10 AND SWAP9 PUSH4 0xFFFFFFFF PUSH1 0xE0 SHL SWAP1 DUP13 SHL AND DUP3 MSTORE DUP6 PUSH1 0xF8 SHL DUP5 DUP3 ADD MSTORE DUP7 PUSH1 0x25 DUP3 ADD MSTORE TIMESTAMP PUSH1 0x45 DUP3 ADD MSTORE NUMBER PUSH1 0x65 DUP3 ADD MSTORE PUSH1 0x65 DUP2 MSTORE PUSH2 0x243 DUP2 PUSH2 0x1668 JUMP JUMPDEST MLOAD SWAP1 KECCAK256 SWAP9 PUSH2 0x12C TIMESTAMP ADD SWAP1 DUP2 TIMESTAMP GT PUSH2 0x3CD JUMPI DUP10 MLOAD SWAP3 PUSH2 0x140 DUP5 ADD DUP5 DUP2 LT PUSH8 0xFFFFFFFFFFFFFFFF DUP3 GT OR PUSH2 0x3BB JUMPI SWAP2 DUP13 SWAP5 SWAP4 SWAP2 DUP15 DUP14 SWAP5 DUP6 MSTORE DUP13 DUP7 MSTORE DUP12 DUP2 DUP8 ADD DUP12 DUP2 MSTORE DUP7 DUP9 ADD SWAP1 DUP14 DUP3 MSTORE PUSH1 0x60 DUP10 ADD SWAP3 DUP4 MSTORE PUSH1 0x80 DUP10 ADD SWAP4 PUSH1 0x84 CALLDATALOAD DUP6 MSTORE PUSH1 0xA0 DUP11 ADD SWAP6 PUSH1 0xA4 CALLDATALOAD DUP8 MSTORE PUSH1 0xC0 DUP12 ADD SWAP8 PUSH1 0xC4 CALLDATALOAD DUP10 MSTORE DUP12 ADD SWAP9 DUP10 MSTORE PUSH2 0x100 DUP12 ADD SWAP10 DUP13 DUP12 MSTORE PUSH2 0x120 DUP13 ADD SWAP13 PUSH0 DUP15 MSTORE PUSH0 MSTORE PUSH1 0x11 DUP4 MSTORE PUSH0 KECCAK256 SWAP11 MLOAD AND SWAP1 DUP11 SLOAD SWAP3 MLOAD ISZERO ISZERO SWAP1 SHL PUSH5 0xFF00000000 AND SWAP2 PUSH5 0xFFFFFFFFFF NOT AND OR OR DUP9 SSTORE MLOAD PUSH1 0x1 DUP9 ADD SSTORE MLOAD PUSH1 0x2 DUP8 ADD SSTORE MLOAD PUSH1 0x3 DUP7 ADD SSTORE MLOAD DUP8 DUP6 ADD SSTORE MLOAD PUSH1 0x5 DUP5 ADD SSTORE MLOAD PUSH1 0x6 DUP4 ADD SSTORE MLOAD PUSH1 0x7 DUP3 ADD SSTORE PUSH1 0x8 ADD SWAP1 MLOAD ISZERO ISZERO PUSH1 0xFF NOT DUP3 SLOAD AND SWAP1 PUSH1 0xFF AND OR SWAP1 SSTORE PUSH1 0x12 SLOAD SWAP2 PUSH1 0x1 PUSH1 0x40 SHL DUP4 LT ISZERO PUSH2 0x3AA JUMPI POP POP SWAP3 PUSH1 0x80 SWAP3 DUP8 SWAP6 SWAP3 DUP7 PUSH2 0x38F PUSH2 0x379 DUP9 PUSH1 0x1 PUSH32 0xF7C7EC9DF2F18C69AFD54815629B8EA102D1FE3E97C05507B3216253C4025D9 SWAP11 ADD PUSH1 0x12 SSTORE PUSH2 0x16BA JUMP JUMPDEST DUP2 SWAP4 SWAP2 SLOAD SWAP1 PUSH1 0x3 SHL SWAP2 DUP3 SHL SWAP2 PUSH0 NOT SWAP1 SHL NOT AND OR SWAP1 JUMP JUMPDEST SWAP1 SSTORE DUP8 MLOAD SWAP4 DUP5 MSTORE DUP10 DUP5 ADD MSTORE DUP7 DUP4 ADD MSTORE PUSH1 0x60 DUP3 ADD MSTORE LOG2 MLOAD SWAP1 DUP2 MSTORE RETURN JUMPDEST PUSH1 0x41 SWAP1 PUSH4 0x4E487B71 PUSH1 0xE0 SHL PUSH0 MSTORE MSTORE PUSH0 REVERT JUMPDEST DUP6 PUSH1 0x41 DUP9 PUSH4 0x4E487B71 PUSH1 0xE0 SHL PUSH0 MSTORE MSTORE PUSH0 REVERT JUMPDEST DUP4 PUSH1 0x11 DUP7 PUSH4 0x4E487B71 PUSH1 0xE0 SHL PUSH0 MSTORE MSTORE PUSH0 REVERT JUMPDEST PUSH20 0x125B9CDD59999A58DA595B9D0818D85C1A5D185B PUSH1 0x62 SHL DUP4 SWAP2 PUSH1 0x14 DUP13 PUSH1 0x20 DUP13 MLOAD SWAP6 PUSH3 0x461BCD PUSH1 0xE5 SHL DUP8 MSTORE DUP7 ADD MSTORE DUP5 ADD MSTORE DUP3 ADD MSTORE REVERT JUMPDEST PUSH17 0x105CDCD95D081B9BDD08185B1B1BDDD959 PUSH1 0x7A SHL DUP4 SWAP2 PUSH1 0x11 DUP13 PUSH1 0x20 DUP13 MLOAD SWAP6 PUSH3 0x461BCD PUSH1 0xE5 SHL DUP8 MSTORE DUP7 ADD MSTORE DUP5 ADD MSTORE DUP3 ADD MSTORE REVERT JUMPDEST PUSH17 0x98CAECCAE4C2CECA40E8DEDE40D0D2CED PUSH1 0x7B SHL DUP4 SWAP2 PUSH1 0x11 DUP13 PUSH1 0x20 DUP13 MLOAD SWAP6 PUSH3 0x461BCD PUSH1 0xE5 SHL DUP8 MSTORE DUP7 ADD MSTORE DUP5 ADD MSTORE DUP3 ADD MSTORE REVERT JUMPDEST PUSH18 0x506F736974696F6E20746F6F206C61726765 PUSH1 0x70 SHL DUP4 SWAP2 PUSH1 0x12 DUP13 PUSH1 0x20 DUP13 MLOAD SWAP6 PUSH3 0x461BCD PUSH1 0xE5 SHL DUP8 MSTORE DUP7 ADD MSTORE DUP5 ADD MSTORE DUP3 ADD MSTORE REVERT JUMPDEST PUSH13 0x13DB9B1E481052481859D95B9D PUSH1 0x9A SHL DUP4 SWAP2 PUSH1 0xD DUP13 PUSH1 0x20 DUP13 MLOAD SWAP6 PUSH3 0x461BCD PUSH1 0xE5 SHL DUP8 MSTORE DUP7 ADD MSTORE DUP5 ADD MSTORE DUP3 ADD MSTORE REVERT JUMPDEST PUSH0 DUP1 REVERT JUMPDEST DUP4 DUP3 CALLVALUE PUSH2 0x4DE JUMPI PUSH1 0x20 CALLDATASIZE PUSH1 0x3 NOT ADD SLT PUSH2 0x4DE JUMPI PUSH1 0x1 PUSH1 0x1 PUSH1 0xA0 SHL SUB DUP3 CALLDATALOAD DUP2 DUP2 AND SWAP4 SWAP2 SWAP3 SWAP1 DUP5 SWAP1 SUB PUSH2 0x4DE JUMPI PUSH2 0x515 PUSH2 0x194C JUMP JUMPDEST DUP4 ISZERO PUSH2 0x55C JUMPI POP POP PUSH0 SLOAD DUP3 PUSH12 0xFFFFFFFFFFFFFFFFFFFFFFFF PUSH1 0xA0 SHL DUP3 AND OR PUSH0 SSTORE AND PUSH32 0x8BE0079C531659141344CD1FD0A4F28419497F9722A3DAAFE3B4186F6B6457E0 PUSH0 DUP1 LOG3 STOP JUMPDEST SWAP1 PUSH0 PUSH1 0x24 SWAP3 MLOAD SWAP2 PUSH4 0x1E4FBDF7 PUSH1 0xE0 SHL DUP4 MSTORE DUP3 ADD MSTORE REVERT JUMPDEST POP DUP3 CALLVALUE PUSH2 0x4DE JUMPI PUSH1 0x20 CALLDATASIZE PUSH1 0x3 NOT ADD SLT PUSH2 0x4DE JUMPI CALLDATALOAD PUSH1 0x1 PUSH1 0x1 PUSH1 0xA0 SHL SUB DUP2 AND SWAP2 SWAP1 DUP3 SWAP1 SUB PUSH2 0x4DE JUMPI PUSH1 0x20 SWAP2 PUSH0 MSTORE PUSH1 0x9 DUP3 MSTORE DUP1 PUSH0 KECCAK256 SLOAD SWAP1 MLOAD SWAP1 DUP2 MSTORE RETURN JUMPDEST DUP4 DUP3 CALLVALUE PUSH2 0x4DE JUMPI PUSH1 0x60 CALLDATASIZE PUSH1 0x3 NOT ADD SLT PUSH2 0x4DE JUMPI DUP2 CALLDATALOAD SWAP1 PUSH1 0x24 PUSH1 0x44 CALLDATALOAD PUSH2 0x5E0 PUSH1 0x1 DUP1 PUSH1 0xA0 SHL SUB PUSH1 0x2 SLOAD PUSH1 0x8 SHR AND CALLER EQ PUSH2 0x1703 JUMP JUMPDEST DUP4 PUSH0 MSTORE PUSH1 0x11 SWAP5 PUSH1 0x11 PUSH1 0x20 MSTORE DUP4 PUSH0 KECCAK256 SWAP1 PUSH1 0x8 DUP3 ADD DUP1 SLOAD PUSH1 0xFF DUP2 AND PUSH2 0x7BE JUMPI PUSH1 0x6 DUP5 ADD SLOAD TIMESTAMP GT PUSH2 0x784 JUMPI PUSH1 0x1 DUP1 SWAP5 ADD SLOAD DUP6 GT PUSH2 0x742 JUMPI PUSH1 0xFF NOT AND PUSH1 0x1 OR SWAP1 SSTORE PUSH0 DUP3 JUMPDEST PUSH2 0x667 JUMPI JUMPDEST DUP7 PUSH32 0x7AF936AC70897F07A82F0B3A8B68B1C83D89652A4CBBE826051751460B84FCDB DUP8 DUP8 DUP8 PUSH2 0x656 DUP2 PUSH1 0x16 SLOAD PUSH2 0x1793 JUMP JUMPDEST PUSH1 0x16 SSTORE DUP3 MLOAD SWAP2 CALLDATALOAD DUP3 MSTORE PUSH1 0x20 DUP3 ADD MSTORE LOG2 STOP JUMPDEST PUSH1 0x12 DUP1 SLOAD DUP1 DUP4 LT ISZERO PUSH2 0x73B JUMPI SWAP1 DUP9 SWAP2 PUSH2 0x67F DUP5 PUSH2 0x16BA JUMP JUMPDEST SWAP4 SWAP1 SLOAD PUSH1 0x3 SWAP5 DUP6 SHL SHR EQ PUSH2 0x698 JUMPI POP POP POP DUP3 ADD DUP3 PUSH2 0x620 JUMP JUMPDEST SWAP4 SWAP10 SWAP2 SWAP5 POP SWAP3 PUSH0 NOT SWAP3 SWAP2 DUP4 DUP3 ADD SWAP2 DUP3 GT PUSH2 0x72A JUMPI POP PUSH2 0x379 PUSH2 0x6BC PUSH2 0x6C8 SWAP3 PUSH2 0x16BA JUMP JUMPDEST SWAP1 SLOAD SWAP1 DUP8 SHL SHR SWAP3 PUSH2 0x16BA JUMP JUMPDEST SWAP1 SSTORE DUP2 SLOAD SWAP8 DUP9 ISZERO PUSH2 0x718 JUMPI POP DUP1 PUSH32 0x7AF936AC70897F07A82F0B3A8B68B1C83D89652A4CBBE826051751460B84FCDB SWAP8 SWAP9 ADD SWAP3 PUSH2 0x703 DUP5 PUSH2 0x16BA JUMP JUMPDEST DUP2 SWAP4 SWAP2 SLOAD SWAP3 SHL SHL NOT AND SWAP1 SSTORE SSTORE DUP5 SWAP4 DUP7 DUP1 PUSH2 0x625 JUMP JUMPDEST PUSH1 0x31 DUP7 SWAP2 PUSH4 0x4E487B71 PUSH1 0xE0 SHL PUSH0 MSTORE MSTORE PUSH0 REVERT JUMPDEST DUP8 SWAP1 DUP12 PUSH4 0x4E487B71 PUSH1 0xE0 SHL PUSH0 MSTORE MSTORE PUSH0 REVERT JUMPDEST POP POP PUSH2 0x625 JUMP JUMPDEST DUP7 MLOAD PUSH3 0x461BCD PUSH1 0xE5 SHL DUP2 MSTORE PUSH1 0x20 DUP2 DUP6 ADD MSTORE PUSH1 0x1A DUP2 DUP9 ADD MSTORE PUSH32 0x53697A65206578636565647320617574686F72697A6174696F6E000000000000 PUSH1 0x44 DUP3 ADD MSTORE PUSH1 0x64 SWAP1 REVERT JUMPDEST DUP7 MLOAD PUSH3 0x461BCD PUSH1 0xE5 SHL DUP2 MSTORE PUSH1 0x20 DUP2 DUP6 ADD MSTORE PUSH1 0x15 DUP2 DUP9 ADD MSTORE PUSH21 0x105D5D1A1BDC9A5E985D1A5BDB88195E1C1A5C9959 PUSH1 0x5A SHL PUSH1 0x44 DUP3 ADD MSTORE PUSH1 0x64 SWAP1 REVERT JUMPDEST DUP7 MLOAD PUSH3 0x461BCD PUSH1 0xE5 SHL DUP2 MSTORE PUSH1 0x20 DUP2 DUP6 ADD MSTORE PUSH1 0x10 DUP2 DUP9 ADD MSTORE PUSH16 0x105B1C9958591E48195E1958DD5D1959 PUSH1 0x82 SHL PUSH1 0x44 DUP3 ADD MSTORE PUSH1 0x64 SWAP1 REVERT JUMPDEST POP CALLVALUE PUSH2 0x4DE JUMPI PUSH0 CALLDATASIZE PUSH1 0x3 NOT ADD SLT PUSH2 0x4DE JUMPI MLOAD PUSH32 0x0 PUSH1 0x1 PUSH1 0x1 PUSH1 0xA0 SHL SUB AND DUP2 MSTORE PUSH1 0x20 SWAP1 RETURN JUMPDEST POP DUP3 CALLVALUE PUSH2 0x4DE JUMPI PUSH1 0x20 SWAP2 DUP3 PUSH1 0x3 NOT CALLDATASIZE ADD SLT PUSH2 0x4DE JUMPI DUP2 CALLDATALOAD SWAP2 PUSH2 0x856 PUSH2 0x1977 JUMP JUMPDEST PUSH2 0x85E PUSH2 0x199A JUMP JUMPDEST DUP3 ISZERO PUSH2 0x968 JUMPI PUSH32 0x90890809C654F11D6E72A28FA60149770A0D11EC6C92319D6CEB2BB0A4EA1A15 SWAP3 SWAP4 PUSH1 0xA SLOAD DUP1 ISZERO PUSH0 EQ PUSH2 0x947 JUMPI POP DUP5 SWAP2 JUMPDEST CALLER PUSH0 MSTORE PUSH1 0x8 DUP3 MSTORE DUP4 PUSH0 KECCAK256 PUSH2 0x8AB DUP8 DUP3 SLOAD PUSH2 0x1793 JUMP JUMPDEST SWAP1 SSTORE CALLER PUSH0 MSTORE PUSH1 0x9 DUP3 MSTORE DUP4 PUSH0 KECCAK256 PUSH2 0x8C2 DUP5 DUP3 SLOAD PUSH2 0x1793 JUMP JUMPDEST SWAP1 SSTORE PUSH2 0x8D0 DUP4 PUSH1 0xA SLOAD PUSH2 0x1793 JUMP JUMPDEST PUSH1 0xA SSTORE PUSH2 0x8DE DUP7 DUP3 SLOAD PUSH2 0x1793 JUMP JUMPDEST SWAP1 SSTORE PUSH2 0x936 DUP4 MLOAD PUSH4 0x23B872DD PUSH1 0xE0 SHL DUP4 DUP3 ADD MSTORE CALLER PUSH1 0x24 DUP3 ADD MSTORE ADDRESS PUSH1 0x44 DUP3 ADD MSTORE DUP7 PUSH1 0x64 DUP3 ADD MSTORE PUSH1 0x64 DUP2 MSTORE PUSH2 0x910 DUP2 PUSH2 0x1668 JUMP JUMPDEST PUSH32 0x0 PUSH2 0x19B8 JUMP JUMPDEST DUP3 MLOAD SWAP5 DUP6 MSTORE DUP5 ADD MSTORE CALLER SWAP3 LOG2 PUSH1 0x1 DUP1 SSTORE STOP JUMPDEST PUSH2 0x954 PUSH2 0x962 SWAP2 DUP8 PUSH2 0x1762 JUMP JUMPDEST PUSH2 0x95C PUSH2 0x17A0 JUMP JUMPDEST SWAP1 PUSH2 0x1775 JUMP JUMPDEST SWAP2 PUSH2 0x896 JUMP JUMPDEST DUP4 PUSH1 0x64 SWAP3 MLOAD SWAP2 PUSH3 0x461BCD PUSH1 0xE5 SHL DUP4 MSTORE DUP3 ADD MSTORE PUSH1 0x12 PUSH1 0x24 DUP3 ADD MSTORE PUSH18 0x416D6F756E74206D757374206265203E203 PUSH1 0x74 SHL PUSH1 0x44 DUP3 ADD MSTORE REVERT JUMPDEST POP CALLVALUE PUSH2 0x4DE JUMPI PUSH0 CALLDATASIZE PUSH1 0x3 NOT ADD SLT PUSH2 0x4DE JUMPI PUSH1 0x20 SWAP1 PUSH2 0x9BA PUSH2 0x1897 JUMP JUMPDEST SWAP1 MLOAD SWAP1 DUP2 MSTORE RETURN JUMPDEST DUP4 CALLVALUE PUSH2 0x4DE JUMPI PUSH1 0x20 CALLDATASIZE PUSH1 0x3 NOT ADD SLT PUSH2 0x4DE JUMPI CALLDATALOAD PUSH1 0x1 PUSH1 0x1 PUSH1 0xA0 SHL SUB DUP2 AND DUP2 SUB PUSH2 0x4DE JUMPI PUSH2 0x9EC PUSH2 0x194C JUMP JUMPDEST PUSH1 0x2 DUP1 SLOAD PUSH2 0x100 PUSH1 0x1 PUSH1 0xA8 SHL SUB NOT AND PUSH1 0x8 SWAP3 SWAP1 SWAP3 SHL PUSH2 0x100 PUSH1 0x1 PUSH1 0xA8 SHL SUB AND SWAP2 SWAP1 SWAP2 OR SWAP1 SSTORE STOP JUMPDEST POP CALLVALUE PUSH2 0x4DE JUMPI PUSH0 CALLDATASIZE PUSH1 0x3 NOT ADD SLT PUSH2 0x4DE JUMPI PUSH1 0x3 SLOAD SWAP1 MLOAD PUSH1 0x1 PUSH1 0x1 PUSH1 0xA0 SHL SUB SWAP1 SWAP2 AND DUP2 MSTORE PUSH1 0x20 SWAP1 RETURN JUMPDEST POP CALLVALUE PUSH2 0x4DE JUMPI PUSH0 CALLDATASIZE PUSH1 0x3 NOT ADD SLT PUSH2 0x4DE JUMPI PUSH1 0x13 SLOAD SWAP1 PUSH1 0x14 SLOAD SWAP1 PUSH1 0x15 SLOAD PUSH1 0x16 SLOAD PUSH1 0x17 SLOAD SWAP2 PUSH1 0x18 SLOAD SWAP4 PUSH1 0x19 SLOAD SWAP6 DUP2 MLOAD SWAP8 DUP9 MSTORE PUSH1 0x20 DUP9 ADD MSTORE DUP7 ADD MSTORE PUSH1 0x60 DUP6 ADD MSTORE PUSH1 0x80 DUP5 ADD MSTORE PUSH1 0xA0 DUP4 ADD MSTORE PUSH1 0xC0 DUP3 ADD MSTORE RETURN JUMPDEST POP CALLVALUE PUSH2 0x4DE JUMPI PUSH1 0x20 CALLDATASIZE PUSH1 0x3 NOT ADD SLT PUSH2 0x4DE JUMPI DUP3 PUSH2 0x140 SWAP4 CALLDATALOAD PUSH0 MSTORE PUSH1 0x11 PUSH1 0x20 MSTORE DUP2 PUSH0 KECCAK256 SWAP1 DUP2 SLOAD SWAP4 PUSH1 0x1 DUP4 ADD SLOAD SWAP2 PUSH1 0x2 DUP5 ADD SLOAD SWAP1 PUSH1 0x3 DUP6 ADD SLOAD SWAP1 DUP6 ADD SLOAD SWAP1 PUSH1 0x5 DUP7 ADD SLOAD SWAP3 PUSH1 0x6 DUP8 ADD SLOAD SWAP6 PUSH1 0xFF PUSH1 0x8 PUSH1 0x7 DUP11 ADD SLOAD SWAP10 ADD SLOAD AND SWAP9 PUSH1 0xFF DUP2 MLOAD SWAP12 PUSH4 0xFFFFFFFF DUP2 AND DUP14 MSTORE PUSH1 0x20 SHR AND ISZERO ISZERO PUSH1 0x20 DUP13 ADD MSTORE DUP11 ADD MSTORE PUSH1 0x60 DUP10 ADD MSTORE PUSH1 0x80 DUP9 ADD MSTORE PUSH1 0xA0 DUP8 ADD MSTORE PUSH1 0xC0 DUP7 ADD MSTORE DUP5 ADD MSTORE PUSH2 0x100 DUP4 ADD MSTORE ISZERO ISZERO PUSH2 0x120 DUP3 ADD MSTORE RETURN JUMPDEST POP CALLVALUE PUSH2 0x4DE JUMPI PUSH0 CALLDATASIZE PUSH1 0x3 NOT ADD SLT PUSH2 0x4DE JUMPI PUSH0 SLOAD SWAP1 MLOAD PUSH1 0x1 PUSH1 0x1 PUSH1 0xA0 SHL SUB SWAP1 SWAP2 AND DUP2 MSTORE PUSH1 0x20 SWAP1 RETURN JUMPDEST DUP4 DUP3 CALLVALUE PUSH2 0x4DE JUMPI PUSH0 CALLDATASIZE PUSH1 0x3 NOT ADD SLT PUSH2 0x4DE JUMPI PUSH1 0x20 SWAP2 SLOAD SWAP1 MLOAD SWAP1 DUP2 MSTORE RETURN JUMPDEST CALLVALUE PUSH2 0x4DE JUMPI PUSH0 CALLDATASIZE PUSH1 0x3 NOT ADD SLT PUSH2 0x4DE JUMPI PUSH2 0xB7E PUSH2 0x194C JUMP JUMPDEST PUSH0 DUP1 SLOAD PUSH1 0x1 PUSH1 0x1 PUSH1 0xA0 SHL SUB NOT DUP2 AND DUP3 SSTORE PUSH1 0x1 PUSH1 0x1 PUSH1 0xA0 SHL SUB AND PUSH32 0x8BE0079C531659141344CD1FD0A4F28419497F9722A3DAAFE3B4186F6B6457E0 DUP3 DUP1 LOG3 STOP JUMPDEST POP CALLVALUE PUSH2 0x4DE JUMPI PUSH1 0x20 CALLDATASIZE PUSH1 0x3 NOT ADD SLT PUSH2 0x4DE JUMPI PUSH1 0x20 SWAP1 PUSH2 0xBE2 PUSH2 0xBDD PUSH2 0x1655 JUMP JUMPDEST PUSH2 0x1842 JUMP JUMPDEST SWAP1 MLOAD SWAP1 ISZERO ISZERO DUP2 MSTORE RETURN JUMPDEST POP CALLVALUE PUSH2 0x4DE JUMPI PUSH0 CALLDATASIZE PUSH1 0x3 NOT ADD SLT PUSH2 0x4DE JUMPI PUSH1 0x20 SWAP1 PUSH2 0x9BA PUSH2 0x17A0 JUMP JUMPDEST POP CALLVALUE PUSH2 0x4DE JUMPI PUSH0 CALLDATASIZE PUSH1 0x3 NOT ADD SLT PUSH2 0x4DE JUMPI PUSH1 0x20 SWAP1 PUSH1 0x5 SLOAD SWAP1 MLOAD SWAP1 DUP2 MSTORE RETURN JUMPDEST POP DUP3 CALLVALUE PUSH2 0x4DE JUMPI PUSH1 0x20 CALLDATASIZE PUSH1 0x3 NOT ADD SLT PUSH2 0x4DE JUMPI CALLDATALOAD SWAP1 PUSH1 0x12 SLOAD DUP3 LT ISZERO PUSH2 0x4DE JUMPI PUSH2 0xC4F PUSH1 0x20 SWAP3 PUSH2 0x16BA JUMP JUMPDEST SWAP2 SWAP1 SLOAD SWAP1 MLOAD SWAP2 PUSH1 0x3 SHL SHR DUP2 MSTORE RETURN JUMPDEST POP CALLVALUE PUSH2 0x4DE JUMPI PUSH0 CALLDATASIZE PUSH1 0x3 NOT ADD SLT PUSH2 0x4DE JUMPI PUSH1 0x20 SWAP1 PUSH1 0xFF PUSH1 0x2 SLOAD AND SWAP1 MLOAD SWAP1 ISZERO ISZERO DUP2 MSTORE RETURN JUMPDEST POP DUP3 CALLVALUE PUSH2 0x4DE JUMPI PUSH1 0x20 SWAP1 PUSH1 0x3 NOT SWAP3 DUP3 DUP5 CALLDATASIZE ADD SLT PUSH2 0x4DE JUMPI DUP2 CALLDATALOAD SWAP1 PUSH8 0xFFFFFFFFFFFFFFFF SWAP5 DUP6 DUP4 GT PUSH2 0x4DE JUMPI PUSH1 0xC0 SWAP1 DUP4 CALLDATASIZE SUB ADD SLT PUSH2 0x4DE JUMPI DUP1 MLOAD SWAP2 PUSH1 0xC0 DUP4 ADD DUP4 DUP2 LT DUP8 DUP3 GT OR PUSH2 0xF2C JUMPI DUP3 MSTORE DUP1 DUP5 ADD CALLDATALOAD DUP4 MSTORE PUSH1 0x24 SWAP3 DUP6 DUP2 ADD DUP5 DUP4 ADD CALLDATALOAD DUP2 MSTORE DUP4 DUP3 ADD SWAP1 PUSH1 0x44 DUP5 ADD CALLDATALOAD DUP3 MSTORE PUSH1 0x60 DUP4 ADD SWAP3 PUSH1 0x64 DUP6 ADD CALLDATALOAD DUP5 MSTORE PUSH1 0x80 DUP2 ADD SWAP5 PUSH1 0x84 DUP2 ADD CALLDATALOAD DUP7 MSTORE PUSH1 0xA4 DUP2 ADD CALLDATALOAD SWAP1 DUP12 DUP3 GT PUSH2 0x4DE JUMPI ADD CALLDATASIZE PUSH1 0x23 DUP3 ADD SLT ISZERO PUSH2 0x4DE JUMPI DUP9 DUP2 ADD CALLDATALOAD SWAP7 DUP12 DUP9 GT PUSH2 0xF1A JUMPI DUP8 PUSH1 0x5 SHL SWAP1 MLOAD SWAP8 PUSH2 0xD38 DUP13 DUP4 ADD DUP11 PUSH2 0x1698 JUMP JUMPDEST DUP9 MSTORE DUP9 DUP12 DUP10 ADD SWAP2 DUP4 ADD ADD SWAP2 CALLDATASIZE DUP4 GT PUSH2 0x4DE JUMPI DUP10 ADD SWAP1 JUMPDEST DUP3 DUP3 LT PUSH2 0xEFE JUMPI POP POP POP PUSH1 0xA0 DUP2 ADD SWAP6 DUP7 MSTORE PUSH2 0xD67 PUSH2 0x194C JUMP JUMPDEST MLOAD PUSH1 0xB SSTORE MLOAD PUSH1 0xC SSTORE MLOAD PUSH1 0xD SSTORE MLOAD PUSH1 0xE SSTORE MLOAD PUSH1 0xF SSTORE MLOAD SWAP2 DUP3 MLOAD SWAP5 DUP6 GT PUSH2 0x3AA JUMPI PUSH1 0x1 PUSH1 0x40 SHL DUP6 GT PUSH2 0x3AA JUMPI POP POP DUP2 SWAP1 PUSH1 0x10 SLOAD DUP5 PUSH1 0x10 SSTORE DUP1 DUP6 LT PUSH2 0xE74 JUMPI JUMPDEST POP ADD SWAP2 PUSH1 0x10 PUSH0 MSTORE DUP1 PUSH1 0x3 SHR SWAP2 PUSH0 JUMPDEST DUP4 DUP2 LT PUSH2 0xE26 JUMPI POP PUSH1 0x7 NOT DUP3 AND SWAP1 SWAP2 SUB SWAP1 DUP2 PUSH2 0xDCA JUMPI STOP JUMPDEST SWAP3 SWAP1 PUSH0 SWAP4 PUSH0 JUMPDEST DUP3 DUP2 LT PUSH2 0xDED JUMPI POP POP POP POP PUSH0 DUP1 MLOAD PUSH1 0x20 PUSH2 0x1A13 DUP4 CODECOPY DUP2 MLOAD SWAP2 MSTORE ADD SSTORE STOP JUMPDEST SWAP1 SWAP2 SWAP3 SWAP5 DUP3 PUSH2 0xE1B PUSH1 0x1 SWAP3 PUSH4 0xFFFFFFFF DUP10 MLOAD AND SWAP1 DUP6 PUSH1 0x2 SHL PUSH1 0x3 SHL SWAP2 PUSH4 0xFFFFFFFF DUP1 SWAP2 AND DUP4 SHL SWAP3 SHL NOT AND OR SWAP1 JUMP JUMPDEST SWAP7 ADD SWAP4 SWAP3 SWAP2 ADD PUSH2 0xDD0 JUMP JUMPDEST PUSH0 DUP1 JUMPDEST PUSH1 0x8 DUP2 LT PUSH2 0xE4B JUMPI POP PUSH0 DUP1 MLOAD PUSH1 0x20 PUSH2 0x1A13 DUP4 CODECOPY DUP2 MLOAD SWAP2 MSTORE DUP3 ADD SSTORE PUSH1 0x1 ADD PUSH2 0xDB2 JUMP JUMPDEST DUP7 MLOAD SWAP1 SWAP7 SWAP2 PUSH1 0x1 SWAP2 DUP6 SWAP2 PUSH4 0xFFFFFFFF PUSH1 0x5 DUP12 SWAP1 SHL DUP2 DUP2 SHL NOT SWAP1 SWAP3 AND SWAP3 AND SWAP1 SHL OR SWAP3 ADD SWAP7 ADD PUSH2 0xE29 JUMP JUMPDEST SWAP1 SWAP2 POP PUSH1 0x7 DUP5 ADD PUSH1 0x3 SHR PUSH1 0x7 PUSH0 DUP1 MLOAD PUSH1 0x20 PUSH2 0x1A13 DUP4 CODECOPY DUP2 MLOAD SWAP2 MSTORE SWAP3 ADD PUSH1 0x3 SHR DUP3 ADD SWAP2 PUSH1 0x1C DUP7 PUSH1 0x2 SHL AND DUP1 PUSH2 0xEC5 JUMPI JUMPDEST POP DUP5 SWAP4 SWAP3 SWAP2 ADD JUMPDEST DUP2 DUP2 LT PUSH2 0xEB7 JUMPI POP PUSH2 0xDA4 JUMP JUMPDEST PUSH0 DUP2 SSTORE DUP5 SWAP4 POP PUSH1 0x1 ADD PUSH2 0xEAA JUMP JUMPDEST PUSH32 0x1B6847DC741A1B0CD08D278845F9D819D87B734759AFB55FE2DE5CB82A9AE671 DUP4 ADD SWAP1 DUP2 SLOAD SWAP1 PUSH0 NOT SWAP1 DUP9 SUB PUSH1 0x3 SHL SHR AND SWAP1 SSTORE DUP7 PUSH2 0xEA3 JUMP JUMPDEST DUP2 CALLDATALOAD PUSH4 0xFFFFFFFF DUP2 AND DUP2 SUB PUSH2 0x4DE JUMPI DUP2 MSTORE SWAP1 DUP12 ADD SWAP1 DUP12 ADD PUSH2 0xD4E JUMP JUMPDEST DUP9 PUSH1 0x41 DUP12 PUSH4 0x4E487B71 PUSH1 0xE0 SHL PUSH0 MSTORE MSTORE PUSH0 REVERT JUMPDEST PUSH1 0x41 DUP6 PUSH4 0x4E487B71 PUSH1 0xE0 SHL PUSH0 MSTORE MSTORE PUSH1 0x24 PUSH0 REVERT JUMPDEST POP CALLVALUE PUSH2 0x4DE JUMPI PUSH0 CALLDATASIZE PUSH1 0x3 NOT ADD SLT PUSH2 0x4DE JUMPI PUSH1 0x80 PUSH32 0x3358B4C11FFE20B50881BBC83BCCD9DAD1F68C942C96DF6E0CD835BA6766F9BF SWAP2 PUSH2 0xF7C PUSH2 0x194C JUMP JUMPDEST PUSH2 0xF84 PUSH2 0x199A JUMP JUMPDEST PUSH1 0x1 PUSH1 0xFF NOT PUSH1 0x2 SLOAD AND OR PUSH1 0x2 SSTORE PUSH32 0x62E78CEA01BEE320CD4E420270B5EA74000D11B0C9F74754EBDBFC544B05A258 PUSH1 0x20 DUP3 MLOAD CALLER DUP2 MSTORE LOG1 PUSH1 0xC DUP2 MLOAD SWAP2 DUP1 DUP4 MSTORE DUP3 ADD MSTORE PUSH12 0x4D616E75616C207061757365 PUSH1 0xA0 SHL PUSH1 0x60 DUP3 ADD MSTORE TIMESTAMP PUSH1 0x20 DUP3 ADD MSTORE LOG1 STOP JUMPDEST POP CALLVALUE PUSH2 0x4DE JUMPI PUSH0 CALLDATASIZE PUSH1 0x3 NOT ADD SLT PUSH2 0x4DE JUMPI PUSH1 0x20 SWAP1 PUSH1 0xA SLOAD SWAP1 MLOAD SWAP1 DUP2 MSTORE RETURN JUMPDEST POP CALLVALUE PUSH2 0x4DE JUMPI PUSH0 CALLDATASIZE PUSH1 0x3 NOT ADD SLT PUSH2 0x4DE JUMPI PUSH1 0x20 SWAP1 PUSH1 0x7 SLOAD SWAP1 MLOAD SWAP1 DUP2 MSTORE RETURN JUMPDEST DUP4 DUP3 CALLVALUE PUSH2 0x4DE JUMPI PUSH1 0x20 SWAP1 DUP2 PUSH1 0x3 NOT CALLDATASIZE ADD SLT PUSH2 0x4DE JUMPI DUP3 CALLDATALOAD PUSH2 0x103E PUSH2 0x1977 JUMP JUMPDEST DUP1 ISZERO ISZERO DUP1 PUSH2 0x11EB JUMPI JUMPDEST ISZERO PUSH2 0x11B7 JUMPI PUSH2 0x1069 PUSH2 0x1060 PUSH2 0x105A PUSH2 0x17A0 JUMP JUMPDEST DUP4 PUSH2 0x1762 JUMP JUMPDEST PUSH1 0xA SLOAD SWAP1 PUSH2 0x1775 JUMP JUMPDEST SWAP3 CALLER PUSH0 MSTORE PUSH1 0x8 DUP2 MSTORE DUP3 PUSH0 KECCAK256 SLOAD DUP1 DUP6 GT PUSH2 0x118B JUMPI JUMPDEST POP CALLER PUSH0 MSTORE PUSH1 0x9 DUP2 MSTORE DUP3 PUSH0 KECCAK256 PUSH2 0x1093 DUP4 DUP3 SLOAD PUSH2 0x1741 JUMP JUMPDEST SWAP1 SSTORE PUSH2 0x10A1 DUP3 PUSH1 0xA SLOAD PUSH2 0x1741 JUMP JUMPDEST PUSH1 0xA SSTORE PUSH2 0x10B0 DUP5 PUSH1 0x5 SLOAD PUSH2 0x1793 JUMP JUMPDEST PUSH1 0x5 SSTORE CALLER PUSH0 MSTORE PUSH1 0x8 DUP2 MSTORE PUSH2 0x10E6 PUSH2 0x10D2 DUP5 PUSH0 KECCAK256 SLOAD PUSH1 0x9 DUP5 MSTORE DUP6 PUSH0 KECCAK256 SLOAD SWAP1 PUSH2 0x1762 JUMP JUMPDEST CALLER PUSH0 MSTORE PUSH1 0x9 DUP4 MSTORE PUSH2 0x95C DUP5 DUP7 PUSH0 KECCAK256 SLOAD PUSH2 0x1793 JUMP JUMPDEST CALLER PUSH0 MSTORE PUSH1 0x8 DUP3 MSTORE DUP4 PUSH0 KECCAK256 SSTORE DUP3 MLOAD SWAP5 PUSH4 0xA9059CBB PUSH1 0xE0 SHL DUP3 DUP8 ADD MSTORE CALLER PUSH1 0x24 DUP8 ADD MSTORE DUP5 PUSH1 0x44 DUP8 ADD MSTORE PUSH1 0x44 DUP7 MSTORE PUSH1 0x80 DUP7 ADD SWAP1 DUP7 DUP3 LT PUSH8 0xFFFFFFFFFFFFFFFF DUP4 GT OR PUSH2 0x1178 JUMPI POP PUSH32 0xDF273CB619D95419A9CD0EC88123A0538C85064229BAA6363788F743FFF90DEB SWAP5 SWAP6 PUSH2 0x936 SWAP2 DUP6 MSTORE PUSH32 0x0 PUSH2 0x19B8 JUMP JUMPDEST PUSH1 0x41 SWAP1 PUSH4 0x4E487B71 PUSH1 0xE0 SHL PUSH0 MSTORE MSTORE PUSH1 0x24 PUSH0 REVERT JUMPDEST SWAP4 PUSH2 0x2710 PUSH2 0x11A9 PUSH2 0x11A0 PUSH2 0x11B0 SWAP5 SWAP8 DUP5 PUSH2 0x1741 JUMP JUMPDEST PUSH1 0xE SLOAD SWAP1 PUSH2 0x1762 JUMP JUMPDEST DIV SWAP1 PUSH2 0x1741 JUMP JUMPDEST SWAP3 DUP6 PUSH2 0x107D JUMP JUMPDEST DUP2 MLOAD PUSH3 0x461BCD PUSH1 0xE5 SHL DUP2 MSTORE DUP1 DUP6 ADD DUP5 SWAP1 MSTORE PUSH1 0xE PUSH1 0x24 DUP3 ADD MSTORE PUSH14 0x496E76616C696420736861726573 PUSH1 0x90 SHL PUSH1 0x44 DUP3 ADD MSTORE PUSH1 0x64 SWAP1 REVERT JUMPDEST POP CALLER PUSH0 MSTORE PUSH1 0x9 DUP4 MSTORE DUP2 PUSH0 KECCAK256 SLOAD DUP2 GT ISZERO PUSH2 0x1047 JUMP JUMPDEST POP DUP3 CALLVALUE PUSH2 0x4DE JUMPI PUSH1 0x20 SWAP2 DUP3 PUSH1 0x3 NOT CALLDATASIZE ADD SLT PUSH2 0x4DE JUMPI PUSH2 0x121C PUSH2 0x1655 JUMP JUMPDEST SWAP2 DUP2 MLOAD SWAP3 PUSH4 0xFFFFFFFF DUP6 DUP6 ADD SWAP2 AND DUP2 MSTORE DUP5 DUP5 MSTORE DUP3 DUP5 ADD SWAP4 PUSH8 0xFFFFFFFFFFFFFFFF SWAP5 DUP2 DUP2 LT DUP7 DUP3 GT OR PUSH2 0x1307 JUMPI DUP5 MSTORE MLOAD PUSH0 SWAP2 DUP3 SWAP2 SWAP1 PUSH2 0x807 GAS STATICCALL SWAP1 RETURNDATASIZE ISZERO PUSH2 0x12FF JUMPI RETURNDATASIZE SWAP2 DUP5 DUP4 GT PUSH2 0x12EC JUMPI DUP4 MLOAD SWAP3 PUSH2 0x127B PUSH1 0x1F DUP3 ADD PUSH1 0x1F NOT AND DUP9 ADD DUP6 PUSH2 0x1698 JUMP JUMPDEST DUP4 MSTORE RETURNDATASIZE PUSH0 DUP8 DUP6 ADD RETURNDATACOPY JUMPDEST ISZERO PUSH2 0x12A9 JUMPI POP DUP4 DUP2 DUP1 MLOAD DUP2 ADD SUB SLT PUSH2 0x4DE JUMPI DUP4 ADD MLOAD SWAP2 DUP3 AND DUP1 SWAP3 SUB PUSH2 0x4DE JUMPI MLOAD SWAP1 DUP2 MSTORE RETURN JUMPDEST DUP3 MLOAD PUSH3 0x461BCD PUSH1 0xE5 SHL DUP2 MSTORE SWAP1 DUP2 ADD DUP6 SWAP1 MSTORE PUSH1 0x19 PUSH1 0x24 DUP3 ADD MSTORE PUSH32 0x4F7261636C65207072696365206665746368206661696C656400000000000000 PUSH1 0x44 DUP3 ADD MSTORE PUSH1 0x64 SWAP1 REVERT JUMPDEST PUSH1 0x41 DUP3 PUSH4 0x4E487B71 PUSH1 0xE0 SHL PUSH0 MSTORE MSTORE PUSH1 0x24 PUSH0 REVERT JUMPDEST PUSH1 0x60 SWAP2 PUSH2 0x1284 JUMP JUMPDEST PUSH1 0x41 DUP5 PUSH4 0x4E487B71 PUSH1 0xE0 SHL PUSH0 MSTORE MSTORE PUSH1 0x24 PUSH0 REVERT JUMPDEST POP CALLVALUE PUSH2 0x4DE JUMPI PUSH0 CALLDATASIZE PUSH1 0x3 NOT ADD SLT PUSH2 0x4DE JUMPI PUSH1 0x20 SWAP1 PUSH1 0x6 SLOAD SWAP1 MLOAD SWAP1 DUP2 MSTORE RETURN JUMPDEST DUP4 DUP3 CALLVALUE PUSH2 0x4DE JUMPI DUP1 PUSH1 0x3 NOT CALLDATASIZE ADD SLT PUSH2 0x4DE JUMPI PUSH1 0x2 SLOAD DUP3 CALLDATALOAD SWAP3 PUSH1 0x24 CALLDATALOAD SWAP2 SWAP1 PUSH2 0x136D CALLER PUSH1 0x8 DUP5 SWAP1 SHR PUSH1 0x1 PUSH1 0x1 PUSH1 0xA0 SHL SUB AND EQ PUSH2 0x1703 JUMP JUMPDEST DUP5 PUSH1 0x13 SSTORE DUP3 PUSH1 0x17 SSTORE TIMESTAMP PUSH1 0x19 SSTORE PUSH2 0x1381 PUSH2 0x17A0 JUMP JUMPDEST SWAP1 PUSH1 0x6 SLOAD DUP3 GT PUSH2 0x14F4 JUMPI JUMPDEST PUSH1 0x6 SLOAD SWAP2 DUP3 PUSH2 0x13D2 JUMPI JUMPDEST PUSH32 0xCFAD70FB533F2073C73626D88B038C57FD9DC8DAA8A708CE9D09AF45ADB1C5EF PUSH1 0x60 DUP9 DUP9 DUP9 TIMESTAMP PUSH1 0x7 SSTORE DUP2 MLOAD SWAP3 DUP4 MSTORE PUSH1 0x20 DUP4 ADD MSTORE TIMESTAMP SWAP1 DUP3 ADD MSTORE LOG1 STOP JUMPDEST PUSH2 0x13DC SWAP1 DUP4 PUSH2 0x1741 JUMP JUMPDEST SWAP1 PUSH2 0x2710 SWAP2 DUP3 DUP2 MUL SWAP3 DUP2 DUP5 DIV EQ SWAP1 ISZERO OR ISZERO PUSH2 0x14E1 JUMPI POP SWAP2 PUSH2 0x1423 PUSH32 0xCFAD70FB533F2073C73626D88B038C57FD9DC8DAA8A708CE9D09AF45ADB1C5EF SWAP7 SWAP5 SWAP3 PUSH1 0x60 SWAP7 SWAP5 PUSH2 0x1775 JUMP JUMPDEST SWAP1 PUSH1 0xD SLOAD DUP3 GT PUSH2 0x144D JUMPI JUMPDEST POP PUSH1 0x18 SLOAD DUP2 GT PUSH2 0x1444 JUMPI JUMPDEST DUP2 SWAP4 SWAP6 DUP4 SWAP6 POP PUSH2 0x1396 JUMP JUMPDEST PUSH1 0x18 SSTORE DUP6 PUSH2 0x1439 JUMP JUMPDEST PUSH1 0x1 SWAP1 PUSH2 0x1458 PUSH2 0x199A JUMP JUMPDEST PUSH1 0xFF NOT AND OR PUSH1 0x2 SSTORE PUSH32 0x62E78CEA01BEE320CD4E420270B5EA74000D11B0C9F74754EBDBFC544B05A258 PUSH1 0x20 DUP5 MLOAD CALLER DUP2 MSTORE LOG1 PUSH32 0x3358B4C11FFE20B50881BBC83BCCD9DAD1F68C942C96DF6E0CD835BA6766F9BF PUSH1 0x80 DUP5 MLOAD DUP6 DUP2 MSTORE PUSH1 0x15 DUP7 DUP3 ADD MSTORE PUSH21 0x13585E08191C985DD91BDDDB88195E18D959591959 PUSH1 0x5A SHL DUP9 DUP3 ADD MSTORE TIMESTAMP PUSH1 0x20 DUP3 ADD MSTORE LOG1 DUP7 PUSH2 0x142E JUMP JUMPDEST PUSH1 0x11 SWAP1 PUSH4 0x4E487B71 PUSH1 0xE0 SHL PUSH0 MSTORE MSTORE PUSH1 0x24 PUSH0 REVERT JUMPDEST DUP2 PUSH1 0x6 SSTORE PUSH2 0x138C JUMP JUMPDEST POP CALLVALUE PUSH2 0x4DE JUMPI PUSH0 CALLDATASIZE PUSH1 0x3 NOT ADD SLT PUSH2 0x4DE JUMPI PUSH1 0x2 SLOAD SWAP1 MLOAD PUSH1 0x8 SWAP2 SWAP1 SWAP2 SHR PUSH1 0x1 PUSH1 0x1 PUSH1 0xA0 SHL SUB AND DUP2 MSTORE PUSH1 0x20 SWAP1 RETURN JUMPDEST POP DUP3 CALLVALUE PUSH2 0x4DE JUMPI PUSH1 0x20 CALLDATASIZE PUSH1 0x3 NOT ADD SLT PUSH2 0x4DE JUMPI CALLDATALOAD PUSH1 0x1 PUSH1 0x1 PUSH1 0xA0 SHL SUB DUP2 AND SWAP2 SWAP1 DUP3 SWAP1 SUB PUSH2 0x4DE JUMPI PUSH1 0x20 SWAP2 PUSH0 MSTORE PUSH1 0x8 DUP3 MSTORE DUP1 PUSH0 KECCAK256 SLOAD SWAP1 MLOAD SWAP1 DUP2 MSTORE RETURN JUMPDEST DUP4 DUP3 CALLVALUE PUSH2 0x4DE JUMPI PUSH0 CALLDATASIZE PUSH1 0x3 NOT ADD SLT PUSH2 0x4DE JUMPI PUSH2 0x157E PUSH2 0x194C JUMP JUMPDEST PUSH1 0x2 SLOAD SWAP2 PUSH1 0xFF DUP4 AND ISZERO PUSH2 0x15BE JUMPI PUSH32 0x5DB9EE0A495BF2E6FF9C91A7834C1BA4FDD244A5E8AA4E537BD38AEAE4B073AA PUSH1 0x20 DUP4 DUP6 PUSH1 0xFF NOT AND PUSH1 0x2 SSTORE MLOAD CALLER DUP2 MSTORE LOG1 STOP JUMPDEST SWAP1 MLOAD PUSH4 0x8DFC202B PUSH1 0xE0 SHL DUP2 MSTORE REVERT JUMPDEST POP CALLVALUE PUSH2 0x4DE JUMPI PUSH0 CALLDATASIZE PUSH1 0x3 NOT ADD SLT PUSH2 0x4DE JUMPI PUSH1 0xA0 SWAP1 PUSH1 0xB SLOAD SWAP1 PUSH1 0xC SLOAD SWAP1 PUSH1 0xD SLOAD PUSH1 0xE SLOAD SWAP2 PUSH1 0xF SLOAD SWAP4 DUP2 MLOAD SWAP6 DUP7 MSTORE PUSH1 0x20 DUP7 ADD MSTORE DUP5 ADD MSTORE PUSH1 0x60 DUP4 ADD MSTORE PUSH1 0x80 DUP3 ADD MSTORE RETURN JUMPDEST DUP4 CALLVALUE PUSH2 0x4DE JUMPI PUSH1 0x20 CALLDATASIZE PUSH1 0x3 NOT ADD SLT PUSH2 0x4DE JUMPI CALLDATALOAD PUSH1 0x1 PUSH1 0x1 PUSH1 0xA0 SHL SUB DUP2 AND SWAP1 DUP2 SWAP1 SUB PUSH2 0x4DE JUMPI PUSH2 0x1639 PUSH2 0x194C JUMP JUMPDEST PUSH12 0xFFFFFFFFFFFFFFFFFFFFFFFF PUSH1 0xA0 SHL PUSH1 0x3 SLOAD AND OR PUSH1 0x3 SSTORE PUSH0 DUP1 RETURN JUMPDEST PUSH1 0x4 CALLDATALOAD SWAP1 PUSH4 0xFFFFFFFF DUP3 AND DUP3 SUB PUSH2 0x4DE JUMPI JUMP JUMPDEST PUSH1 0xA0 DUP2 ADD SWAP1 DUP2 LT PUSH8 0xFFFFFFFFFFFFFFFF DUP3 GT OR PUSH2 0x1684 JUMPI PUSH1 0x40 MSTORE JUMP JUMPDEST PUSH4 0x4E487B71 PUSH1 0xE0 SHL PUSH0 MSTORE PUSH1 0x41 PUSH1 0x4 MSTORE PUSH1 0x24 PUSH0 REVERT JUMPDEST SWAP1 PUSH1 0x1F DUP1 NOT SWAP2 ADD AND DUP2 ADD SWAP1 DUP2 LT PUSH8 0xFFFFFFFFFFFFFFFF DUP3 GT OR PUSH2 0x1684 JUMPI PUSH1 0x40 MSTORE JUMP JUMPDEST PUSH1 0x12 SLOAD DUP2 LT ISZERO PUSH2 0x16EF JUMPI PUSH1 0x12 PUSH0 MSTORE PUSH32 0xBB8A6A4669BA250D26CD7A459ECA9D215F8307E33AEBE50379BC5A3617EC3444 ADD SWAP1 PUSH0 SWAP1 JUMP JUMPDEST PUSH4 0x4E487B71 PUSH1 0xE0 SHL PUSH0 MSTORE PUSH1 0x32 PUSH1 0x4 MSTORE PUSH1 0x24 PUSH0 REVERT JUMPDEST ISZERO PUSH2 0x170A JUMPI JUMP JUMPDEST PUSH1 0x40 MLOAD PUSH3 0x461BCD PUSH1 0xE5 SHL DUP2 MSTORE PUSH1 0x20 PUSH1 0x4 DUP3 ADD MSTORE PUSH1 0xF PUSH1 0x24 DUP3 ADD MSTORE PUSH15 0x13DB9B1E481AD9595C195C88189BDD PUSH1 0x8A SHL PUSH1 0x44 DUP3 ADD MSTORE PUSH1 0x64 SWAP1 REVERT JUMPDEST SWAP2 SWAP1 DUP3 SUB SWAP2 DUP3 GT PUSH2 0x174E JUMPI JUMP JUMPDEST PUSH4 0x4E487B71 PUSH1 0xE0 SHL PUSH0 MSTORE PUSH1 0x11 PUSH1 0x4 MSTORE PUSH1 0x24 PUSH0 REVERT JUMPDEST DUP2 DUP2 MUL SWAP3 SWAP2 DUP2 ISZERO SWAP2 DUP5 DIV EQ OR ISZERO PUSH2 0x174E JUMPI JUMP JUMPDEST DUP2 ISZERO PUSH2 0x177F JUMPI DIV SWAP1 JUMP JUMPDEST PUSH4 0x4E487B71 PUSH1 0xE0 SHL PUSH0 MSTORE PUSH1 0x12 PUSH1 0x4 MSTORE PUSH1 0x24 PUSH0 REVERT JUMPDEST SWAP2 SWAP1 DUP3 ADD DUP1 SWAP3 GT PUSH2 0x174E JUMPI JUMP JUMPDEST PUSH1 0x40 MLOAD PUSH4 0x70A08231 PUSH1 0xE0 SHL DUP2 MSTORE ADDRESS PUSH1 0x4 DUP3 ADD MSTORE PUSH1 0x20 DUP2 PUSH1 0x24 DUP2 PUSH32 0x0 PUSH1 0x1 PUSH1 0x1 PUSH1 0xA0 SHL SUB AND GAS STATICCALL DUP1 ISZERO PUSH2 0x1837 JUMPI PUSH0 SWAP1 PUSH2 0x1803 JUMPI JUMPDEST PUSH2 0x1800 SWAP2 POP PUSH1 0x13 SLOAD SWAP1 PUSH2 0x1793 JUMP JUMPDEST SWAP1 JUMP JUMPDEST POP PUSH1 0x20 DUP2 RETURNDATASIZE PUSH1 0x20 GT PUSH2 0x182F JUMPI JUMPDEST DUP2 PUSH2 0x181D PUSH1 0x20 SWAP4 DUP4 PUSH2 0x1698 JUMP JUMPDEST DUP2 ADD SUB SLT PUSH2 0x4DE JUMPI PUSH2 0x1800 SWAP1 MLOAD PUSH2 0x17F2 JUMP JUMPDEST RETURNDATASIZE SWAP2 POP PUSH2 0x1810 JUMP JUMPDEST PUSH1 0x40 MLOAD RETURNDATASIZE PUSH0 DUP3 RETURNDATACOPY RETURNDATASIZE SWAP1 REVERT JUMPDEST PUSH1 0x10 DUP1 SLOAD SWAP2 PUSH0 JUMPDEST DUP4 DUP2 LT PUSH2 0x1857 JUMPI POP POP POP ISZERO SWAP1 JUMP JUMPDEST DUP3 PUSH0 MSTORE PUSH4 0xFFFFFFFF DUP2 PUSH1 0x3 SHR PUSH0 DUP1 MLOAD PUSH1 0x20 PUSH2 0x1A13 DUP4 CODECOPY DUP2 MLOAD SWAP2 MSTORE ADD SLOAD SWAP1 DUP1 DUP5 AND SWAP2 PUSH1 0xE0 DUP5 PUSH1 0x5 SHL AND SHR AND EQ PUSH2 0x188E JUMPI PUSH1 0x1 ADD PUSH2 0x1849 JUMP JUMPDEST POP POP POP POP PUSH1 0x1 SWAP1 JUMP JUMPDEST PUSH1 0x40 MLOAD PUSH4 0x70A08231 PUSH1 0xE0 SHL DUP2 MSTORE ADDRESS PUSH1 0x4 DUP3 ADD MSTORE PUSH1 0x20 DUP2 PUSH1 0x24 DUP2 PUSH32 0x0 PUSH1 0x1 PUSH1 0x1 PUSH1 0xA0 SHL SUB AND GAS STATICCALL SWAP1 DUP2 ISZERO PUSH2 0x1837 JUMPI PUSH0 SWAP2 PUSH2 0x191A JUMPI JUMPDEST POP PUSH2 0x3E8 DUP1 DUP3 MUL SWAP1 DUP3 DUP3 DIV EQ DUP3 ISZERO OR ISZERO PUSH2 0x174E JUMPI PUSH2 0x2710 SWAP1 DIV DUP1 DUP3 GT ISZERO PUSH2 0x1914 JUMPI PUSH2 0x1800 SWAP2 PUSH2 0x1741 JUMP JUMPDEST POP POP PUSH0 SWAP1 JUMP JUMPDEST SWAP1 POP PUSH1 0x20 DUP2 RETURNDATASIZE PUSH1 0x20 GT PUSH2 0x1944 JUMPI JUMPDEST DUP2 PUSH2 0x1935 PUSH1 0x20 SWAP4 DUP4 PUSH2 0x1698 JUMP JUMPDEST DUP2 ADD SUB SLT PUSH2 0x4DE JUMPI MLOAD PUSH0 PUSH2 0x18EA JUMP JUMPDEST RETURNDATASIZE SWAP2 POP PUSH2 0x1928 JUMP JUMPDEST PUSH0 SLOAD PUSH1 0x1 PUSH1 0x1 PUSH1 0xA0 SHL SUB AND CALLER SUB PUSH2 0x195F JUMPI JUMP JUMPDEST PUSH1 0x40 MLOAD PUSH4 0x118CDAA7 PUSH1 0xE0 SHL DUP2 MSTORE CALLER PUSH1 0x4 DUP3 ADD MSTORE PUSH1 0x24 SWAP1 REVERT JUMPDEST PUSH1 0x2 PUSH1 0x1 SLOAD EQ PUSH2 0x1988 JUMPI PUSH1 0x2 PUSH1 0x1 SSTORE JUMP JUMPDEST PUSH1 0x40 MLOAD PUSH4 0x3EE5AEB5 PUSH1 0xE0 SHL DUP2 MSTORE PUSH1 0x4 SWAP1 REVERT JUMPDEST PUSH1 0xFF PUSH1 0x2 SLOAD AND PUSH2 0x19A6 JUMPI JUMP JUMPDEST PUSH1 0x40 MLOAD PUSH4 0xD93C0665 PUSH1 0xE0 SHL DUP2 MSTORE PUSH1 0x4 SWAP1 REVERT JUMPDEST SWAP1 PUSH0 PUSH1 0x20 SWAP2 DUP3 DUP2 MLOAD SWAP2 ADD DUP3 DUP6 GAS CALL ISZERO PUSH2 0x1837 JUMPI PUSH0 MLOAD RETURNDATASIZE PUSH2 0x1A09 JUMPI POP PUSH1 0x1 PUSH1 0x1 PUSH1 0xA0 SHL SUB DUP2 AND EXTCODESIZE ISZERO JUMPDEST PUSH2 0x19E7 JUMPI POP JUMP JUMPDEST PUSH1 0x40 MLOAD PUSH4 0x5274AFE7 PUSH1 0xE0 SHL DUP2 MSTORE PUSH1 0x1 PUSH1 0x1 PUSH1 0xA0 SHL SUB SWAP1 SWAP2 AND PUSH1 0x4 DUP3 ADD MSTORE PUSH1 0x24 SWAP1 REVERT JUMPDEST PUSH1 0x1 EQ ISZERO PUSH2 0x19E0 JUMP INVALID SHL PUSH9 0x47DC741A1B0CD08D27 DUP9 GASLIMIT 0xF9 0xD8 NOT 0xD8 PUSH28 0x734759AFB55FE2DE5CB82A9AE672A2646970667358221220E93459A1 CALLVALUE 0xAF GAS SLOAD SWAP3 REVERT 0xF6 0xDC STATICCALL EXP LOG3 PUSH11 0x50987F3A5C2C31DCB5E39D GAS 0x24 0x4E SWAP16 0xCB PUSH5 0x736F6C6343 STOP ADDMOD XOR STOP CALLER "},"methodIdentifiers":{"aiAgent()":"a6d5b732","authorizeTrade(uint32,bool,uint256,uint256,uint256,uint256,uint256)":"fbf114af","deposit(uint256)":"b6b55f25","depositToken()":"c89039c5","emergencyPause()":"51858e27","executeTradeConfirmation(bytes32,uint256,uint256)":"ca02588c","getAvailableCapital()":"b18ea2fa","getOraclePrice(uint32)":"2af78bd1","getVaultValue()":"62290822","highWaterMark()":"1e8410da","isAllowedAsset(uint32)":"6c92e587","keeperBot()":"12f3d4a2","lastPerformanceUpdate()":"30a55e0b","owner()":"8da5cb5b","paused()":"5c975abb","pendingAuthorizations(uint256)":"5d525afc","performance()":"a5f9392d","renounceOwnership()":"715018a6","resume()":"046f7da2","totalDeposits()":"7d882097","totalShares()":"3a98ef39","totalWithdrawals()":"60464627","tradeAuthorizations(bytes32)":"a0f72119","tradingConfig()":"02c19eb8","transferOwnership(address)":"f2fde38b","updateAIAgent(address)":"01b49c74","updateKeeperBot(address)":"afccebfa","updatePerformance(uint256,uint256)":"1444663e","updateTradingConfig((uint256,uint256,uint256,uint256,uint256,uint32[]))":"5c6b724d","userDeposits(address)":"0ba36dcd","userShares(address)":"de69b3aa","withdraw(uint256)":"2e1a7d4d"}}}}}